:1091710053B1FB43B20412843A128E4F127336126A
:1091810071A3126A4A1276371258771285E3128850
:109191003E1286B21288FA124FE9124BF61247FFBD
:0B91A1001255E912824112390C80CEF9
:1014E500332E35696E636820554E4F20544553544D
:1014F50000D7DBBACFB2E2CAD4B3CCD0F200332ED8
:10150500352220494C493934383820333230583463
:10151500383000424C205465737400524544200015
:10152500475245454E2000424C55452000B2E2CA7F
:10153500D4333ABED8D0CEB2E2CAD400B2E2CAD4CD
:10154500343AD4B2D0CEB2E2CAD400B2E2CAD4356B
:101555003A547269616E676C65B2E2CAD400B2E250
:10156500CAD4363AD3A2CEC4B2E2CAD40036583170
:10157500323A6162636465666768696A6B6C6D6E51
:101585006F707172737475767778797A0036583121
:10159500323A4142434445464748494A4B4C4D4EF1
:1015A5004F503031323334353637383900365831CB
:1015B500323A7E21402324255E262A28295F2B7B6B
:1015C5007D3A3C3E3F2F7C2D2B2E00385831363A44
:1015D5006162636465666768696A6B6C6D6E6F707E
:1015E5007172737475767700385831363A414243D3
:1015F5004445464748494A4B4C4D4E3031323334C9
:1016050035363700385831363A7E21402324255E59
:10161500262A28295F2B7B7D3A3C3E3F2F7C00B252
:10162500E2CAD4373AD6D0CEC4B2E2CAD4003136F3
:101635005831363ABBB6D3ADC4FA003136583136D7
:101645003A57656C636F6D650032345832343AD65B
:10165500D0CEC4B2E2CAD40033325833323AD7D6E8
:10166500CCE5B2E2CAD400B2E2CAD4383ACDBCC69F
:10167500ACB2E2CAD400515100526F746174696F03
:101685006E3A3000526F746174696F6E3A3930008A
:10169500526F746174696F6E3A31383000526F74ED
:1016A5006174696F6E3A32373000B2E2CAD4393AA2
:1016B500BDC7B6C8B2E2CAD400B2E2CAD431303A24
:1016C500546F756368B2E2CAD420200052535400A7
:1016D500B2E2CAD4323AB6C14944BACDD1D5C9ABC2
:1016E500D6B5B2E2CAD40049443A307825780072BA
:1016F50065616420636F6C6F723A307825303458B9
:1017050000B2E2CAD431313A475549204C6F616481
:10171500696E67004C6F6164696E672E2E2E2E2EE2
:1017250000B2E2CAD431323A47554920436F6D625F
:101735006F0053544D2049435020427269646765D8
:101745000053544D20505020427269646765004E25
:101755006F6E652049535000B2E2CAD431333A471F
:1017650055492050726F67726573426172005072FD
:101775006F67726573426172004F4B0043616E6320
:10178500656C002500537563636573732121210022
:10179500B2E2CAD431343A475549204261725265A2
:1017A500706F727400B2E2CAD431353A4755492098
:1017B50057696E646F7700B2E2CAD431363A47553D
:1017C5004920427574746F6E0053656172636800D9
:1017D5004E65777300506963004C6162656C005417
:1017E50068652041524D20436F727465782D4D20F8
:1017F500697320612067726F7570006F66203332E0
:101805002D62697420524953432041524D20707214
:101815006F636573736F7200636F726573206C69B4
:1018250063656E7365642062792041524D20486F6F
:101835006C64696E67732E0054686520636F72650A
:10184500732061726520696E74656E6465642066D7
:101855006F7220006D6963726F636F6E74726F6C67
:101865006C6572207573652C616E6420636F6E7391
:10187500697374006F662074686520436F727465C0
:10188500782D4D302F4D312F4D322F4D332F4D3477
:101895002E00FFFFFFFFFFFFFFFFFFFFFFFFFFFF23
:1018A500FFFFFFFFFFFFFFFFFFFFFFFFFFFFFFFF43
:1018B500BEF7FFFFDEFF38C6928C8E6B6E6B107C19
:1018C50096AD3CE7FFFFFFFFFFFFFFFFFFFFFFFFB9
:1018D500FFFFFFFFFFFFFFFFFFFFFFFFFFFFFFFF13
:1018E500FFFFFFFFFFFFFFFFFFFFFFFFFFFFFFFF03
:1018F500FFFFFFFFFFFFFFFFFFFFFFFFFFFFFFFFF3
:101905005DEF159D4F636C420A32882946192519EA
:101915004521E8318E6B38C6FFFFFFFFFFFFFFFF54
:10192500FFFFFFFFFFFFFFFFFFFFFFFFFFFFFFFFC2
:10193500FFFFFFFFFFFFFFFFFFFFFFFFFFFFFFFFB2
:10194500FFFFFFFFFFFFFFFFFFFFFFFFFFFF36A5C5
:101955001053104B51530F4B6C3AE9316721251940
:10196500E410A30862008308CB529AD6FFFFFFFF5D
:10197500FFFFFFFFFFFFFFFFFFFFFFFFFFFFFFFF72
:10198500FFFFFFFFFFFFFFFFFFFFFFFFFFFFFFFF62
:10199500FFFFFFFFFFFFFFFFFFFF3CE77063B36340
:1019A500B87CF56311434D32EA29882126190519BA
:1019B500051904110411E4108300A308728CFFFFBC
:1019C500FFFFFFFFFFFFFFFFFFFFFFFFFFFFFFFF22
:1019D500FFFFFFFFFFFFFFFFFFFFFFFFFFFFFFFF12
:1019E500FFFFFFFFFFFFFFFFDBDE4B3AF042356CE9
:1019F500544BB1322E2AEB21A9216719051904117F
:101A050004110411041104110519E4104200AF7307
:101A1500FFFFFFFFFFFFFFFFFFFFFFFFFFFFFFFFD1
:101A2500FFFFFFFFFFFFFFFFFFFFFFFFFFFFFFFFC1
:101A3500FFFFFFFFFFFF5DEF09324C32104B8F3286
:101A45004F2A2E2ACC1989198921471905190411FC
:101A55000411C410C410041104110411E41042004F
:101A65003184FFFFFFFFFFFFFFFFFFFFFFFFFFFFCA
:101A7500FFFFFFFFFFFFFFFFFFFFFFFFFFFFFFFF71
:101A8500FFFFFFFFFFFFEC5247194C320B2AEC21F9
:101A9500EC210C22915BEE4A061126190419E4107B
:101AA500E410A7296621A308051904110411E410FF
:101AB5008200F7BDFFFFFFFFFFFFFFFFFFFFFFFFF7
:101AC500FFFFFFFFFFFFFFFFFFFFFFFFFFFFFFFF21
:101AD500FFFFFFFF35A58308882188218921AA21D9
:101AE5008A216B42718CFFFF728C83080411C40834
:101AF5002942FBDE5DEFEC5A830804110411041141
:101B05008308E831DFFFFFFFFFFFFFFFFFFFFFFF58
:101B1500FFFFFFFFFFFFFFFFFFFFFFFFFFFFFFFFD0
:101B2500FFFFBEF7C731C4102519261947194719F4
:101B3500A8298A52284A55ADFFFFE831A30805199F
:101B45004D6B4D6BFFFF7DEF4521C4100411041152
:101B55000411620076ADFFFFFFFFFFFFFFFFFFFFF0
:101B6500FFFFFFFFFFFFFFFFFFFFFFFFFFFFFFFF80
:101B7500FFFF96B562000411041905110519C40883
:101B85008B4AB6B55DEFF7BDFFFF8E6B620029424C
:101B9500AA5A0842FFFFFFFFCC5283080411041123
:101BA5000411A308AD52FFFFFFFFFFFFFFFFFFFF7B
:101BB500FFFFFFFFFFFFFFFF1CE7FFFFFFFFFFFF2B
:101BC500FFFF4E636200041104110411E41062006A
:101BD5008E63FFFFFFFFFFFFFFFFCF730100F39C45
:101BE5002C6396B5FFFFFFFF2D5B830004110411E5
:101BF5000411E41067213DEFFFFFFFFFFFFFFFFF2B
:101C0500FFFFF8BDB7B59EEFCB52B394FFFFFFFFC3
:101C1500DFFFE831A3080411041104110411A3081E
:101C25004942FFF7FFF7FFFFFFFF6A4A0100728491
:101C3500FFFFFFFFFFF7DFEF093AA30804110411C7
:101C450004110411051118BEFFFFFFFFFFFFFFFF81
:101C5500FFFFF07B6200E831C731410035A5FFFF8A
:101C65005DEF4621C4100411041104110411E410A0
:101C7500A308769DFFF7FFFFB7ADA308A308C731FB
:101C85009EE7FFF7FFF776A5A308E41004110411FA
:101C950004110511051135A5FFFFFFFFFFFFFFFF2C
:101CA500FFFFDBDEA7298300C410C410C4101CE7A6
:101CB5009EEF0511E4100411041104110411041917
:101CC500C408E510D16BD16BC5086400A5084300B5
:101CD5002B32779DB3842519C41004110411041106
:101CE500041125192609359DFFFFFFFFFFFFFFFFA3
:101CF500FFFFFFFFAF7362000419051982000D5B3A
:101D05008E9B62100511041104110419E41085005D
:101D15000511C439815A407B229C43AC03A4839BA3
:101D250082728249C218A400C500E4100419041186
:101D3500051947196711EC5ABEFFFFFFFFFFFFFFAB
:101D4500FFFFDFFFDBDEC410E41004110511A4184A
:101D550001C08388E40005190419C508442143839B
:101D650023D542FEE4FE27FF07FFA4FE64FE03FE23
:101D7500A3FDE2FC42EC83B32462E510C408041918
:101D85002619A81987210090D3BCFFFFFFFFFFFF8D
:101D9500FFFFDFFFFFFF107C4200051905118328B7
:101DA50001D044F8A348E400C508445A02EDE2FD19
:101DB50002FE66FE74FFB8FF73FFE7F6A6F645F66A
:101DC500A4F5C3FC62FCC2FCC2FCE3CBC44906110A
:101DD50088198701A49001F8EC9AFFFFFFFFFFFF28
:101DE500FFFFFFFFFFFFBEF7E831830005098240D3
:101DF50001C023F885F0A348A400445A02FD23CC72
:101E0500C2DC04FE28FE48F646F624F6E4F564FD39
:101E1500E3FC62FCC2FC02E402DCE2FCA47A4801B9
:101E25006701C47824F802F884B07DE7FFFFFFFF5F
:101E3500FFFFFFFFFFFFFFFFDBDE2519A300C4380F
:101E450002E022D844F8A6F8A478630043218372FF
:101E55008339829B21F561FD22FDE2FCA2FC42FC57
:101E650042FC42FC22AB8341C39204522601251950
:101E7500A49844F823F802F8A4D09EEFFFFFFFFFD3
:101E8500FFFFFFFFFFFFFFFFFFFF9AD68729A50092
:101E950043B822F823E065F8E8F807C9834842000B
:101EA500A30084006329A27A62B3A2CB62D302BBEA
:101EB500828A8339A400E500E500E508C46064D89A
:101EC50044F824F823F802F88388DBC6FFFFFFFFF8
:101ED500FFFFFFFFFFFFFFFFFFFFFFFF3DE7505B3A
:101EE500083123E843F844F065F809F9ABF989D1DD
:101EF5000689A34842180200420061008200620080
:101F050062008300A320C450A58885D865F844F8ED
:101F150044F823F823F803D08210C7295DEFFFFFAB
:101F2500FFFFFFFFFFFFFFFFFFFFFFFFFFFFFFFFBC
:101F35006C32A53802D823F865F866F8A7F84AF98F
:101F45000CFA4DFA4CEA0BD2A9B968B147A927B1E9
:101F550007B907D1E7E8C7F8A7F865F865F844F8C1
:101F650023F803F802D0A3280509C408EC5AFFFF9B
:101F7500FFFFFFFFFFFFFFFFFFFFFFFFFFFFFBDE91
:101F85000519C400A741E6C003F886F8A7F887F845
:101F950086F8C7F829F98AF9ABF9ABF98BF96AF92B
:101FA50029F908F9C7F8A6F886F865F864F823F85A
:101FB50002F006B12529E400E41025192519149D20
:101FC500FFFFFFFFFFFFFFFFFFFFFFFFFFFF96ADD7
:101FD500620082083595BACE8BA244D025F887F8E1
:101FE500A7F8C7F8A7F887F886F886F886F887F877
:101FF500A7F8A7F8A6F885F865F864F824F064B89A
:102005000D93BBB6CF6383080411E4106621493AEA
:102015005DEFFFFFFFFFFFFFFFFFFFFFFFFFD39414
:102025004200E410BBCEFFFFBEE776B5CCAA07C1E0
:1020350045E045F846F866F886F886F886F886F8A5
:1020450065F845F865F865E844D043A801888290AD
:102055003CD7FFEF5595830804110411051946195E
:10206500B394FFFFFFFFFFFFFFFFFFFFFFFFB394E9
:10207500410086215DDFFFFFFFFFFFFFDFE77AC637
:10208500D3B44EB32AC268D1E6E0A6E8A5E8A5E830
:10209500E6D888C906A922A802A800A000C800D8C9
:1020A500F7E5FFE7F8ADC410E4100411E4100511DD
:1020B5008B4AFFFFFFFFFFFFFFFFFFFFFFFF55A558
:1020C5004100A7295DDFFFF7FFFFFFFFFFFFFFFFD0
:1020D500FFFFFFEF7DDFDBCE59CEF8CDD7CDF7C5BE
:1020E50079CEFBBEABA203F045F842D043E800F041
:1020F50072D4FFDF39AEE410E4100411E4100511C9
:102105008729FFFFFFFFFFFFFFFFFFFFFFFF59CEFF
:10211500830846211CD7FFF7FFFFFFFFFFFFFFFFE7
:10212500FFFFFFFFFFFFFFFFFFFFFFFFFFFFFFFFBA
:10213500FFFFFFEF8BBA04F845F862E044F000F8C2
:102145008EDBFFDFF8A5C410E410E4100411E410E1
:102155002519FFFFFFFFFFFFFFFFFFFFFFFFBEF793
:102165008729830839B6FFF7DFF7FFFFFFFFFFFF7A
:10217500FFFFFFFFFFFFFFFFFFFFFFFFFFFFFFFF6A
:10218500FFFFBEE74ABA03F845F864F844F800F8DB
:102195006EE3FFD7F48C83080411E410E410E41017
:1021A5000519FFFFFFFFFFFFFFFFFFFFFFFFFFFF1A
:1021B500EF7300007284FFEFBEEFDFFFFFFFFFFF4D
:1021C500FFFFFFFFFFFFFFFFFFFFFFFFFFFFFFFF1A
:1021D500FFFFDFE78BBA03F845F845F823F800F869
:1021E500D3D4FFD74E5B2100293A55A58308C410E7
:1021F5002519FFFFFFFFFFFFFFFFFFFFFFFFFFFFAA
:10220500FBDEA308E8319EDF9EE7BFEFFFFFFFFF80
:10221500FFFFFFFFFFFFFFFFFFFFFFFFFFFFFFFFC9
:10222500FFFFFFF751BC02E003F803F043E0ECC207
:102235007ECFFCBE46212100D394FFFF51840000D0
:102245008729FFFFFFFFFFFFFFFFFFFFFFFFFFFFE7
:10225500FFFF51840000F48CFFEF9EE7BFEFDFFF27
:10226500FFFFFFFFFFFFFFFFFFFFFFFFFFFFFFFF79
:10227500FFFFFFFF3DDF55BD52BC72BCB7B55DC763
:10228500FFDFF06B0000093ABFF7FFFFFFFF149D6A
:1022950055A5FFFFFFFFFFFFFFFFFFFFFFFFFFFF4D
:1022A500FFFFFFFFAC4AA408BBBEDFE77EE7BEEF3A
:1022B500DFF7DFFFFFFFFFFFFFFFFFFFFFFFFFFF71
:1022C500FFFFDFFFDFF7FFEFDFDFBFD79ED7DFDFE2
:1022D500D8A583082611DBD6FFFFFFFFFFFFFFFF11
:1022E500FFFFFFFFFFFFFFFFFFFFFFFFFFFFFFFFF9
:1022F500FFFF79EE8BDC2131A9213DCFBFDF7EDFEA
:102305009EE7BEEFBFEFDFF7DFF7DFF7DFF7DFF7BA
:10231500BFEFBEEF9EE77EDF5ED75ED7DFDF9AB603
:1023250026194208EDA3BFFFFFFFFFFFFFFFFFFFD9
:10233500FFFFFFFFFFFFFFFFFFFFFFFFFFFFFFFFA8
:1023450074DDC0DB00FE42EE024289217BB6DFDF91
:102355007ED77EDF7EDF9EE79EE79EE79EE79EE7D0
:102365007EDF7EDF5DD75DD79EDFFFE7F8A507112E
:10237500E31802C560FDE6D3DBEEFFFFFFFFFFFFBD
:10238500FFFFFFFFFFFFFFFFFFFFFFFFFFFF9EF7C1
:1023950084BAC1FC42FE82FEA2FE8183452174748B
:1023A5005EC7DFDF7ED75ED75DD75ED75ED75DD7E9
:1023B5005DD75ED79EDFFFE73DC7F16384084252D4
:1023C50026E629FF86FEE0F36AC3FFFFFFFFFFFF56
:1023D500FFFFFFFFFFFFFFFFFFFFFFFFFFFF18DE10
:1023E500C1D2A2FD22FE42FE42FE62FEE2D4416A55
:1023F500494253743BA63EC7BFD7BFD7BFD7BFDF40
:10240500BFD73EC71AA6F263A729824122B462FE4E
:1024150083FEAAFE0FFF67FD63BA3CEFFFFFFFFFD8
:10242500FFFFFFFFFFFFFFFFFFFFFFFFFFFF9AE635
:1024350080D221FDC2FDE2F5C2F582F582FD62FD85
:1024450061DC219B846AE96A2C63AF6311746E6356
:102455002C63895A0452817AC2CBE2FC62FD82FD6B
:10246500C2FDC2FDE4FD24FD62CA1CE7FFFFFFFFBC
:10247500FFFFFFFFFFFFFFFFFFFFFFFFFFFFFFFF67
:10248500B1CC81D2C0F3C1FC02FD02FDE2FCC2FC6D
:10249500C2FC81FC80FBC0C9A48135AD59CE719CBD
:1024A500218100DAA1FB82FCA2FC82FCA2FC02FDD8
:1024B50022FDE2FC00FC60DA90CCFFFFFFFFFFFF8E
:1024C500FFFFFFFFFFFFFFFFFFFFFFFFFFFFFFFF17
:1024D500FFFF59DE0DC406CBE4D203DB03DBE3DAF1
:1024E500C3D2A4C209B3D2BC9EF7FFFFFFFFFFFF13
:1024F500FBE60EB4A6BA83D2E3E202EB22EB22E3BB
:1025050003DBE4D26AC3B6D5FFFFFFFFFFFFFFFF82
:10251500FFFFFF167EFF1689FF1695FF16A2000026
:1025250000000000000000000000000000000000A6
:0C2535000000000000000000000000009A
:109132004A00CEF80007E0001FFFE0F81F5000BE13
:10914200F800F81F07E001CF001F0000841F000095
:06834E007BFF7A1679BEE8
:10835400900021EBF0A3EAF0A3E9F074FFFFFE1212
:108364008A449000DDE024FFFB9000DCE034FFFA57
:1083740090002FE4F0A37414F0A3E4F0A3741FF0AE
:10838400E4FDFCFFFE127CDC9000DFE024ECFD90B9
:1083940000DEE034FFFC9000DDE024FFFB9000DC15
:1083A400E034FFFA9000DFE024FFFE9000DEE034CA
:1083B400FF90002FF0A3CEF0A3E4F0A3741FF0E429
:1083C400FFFE127CDC74FF9000D8F0A3F090002A2A
:1083D400E4F0A3741FF0900021E0F9A3E0FAA3E015
:1083E40090002CC9F0A3EAF0A3E9F0A37410F0A361
:1083F4007401F074FFFBFA7D027C00E4FFFE128A34
:10840400DA9000DFE024EEFD9000DEE034FFFC9023
:10841400002AE4F0A3741FF0A374FFF0A37414F013
:10842400A374E5F0A37410F0A37401F074FFFBFAD5
:06843400E4FFFE028ADAFB
:108E4F0074FFFFFE128A4490002AE4F0A3741FF00F
:108E5F00A374FFF0A37414F0A374F6F0A37410F0CE
:108E6F00A37401F07B007AF87D3C7C00E4FFFE12D6
:108E7F008ADA90002AE4F0A3741FF0A374FFF0A322
:108E8F007415F0A37403F0A37410F0A37401F07BB6
:108E9F001F7AF87D5A7C00E4FFFE128ADA7FDC7EAF
:0B8EAF000512929C7FDC7E0502929C65
:1071A3009000DDE024FFFB9000DCE034FFFA900068
:1071B300DFE024FFFE9000DEE034FF90002FF0A319
:1071C300CEF074FFA3F0A3F0E4FDFCFFFE127CDC21
:1071D30090003774FFF0A374E0F0A374FFF0A3747E
:1071E30015F0A37418F0A37410F0A37401F07B1FBF
:1071F3007A007D1E7C007F147E001253487F207E20
:107203000312929C9000DDE024FFFB9000DCE0344D
:10721300FFFA9000DFE024FFFE9000DEE034FF90F1
:10722300002FF0A3CEF0A374F8F0A3E4F0FDFCFF6D
:10723300FE127CDC90003774FFF0A374E0F0A374BB
:10724300FFF0A37415F0A37420F0A37410F0A374DB
:1072530001F07B1F7A007D1E7C007F147E00125399
:10726300487F207E0312929C9000DDE024FFFB9078
:1072730000DCE034FFFA9000DFE024FFFE9000DE44
:10728300E034FF90002FF0A3CEF0A37407F0A374B3
:10729300E0F0E4FDFCFFFE127CDC90003774FFF0AD
:1072A300A374E0F0A374FFF0A37415F0A37425F0A6
:1072B300A37410F0A37401F07B1F7A007D1E7C0081
:1072C3007F147E001253487F207E0312929C90000D
:1072D300DDE024FFFB9000DCE034FFFA9000DFE008
:1072E30024FFFE9000DEE034FF90002FF0A3CEF0E9
:1072F300A3E4F0A3741FF0E4FDFCFFFE127CDC901A
:10730300003774FFF0A374E0F0A374FFF0A37415C7
:10731300F0A3742CF0A37410F0A37401F07B007A33
:10732300F87D1E7C007F147E001253487F207E036D
:0373330002929C27
:106A4A00E4900000F07BFF7A1579321283549000AB
:106A5A00DDE024FFFB9000DCE034FFFA9000DFE089
:106A6A0024ECFE9000DEE034FF90002FF0A3CEF07D
:106A7A0074FFA3F0A3F07D147C00E4FFFE127CDC1B
:106A8A00E4900000F0900000E0FD25E024CEF582BD
:106A9A00E43400F583E0FFA3E09000D8CFF0A3EF41
:106AAA00F09000DCE0C313FEA3E01324B0FBEE3445
:106ABA00FFFAED75F00FA4FDACF02BFFEC3AFEC027
:106ACA0006C007A3E0C313FEA3E01324B0FFEE340D
:106ADA00FFCF2DFDEF3CFCC004C0059000DCE0C3F5
:106AEA0013FCA3E013FD900000E0F975F00FA42D4C
:106AFA00FFE5F03CCF24ECFBEF34FFFA9000DEE038
:106B0A00C313FCA3E013FDE975F00FA42DFFE5F014
:106B1A003CCF24ECCF34FF900007F0A3EFF0D00570
:106B2A00D004D007D00612899F900000E004F0E05C
:106B3A00C394055003026A8F7FDC7E0512929C90F3
:106B4A0000DDE024FFFB9000DCE034FFFA9000DF78
:106B5A00E024ECFE9000DEE034FF90002FF0A3CE9C
:106B6A00F074FFA3F0A3F07D147C00E4FFFE127C16
:106B7A00DCE4900000F0900000E0FD25E024CEF572
:106B8A0082E43400F583E0FFA3E09000D8CFF0A3BD
:106B9A00EFF09000DCE0C313FEA3E01324B0FBEE99
:106BAA0034FFFAED75F00FA4FDACF02BFFEC3AFEC2
:106BBA00C006C007A3E0C313FEA3E01324B0FFEE90
:106BCA0034FFCF2DFDEF3CFCC004C0059000DCE093
:106BDA00C313FCA3E013FD900000E0F975F00FA4C5
:106BEA002DFFE5F03CCF24ECFBEF34FFFA9000DEFA
:106BFA00E0C313FCA3E013FDE975F00FA42DFFE534
:106C0A00F03CCF24ECCF34FF900027F0A3EFF0D074
:106C1A0005D004D007D0061292E8900000E004F0F4
:106C2A00E0C394055003026B807FDC7E0502929CD0
:10763700E4900000F07BFF7A1579411283549000A3
:10764700DDE024FFFB9000DCE034FFFA9000DFE090
:1076570024ECFE9000DEE034FF90002FF0A3CEF084
:1076670074FFA3F0A3F07D147C00E4FFFE127CDC22
:10767700E4900000F09000DCE0C313FEA3E01324C5
:10768700B0FDEE34FFFC900000E0F975F019A4FBA3
:10769700AAF02DFFEA3CFEC006C0079000DEE0C35B
:1076A70013FEA3E01324CEFFEE34FFCF2BFDEF3AFA
:1076B700FCE925E024CEF582E43400F583E0FAA363
:1076C700E0FB900007E4F0A3741EF0E4A3F0A3F03E
:1076D700D007D006126854900000E004F0E0C3948D
:1076E7000540927FDC7E0512929C9000DDE024FF2E
:1076F700FB9000DCE034FFFA9000DFE024ECFE9022
:1077070000DEE034FF90002FF0A3CEF074FFA3F06B
:10771700A3F07D147C00E4FFFE127CDCE490000003
:10772700F09000DCE0C313FEA3E01324B0FDEE34B9
:10773700FFFC900000E0F975F019A4FBAAF02DFFFB
:10774700EA3CFEC006C0079000DEE0C313FEA3E0DC
:107757001324CEFFEE34FFCF2BFDEF3AFCE925E0F3
:1077670024CEF582E43400F583E0FAA3E0FB900031
:1077770007E4F0A3741EF0A3E4F0A304F0D007D04D
:1077870006126854900000E004F0E0C394054091AD
:077797007FDC7E0502929CDD
:10587700E4900000F07BFF7A157950128354900072
:10588700DDE024FFFB9000DCE034FFFA9000DFE06E
:1058970024ECFE9000DEE034FF90002FF0A3CEF062
:1058A70074FFA3F0A3F07D147C00E4FFFE127CDC00
:1058B700E4900000F0900000E0F9C3940540030273
:1058C70059BDE925E024CEF582E43400F583E0FFF5
:1058D700A3E09000D8CFF0A3EFF09000DCE0C31373
:1058E700FAA3E013FB24B0FDEA34FFFCE975F014DA
:1058F700A42DFFE5F03CFEC006C007A3E0C313FEDE
:10590700A3E01324ECFDEE34FFFCE975F00FA42DA2
:10591700FDE5F03CFCC004C005EB24CDFDEA34FFF7
:10592700FCE975F014A42DFBE5F03CFAC002C003B6
:105937009000DEE0C313FEA3E01324B7FDEE34FFAF
:10594700FCE975F00FA42DFDE5F03CFCC005C00493
:105957009000DCE0C313FEA3E01324EBFDEE34FF5D
:10596700FCE975F014A42DFDE5F03CFCA3E0C3139E
:10597700FEA3E01324ECFBEE34FFFAE975F00FA465
:105987002BFEE5F03A90000BF0A3CEF0900009EC67
:10599700F0A3EDF0900007D0E0F0A3D0E0F0D00343
:1059A700D002D005D004D007D006128DDE900000BB
:1059B700E004F00258BC7FDC7E0512929C9000DD6B
:1059C700E024FFFB9000DCE034FFFA9000DFE024E6
:1059D700ECFE9000DEE034FF90002FF0A3CEF074D1
:1059E700FFA3F0A3F07D147C00E4FFFE127CDCE44F
:1059F700900000F0900000E0F9C394054003025ABC
:105A0700FCE925E024CEF582E43400F583E0FFA32A
:105A1700E09000D8CFF0A3EFF09000DCE0C313FADA
:105A2700A3E013FB24B0FDEA34FFFCE975F014A4EE
:105A37002DFFE5F03CFEC006C007A3E0C313FEA39D
:105A4700E01324ECFDEE34FFFCE975F00FA42DFD07
:105A5700E5F03CFCC004C005EB24CDFDEA34FFFCB7
:105A6700E975F014A42DFBE5F03CFAC002C00390E1
:105A770000DEE0C313FEA3E01324B7FDEE34FFFC02
:105A8700E975F00FA42DFDE5F03CFCC005C00490BE
:105A970000DCE0C313FEA3E01324EBFDEE34FFFCB0
:105AA700E975F014A42DFDE5F03CFCA3E0C313FE5B
:105AB700A3E01324ECFBEE34FFFAE975F00FA42BF7
:105AC700FEE5F03A90000BF0A3CEF0900009ECF061
:105AD700A3EDF0900007D0E0F0A3D0E0F0D003D022
:105AE70002D005D004D007D006123E82900000E015
:0C5AF70004F00259FB7FDC7E0502929C4B
:1085E3007BFF7A1579631283549000D874F8F0A353
:1085F300E4F09000DAF0A3741FF090000574FFF02C
:10860300A37415F0A37472F0E4A3F07B0C7D1EFC3D
:108613007F0AFE12877C90000574FFF0A37415F0A7
:10862300A37492F0A37401F07B0C7D2D7C007F0A70
:108633007E0012877C90000574FFF0A37415F0A3ED
:1086430074B2F0E4A3F07B0C7D3CFC7F0AFE12873E
:108653007C90000574FFF0A37415F0A374D0F0E4CC
:10866300A3F07B107D50FC7F0AFE12877C900005EF
:1086730074FFF0A37415F0A374EDF0A37401F07B01
:10868300107D647C007F0A7E0012877C9000057455
:10869300FFF0A37416F0A37409F0E4A3F07B107D3C
:0F86A30078FC7F0AFE12877C7FB07E0402929CD7
:10883E007BFF7A16792412835490003774FFF0A3CD
:10884E0074E0F0A374FFF0A37416F0A37433F0A3D6
:10885E007410F0E4A3F07B1FFA7D1EFC7F0AFE125B
:10886E00534890003774FFF0A374E0F0A374FFF048
:10887E00A37416F0A37440F0A37410F0E4A3F07B7D
:10888E001FFA7D32FC7F0AFE12534890003774FFA8
:10889E00F0A374E0F0A374FFF0A37416F0A3744E6B
:1088AE00F0A37418F0A37401F07B1F7A007D467C50
:1088BE00007F0A7E0012534890003774FFF0A374B5
:1088CE00E0F0A374FFF0A37416F0A3745DF0A3742C
:1088DE0020F0A37401F07B1F7A007D647C007F0A78
:0C88EE007E001253487FB07E0402929C72
:1086B2007BFF7A16796C1283547BFF7A1879977D47
:1086C2001E7C007F1E7E0012851090003774FFF022
:1086D200A374E0F0A374FFF0A37416F0A3747BF00C
:1086E200A37410F0A37401F07B1F7A007D4B7C0011
:1086F2007F2A7E001253487BFF7A1879977D1E7C71
:10870200007F5A7E0012851090003774FFF0A37428
:10871200E0F0A374FFF0A37416F0A3747BF0A374CB
:1087220010F0A37401F07B1F7A007D4B7C007F6602
:108732007E001253487BFF7A1879977D1E7C007F5A
:10874200967E0012851090003774FFF0A374E0F05B
:10875200A374FFF0A37416F0A3747BF0A37410F05B
:10876200A37401F07B1F7A007D4B7C007FA27E0008
:0A8772001253487FB07E0402929C6F
:1088FA00E4900000F078017C007D017BFF7A257905
:10890A0017FE7F0C1235E6E4900000F0900000E0BC
:10891A00FFC39404507A128BF87BFF7A1679AF1250
:10892A008354900000E075F003A42401F582E43436
:10893A0000F583E0F9A3E0FAA3E0900039C9F0A3B7
:10894A00EAF0A3E9F090003774FFF0A374E0F09026
:10895A00003C7410F0A37401F07B1F7A007D1E7C2A
:10896A00007F147E001253487BFF7A1879977D3274
:10897A007C007F1E7E001285107FE87E0312929C87
:10898A007FE87E0312929C900000E004F0028916B0
:05899A00E4FF028BF870
:1061CC00E4900111F0A3F0A3F0A3F0A3F012834E1E
:1061DC009000DDE024E8FF9000DCE034FFFE90004E
:1061EC000574FFF0A37416F0A374D1F0A37401F03E
:1061FC007B10E4FDFC12877C9000DCE0FCA3E0FD4E
:10620C0024CCFFEC34FFFEED24E2FBEC34FFFA90DF
:10621C00002FE4F0A37412F0A374F8F0A3E4F07D63
:10622C0002FC127CDC9000D874F8F0A3E4F0127D30
:10623C00D5EF70030264049000DCE0FEA3E0FF9055
:10624C0000EFE0FCA3E0FDC39FEC9E50E19000DE6C
:10625C00E0FEA3E0FF9000F1E0FAA3E0FBC39FEAAD
:10626C009E50CB9000DDE024E8FF9000DCE034FF92
:10627C00FED3ED9FEC9E407BEB9410EA94005073A0
:10628C0012834E9000DDE024E8FF9000DCE034FF48
:10629C00FE90000574FFF0A37416F0A374D1F0A364
:1062AC007401F07B10E4FDFC12877C900114E0FF7C
:1062BC00A3E09000D8CFF0A3EFF09000DCE0FCA3BB
:1062CC00E0FD24CCFFEC34FFFEED24E2FBEC34FFCC
:1062DC00FA90002FE4F0A37412F09000D8E0FDA324
:1062EC00E0900031CDF0A3EDF07D027C00127CDC5F
:1062FC0002623A9000DCE0FEA3E0FF24C4FDEE3421
:10630C00FFFC9000EFE0FAA3E0FBD39DEA9C500366
:10631C000263E8EF24E2FFEE34FFFEC3EB9FEA9E3C
:10632C0040030263E8C39000F2E094149000F1E0A3
:10633C00940040030263E89000DCE0FCA3E0FD2441
:10634C00CCFFEC34FFFEC006C007ED24E2FBEC34BE
:10635C00FFFA90002FE4F0A37412F0900112E0FE0B
:10636C00A3E0FF7C007D05123676ED25E0FFEC33D3
:10637C00FE74CE2FF58274003EF583E0FFA3E0900F
:10638C000031CFF0A3EFF0D007D0067D027C0012D5
:10639C007CDC900112E475F0011236E1AFF0FE7C6A
:1063AC00007D05123676ED25E0FFEC33FE74CE2F22
:1063BC00F58274003EF583E0FFA3E09000D8CFF0A7
:1063CC00A3EFF09000D8E0FFA3E0900114CFF0A36E
:1063DC00EFF07F0A7E0012929C02623A9000EFE08E
:1063EC00FEA3E0FFA3E0FCA3E0FD9000D8E0FAA33D
:1063FC00E0FB128D6A02623A7F0A7E0012929C02C6
:02640C00623AF2
:1073360078027C007D017BFF7A2579237E007F0A17
:107346001235E6780D7C007D017BFF7A25792D7E4E
:10735600007F141235E67BFF7A1679D51283549096
:1073660000DDE024FFFB9000DCE034FFFA9000DF54
:10737600E024ECFE9000DEE034FF90002FF0A3CE78
:10738600F074FFA3F0A3F07D147C00E4FFFE127CF2
:10739600DC1291E490002474FFF0A37416F0A37439
:1073A600ECF0A3EEF0A3EFF07B017A007902124332
:1073B600E190003774FFF0A374E0F0A37401F0A32A
:1073C6007400F0A37402F0A37410F0A37401F07BB0
:1073D6001F7A007D197C007F327E00125348E490AC
:1073E600000CF090000CE0FFC3940740030274B455
:1073F600EF25E024BEF582E43400F583E0FDA3E04A
:107406009000D8CDF0A3EDF0EF75F019A4FFAEF023
:10741600242DFDE43EFCEF2441FFE43E900027F0DE
:10742600A3EFF07B327A007F1E7E001292E8900076
:107436000CE075F019A42437FDE435F0FC7F287EB6
:1074460000129068900000EEF0A3EFF09000247414
:10745600FFF0A37416F0A374F4F0A3EEF0A3EFF01C
:107466007B017A00790D1243E190000CE075F0196A
:10747600A4242FFDE435F0FC90003774FFF0A374CC
:10748600E0F0A37401F0A37400F0A3740DF0A374EC
:1074960010F0A37401F09000D8E0FAA3E0FB7F3C63
:1074A6007E0012534890000CE004F00273E97FDC82
:0574B6007E0502929C1E
:104FE9009000DCE0C313A3E013900000F09000DE12
:104FF900E0C313A3E013900001F0A37414F0E0756B
:10500900F007A4FFAEF07C007D0A123676A3EFF01C
:10501900A37464F07BFF7A1779061283549000DD3C
:10502900E024FFFB9000DCE034FFFA9000DFE0248D
:10503900ECFE9000DEE034FF90002FF0A3CEF0E408
:10504900A3F0A3F07D14FCFFFE127CDC74FF90003A
:10505900D8F0A3F0E49000DAF0A3F09000DDE024AA
:10506900A0FF9000DCE034FFC313FEEF13FFC0067E
:10507900C0079000DEE0C313FEA3E013FF90000217
:10508900E07C002FFFEC3ECF240AFDE43FFCE490D6
:105099000037F0A3F0A374FFF0A37417F0A37419F9
:1050A900F0A37410F0A37401F0D007D00674FFFBCD
:1050B900FA125348E4900005F0900000E0FF7E00EA
:1050C900900002E0FD900001E0C39DFDE49400FC26
:1050D90074FFFBFA1274BB900004E0FF7E00129289
:1050E9009C900003E0FDFF900000E02FFFE433FEF9
:1050F900A3E0C39DFDE49400FC74FFFBFA1274BBAA
:10510900900004E0FF7E0012929C900000E0FF7E78
:1051190000900002E0FD900001E0C39DFDE49400D1
:10512900FCE4FBFA1274BB900004E0FF7E001292CB
:105139009C900002E0FF900000E02FFFE433FEA303
:10514900E0FD7C0074FFFBFA1274BB900004E0FFE1
:105159007E0012929C900003E0FDFF900000E02F7A
:10516900FFE433FEA3E0C39DFDE49400FCE4FBFAF5
:105179001274BB900004E0FF7E0012929C90000321
:10518900E0FDFF900000E02FFFE433FEA3E02DFDDA
:10519900E433FC74FFFBFA1274BB900004E0FF7E59
:1051A9000012929C900002E0FF900000E02FFFE4C3
:1051B90033FEA3E0FD7C00E4FBFA1274BB9000040B
:1051C900E0FF7E0012929C900000E0FF7E009000BC
:1051D90002E0FD900001E02DFDE433FC74FFFBFAD1
:1051E9001274BB900004E0FF7E0012929C900003B1
:1051F900E0FDFF900000E02FFFE433FEA3E02DFD6A
:10520900E433FCE4FBFA1274BB900004E0FF7E0077
:1052190012929C900003E0FDFF900000E0C39FFF05
:10522900E49400FEA3E02DFDE433FC74FFFBFA12C5
:1052390074BB900004E0FF7E0012929C900000E095
:10524900FF7E00900002E0FD900001E02DFDE433B7
:10525900FCE4FBFA1274BB900004E0FF7E0012929A
:105269009C900002E0FF900000E0C39FFFE49400DF
:10527900FEA3E0FD7C0074FFFBFA1274BB900004EE
:10528900E0FF7E0012929C900003E0FDFF90000079
:10529900E0C39FFFE49400FEA3E02DFDE433FCE4AA
:1052A900FBFA1274BB900004E0FF7E0012929C90FE
:1052B9000003E0FDFF900000E0C39FFFE49400FEBF
:1052C900A3E0C39DFDE49400FC74FFFBFA1274BBD8
:1052D900900004E0FF7E0012929C900002E0FF9093
:1052E9000000E0C39FFFE49400FEA3E0FD7C00E41E
:1052F900FBFA1274BB900004E0FF7E0012929C90AE
:105309000003E0FDFF900000E0C39FFFE49400FE6E
:10531900A3E0C39DFDE49400FCE4FBFA1274BB9086
:105329000004E0FF7E0012929C900005E004F0E08A
:0F533900C3940250030250C27FDC7E0502929C97
:104BF6007BFF7A1779261283549000DDE024FFFBB1
:104C06009000DCE034FFFA9000DFE024ECFE900038
:104C1600DEE034FF90002FF0A3CEF0A37484F0A35F
:104C26007430F07D147C00E4FFFE127CDC90001AE8
:104C3600E4F0A37449F07BC87A007D327C007F32B1
:104C46007E0012640E90001AE4F0A37447F07BC64F
:104C56007A007D347C007FB37E00128CF17D347C3B
:104C6600007FB37E001278F57FF47E0112929C7F5E
:104C7600F47E0112929C7FF47E0112929C900004B5
:104C8600E4F0A37447F07BC67D347C007FB3126FDB
:104C9600EA90002FE4F0A37443F0A374C6F0A37463
:104CA60018F07BC27A007D387C007FB77E00127CCC
:104CB600DC7D357C007FB47E001278F57FF47E01C2
:104CC60012929C7FF47E0112929C7FF47E011292D6
:104CD6009C900021E4F0A37447F07BC67D347C00F1
:104CE6007FB37E00126E2A90002FE4F0A37443F087
:104CF600A374C6F0A37418F07BC27A007D387C00DA
:104D06007FB77E00127CDC7D347C007FB37E001290
:104D160078F5E49000D8F0A3F0900007F0A3748F24
:104D2600F07BC87A007D4A7C007F327E0012899F24
:104D360090002FE4F0A3748EF074FFA3F0A3F07B31
:104D4600C77A007D4B7C007F337E00127CDC9000AE
:104D56002FE4F0A37461F0A37401F0A374CFF07B89
:104D6600C77A007D4B7C007F337E00127CDC74FFAB
:104D76009000D8F0A3F09000DA7401F0A374CFF09D
:104D86009000377401F0A374CFF0A374FFF0A374FE
:104D960017F0A37437F0A37410F0A37401F074FF36
:104DA600FBFA7D4F7C007F357E00125348E490006D
:104DB600D8F0A3F074FF9000DAF0A3F0900037F07B
:104DC600A3F0A3F0A37417F0A37446F0A37410F035
:104DD600A37401F0E4FBFA7D65FC7F35FE125348AF
:104DE6009000DAE0FFA3E0900037CFF0A3EFF0A346
:104DF60074FFF0A37417F0A37454F0A37410F0A317
:104E06007401F09000D8E0FAA3E0FB7D7C7C007F83
:104E1600357E001253487FF47E0112929C7FF47E09
:104E26000112929C7FF47E0112929C90002FE4F076
:104E3600A37461F074FFA3F0A3F07BC77A007D4BE7
:104E46007C007F337E00127CDCE49000D8F0A3F077
:104E560074FF9000DAF0A3F0900037F0A3F0A3F00F
:104E6600A37417F0A37437F0A37410F0A37401F0C1
:104E7600E4FBFA7D4FFC7F35FE12534890002FE489
:104E8600F0A37478F0A37401F0A374CFF07BC77A13
:104E9600007D627C007F337E00127CDC74FF900014
:104EA600D8F0A3F09000DA7401F0A374CFF090006C
:104EB600377401F0A374CFF0A374FFF0A37417F056
:104EC600A37446F0A37410F0A37401F074FFFBFA08
:104ED6007D657C007F357E001253487FF47E01128B
:104EE600929C7FF47E0112929C7FF47E0112929C2A
:104EF60090002FE4F0A37478F074FFA3F0A3F07B86
:104F0600C77A007D627C007F337E00127CDCE490F1
:104F160000D8F0A3F074FF9000DAF0A3F090003709
:104F2600F0A3F0A3F0A37417F0A37446F0A37410D3
:104F3600F0A37401F0E4FBFA7D65FC7F35FE1253A5
:104F46004890002FE4F0A3748EF0A37401F0A374CC
:104F5600CFF07BC77A007D797C007F337E00127CA0
:104F6600DC74FF9000D8F0A3F09000DA7401F0A38F
:104F760074CFF09000377401F0A374CFF0A374FFE0
:104F8600F0A37417F0A37454F0A37410F0A3740183
:104F9600F074FFFBFA7D7C7C007F357E001253485F
:104FA6007FF47E0112929C7FF47E0112929C7FF424
:104FB6007E0112929C7FF47E0112929C90002FE457
:104FC600F0A3748FF0A37484F0A37430F07BC87AD6
:104FD600007D4A7C007F327E00127CDC7FDC7E0511
:034FE60002929C98
:1047FF009000017401F0A3E4F0A37414F0A3E4F0AB
:10480F00A3741EF0A3E4F0A37496F0A3E4F0A374D2
:10481F0082F07BFF7A17795D1283549000DDE024DC
:10482F00FFFB9000DCE034FFFA9000DFE024ECFEA9
:10483F009000DEE034FF90002FF0A3CEF074FFA3C2
:10484F00F0A3F07D147C00E4FFFE127CDC900004EA
:10485F00E0FCA3E0FDA3E0FAA3E0FBA3E0FFA3E0ED
:10486F0090001ACFF0A3EFF0900002E0FEA3E0FF5C
:10487F00128CF1900003E02403FF900002E034005B
:10488F00FEC006C007900005E02403FD900004E081
:10489F003400FC900007E024FDFB900006E034FF9D
:1048AF00FA900008E0FEA3E024B5FFEE34FF90007D
:1048BF002FF0A3EFF0A37401F0A374CFF0D007D0C3
:1048CF0006127CDC900003E02419FF900002E03414
:1048DF0000FE900005E02405FD900004E03400FC8C
:1048EF009000DAE0FBA3E0900037CBF0A3EBF0A34E
:1048FF0074FFF0A37417F0A37473F0A37410F0A3F4
:10490F007401F09000D8E0FAA3E0FB125348900036
:10491F0003E02405FF900002E03400FEC006C0074C
:10492F00900005E02446FD900004E03400FC900068
:10493F0007E024BAFB900006E034FFFA900008E08D
:10494F00FEA3E024FBFFEE34FF90001AF0A3EFF07C
:10495F00D007D006128CF1900003E02446FF9000A0
:10496F0002E03400FEC006C007900005E02446FDBB
:10497F00900004E03400FC900007E024FBFB900063
:10498F0006E034FFFA900008E0FEA3E024FBFFEE00
:10499F0034FF90001AF0A3EFF0D007D006128CF17D
:1049AF00E49000D8F0A3F09000DA74C6F0A3741866
:1049BF00F0900003E02419FF900002E03400FE9015
:1049CF000005E0244AFD900004E03400FC9000371D
:1049DF0074C6F0A37418F0A374FFF0A37417F0A3B8
:1049EF00747EF0A37410F0A37401F0E4FBFA125379
:1049FF0048900003E0244BFF900002E03400FE904B
:104A0F000005E0244AFD900004E03400FC9000DA39
:104A1F00E0FBA3E0900037CBF0A3EBF0A374FFF023
:104A2F00A37417F0A37481F0A37410F0A37401F0B2
:104A3F009000D8E0FAA3E0FB125348900003E02463
:104A4F0050FF900002E03400FE900005E02423FDAB
:104A5F00900004E03400FC9000DAE0FBA3E090004B
:104A6F0037CBF0A3EBF0A374FFF0A37417F0A3748C
:104A7F0088F0A37410F0A37401F09000D8E0FAA3AB
:104A8F00E0FB125348900002A3E0241A900000F0BC
:104A9F00900007E024FBFF900006E034FFFE90003B
:104AAF0000E0FB7A00C39FEA9E4003024B5990003F
:104ABF0003E02405FF900002E03400FEC006C007AB
:104ACF00900005E02435FD900004E03400FCE0FE8A
:104ADF00A3E02444FFE43E90002FF0A3EFF0A37473
:104AEF00F8F0A3E4F0D007D006127CDC7F287E001C
:104AFF0012929C900003E0243EFF900002E03400ED
:104B0F00FEC006C007900005E02423FD900004E0DE
:104B1F003400FCC004C005900001E0FFE4FCFDFE82
:104B2F0090000E12387D9000127402F0A37410F0F2
:104B3F00D005D004D007D006128130900001E004D8
:104B4F00F0900000E004F0024A9F900003E024057B
:104B5F00FF900002E03400FEC006C007900005E0A1
:104B6F002423FD900004E03400FC900007E024FBB8
:104B7F00FB900006E034FFFA900004E0FEA3E0246F
:104B8F0032FFE43E90002FF0A3EFF0A374C6F0A322
:104B9F007418F0D007D006127CDC900003E02419C3
:104BAF00FF900002E03400FE900005E02423FD900A
:104BBF000004E03400FC9000DAE0FBA3E090003743
:104BCF00CBF0A3EBF0A374FFF0A37417F0A3748AD8
:104BDF00F0A37410F0A37401F07B1F7A00125348F6
:074BEF007FDC7E0502929CB1
:1055E9007BFF7A1779951283549000DDE024FFFB45
:1055F9009000DCE034FFFA9000DFE024ECFE90003C
:10560900DEE034FF90002FF0A3CEF074FFA3F0A3E7
:10561900F07D147C00E4FFFE127CDCE49000D8F0FD
:10562900A3F0900029F0A374D2F07B147A007D32A4
:105639007C007F147E00126C3F900029E4F0A37473
:1056490032F07B147A007D3C7C007F0A7E00126C6C
:105659003F900029E4F0A37432F07B147A007D3C7A
:105669007C007F1E7E00126C3F900029E4F0A37439
:10567900D2F07BDC7A00FD7C007F147E00126C3F47
:10568900900029E4F0A374D2F07BDC7A007DC87C19
:1056990000FF7E00126C3F900029E4F0A374D2F061
:1056A9007BDC7A007DDC7C00FF7E00126C3F900081
:1056B9002FE4F0A374D1F0A374F8F0A3E4F07B37DE
:1056C900FA7D50FC7F23FE127CDC90002FE4F0A3CE
:1056D90074D1F0A374FFF0A374E0F07B5F7A007DCE
:1056E900827C007F4B7E00127CDC90002FE4F0A3CB
:1056F90074D1F0A3E4F0A3741FF07B877A007D3C9A
:105709007C007F737E00127CDC90002FE4F0A37490
:10571900D1F0A37407F0A374E0F07BAF7A007D5A4F
:105729007C007F9B7E00127CDC7F327E0012929C83
:10573900900000E4F0A37451F0900000E0FFA3E0B2
:1057490090002FCFF0A3EFF074FFA3F0A3F07B3705
:105759007A007D507C007F237E00127CDC7F0A7EEC
:105769000012929C900001E004F07006900000E0A5
:1057790004F0C3900001E094D1900000E09400404F
:10578900B8900000E4F0A374D0F0900000E0FCA30E
:10579900E0FDD39464EC9400403090002FE4F0A332
:1057A90074D1F0A374F8F0A3E4F07B37FA7F23FEF9
:1057B900127CDC7F0A7E0012929C900001E024FF9B
:1057C900F0900000E034FFF080C0900000E4F0A306
:1057D9007481F0900000E0FCA3E0FDD39450EC94B8
:1057E90000403390002FE4F0A37482F0A374FFF01B
:1057F900A374E0F07B5F7A007F4B7E00127CDC7F34
:105809000A7E0012929C900001E024FFF0900000B3
:10581900E034FFF080BD900000E4F0A37419F0902B
:105829000000E0FFA3E090002FCFF0A3EFF074FF9A
:10583900A3F0A3F07B877A007D187C007F737E003C
:10584900127CDC7F0A7E0012929C900001E004F039
:105859007006900000E004F0C3900001E094A0906D
:0E5869000000E0940040B87FDC7E0502929CB7
:10824100900000E4F0A37402F0A3E4F0A3741EF024
:108251009000DDE025E0FF9000DCE033FE7C007D56
:1082610003123676900004EEF0A3EFF09000DFE009
:1082710024E2FE9000DEE034FF900006F0A3CEF091
:10828100A37403F07BFF7A1779AA1283549000DD5F
:10829100E024FFFB9000DCE034FFFA9000DFE024F3
:1082A100ECFE9000DEE034FF90002FF0A3CEF0A3AF
:1082B1007484F0A37430F07D147C00E4FFFE127C22
:1082C100DC900000E0FEA3E0FFA3E0FCA3E0FD9052
:1082D1000006E0FBA3E090000FCBF0A3EBF0A3744A
:1082E100FFF0A37417F0A3747EF0900004E0FAA3EA
:1082F100E0FB127EFB7FF47E0112929C7FF47E01F3
:1083010012929C900001E0240FF0900000E03400F4
:10831100F0900003E0240FF0900002E03400F090B0
:108321000005E024E2F0900004E034FFF090000743
:10833100E024E2F0900006E034FFF0900008E01441
:0D834100F060030282C27FDC7E0502929C88
:10390C007BFF7A1779BC1283549000DDE024FFFB17
:10391C009000DCE034FFFA9000DFE024ECFE900035
:10392C00DEE034FF90002FF0A3CEF074FFA3F0A3E1
:10393C00F07D147C00E4FFFE127CDC90001AE4F0B5
:10394C00A3745AF07BAA7A007D3C7C007F1E7E001B
:10395C0012640E90001AE4F0A3745AF07BEB7A0018
:10396C007D3C7C007FB47E00128CF1E49000D8F09A
:10397C00A3F09000DA74C6F0A37418F090003774BA
:10398C00C6F0A37418F0A374FFF0A37417F0A3741B
:10399C00CEF0A37410F0A37401F0E4FBFA7D43FCA9
:1039AC007FB8FE1253489000D8E4F0A3741FF07453
:1039BC00FF9000DAF0A3F0900037F0A3F0A3F0A38F
:1039CC007417F0A374D5F0A37410F0A37401F07BFA
:1039DC001F7A007D267C007F1E7E001253489000CB
:1039EC0029E4F0A37437F07B3E7A00FD7C007F1E47
:1039FC007E00126C3F9000DAE0FFA3E0900037CF1E
:103A0C00F0A3EFF0A374FFF0A37417F0A374DAF033
:103A1C00A37410F0A37401F09000D8E0FAA3E0FBBB
:103A2C007D267C007F767E00125348900029E4F0BE
:103A3C00A37437F07B967A00FD7C007F767E0012B3
:103A4C006C3FE49000D8F0A3F09000DAE0FFA3E024
:103A5C00900037CFF0A3EFF0A374FFF0A37417F02E
:103A6C00A374DEF0A37410F0A37401F0E4FBFA7DF0
:103A7C0026FC7F46FE1253487FF47E0112929C7FF7
:103A8C00F47E0112929C7FF47E0112929C9000D8DD
:103A9C00E0FAA3E0FB9000DAE0FFA3E0900047CF50
:103AAC00F0A3EFF0A37443F0A37410F0A37401F02F
:103ABC007D437C007F237E0012664D7FF47E0112D5
:103ACC00929C9000D8E0FAA3E0FB9000DAE0FFA310
:103ADC00E0900047CFF0A3EFF0A3746FF0A3741045
:103AEC00F0A37401F07D437C007F2B7E0012664DA9
:103AFC007FF47E0112929C9000D8E0FAA3E0FB9038
:103B0C0000DAE0FFA3E0900047CFF0A3EFF0A3743E
:103B1C0072F0A37410F0A37401F07D437C007F332A
:103B2C007E0012664D7FF47E0112929C9000D8E0CC
:103B3C00FAA3E0FB9000DAE0FFA3E0900047CFF09F
:103B4C00A3EFF0A37474F0A37410F0A37401F07DD0
:103B5C00437C007F3A7E0012664D7FF47E01129208
:103B6C009C9000D8E0FAA3E0FB9000DAE0FFA3E021
:103B7C00900047CFF0A3EFF0A37465F0A37410F09E
:103B8C00A37401F07D437C007F427E0012664D7F62
:103B9C00F47E0112929C9000D8E0FAA3E0FB900016
:103BAC00DAE0FFA3E0900047CFF0A3EFF0A3747826
:103BBC00F0A37410F0A37401F07D437C007F4A7E67
:103BCC000012664D7FF47E0112929C9000D8E0FAB0
:103BDC00A3E0FB9000DAE0FFA3E0900047CFF0A356
:103BEC00EFF0A3742DF0A37410F0A37401F07D43D7
:103BFC007C007F527E0012664D7FF47E0112929CF7
:103C0C009000D8E0FAA3E0FB9000DAE0FFA3E0908C
:103C1C000047CFF0A3EFF0A3744DF0A37410F0A302
:103C2C007401F07D437C007F587E0012664D7FF45A
:103C3C007E0112929C900004E4F0A3745AF07BEB8A
:103C4C007D3C7C007FB4126FEAE49000D8F0A3F0C6
:103C5C009000DA74C6F0A37418F090003774C6F0B4
:103C6C00A37418F0A374FFF0A37417F0A374CEF030
:103C7C00A37410F0A37401F0E4FBFA7D43FC7FB84D
:103C8C00FE1253487FF47E0112929C900021E4F0C6
:103C9C00A3745AF07BEB7D3C7C007FB47E00126EEB
:103CAC002AE49000D8F0A3F09000DA74C6F0A37464
:103CBC0018F090003774C6F0A37418F0A374FFF0DA
:103CCC00A37417F0A374CEF0A37410F0A37401F0D6
:103CDC00E4FBFA7D43FC7FB8FE1253489000D87485
:103CEC00F8F0A3E4F074FF9000DAF0A3F090003742
:103CFC00F0A3F0A3F0A37417F0A374E4F0A3741072
:103D0C00F0A37401F07B007AF87D647C007F0C7E5C
:103D1C00001253489000DAE0FFA3E0900037CFF098
:103D2C00A3EFF0A374FFF0A37418F0A37400F0A336
:103D3C007410F0A37401F09000D8E0FAA3E0FB7DBE
:103D4C00787C007F0C7E001253489000DAE0FFA3D1
:103D5C00E0900037CFF0A3EFF0A374FFF0A374183A
:103D6C00F0A3741DF0A37410F0A37401F09000D8AC
:103D7C00E0FAA3E0FB7D8C7C007F0C7E00125348A4
:103D8C009000DAE0FFA3E0900037CFF0A3EFF0A3B0
:103D9C0074FFF0A37418F0A3743DF0A37410F0A397
:103DAC007401F09000D8E0FAA3E0FB7DA07C007FCA
:103DBC000C7E001253489000DAE0FFA3E09000372D
:103DCC00CFF0A3EFF0A374FFF0A37418F0A3745911
:103DDC00F0A37410F0A37401F09000D8E0FAA3E003
:103DEC00FB7DB47C007F0C7E001253489000DAE01F
:103DFC00FFA3E0900037CFF0A3EFF0A374FFF0A384
:103E0C007418F0A37479F0A37410F0A37401F090FB
:103E1C0000D8E0FAA3E0FB7DC87C007F0C7E00128A
:103E2C0053487FF47E0112929C7FF47E0112929C87
:103E3C007FF47E0112929C7FF47E0112929C7FF49F
:103E4C007E0112929C7FF47E0112929C7FF47E0183
:103E5C0012929C7FF47E0112929C7FF47E0112924E
:103E6C009C7FF47E0112929C7FF47E0112929C7FC7
:063E7C00F47E0102929C9D
:1000030000000000000000000000000000000404E5
:10001300040404040004000000140A0A00000000A1
:1000230000000000000014143F140A3F0A0A0000F5
:1000330000041E1505060C14150F0400000012150C
:100043000D0A142C2A1200000000040A0A1E1515BA
:100053000936000000020201000000000000000059
:1000630000201008080808080810200000020408EF
:10007300080808080804020000000004150E0E1505
:100083000400000000000404041F04040400000032
:100093000000000000000000000202010000000058
:1000A300001F00000000000000000000000000002E
:1000B3000002000000100808080404020202010004
:1000C30000000E1111111111110E000000000406A1
:1000D30004040404040E000000000E1111080402BD
:1000E300011F000000000E11100C1010110E000073
:1000F3000000080C0A0A091E0818000000001F016E
:10010300010F1010110E000000000E09010F111154
:10011300110E000000001F09080404040404000079
:1001230000000E11110E1111110E000000000E112E
:1001330011111E10120E0000000000000400000048
:10014300000400000000000000040000000404009C
:100153000020100804020408102000000000000022
:100163001F00001F000000000002040810201008F8
:100173000402000000000E11110804040004000032
:1001830000000E111915151D011E000000000404C6
:100193000C0A0A1E1233000000000F12120E121274
:1001A300120F000000001E1101010101110E0000D9
:1001B30000000F1212121212120F000000001F1281
:1001C3000A0E0A02121F000000001F120A0E0A0282
:1001D3000207000000001C1201013911120C00007B
:1001E30000003312121E12121233000000001F040B
:1001F30004040404041F000000003E080808080863
:1002030008090700000037120A060A0A123700001D
:100213000000070202020202223F000000001B1B33
:100223001B1B15151515000000003B1216161A1A94
:100233001217000000000E1111111111110E000010
:1002430000000F12120E02020207000000000E113E
:1002530011111117190E180000000F12120E0A12B5
:100263001237000000001E1101060810110F0000D4
:1002730000001F1504040404040E000000003312E0
:1002830012121212120C000000003312120A0A0C8E
:100293000404000000001515150E0A0A0A0A0000DE
:1002A30000001B0A0A04040A0A1B000000001B0AC0
:1002B3000A040404040E000000001F0908040402D9
:1002C300121F0000001C04040404040404041C00A2
:1002D300000202020404080808100000000E0808C7
:1002E3000808080808080E0000040A0000000000BF
:1002F3000000000000000000000000000000003FBC
:1003030000040000000000000000000000000000E6
:10031300000C121C123C000000000302020E121219
:10032300120E000000000000001C1202021C00005C
:1003330000001810101C1212123C000000000000F4
:10034300000C121E021C000000003804041E0404EA
:10035300041E000000000000003C120C021E221CC0
:1003630000000302020E1212123700000000040004
:1003730000060404040E000000000800000C080836
:100383000808080700000302023A0A0E12370000A9
:100393000000070404040404041F0000000000001C
:1003A300000F15151515000000000000000F1212B4
:1003B3001237000000000000000C1212120C0000A3
:1003C30000000000000F1212120E020700000000CE
:1003D300001C1212121C103800000000001B060241
:1003E3000207000000000000001E020C101E0000A7
:1003F30000000004040E04040418000000000000C0
:10040300001B1212123C0000000000000037120A09
:100413000C040000000000000015150E0A0A00007D
:1004230000000000001B0A040A1B0000000000007B
:100433000037120A0C04040300000000001E080425
:10044300041E00000018080808040808080818001B
:10045300080808080808080808080808000604042B
:100463000408040404040600022518000000000028
:100473000000000000000000000000000000000079
:100483000000000000000008080808080808000031
:100493001818000000486C2412000000000000003F
:1004A300000000000000002424247F1212127F1297
:1004B300121200000000081C2A2A0A0C1828282AF5
:1004C3002A1C080800000022251515152A58545423
:1004D300542200000000000C1212120A7625291182
:1004E300916E0000000606040300000000000000F7
:1004F3000000000000402010100808080808081039
:1005030010204000000204080810101010101008FA
:10051300080402000000000008086B1C1C6B08089C
:100523000000000000000000080808087F08080811
:1005330008000000000000000000000000000000B0
:10054300060604030000000000000000FE00000097
:100553000000000000000000000000000000000098
:100563000606000000008040402020101008080408
:100573000402020000000018244242424242424266
:1005830024180000000000080E08080808080808DE
:10059300083E00000000003C4242422020100804B4
:1005A300427E00000000003C4242201820404042AE
:1005B300221C0000000000203028242422227E2058
:1005C300207800000000007E0202021A264040420A
:1005D300221C0000000000382402021A2642424274
:1005E300241800000000007E2222101008080808CA
:1005F300080800000000003C424242241824424202
:10060300423C00000000001824424242645840402B
:10061300241C000000000000000018180000000067
:10062300181800000000000000000008000000008F
:100633000008080400000040201008040204081009
:10064300204000000000000000007F0000007F0049
:1006530000000000000000020408102040201008E1
:10066300040200000000003C4242464020101000FB
:10067300181800000000001C225A555555552D42EC
:10068300221C00000000000808181414243C224215
:1006930042E700000000001F2222221E22424242A3
:1006A300221F00000000007C4242010101010142BF
:1006B300221C00000000001F2242424242424242EA
:1006C300221F00000000003F4212121E12120242BB
:1006D300423F00000000003F4212121E12120202AB
:1006E300020700000000003C2222010101712122C7
:1006F300221C0000000000E7424242427E42424286
:1007030042E700000000003E08080808080808083F
:10071300083E00000000007C101010101010101094
:100723001010110F0000007722120A0E0A12122273
:100733002277000000000007020202020202020206
:10074300427F000000000077363636362A2A2A2AEE
:100753002A6B0000000000E346464A4A52525262A6
:10076300624700000000001C2241414141414141D8
:10077300221C00000000003F424242423E020202AD
:10078300020700000000001C2241414141414D533A
:10079300321C60000000003F4242423E12122222FD
:1007A30042C700000000007C42420204182040427D
:1007B300423E00000000007F4908080808080808B6
:1007C300081C0000000000E742424242424242420B
:1007D300423C0000000000E7424222242414141883
:1007E300080800000000006B494949495555362265
:1007F30022220000000000E74224241818182424B1
:1008030042E70000000000772222141408080808B9
:10081300081C00000000007E212010100804044280
:10082300423F00000078080808080808080808087C
:1008330008087800000002020404080808101020C9
:1008430020204040001E1010101010101010101027
:1008530010101E00003844000000000000000000DB
:100863000000000000000000000000000000000085
:10087300000000FF00060800000000000000000068
:1008830000000000000000000000003C42784442E9
:1008930042FC0000000000030202021A2642424208
:1008A300261A000000000000000000384402020283
:1008B3004438000000000060404040784442424217
:1008C30064D80000000000000000003C427E0202E9
:1008D300423C0000000000F08808087E0808080871
:1008E300083E0000000000000000007C22221C02E1
:1008F3003C42423C000000030202023A46424242AA
:1009030042E700000000000C0C00000E0808080875
:10091300083E000000000030300000382020202076
:100923002020221E0000000302020272120A161285
:10093300227700000000000E0808080808080808CD
:10094300083E0000000000000000007F9292929297
:1009530092B70000000000000000003B4642424204
:1009630042E70000000000000000003C4242424217
:10097300423C0000000000000000001B26424242EF
:10098300221E020700000000000000784442424299
:10099300447840E000000000000000774C040404A9
:1009A300041F0000000000000000007C42023C40E5
:1009B300423E0000000000000008083E0808080846
:1009C3000830000000000000000000634242424281
:1009D30062DC000000000000000000E74224241451
:1009E3000808000000000000000000EB49495555CD
:1009F30022220000000000000000007624181818CE
:100A0300246E000000000000000000E742242414CC
:100A130018080807000000000000007E22100808E4
:100A2300447E000000C02020202020102020202011
:100A33002020C000101010101010101010101010F3
:100A43001010101000060808080808100808080805
:100A5300080806000C32C20000000000000000007D
:100A630000000000BBB60000000000807EFC02A274
:100A730002A222A4152414240C300C300C48124872
:100A8300228442840102D3AD000000002398246431
:100A9300144404446444144414441444144415C4D2
:100AA300125C1040284047FEC4FA00000000120008
:100AB30013FE24222522652862242224242020E0F8
:100AC300050814842444241A47F2B4BF000000200C
:100AD300102013FE202026244A247A2412242224C0
:100AE30023FC7C20002204227822003CC9AB0000B6
:100AF300000004000FF0102020207FFC20842084BD
:100B0300208420843FF82000200220021FFECCEE28
:100B130000000000204023FE204079FC220423FC37
:100B2300220423FC220423FC3A0465FA01980204FC
:100B3300B3E40000010001007FFE0220041004085A
:100B430008043FFC044204400440044208421042AB
:100B5300607EBED800000000207E3E804880488032
:100B630048FE48827F8208820C8214FA1284228013
:100B7300218040FED0CE000000007F842208223076
:100B830022C0220222047FC8223022C2220222046F
:100B9300220822304040BBAD000000007FFE000071
:100BA3000FF011101110111051125FF25112511266
:100BB30051124FF240027FFCD4B2000000007FFECE
:100BC30047E24812481247E24FF2501250125112B4
:100BD300511242924472580A3FFCC80000000000C0
:100BE3007FFC00000000000000003FF80000000050
:100BF300000000000000FFFE00000000BDC7080069
:100C030008001FE020204040BFF8210821083FF8DA
:100C1300210821083FF82108410841288010CDBC54
:100C2300000000003FFE440247F24C225362408220
:100C330043625E1A41824062430240C240223FFC4B
:100C4300C6AC000000402040204020403FFE200072
:100C5300200020003FE02010201020102010401022
:100C63004010CFD4000000003FFC200420043FFCD0
:100C7300200420041FF824441448144814480C503A
:100C830004407FFECABE000000003FFC00000000DD
:100C930000007FFE0080089008881088108420845C
:100CA300208240820780B2CB0000002008207FFE14
:100CB300002000783F881108089009207FFE0180FA
:100CC30003400D30310C4002B5A5000000100810A0
:100CD30004203FF8210421043FFC210421043FF8B0
:100CE30001007FFE010001000100D6D000000100D9
:100CF300010001003FFC21042104210421042104FB
:100D030021043FFC0100010001000100D3A2000007
:100D1300000008207FFE0820092001003FF8210879
:100D2300210821081FF4014002200C10700ECEC4CC
:100D330000000100010000803F7C0810081004102F
:100D43000420022002400180018002601C18E0069A
:100D5300D7DB00000000102011FE2202220249FC12
:100D63005800300013FE2528792401240D24722213
:100D730002A2BACF0000000001800240043018082C
:100D830060061FF800001FF820042004200420043C
:100D930020041FF8C1C10000010001007FFE000014
:100DA3003FF820083FF83FF8400647C24824082090
:100DB30008221022603EB6C80000000000803FFEFB
:100DC30044105FFC4410441043F040005FF84408B3
:100DD300423041C04360BC1EB2E20000000067C263
:100DE300145205520552C552255205520552155249
:100DF3001752228222424442483ECAD400000000D5
:100E03002014101417FE00120010601013F010903D
:100E130010901090149214EA1F0A0006B3CC00003D
:100E2300000019FE7202120212027DFC18001BFE62
:100E33003420502053FE10201020102013FED0F237
:100E43000000000000803FFE400047FC42084130A4
:100E530040C05FFE4042404240444048404044401E
:100E6300B5F70000000023FE122202FA0222E2225A
:100E730012FE1272128A128A128A16BA1A421202C7
:100E8300040EB9E200000100010411080908091069
:100E930009207FFE04400440044004400842084205
:100EA3001042607CB0E60000000048FE49004900A3
:100EB30049007EFE41824144794445284528451036
:100EC300452846440382C8A800001000100013FC04
:100ED3007D0411041904188434885048505010209C
:100EE3001050108813041402CBF9000000003F7C5B
:100EF300204020403E40227E2244224422443E841D
:100F030020842084408441044204C6C100003FF889
:100F1300200820083FF8241022202FF82220222026
:100F23003FFC22204220442084200820C4BB0440EC
:100F33007FFC04401FF010101FF010101FF004007E
:100F4300FFFE11103FF8D116115011200100D000FF
:100F53002080108010FE0100FE0021FC20243C2490
:100F630024A024A024BC24A024A04560553E8A00CC
:100F7300D7AA202020202020FDFC4020504093FEB3
:100F8300FC40108011FC1C04F088505010201010FD
:100F93001010BFAA00007FFC0820082008200820AA
:100FA3000820FFFE08200820082008201020102019
:100FB30020204020D4B4000027FE1420144085FCD8
:100FC300450445FC150415FC2524E42024A8292404
:100FD3002A2230A00040D2BA0080204017FE112000
:100FE3008120423C4244166412942348E248223052
:100FF3002220225022880306BEA70FE008200820E3
:101003000FE0082008200FE000007EFC42844284A9
:101013007EFC428442847EFC4284CDF800007FFC47
:1010230040044004421452944A54442444244A54ED
:101033004A5452946104400440144008D5BE102021
:10104300082008207E20003E04204420442025FC64
:10105300290429040F04F104410401FC0104B0B480
:1010630010401020102013FEFA02144410401BFEFF
:101073003088D088110810D01020105050882304D5
:10108300BCFC201020103B7C211441FE7A14A27C6E
:101093002710F97C251025FE22102A10350028FE82
:1010A3000000D0A310401020102011FEFC00108877
:1010B30031043A0254885088905010501020105038
:1010C30010881306D7BC01404120212023FE0220B3
:1010D30016201BFC1220222023FCE22022202220A7
:1010E30023FE22000200B4A520202020782049FC02
:1010F30091247D24552455247DFC552454207C289B
:10110300542457FE45028C00C3FE1110111017FC26
:101113001110FC0013F8120817F81A0833F8D0401E
:1011230017FC10A0111052082406B6C1002020207D
:1011330011FC1020002003FEF00210941050111037
:10114300109013FE1428184410820302BACD040031
:101153000E007800087C0844FF44084418441C44EB
:101163002A442A444844887C084408000800D1D50E
:10117300100008FE7F102220147C7F4444544854FE
:10118300525444544854515442284424884230828F
:10119300D6B5084008400FFC1040104033F8320821
:1011A30053F8920813F8120813F8120812081FFED6
:1011B3001000D6D000000000000000000000000076
:1011C3000018000018000018000018003FFFFE3050
:1011D30018063018063018063018063018063FFF78
:1011E300FE30180600180000180000180000180050
:1011F300001800000000000000000000CEC4000042
:1012030000000000000000003800001C0000060081
:10121300FFFFFF060030060030030060030060019B
:1012230080C000C18000E300003600001C0000778E
:101233000003C1E01E003C60000700000000000046
:10124300000000000000B2E2000000000000000007
:101253000000000040000321FF333983331183333F
:10126300019B33C19B33719B33199B33019B330127
:101273009B33119B3319B333303033306C0330C697
:10128300036383032E01BE00000000000000000082
:10129300CAD400000000000000000000000040006D
:1012A300D83000CE1800C21C00C001FFFF0000C0F0
:1012B300F800C01800C019FFC018184018186019AA
:1012C30018601B18611E18311C1FB139F01910006A
:1012D3000F000000000000000000D7D6000000004F
:1012E30000060000000300000000C0000001C0C0B1
:1012F300000107C00001FF00021FFE0007F01C00F1
:1013030007C070000F00E0000E03F0001C0FF00098
:101313003C0F70003C00E0001800C0000000C0005B
:101323000000C00000006000000020000000370043
:101333000001FF00007FF80007F830001F80300035
:101343000080300000C03000006060000018E00042
:10135300000FC0000006000000000000CCE5000004
:10136300000000000000000000C0000000E00020BA
:1013730001B800703FF80061FFC000C3030001C65D
:101383000600038C060003080C0006080C000E1868
:10139300183F1E101BF31F903F0700803C1C019059
:1013A300707C019060FE01A0C3F801A00FD803A0D8
:1013B3000818036000180340001803C000180380D6
:1013C30000180300001800000018000000100000BF
:1013D3000030000000300000000000000000B2E216
:1013E30000000000000000000000000000000000FA
:1013F300020C1008071FF80403BFF00201BC3003FE
:1014030003EC3003015C600300D8600300D8600381
:101413008098620361B8430771B1430631324306D2
:101423003376C3063A64C7063EECC0063E78C00670
:101433003C3040067C70000678E060067BFFF006D7
:10144300F7C00006E40000064000000600000006A6
:101453000000007C00008FF000007C000000000012
:10146300CAD40000000000000000000000000000DB
:101473003F0000007F8000000180000000C00000EA
:1014830000C0000000CE038000CFFFC000DD41801C
:101493000FFE0007FFFC000C00F000180FC03E1900
:1014A300FF40F311BC6083307FE003B1FE200333C0
:1014B300802003700030036000100360001807C031
:1014C300000C07C0000407800002010000030000B5
:1014D3000001000000000000000000000000000008
:0214E300000007
:10921800900017FEE0FCA3E0FD900016E02DFD9005
:0D9228000015E03CFC90001BE0FAA3E0FB09
:1092350090001DEAF0A3EBF012934E90001DE0FEA6
:06924500A3E0FF0293E02C
:107CA800900011E0FCA3E0FD90000FE0FAA3E0FBD8
:107CB800A3E0FFA3E090002FCFF0A3EFF09000D84F
:107CC800E0FFA3E0900031CFF0A3EFF090000DE0CB
:047CD800FEA3E0FF28
:0E7CDC00900029EEF0A3EFF0A3ECF0A3EDF082
:107CEA00900029E0FEA3E0FFC3EB9FFFEA9ECF24AA
:107CFA0001CF3400900037F0A3EFF090002BE0FEA4
:107D0A00A3E0FFC3900030E09FFF90002FE09ECFDA
:107D1A002401CF3400900039F0A3EFF090002BE05B
:107D2A00FCA3E0FD90002FE0FFA3E090005BCFF002
:107D3A00A3EFF0900029E0FEA3E0FF129021E49067
:107D4A000033F0A3F0900039E0FEA3E0FFC39000F7
:107D5A0034E09F900033E09E5047E4900035F0A352
:107D6A00F0900037E0FEA3E0FFC3900036E09F905A
:107D7A000035E09E501B900031E0FEA3E0FF129315
:107D8A00E0900036E004F070D8900035E004F0800E
:107D9A00D0900034E004F070AC900033E004F0803E
:107DAA00A49000DDE024FFFB9000DCE034FFFA90B1
:107DBA0000DFE024FFFE9000DEE034FF90005BF07D
:0B7DCA00A3CEF0E4FDFCFFFE029021C0
:056C3A00E0FEA3E0FFF5
:0E6C3F00900023EEF0A3EFF0A3ECF0A3EDF035
:106C4D00E490002DF0A3F0A3F0A3F0900023E0FE5C
:106C5D00A3E0FFC3EB9FFFEA9E900031F0A3EFF09E
:106C6D00900025E0FAA3E0FBC390002AE09BFE9084
:106C7D000029E09A900033F0A3CEF0900023E0FFBE
:106C8D00A3E090003BCFF0A3EFF0A3EAF0A3EBF06D
:106C9D00900031E0FEA3E0FFD39400EE6480948079
:106CAD00400A900037E4F0A304F08021EF4E700805
:106CBD00900037F0A3F0801574FF900037F0A3F02B
:106CCD00C3E49FFFE49E900031F0A3EFF0900033FA
:106CDD00E0FEA3E0FFD39400EE64809480400A9020
:106CED000039E4F0A304F08021EF4E7008900039D4
:106CFD00F0A3F0801574FF900039F0A3F0C3E49F6A
:106D0D00FFE49E900033F0A3EFF0900033E0FEA37C
:106D1D00E0FF900031E0FCA3E0FDD39FEE6480F82E
:106D2D00EC6480989000354007ECF0A3EDF0800501
:106D3D00EEF0A3EFF0E490002BF0A3F0900036E01E
:106D4D002401FF900035E03400FED390002CE09F2D
:106D5D0090002BE09E4003026E2990003BE0FEA3C5
:106D6D00E0FFA3E0FCA3E0FD12924B900031E0FEAA
:106D7D00A3E0FF90002EE02FF090002DE03EF0906C
:106D8D000033E0FEA3E0FF900030E02FF090002FE5
:106D9D00E03EF0900035E0FEA3E0FF90002DE0FC1A
:106DAD00A3E0FDD39FEE6480F8EC6480984020ED65
:106DBD009FFFEC9E90002DF0A3EFF0900037E0FECA
:106DCD00A3E0FF90003CE02FF090003BE03EF09000
:106DDD000035E0FEA3E0FF90002FE0FCA3E0FDD323
:106DED009FEE6480F8EC6480984020ED9FFFEC9E50
:106DFD0090002FF0A3EFF0900039E0FEA3E0FF909C
:106E0D00003EE02FF090003DE03EF090002CE004BD
:0C6E1D00F0700690002BE004F0026D49BC
:016E29002246
:10899F00900005EAF0A3EBF0900001EEF0A3EFF0EA
:1089AF00A3ECF0A3EDF0C007A3E0FAA3E0FB900067
:1089BF0003E0FFA3E0900029CFF0A3EFF0D0071260
:1089CF006C3F900001E0FAA3E0FBFFAE02C007A3EB
:1089DF00E0FCA3E0FD900007E0FFA3E0900029CFAB
:1089EF00F0A3EFF0D007126C3F900007E0FCA3E07C
:1089FF00FD900005E0FAA3E0FBA3E0FFA3E09000E9
:108A0F0029CFF0A3EFF0900001126C3A900005E02F
:108A1F00FAA3E0FBFFAE02C007900003E0FCA3E067
:108A2F00FD900007E0FFA3E0900029CFF0A3EFF047
:058A3F00D007026C3FAE
:1092E800C007900027E0FFA3E090002FCFF0A3EF86
:1092F800F09000D8E0FFA3E0900031CFF0A3EFF0AA
:05930800D007027CDC2F
:107A3A00900019F0A3EFF0900005E0FFA3E090009A
:0E7A4A001BCFF0A3EFF0900001E0FEA3E0FFE1
:107A5800900015ECF0A3EDF0900013EEF0A3EFF01A
:107A6800900017EAF0A3EBF02FFFEE3AA312921B57
:107A7800900017E0FEA3E0FFC3900014E09FFF9082
:107A88000013E09EFE90001912921C900017E0FE71
:107A9800A3E0FF900014E02FFF900013E03EFE905B
:107AA8000019E0FCA3E0FDC3900016E09DFD9000E6
:107AB80015E09C12922C900017E0FEA3E0FFC39003
:107AC8000014E09FFF900013E09EFE900019E0FC78
:107AD800A3E0FDC3900016E09DFD900015E09C1208
:107AE800922C900019E0FEA3E0FF900014E02FFF15
:107AF800900013E03E129218900019E0FEA3E0FFF8
:107B0800C3900014E09FFF900013E09E129218901B
:107B18000019E0FEA3E0FF900014E02FFF9000138F
:107B2800E03EFE900017E0FCA3E0FDC3900016E0E5
:107B38009DFD900015E09C12922C900019E0FEA388
:107B4800E0FFC3900014E09FFF900013E09EFE90BA
:107B58000017E0FCA3E0FDC3900016E09DFD900037
:0F7B680015E09CFC90001BE0FAA3E0FB029235B5
:10685400900001EEF0A3EFF0A3ECF0A3EDF0A3EAB7
:04686400F0A3EBF0C2
:10686800E490000BF0A3F0900007E0FEA3E0FF9097
:10687800000DEEF0A3EFF025E0FFEE33FEC3740346
:106888009F900012F0E49E900011F0900009E070D3
:1068980002A3E0700302699790000DE0FEA3E0FFF9
:1068A80090000BE0FCA3E0FDD39FEE6480F8EC645D
:1068B80080984003026A4990000FECF0A3EDF09035
:1068C800000DE0FEA3E0FFD3900010E09FEE64808F
:1068D800F890000FE0648098502B900003E0FCA330
:1068E800E0FD90000BE0FAA3E0FB90000FE0FFA3AF
:1068F800E0CF127A3A900010E004F070C290000FD6
:10690800E004F080BA900011E0FCA3E0FDC3EC6461
:10691800809480502390000BE0FEA3E07802C333FC
:10692800CE33CED8F92DFFEC3ECF2406CF340090DD
:106938000011F0A3EFF0804390000DE0FEA3E0FF0C
:10694800C390000CE09FFF90000BE09EFEEF7802E2
:10695800C333CE33CED8F9FF900012E02FFF90005A
:1069680011E03ECF240ACF3400F0A3EFF090000EE0
:10697800E024FFF090000DE034FFF090000CE004FC
:10698800F060030268A090000BE004F00268A09099
:10699800000DE0FEA3E0FF90000BE0FAA3E0FBD3BC
:1069A8009FEE6480F8EA6480984003026A49900088
:1069B80003E0FCA3E0FDEE127A3A900011E0FCA39C
:1069C800E0FDC3EC64809480502390000BE0FEA3AC
:1069D800E07802C333CE33CED8F92DFFEC3ECF2476
:1069E80006CF3400900011F0A3EFF0804390000D23
:1069F800E0FEA3E0FFC390000CE09FFF90000BE0D7
:106A08009EFEEF7802C333CE33CED8F9FF90001242
:106A1800E02FFF900011E03ECF240ACF3400F0A30E
:106A2800EFF090000EE024FFF090000DE034FFF04E
:106A380090000CE004F0700690000BE004F002698E
:016A480097B6
:016A4900222A
:108DDE00900001EEF0A3EFF0A3ECF0A3EDF0A3EA08
:108DEE00F0A3EBF0C007A3E0FFA3E0900029CFF0C3
:108DFE00A3EFF0D007126C3F900007E0FCA3E0FD5C
:108E0E00A3E0FAA3E0FBA3E0FFA3E0900029CFF0DC
:108E1E00A3EFF0900005126C3A90000BE0FCA3E07B
:108E2E00FD900001E0FAA3E0FBA3E0FFA3E09000B9
:108E3E0029CFF0A3EFF0900009E0FEA3E0FF026C53
:018E4E003FE4
:108F810090002C7401F0A37400F0A37407F07B012E
:048F91007A007903E6
:0B8F9500900029EBF0A3EAF0A3E9F044
:108FA0001236F7FFAEF090002CE0FBA3E0FAA3E04E
:108FB000F91236F7FD900029E0FBA3E0FAA3E0F9EF
:108FC000E5F08DF012372290002CE0FBA3E0FAA32D
:088FD000E0F9EE8FF0023722F8
:103E8200900001EEF0A3EFF0A3ECF0A3EDF0A3EAB3
:043E9200F0A3EBF0BE
:103E96009000211238890000000090002512388910
:103EA60000000000900007E0FEA3E0FF900003E0A2
:103EB600FCA3E0D39FEC9E401A128F8190002C74D5
:103EC60001F0A37400F0A37405F07B017A00790178
:103ED600128F9590000BE0FEA3E0FF900007E0FC38
:103EE600A3E0D39FEC9E402E90002C7401F0A374A7
:103EF60000F0A37407F07B017A00790B128F95907E
:103F0600002C7401F0A37400F0A37405F07B017A11
:103F1600007909128F95900007E0FEA3E0FF90005C
:103F260003E0FCA3E0D39FEC9E401A128F81900021
:103F36002C7401F0A37400F0A37405F07B017A00E1
:103F46007901128F9590000BE0FEA3E0FF9000032D
:103F5600E0FCA3E0FD6F7002EC6E600302402A9065
:103F66000001E0FEA3E0FF90000FEEF0A3EFF0905B
:103F7600000DEEF0A3EFF090000DE0FEA3E0FF9041
:103F86000005E0FAA3E0FBC39FEA9E500A90000DED
:103F9600EAF0A3EBF0801E90000FE0FEA3E0FFD353
:103FA600EB9FEA9E400F900005E0FFA3E090000F14
:103FB600CFF0A3EFF090000DE0FEA3E0FF90000924
:103FC600E0FAA3E0FBC39FEA9E500A90000DEAF0D8
:103FD600A3EBF0801E90000FE0FEA3E0FFD3EB9F63
:103FE600EA9E400F900009E0FFA3E090000FCFF09B
:103FF600A3EFF090000FE0FAA3E0FB900003E0FFD0
:10400600A3E090002FCFF0A3EFF09000D8E0FFA33D
:10401600E0900031CFF0A3EFF090000DE0FEA3E0BA
:10402600FF027CDC900001E0FAA3E0FB900005E0D3
:10403600FEA3E0C39BFFEE9A900015F0A3EFF0906D
:104046000003E0FEA3E0FF900007E0FCA3E0C39FAF
:10405600FFEC9E900017F0A3EFF0900009E0FEA39E
:10406600E0C39BFFEE9A900019F0A3EFF0900003D7
:10407600E0FEA3E0FF90000BE0FCA3E0C39FFFEC93
:104086009E90001BF0A3EFF0900005E0FEA3E0FF7A
:10409600900009E0FCA3E0C39FFFEC9E90001DF09A
:1040A600A3EFF0900007E0FAA3E0FB90000BE0FC22
:1040B600A3E0FDC39BFEEC9A90001FF0A3CEF0EBAD
:1040C600B50510EAB5040C900007FFA3E0900013B5
:1040D600CF8010900007E0FEA3E024FFFFEE34FF40
:1040E600900013F0A3EFF0900003E0FFA3E0900030
:1040F60011CFF0A3EFF0900013E0FEA3E0FF9000D5
:1041060011E0FCA3E0D39FEC9E4003024216900010
:1041160017E0FEA3E0FBAA06EA3395E0F9F8900063
:1041260021E0FCA3E0FDA3E0FEA3E0FF1290AC902B
:104136000001E0FCA3E02FFFEC3E90000DF0A3EFA2
:10414600F090001BE0FEA3E0FBAA06EA3395E0F937
:10415600F8900025E0FCA3E0FDA3E0FEA3E0FF123B
:1041660090AC900001E0FCA3E02FFFEC3E90000F26
:10417600F0A3EFF0900021E0F8A3E0F9A3E0FAA3A2
:10418600E0FB900015E0FEA3E0FFEE3395E0FDFCBA
:10419600EB2FFFEA3EFEE93DFDE83CFC90002112D4
:1041A600387D900025E0F8A3E0F9A3E0FAA3E0FB50
:1041B600900019E0FEA3E0FFEE3395E0FDFCEB2F47
:1041C600FFEA3EFEE93DFDE83CFC90002512387D05
:1041D60090000FE0FEA3E0FF90000DE0FCA3E0D30B
:1041E6009FEC9E401790002C7401F0A37400F0A37E
:1041F600740FF07B017A00790D128F95127CA890CE
:104206000012E004F07006900011E004F00240FC99
:10421600900007E0FEA3E0FF900011E0FAA3E0FBA8
:10422600C39FFFEA9EFE90001DE0FCA3E0FD123650
:1042360064E4FCFD90002112387D900003E0FEA3AB
:10424600E0FFC3EB9FFFEA9EFE900019E0FCA3E0AF
:10425600FD123664E4FCFD90002512387D90000BBB
:10426600E0FEA3E0FF900011E0FCA3E0D39FEC9EEC
:10427600400302437B90001FE0FEA3E0FBAA06EA90
:104286003395E0F9F8A3E0FCA3E0FDA3E0FEA3E08C
:10429600FF1290AC900005E0FCA3E02FFFEC3E90EF
:1042A600000DF0A3EFF090001BE0FEA3E0FBAA06D2
:1042B600EA3395E0F9F8900025E0FCA3E0FDA3E0E1
:1042C600FEA3E0FF1290AC900001E0FCA3E02FFFFC
:1042D600EC3E90000FF0A3EFF0900021E0F8A3E091
:1042E600F9A3E0FAA3E0FB90001DE0FEA3E0FFEED9
:1042F6003395E0FDFCEB2FFFEA3EFEE93DFDE83C91
:10430600FC90002112387D900025E0F8A3E0F9A387
:10431600E0FAA3E0FB900019E0FEA3E0FFEE339580
:10432600E0FDFCEB2FFFEA3EFEE93DFDE83CFC909C
:10433600002512387D90000FE0FEA3E0FF90000DEF
:10434600E0FCA3E0D39FEC9E401790002C7401F094
:10435600A37400F0A3740FF07B017A00790D128F1D
:1043660095127CA8900012E004F07006900011E00F
:0543760004F0024263A7
:01437B00221F
:10663C00F090003DE090004BF0900035E0FAA3E0C4
:01664C00FB52
:10664D00900041EEF0A3EFF0900045EAF0A3EBF0DF
:08665D00900043ECF0A3EDF006
:106665009000D8E0FFA3E090004FCFF0A3EFF090AB
:106675000049E024E0F0A3E0F9C313FF7E00900099
:1066850041E0FAA3E02FFFEE3ACF24FFFBEF34FF02
:10669500FAE9FFA3E0F8A3E02FFFEE38CF24FFCF00
:1066A50034FF90005BF0A3EFF0900041E0FEA3E023
:1066B500FF12902190004BE0600302675C90004D53
:1066C500F090004AE0FF90004DE0FEC39F400302BA
:1066D500681BEFB40C17900049E075F00CA4240377
:1066E500F582E5F03400F583E5822E801A90004DA1
:1066F500E0FF900049E075F010A42477F582E5F0FD
:106705003404F583E5822FF582E43583F583E4933C
:1067150090004CF0E490004EF090004AE0C313FF67
:1067250090004EE0C39F502690004CE030E005906D
:1067350000458003900047E0FEA3E0FF1293E09040
:10674500004CE0C313F090004EE004F080CB9000C5
:106755004DE004F00266C6E490004DF090004AE07A
:10676500FF90004DE0FEC39F400302681BEFB40C91
:1067750017900049E075F00CA42403F582E5F03488
:1067850000F583E5822E801A90004DE0FF900049C8
:10679500E075F010A42477F582E5F03404F583E57F
:1067A500822FF582E43583F583E49390004CF0E481
:1067B50090004EF090004AE0C313FF90004EE0FEBB
:1067C500C39F5049900045E0FDA3E09000D8CDF06F
:1067D500A3EDF090004CE030E024EEFF900042E0A5
:1067E5002FFF900041E03400FE90004DE0FD900049
:1067F50044E02DFD900043E03400FC12924B9000E4
:106805004CE0C313F090004EE004F080A790004DDB
:10681500E004F002676190004FE0FFA3E09000D82C
:10682500CFF0A3EFF09000DDE024FFFB9000DCE06B
:1068350034FFFA9000DFE024FFFE9000DEE034FF35
:0F68450090005BF0A3CEF0E4FDFCFFFE0290217B
:10877C00900000EEF0A3EFF0A3ECF0A3EDF0A3EB70
:10878C00F0900005E0FBA3E0FAA3E0F912360CFF31
:10879C00D3947E400302883DEFC39420500302889B
:1087AC003D9000DDE024FFFD9000DCE034FFFC9008
:1087BC000000E0FEA3E0FFD39DEE9C50749000DF20
:1087CC00E024FFFB9000DEE034FFFA900002E0FCB6
:1087DC00A3E0FDD39BEC9A50589000DAE0FBA3E0A9
:1087EC00900047CBF0A3EBF0900005E0FBA3E0FA80
:1087FC00A3E0F912360C900049F0900004E09000D0
:10880C004AF0900008E090004BF09000D8126648B7
:10881C00900004E0C313FF900001E02FF0900000E3
:10882C00E03400F0900006E475F0011236CB0287BC
:02883C008D228B
:088FD800900017EFF0A3EDF08B
:108FE000A312388900000001900018E0FF14F0EF90
:108FF0006020A3E0F8A3E0F9A3E0FAA3E0FB90006F
:1090000017E0FFE4FCFDFE12374190001912387D95
:1090100080D6900019E0FCA3E0FDA3E0FEA3E0FFF2
:01902000222D
:0E81300090000AEEF0A3EFF0A3ECF0A3EDF048
:10813E00E4900016F0900014F0900012E0FF900012
:10814E0014E0FEC39F4003028240C3EF9E14FD7FE6
:10815E000A128FD8A804A905AA06AB0790000EE054
:10816E00FCA3E0FDA3E0FEA3E0FF1237CCE47B0A04
:10817E00FAF9F81237CC900015EBF0A3E070579097
:10818E000012E014FF900014E0FEC39F5048A3E0DD
:10819E00703E900013E0F9C3138EF0A4FF90000B15
:1081AE00E02FFF90000AE035F0FEC00790000CE0D3
:1081BE00FCA3E0FD9000D8E0FAA3E0FB9000DAE02B
:1081CE00FFA3E0900047CFF0A3EFF0A37420804D03
:1081DE009000167401F0900013E0F9C313FFA3E0B2
