:020000040800F2
:10000000F0060020414A00080B1300080D130008F9
:100010001113000815130008191300080000000050
:100020000000000000000000000000001D13000898
:100030001F1300080000000021130008231300080C
:100040005B4A00085B4A00085B4A00085B4A0008FC
:100050005B4A00085B4A00085B4A00085B4A0008EC
:100060005B4A00085B4A00085B4A00085B4A0008DC
:100070005B4A00085B4A00085B4A00085B4A0008CC
:100080005B4A00085B4A00085B4A00085B4A0008BC
:100090005B4A00085B4A00085B4A00085B4A0008AC
:1000A0005B4A00085B4A00085B4A00085B4A00089C
:1000B0005B4A00085B4A00085B4A00085B4A00088C
:1000C0005B4A00085B4A00085B4A00085B4A00087C
:1000D0005B4A00085B4A00085B4A00085B4A00086C
:1000E0005B4A00085B4A00085B4A00085B4A00085C
:1000F0005B4A00085B4A00085B4A00085B4A00084C
:100100005B4A00085B4A00085B4A00085B4A00083B
:100110005B4A00085B4A00085B4A00085B4A00082B
:100120005B4A00085B4A00085B4A00085B4A00081B
:1001300000F002F800F03FF80AA090E8000C8244BA
:100140008344AAF10107DA4501D100F034F8AFF297
:10015000090EBAE80F0013F0010F18BFFB1A43F0A5
:10016000010318471882000038820000103A24BFAB
:1001700078C878C1FAD8520724BF30C830C144BF0C
:1001800004680C607047000000230024002500264E
:10019000103A28BF78C1FBD8520728BF30C148BFEA
:1001A0000B607047782905F0EB80002070471FB581
:1001B0001FBD10B510BD05F07FFA1146FFF7F7FF20
:1001C00001F07AF805F09DFA03B4FFF7F2FF03BCE3
:1001D00005F0A0FA70B505460E461446314628468D
:1001E00003F0BBF8204603F033F870BD2DE9F05F53
:1001F00004460D4616461F46301B401C1FFA80FA67
:10020000781B401C1FFA80FB3B463246294620469D
:1002100003F07BF84FF000080FE04FF0000906E014
:100220000A9803F015F809F101001FFA80F9D14589
:10023000F6DB08F101001FFA80F8D845EDDBFE4837
:100240004088401E83B2FC480088401E82B20021D4
:10025000084603F05AF8BDE8F09F2DE9FF4F85B03E
:1002600081468A460020049003900798A0EB090578
:100270000898A0EB0A06CDF80890CDF804A0002D50
:1002800001DD012705E00DB9002702E04FF0FF373F
:100290006D42002E02DD4FF0010806E016B94FF066
:1002A000000802E04FF0FF387642B54201DD2C46EF
:1002B00000E034464FF0000B21E0019A91B2029A1F
:1002C00090B203F054F80498284404900398304402
:1002D00003900498A04205DD0498001B0490029846
:1002E000384402900398A04205DD0398001B039058
:1002F0000198404401900BF101001FFA80FB601C43
:100300008345DADD09B0BDE8F08F2DE9F041044600
:100310000D4616461F462B46324629462046FFF715
:100320009CFF3B46224629462046FFF796FF3B4668
:10033000324639462046FFF790FF3B463246294673
:100340003046FFF78AFFBDE8F081F8B504460D4658
:1003500016461F46B94800883B463246294600905B
:100360002046FFF743FFF8BD2DE9F04104460D4656
:1003700016461F46DDF81880EA1991B2A21990B20C
:100380004246FFF727FFEA1991B2A21B90B24246FC
:10039000FFF720FFEA1B91B2A21990B24246FFF785
:1003A00019FFEA1B91B2A21B90B24246FFF712FF5F
:1003B000AA1991B2E21990B24246FFF70BFFAA19AF
:1003C00091B2E21B90B24246FFF704FFAA1B91B222
:1003D000E21990B24246FFF7FDFEAA1B91B2E21B62
:1003E00090B24246FFF7F6FEBDE8F0812DE9FF4FDF
:1003F00081B0824617469846DDF838B0002445465D
:100400004FEA4800C0F10306BBF1000F1FD01BE00C
:10041000A14608E04B462246009750460299FFF756
:10042000A3FF09F10109A945F4DD002E04DA042037
:1004300000FB0460861D06E0601B042101FB0060D8
:1004400000F10A066D1E641CAC42E1DD18E015E007
:100450002B462246009750460299FFF785FF002E53
:1004600004DA042000FB0460861D06E0601B042102
:1004700001FB006000F10A066D1E641CAC42E7DD62
:1004800005B0BDE8F08F2DE9F04704460D4616464D
:100490001F46DDE908893B46324629462046FFF7DC
:1004A000DCFE4B46424639463046FFF7D6FE2B4629
:1004B000224649464046FFF7D0FEBDE8F087028855
:1004C0000B8803800A8070472DE9FF4F85B0002616
:1004D0000027BDF81800BDF82010884207DD08A9E4
:1004E00006A8FFF7ECFF07A905A8FFF7E8FFBDF88E
:1004F0002000BDF84C10884207DD08A913A8FFF7BB
:10050000DEFF07A912A8FFF7DAFFBDF81800BDF853
:100510002010884207DD08A906A8FFF7D0FF07A929
:1005200005A8FFF7CCFFBDF81800BDF84C108842B5
:1005300038D1BDF8140003900490BDF81C00BDF83C
:100540001010884203DABDF81C00049008E0BDF8E2
:100550001C00BDF80C10884202DDBDF81C000390A1
:10056000BDF84800BDF81010884203DABDF8480015
:10057000049008E0BDF84800BDF80C10884202DD88
:10058000BDF8480003902D4800880090BDF8183051
:10059000BDF80C201946BDF81000FFF727FE09B082
:1005A000BDE8F08FBDF81C00BDF81410A0EB010BE6
:1005B000BDF82000BDF81810401A0290BDF84800A0
:1005C000BDF81410451ABDF84C00BDF81810A0EB8A
:1005D0000109BDF84800BDF81C10A0EB010ABDF8E8
:1005E0004C00BDF82010401A0190BDF82000BDF865
:1005F0004C10884202D1BDF8208004E0BDF82000F4
:10060000401E1FFA80F8BDF818402CE0029896FBB7
:10061000F0F0BDF81410084480B2049097FBF9F094
:10062000BDF81410084480B203905E442F44BDF816
:100630001000BDF80C1003E07C0000202E0000200C
:10064000884203DD03A904A8FFF739FFFE480088AC
:1006500023460090BDF80C202146BDF81000FFF79E
:10066000C5FD601C84B24445D0DDBDF82000201AD1
:1006700000FB0AF6BDF81800201A00FB05F727E07A
:10068000019896FBF0F0BDF81C10084480B204906D
:1006900097FBF9F0BDF81410084480B2039056445B
:1006A0002F44BDF81000BDF80C10884203DD03A9EB
:1006B00004A8FFF704FFE448008823460090BDF833
:1006C0000C202146BDF81000FFF790FD601C84B29D
:1006D000BDF84C008442D3DD00BF60E72DE9FF4F39
:1006E00083B081468A469346DDE91064D648008887
:1006F0000290A6F12000C6B204EBD47009EB6000B2
:10070000401E82B20AEB0400401E83B251464846A6
:10071000019402F0FAFD129850BB002525E00C2C44
:1007200007D106EB4600C94901EB800010F80580AF
:1007300004E0C74800EB061010F8058000270DE024
:1007400008F0010018B1584602F082FD02E0069858
:1007500002F07EFD4FEA6808781CC7B204EBD47142
:10076000B7EB610FECDB681CC5B2A542D7DB2DE00F
:10077000002529E00C2C07D106EB4600B34901EB1C
:10078000800010F8058004E0B14800EB061010F876
:100790000580002711E0AC48A0F800B008F0010087
:1007A00038B10AEB050291B209EB070290B202F0F0
:1007B000DEFD4FEA6808781CC7B204EBD471B7EBD2
:1007C000610FE8DB681CC5B2A542D3DB9E490298E5
:1007D0000880A0484088401E83B29E480088401E82
:1007E00082B20021084602F090FD07B0BDE8F08F0C
:1007F0002DE9FE4306460F4615461C46DDF82880C7
:100800001DE094480088401EB04204DB91484088B7
:10081000401EB84201DABDE8FE8320788DE8210150
:100820008D4803888848028839463046FFF756FFCE
:10083000284605EBD07106EB61018EB2641C20786E
:100840007E2802DC20782028DBDA00BFE3E710B541
:100850000246012000E050430B1EA1F10104E1B269
:10086000F9D110BD2DE9FF4F83B0074691461E46D2
:10087000109C4FF0000A002543E0701B401EC1B2DF
:100880000A20FFF7E4FFB9FBF0F00A21B0FBF1F218
:1008900001FB1208BAF1000F1BD1701EA84218DD2F
:1008A000B8F1000F13D100202021A346CDE9001498
:1008B000029004EBDB71491001FB057188B26649B7
:1008C0000B8861490A880499FFF708FF17E04FF089
:1008D000010A002108F13000C0B2A346CDE9014170
:1008E000009004EBDB71491001FB057188B25A4995
:1008F0000B8855490A880499FFF7F0FE00BF681C71
:10090000C5B2B542B9DB07B0BDE8F08F2DE9FC5F99
:100910000546884691469A46DDF830B00095352068
:10092000019000245FE004EB04104C4911F8100022
:100930009BF80010884253D104EB0410474901EBA7
:10094000400040789BF80110884249D108F10F001F
:1009500083B205F10F0082B24146284602F0D5FC71
:1009600000263BE0002734E00D9890B904EB04101A
:100970003A4901EB4000801C805D802139410840EC
:1009800018B1484602F064FC21E0504602F060FCD9
:100990001DE02D48A0F8009004EB04102F4901EB56
:1009A0004000801C805D80213941084018B14146DB
:1009B000284602F0DCFC681C85B20098281A102832
:1009C00005D1009D08F101001FFA80F803E0781CB2
:1009D000C7B2082FC8DB00BF701CC6B2202EC1DB17
:1009E00000BF601C84B2019884429CDB1948408897
:1009F000401E83B217480088401E82B2002108467C
:100A000002F083FCBDE8FC9F2DE9FC5F05468846AB
:100A100091469A46DDF830B00095042001900024FC
:100A200076E004EB840000EB44100D4911F810004F
:100A30009BF80010884268D104EB840000EB44105E
:100A4000074901EB40000DE02E0000205E61000828
:100A5000D26500087C00002030000020C26B000836
:100A6000CC72000840789BF8011088424DD108F103
:100A7000170083B205F1170082B24146284602F002
:100A800044FC00263FE0002738E00D98A0B904EBB5
:100A9000840000EB4410FE4901EB4000801C805DA7
:100AA00080213941084018B1484602F0D1FB23E0CB
:100AB000504602F0CDFB1FE0F648A0F8009004EB92
:100AC000840000EB4410F24901EB4000801C805D83
:100AD00080213941084018B14146284602F047FCC0
:100AE000681C85B20098281A182805D1009D08F1C5
:100AF00001001FFA80F803E0781CC7B2082FC4DB9E
:100B000000BF701CC6B2482EBDDB00BF601C84B2A3
:100B10000198844285DBE0484088401E83B2DE486D
:100B20000088401E82B20021084602F0EEFBBDE8BC
:100B3000FC9F2DE9FC5F0546884691469A46DDF804
:100B400030B000950420019000245FE004EB841095
:100B5000D24911F810009BF80010884253D104EBE1
:100B60008410CE4901EB400040789BF80110884288
:100B700049D108F11F0083B205F11F0082B241463E
:100B8000284602F0C2FB00263BE0002734E00D9827
:100B900090B904EB8410C14901EB4000801C805DDA
:100BA00080213941084018B1484602F051FB21E04C
:100BB000504602F04DFB1DE0B648A0F8009004EB53
:100BC0008410B64901EB4000801C805D80213941D2
:100BD000084018B14146284602F0C9FB681C85B29E
:100BE0000098281A202805D1009D08F101001FFA5D
:100BF00080F803E0781CC7B2082FC8DB00BF701C68
:100C0000C6B2802EC1DB00BF601C84B20198844252
:100C10009CDBA1484088401E83B29F480088401E4C
:100C200082B20021084602F070FBBDE8FC9F2DE96E
:100C3000FF4F83B0064688469146DDE91147109D77
:100C4000B2464FF0000B71E0BBF1000F40D104EB56
:100C5000D471914A1288A2EB6101B14204DB8E4942
:100C60004988091B414502DA07B0BDE8F08F2878B2
:100C7000802802DD4FF0010B58E028780D2806D1BE
:100C800008EB04001FFA80F856466D1C1EE0102C7D
:100C90000DDD102128788DE883004A464146304614
:100CA000069BFFF71BFD06F1080086B20EE02878D0
:100CB0008DE891004A4641463046069BFFF70EFDFF
:100CC000204604EBD07106EB61018EB26D1C2DE065
:100CD00071480088001BB04204DB6F484088001B4D
:100CE000404500DAC0E74FF0000B202C08D1CDE9D9
:100CF00000574A4641463046069BFFF71AFF12E06E
:100D0000182C08D1CDE900574A4641463046069B8B
:100D1000FFF77AFE07E0CDE900574A4641463046E4
:100D2000069BFFF7F3FDAD1C301986B2287800282A
:100D30008AD100BF98E72DE9FE4F0E461746984628
:100D4000DDE90D9A0C9C204604F0E2FB85B2524985
:100D50000988A1EBC50000EBD071C1F34F0B4346EE
:100D60003A46314658468DE81006FFF760FFBDE869
:100D7000FE8F2DE9F04706460F46154607F127007E
:100D800083B206F1270082B23946304602F0BDFA3E
:100D900000240AE015F8149005EB440090F8018057
:100DA00049EA082002F054FA641CB4F5C86FF1DB7C
:100DB00039484088401E83B237480088401E82B2BE
:100DC0000021084602F0A1FABDE8F087F8B5044614
:100DD0000D4616462F4806802A1F91B2621E90B219
:100DE00002F0C5FA2B48008802F0E3F92948008890
:100DF00002F0DFF96A1E91B2221F90B202F0B7FA38
:100E0000211F88B2294602F0B2FA6A1C91B2221F51
:100E100090B202F0ACFA6A1E91B2221D90B202F0BA
:100E2000A6FA211D88B2294602F0A1FA6A1C91B2E5
:100E3000221D90B202F09BFA2A1D91B2621E90B25E
:100E400002F095FA1348008802F0B3F911480088BF
:100E500002F0AFF9EF1CBBB2E71CBAB2EF1EB9B299
:100E6000E71EB8B20096FFF7C1F9F8BDF8B5054620
:100E70000C4616461F4648F2104006490880234695
:100E8000324621462846FFF7E8F9601C81B207E0A8
:100E9000CC7200082E0000207C000020F4730008B3
:100EA0003B462A462846FFF7D8F90020FE4908802D
:100EB00004F1010C1FFA8CF3A6F1010C1FFA8CF25D
:100EC00004F1010C1FFA8CF105F1010C1FFA8CF0F2
:100ED000FFF7C3F9A7F1010C1FFA8CF305F1010C20
:100EE0001FFA8CF204F1020C1FFA8CF105F1010CCF
:100EF0001FFA8CF0FFF7B1F94FF6FF70EA4908804E
:100F00003B46324639462846FFF7A7F93B4632466C
:100F100021463046FFF7A1F94CF21860E2490880FB
:100F2000A7F1010C1FFA8CF3A6F1010C1FFA8CF249
:100F3000A7F1010C1FFA8CF105F1010C1FFA8CF0DE
:100F4000FFF78BF9A7F1010C1FFA8CF3A6F1010C46
:100F50001FFA8CF204F1010C1FFA8CF1A6F1010CBE
:100F60001FFA8CF0FFF779F94FF6FF70A7F1020C2A
:100F70001FFA8CF3A6F1020C1FFA8CF204F1020C9A
:100F80001FFA8CF105F1020C00901FFA8CF0FFF7AC
:100F90002DF9F8BD2DE9F04104460D4616461F46D1
:100FA0004CF21860C04908802B463246294620463C
:100FB000FFF753F93B46224629462046FFF74DF9F5
:100FC0004FF6FF70B849088005F1010C1FFA8CF349
:100FD000A6F1010C1FFA8CF205F1010C1FFA8CF13D
:100FE00004F1010C1FFA8CF0FFF737F9A7F1010C9F
:100FF0001FFA8CF304F1010C1FFA8CF205F1010CBD
:101000001FFA8CF104F1010C1FFA8CF0FFF725F99F
:101010000020A54908803B46324639462046FFF766
:101020001CF93B46324629463046FFF716F948F28E
:1010300010409D490880A7F1010C1FFA8CF3A6F11E
:10104000010C1FFA8CF2A7F1010C1FFA8CF104F1CC
:10105000010C1FFA8CF0FFF700F9A7F1010C1FFA41
:101060008CF3A6F1010C1FFA8CF205F1010C1FFAAA
:101070008CF1A6F1010C1FFA8CF0FFF7EEF8BDE839
:10108000F081F8B505460E4614461F46E2B23B46CF
:1010900031462846FFF77EFF4CF21860A7F1020C9C
:1010A0001FFA8CF3A4F1020C1FFA8CF206F1020C69
:1010B0001FFA8CF105F1020C00901FFA8CF0FFF77B
:1010C00095F8F8BD2DE9F04104460D4616461F4639
:1010D0000020754908802B46324629462046FFF7F6
:1010E000BCF83B46224629462046FFF7B6F848F2B0
:1010F00010406D490880681C83B2701E82B2681C63
:1011000081B2601CFFF7A9F8781E83B2681C81B217
:10111000621C601CFFF7A1F84CF21860624908805D
:10112000781E83B2701E82B2781E81B2601CFFF7F7
:1011300094F8A7F1010C1FFA8CF3A6F1010C1FFA29
:101140008CF205F1010C1FFA8CF1A6F1010C1FFACB
:101150008CF0FFF782F84FF6FF70534908803B464A
:10116000324639462046FFF778F83B463246294654
:101170003046FFF772F8BDE8F08170B504460D46C1
:1011800000204949088005F10806B3B204F10E06B3
:10119000B2B205F10806B1B2A61DB0B2FFF75DF814
:1011A00005F10906B3B204F10D06B2B205F1090664
:1011B000B1B2E61DB0B2FFF750F805F10A06B3B2BE
:1011C00004F10C06B2B205F10A06B1B204F1080648
:1011D000B0B2FFF742F805F10B0291B2721C90B267
:1011E00002F0C5F805F10B0291B2B21C90B202F008
:1011F000BEF805F10B0291B2F21C90B202F0B7F802
:1012000005F10C0291B2B21C90B202F0B0F870BDC0
:101210002DE9FE4305460C4616461F46DDF828809C
:101220003B46324621462846FFF72BFF40F2CF10BF
:1012300004F1190C1FFA8CF3A6F1030C1FFA8CF2BF
:1012400004F1030C1FFA8CF105F1030C00901FFA56
:101250008CF0FEF7CBFFA7F1030C1FFA8CF3A6F17D
:10126000030C1FFA8CF204F11D0C1FFA8CF105F12E
:10127000030C1FFA8CF0FFF7F9FD4FF6FF700A49D7
:10128000088040F2CF100949088001201021A21DDA
:10129000CDE90081029091B26A1D90B2034A138891
:1012A000014A128804E000002E00002030000020D7
:1012B000FFF7BDFCBDE8FE8300F0A3F8482003F073
:1012C000CDFF02F035F91FE000F05FF900F030FFCC
:1012D00000F082F900F002FA00F0C8FA00F0D6FB44
:1012E00000F07DFB00F0C4FC00F0FFFC00F000FE0D
:1012F00000F092FF01F0DBF801F03EFA01F063FB31
:1013000001F00EFC01F058FCDEE7704700BFFEE77D
:1013100000BFFEE700BFFEE700BFFEE77047704773
:10132000704770470CB50020019000906C48006831
:1013300040F480306A49086000BF6948006800F4E2
:10134000003000900198401C0190009818B9019855
:10135000B0F5A06FF1D16248006800F4003010B120
:101360000120009001E0002000900098012843D166
:101370005C48006840F010005A4908600846006860
:1013800020F0030008600846006840F00200086092
:1013900053484068524948600846406848600846DB
:1013A000406840F4806048600846406820F47C1043
:1013B00048600846406840F4E81048600846006805
:1013C00040F08070086000BF4548006800F0007081
:1013D0000028F9D04248406820F0030040494860A6
:1013E0000846406840F00200486000BF3C48406842
:1013F00000F00C000828F9D10CBD10B5FFF792FFE2
:1014000010BD10B53648006840F00100344908604E
:101410000846406834490840314948600846006839
:10142000324908402E4908600846006820F48020B0
:1014300008600846406820F4FE0048604FF41F0032
:101440008860FFF7DAFF4FF000602949086010BD9F
:1014500010B5002100200022214B5B6803F00C0135
:1014600021B1042906D0082928D107E0214B224CBC
:10147000236027E01F4B204C236023E0184B5B6860
:1014800003F47010164B5B6803F48032022303EB05
:10149000904022B9194B4343174C23600DE0104B89
:1014A0005B6803F4003323B1144B4343124C2360B5
:1014B00003E0104B4343104C236003E00D4B0E4CF4
:1014C000236000BF00BF064B5B68C3F303130C4CE3
:1014D000E15C094B1B68CB40074C236010BD00004A
:1014E00000100240002002400000FFF8FFFFF6FE5F
:1014F00008ED00E000127A000000002000093D0025
:10150000040000203EB504464FF6FF7001F069FF6D
:101510001F200090FC480088401E82B21423002146
:101520000846FEF763FE1F200090F7484088401EE3
:1015300083B2F5480088401E82B2F34840881438D0
:1015400081B20020FEF752FE4FF6FF70EF4908808F
:10155000012010211F234FF6FF72CDE900410290B8
:1015600002210020FFF7E7FB01201021E8A2CDE9CE
:1015700000210290E4484088123881B21F234FF6C0
:10158000FF720020FFF7D7FB3EBD0EB54FF6FF7090
:1015900001F027FF01201021E2A21F23CDE9002145
:1015A0000290DA023C210020FFF7C5FB0120102148
:1015B000E0A21F23CDE9002102904FF61F025A211D
:1015C0000020FFF7B8FB40F2DC5003F061FE40F270
:1015D000DC5003F05DFE0EBD0EB54FF6FF700090BF
:1015E000C9484088401E83B2C7480088401E82B266
:1015F00000210846FEF7FAFD01201021D3A24FF684
:10160000E073CDE9002102901F221E211420FFF774
:101610000EFB4FF4487003F03BFE4FF4784000900F
:10162000B9484088401E83B2B7480088401E82B245
:1016300000210846FEF7DAFD01201021C5A24FF671
:10164000E073CDE9002102901F221E211420FFF734
:10165000EEFA4FF4487003F01BFE4FF4FC6000906C
:10166000A9484088401E83B2A7480088401E82B225
:1016700000210846FEF7BAFD01201021B7A24FF65F
:10168000E073CDE9002102901F221E211420FFF7F4
:10169000CEFA4FF4487003F0FBFD1F2000909A48EB
:1016A0004088401E83B298480088401E82B20021C4
:1016B0000846FEF79BFD01201021AAA24FF6E07319
:1016C000CDE9002102904FF478421E211420FFF74B
:1016D000AEFA4FF4487003F0DBFD0EBD2DE9F84380
:1016E0000024A2A0FFF70EFF4FF6FF70009086487F
:1016F0004088143883B284480088401E82B2142186
:101700000020FEF773FD00BF48E09C4830F814004D
:101710007E490880DFF8F0C1BCF8025005EBD57CAB
:101720004FEA6C0CACF1500CC4EB0419CC440CF136
:101730003C0C1FFA8CF3DFF8D0C1BCF8006006EB5C
:10174000D67C4FEA6C0CACF1500CC4EB0419CC44C1
:101750000CF13C0C1FFA8CF2DFF8ACC1BCF8027043
:1017600007EBD77C4FEA6C0CACF1500CC4EB0419BE
:10177000CC441FFA8CF1DFF890C1BCF8008008EB74
:10178000D87C4FEA6C0CACF1500CC4EB0419CC447F
:101790001FFA8CF0FEF7B9FD601CC4B2052CB4DB57
:1017A00040F2DC5003F074FD4FF6FF700090564895
:1017B0004088143883B254480088401E82B21421F5
:1017C0000020FEF713FD002448E06C4830F81400B8
:1017D0004E490880DFF830C1BCF8027007EBD77CB7
:1017E0004FEA6C0CACF1500CC4EB0419CC440CF176
:1017F0003C0C1FFA8CF3DFF810C1BCF8005005EB6D
:10180000D57C4FEA6C0CACF1500CC4EB0419CC4401
:101810000CF13C0C1FFA8CF2DFF8ECC0BCF8028033
:1018200008EBD87C4FEA6C0CACF1500CC4EB0419FB
:10183000CC441FFA8CF1DFF8D0C0BCF8006006EB96
:10184000D67C4FEA6C0CACF1500CC4EB0419CC44C0
:101850001FFA8CF0FEF779FD601CC4B2052CB4DBD6
:1018600040F2DC5003F014FDBDE8F883F8B5002425
:1018700043A0FFF747FE4FF6FF70009022484088D4
:10188000143883B220480088401E82B21421002000
:10189000FEF7ACFC00BF1FE000201B4B00905D88F2
:1018A00005EBD5735B10323B04EBC40707EB041761
:1018B000D919154B1E8806EBD6735B10503B04EB11
:1018C000C40707EB0417D8192C4B33F814201E2338
:1018D000FEF78CFD601CC4B2052CDDDB40F2DC5051
:1018E00003F0D6FC4FF6FF7000900748408814388C
:1018F00083B205480088401E82B214210020FEF702
:1019000075FC002464E000007C0000202E00002014
:10191000332E35696E636820554E4F2054657374BD
:1019200000000000D7DBBACFB2E2CAD4B3CCD0F209
:1019300000000000332E352220494C493934383814
:10194000203332305834383000000000424C2054EC
:10195000657374005245442000000000475245451D
:101960004E200000424C554520000000B2E2CAD48F
:10197000333ABED8D0CEB2E2CAD400001400002060
:10198000B2E2CAD4343AD4B2D0CEB2E2CAD4000061
:101990000120F54B00905D8805EBD5735B10323B61
:1019A00004EBC40707EB0417D919EF4B1E8806EBAD
:1019B000D6735B10503B04EBC40707EB0417D81930
:1019C000EA4B33F814201E23FEF710FD601CC4B24E
:1019D000052CDDDB40F2DC5003F05AFCF8BD0EB5FF
:1019E000E3A0FFF78FFD00200C21E5A24FF6E07386
:1019F000CDE9002102901F221E210A20FFF717F9CE
:101A000001200C21E9A24FF6E073CDE900210290FC
:101A10001F222D210A20FFF70AF900200C21EEA237
:101A20004FF6E073CDE9002102901F223C210A20ED
:101A3000FFF7FDF800201021EFA24FF6E073CDE98B
:101A4000002102901F2250210A20FFF7F0F8012008
:101A50001021F4A24FF6E073CDE9002102901F227D
:101A600064210A20FFF7E3F800201021F8A24FF6C6
:101A7000E073CDE9002102901F2278210A20FFF7B0
:101A8000D6F84FF4966003F003FC0EBD2DE9FC5F21
:101A90000024F7A0FFF736FD4FF6FF700090B24824
:101AA0004088143883B2B0480088401E82B21421A6
:101AB0000020FEF79BFB00BF5DE0AC4830F814004F
:101AC000F0490880A848458805EBD57040101438C7
:101AD000C4EB0411084481B2A348068806EBD67013
:101AE0004010153804EB840200EB820080B2DFF86E
:101AF00078C2CDE90001BCF8027007EBD77C4FEA51
:101B00006C0CACF1490CC4EB041BDC441FFA8CF3E5
:101B1000DFF854C2BCF8008008EBD87C4FEA6C0CAC
:101B2000ACF1330C04EB840B0CEB8B0C1FFA8CF236
:101B3000DFF834C2BCF8029009EBD97C4FEA6C0C98
:101B4000ACF1140CC4EB041BDC441FFA8CF1DFF87D
:101B500018C2BCF800A00AEBDA7C4FEA6C0CACF1BE
:101B6000500C04EB840B0CEB8B0C1FFA8CF0FEF783
:101B70008AFC601CC4B2052C9FDB40F2DC5003F0F1
:101B800087FB4FF6FF70009077484088143883B287
:101B900075480088401E82B214210020FEF726FB03
:101BA00000245DE0714830F81400B64908806E48A2
:101BB000458805EBD57040101438C4EB0411084477
:101BC00081B26948068806EBD6704010153804EBE0
:101BD000840200EB820080B2DFF88CC1CDE9000105
:101BE000BCF8027007EBD77C4FEA6C0CACF1490CE7
:101BF000C4EB041BDC441FFA8CF3DFF86CC1BCF8A7
:101C0000008008EBD87C4FEA6C0CACF1330C04EB91
:101C1000840B0CEB8B0C1FFA8CF2DFF84CC1BCF878
:101C2000029009EBD97C4FEA6C0CACF1140CC4EBBC
:101C3000041BDC441FFA8CF1DFF82CC1BCF800A0B7
:101C40000AEBDA7C4FEA6C0CACF1500C04EB840B21
:101C50000CEB8B0C1FFA8CF0FEF736FC601CC4B248
:101C6000052C9FDB40F2DC5003F012FBBDE8FC9F2B
:101C70000EB585A0FFF746FC0020102186A24FF686
:101C8000E073CDE9002102901F221E210A20FEF7F9
:101C9000CEFF0020102184A24FF6E073CDE9002191
:101CA00002901F2232210A20FEF7C1FF01201821D5
:101CB00081A24FF6E073CDE9002102901F22462158
:101CC0000A20FEF7B4FF012020217FA24FF6E07327
:101CD000CDE9002102901F2264210A20FEF7A7FF10
:101CE0004FF4966003F0D4FA0EBD0EB57AA0FFF75C
:101CF00009FC7D4A1E210846FFF73BF80120102110
:101D00007AA24FF6E073CDE9002102901F224B2109
:101D10002A20FEF78CFF744A1E215A20FFF729F86B
:101D20000120102171A24FF6E073CDE9002102904D
:101D30001F224B216620FEF77AFF6B4A1E21962058
:101D4000FFF717F80120102168A24FF6E073CDE9E4
:101D5000002102901F224B21A220FEF768FF4FF4C2
:101D6000966003F095FA0EBD7C0000201400002060
:101D7000B2E2CAD4363AD3A2CEC4B2E2CAD4000088
:101D8000365831323A6162636465666768696A6BC6
:101D90006C6D6E6F707172737475767778797A3056
:101DA0003132333435363738390000003658313265
:101DB0003A4142434445464748494A4B4C4D4E4FB1
:101DC000505152535455565758595A303132333472
:101DD0003536373839000000365831323A7E2140E6
:101DE0002324255E262A28295F2B7B7D3A3C3E3F13
:101DF0002F7C2D2B2E000000385831363A6162635B
:101E00006465666768696A6B6C6D6E6F707172731A
:101E10007475767778797A303132333435363738AD
:101E200039000000385831363A414243444546476C
:101E300048494A4B4C4D4E4F5051525354555657AA
:101E400058595A303132333435363738390000007A
:101E5000385831363A7E21402324255E262A282907
:101E60005F2B7B7D3A3C3E3F2F7C2D2B2E000000CC
:101E7000B2E2CAD4353A547269616E676C65B2E2F7
:101E8000CAD400002E000020B2E2CAD4373AD6D01D
:101E9000CEC4B2E2CAD4000031365831363ABBB6AD
:101EA000D3ADC4FA0000000031365831363A5765D8
:101EB0006C636F6D6500000032345832343AD6D00E
:101EC000CEC4B2E2CAD4000033325833323AD7D645
:101ED000CCE5B2E2CAD40000B2E2CAD4383ACDBCF2
:101EE000C6ACB2E2CAD40000FC7500085151000033
:101EF00010B588B00024FE4B0FCBCDE90623CDE909
:101F0000040100BF23E0204601F0C1FAF9A0FFF769
:101F1000F9FA0121102204A850F824004FF6E073CA
:101F2000CDE9012100901F221E211420FEF77FFE23
:101F3000F44A32211E20FEF71CFF4FF47A7003F0A2
:101F4000A7F94FF47A7003F0A3F9601CC4B2042C13
:101F5000D9DB002001F09BFA08B010BD08B50025C0
:101F60000026002702F0B7FB01F09AF802F036FDD8
:101F7000E5A0FFF7C7FA0120EB490090098818395E
:101F800088B2EAA310220021FEF732FC4FF4784019
:101F9000E7490880E449009009881C398AB2E2497F
:101FA0000988323988B212230221FEF71FF9BEE0F8
:101FB00001F09FF80446DF48416800208847DD486B
:101FC000007D00F08000002879D0DA48008AD649E8
:101FD0000988884276DAD748408AD34949888842B6
:101FE00070DAD448018AD04800881838814222DD4E
:101FF000D048408A10281EDAC3A0FFF783FA0120D8
:10200000C94900900988183988B2C8A31022002154
:10201000FEF7EEFBC64807800088C3490090098898
:102020001C398AB2C0490988323988B21223022188
:10203000FEF7DCF846E0BF48018ABB48008832382A
:10204000814234DDBB48018AB74800881C38814290
:102050002DDAB848408A142829DA052096FBF0F1D9
:1020600000FB1160B44931F81080AF49CDF8008011
:1020700009881C398AB2AC490988323988B21223DE
:102080000221FEF7B3F83046711C8EB2052190FB99
:10209000F1F201FB1200A84931F81000A4490880B0
:1020A000084607880A2003F0F3F80BE007E0A14A8E
:1020B000518A108A9E4A128801F0D7FC02E00A2059
:1020C00003F0E6F8012C25D14FF6FF7001F089F9F5
:1020D00001F097FE01F05FFD8BA0FFF713FA0120DE
:1020E000914900900988183988B290A310220021E4
:1020F000FEF77EFB8E48078000888B490090098898
:102100001C398AB288490988323988B212230221DF
:10211000FEF76CF8681C85B21E2D08D10025874893
:10212000006808B9012000E00020844908603FE70A
:1021300070B58CB0002009900A900B90142104A86F
:1021400003F005FA7EA0FFF7DDF94FF6FF7000906F
:1021500075484088143883B273480088401E82B2A4
:1021600014210020FEF742F801F06CFA06463246D0
:1021700079A109A803F0C8F80120102109AA4FF697
:10218000E073CDE9002102901F2219213220FEF7D1
:102190004EFD002438E0724830F81400644908808D
:1021A00004EBC40000EB041000F1410304EBC40095
:1021B00000EB04102D3081B232221E20FEF7C5F84C
:1021C00004EBC40000EB041000F13701282001F0FB
:1021D000DAF805462A4663A104A803F095F8012021
:1021E000102104AACDE90021029004EBC40000EB09
:1021F00004102F3081B24FF6E0734D4802883C2026
:10220000FEF715FD601CC4B2072CC4DB40F2DC50A5
:1022100003F03EF80CB070BD2DE9FE4F424908882E
:1022200000EBD071C1F347053F49488800EBD071FE
:10223000C1F347061427C7EBC7000A2190FBF1F052
:10224000C4B24FF064094CA0FFF75CF90020009085
:1022500035484088143883B233480088401E82B223
:1022600014210020FDF7C2FF4FF6FF7030490880AF
:102270000020464908800120102145A2CDE9002117
:102280000290294AB2F802A00AEBDA7207EB620266
:102290000A3291B2244A1288A2F1600B0BEBDB7276
:1022A000C2F34F00394A1388214A1288FEF7BFFC57
:1022B0004FF00008F1E0F01B81B24FF6FF722846A4
:1022C000FEF784FD484602F0E3FF321B91B2281965
:1022D0004FF6FF72FEF77AFD484602F0D9FFF01B79
:1022E00081B200222846FEF771FD484658E0000002
:1022F0007C820008B2E2CAD4393AD0FDD7AAB2E251
:10230000CAD40000FC750008B2E2CAD431303A5495
:102310006F75636828B0B44B455930D0A3D7BC293A
:1023200020202020202000007C0000205253540058
:102330002E0000203400002014000020A0012142C3
:10234000B2E2CAD4323AB6C14944BACDD1D5C9AB4A
:10235000D6B5B2E2CAD4000049443A3078257800B4
:102360001E0000207265616420636F6C6F723A30EA
:102370007825303458000000B2E2CAD431313A47EF
:102380005549204C6F6164696E6700003000002081
:102390004C6F6164696E672E2E2E2E2E0000000099
:1023A00002F076FFE8194FF6FF723146FEF70EFD98
:1023B000484602F06DFF321B91B228190022FEF749
:1023C00005FD484602F064FF311928194FF6FF72E7
:1023D000FEF7FCFC484602F05BFFE819002231469C
:1023E000FEF7F4FC484602F053FFF1194FF6FF7276
:1023F0002846FEF7EBFC484602F04AFF311928193F
:102400000022FEF7E3FC484602F042FF31192A1B86
:1024100090B24FF6FF72FEF7D9FC484602F038FF43
:10242000F11900222846FEF7D1FC484602F030FFA1
:10243000E91B88B24FF6FF723146FEF7C7FC4846EB
:1024400002F026FF31192A1B90B20022FEF7BEFCD3
:10245000484602F01DFF321B91B22A1B90B24FF684
:10246000FF72FEF7B3FC484602F012FFE91B88B288
:1024700000223146FEF7AAFC484602F009FF321B53
:1024800091B22A1B90B20022FEF7A0FC484602F04F
:10249000FFFE08F1010000F0FF08B8F1020FFFF69F
:1024A0000AAF40F2DC5002F0F3FEBDE8FE8F0EB53D
:1024B000FBA0FFF727F848F230400090FD48408825
:1024C000143883B2FB480088401E82B214210020D9
:1024D000FDF78CFE4923C82232210846FEF7C6FCD0
:1024E0004723C6223421B320FEF7CBFD3421B3208D
:1024F000FEF743FE4FF4FA7002F0CAFE4FF4FA7092
:1025000002F0C6FE4FF4FA7002F0C2FE4723C62264
:102510003421B320FEF7D6FD4CF218604323C222CB
:1025200038210090B720FDF761FE3521B420FEF779
:1025300024FE4FF4FA7002F0ABFE4FF4FA7002F092
:10254000A7FE4FF4FA7002F0A3FE4723C6223421FF
:10255000B320FEF71FFD4CF218604323C22238213E
:102560000090B720FDF742FE3421B320FEF705FEB0
:102570000020D14908808F23C8224A213220FDF74C
:10258000C4FE4FF6FF708E23C7224B2100903320EC
:10259000FDF72CFE40F2CF106123C7224B210090A3
:1025A0003320FDF723FE4FF6FF70C349088040F249
:1025B000CF10C249088001201021C1A2CDE900211D
:1025C0000290BE480388BC4802884F213520FEF7A0
:1025D0002EFB0020B84908804FF6FF70B7490880ED
:1025E00001201021BAA2CDE900210290B34803884E
:1025F000B148028865213520FEF719FB0120102122
:10260000B7A2CDE900210290AC480388AA4802880D
:102610007C213520FEF70BFB4FF4FA7002F038FEF8
:102620004FF4FA7002F034FE4FF4FA7002F030FE0C
:102630004FF6FF706123C7224B2100903320FDF736
:10264000D5FD00209C4908804FF6FF709B4908800B
:10265000012010219AA2CDE9002102909748038819
:10266000954802884F213520FEF7E1FA40F2CF105D
:102670007823C722622100903320FDF7B7FD4FF683
:10268000FF708D49088040F2CF108C4908800120EE
:1026900010218FA2CDE90021029088480388864846
:1026A000028865213520FEF7C2FA4FF4FA7002F075
:1026B000EFFD4FF4FA7002F0EBFD4FF4FA7002F008
:1026C000E7FD4FF6FF707823C72262210090332088
:1026D000FDF78CFD0020784908804FF6FF707749A0
:1026E0000880012010217AA2CDE9002102907348D0
:1026F00003887148028865213520FEF798FA40F278
:10270000CF108E23C722792100903320FDF76EFD74
:102710004FF6FF706849088040F2CF106749088083
:10272000012010216EA2CDE90021029063480388A8
:10273000614802887C213520FEF779FA4FF4FA705F
:1027400002F0A6FD4FF4FA7002F0A2FD4FF4FA7009
:1027500002F09EFD4FF4FA7002F09AFD48F230400C
:102760008F23C8224A2100903220FDF73FFD40F21E
:10277000DC5002F08DFD0EBD2DE9FE434FF0010946
:1027800014251E249626822758A0FEF7BBFE4FF67E
:10279000FF70009047484088143883B2454800884D
:1027A000401E82B214210020FDF720FD3B46324638
:1027B00021462846FEF765FC40F2CF10A7F14B0CEE
:1027C0001FFA8CF3A6F1030C1FFA8CF2E11C0090A7
:1027D000E81CFDF70BFD012010214AA2CDE90021E4
:1027E0000290611D05F11900344A1388324A12889B
:1027F000FEF71DFAA7F1050C1FFA8CF3A6F1460CA3
:102800001FFA8CF204F14601681DFEF73AFCA7F1AD
:10281000050C1FFA8CF3A6F1050C1FFA8CF204F1DB
:10282000460105F14600FEF72CFC002022490880F5
:102830004CF21860214908800120102134A2CDE912
:102840000021029004F14A0105F119001B4A138886
:10285000194A1288FEF7EBF9012010212DA2CDE9CB
:102860000021029004F14A0105F14B00134A13883C
:10287000114A1288FEF7DBF90120102127A2CDE9C9
:102880000021029004F1230105F150000B4A138846
:10289000094A1288FEF7CBF905F11A0864E0000036
:1028A000B2E2CAD431323A47554920436F6D626F64
:1028B000000000007C0000202E00002030000020DE
:1028C00053544D20494350204272696467650000AB
:1028D00053544D20505020427269646765000000D7
:1028E0004E6F6E652049535000000000B2E2CAD41A
:1028F00031333A4755492050726F677265734261B0
:102900007200000050726F6772657342617200005E
:102910004F4B000043616E63656C000025000000B2
:102920004FF4784004F1440293B20F3A91B26A1D19
:10293000009090B24246FDF759FC282002F0A8FC16
:10294000102004F1230291B205F13E02009090B2F2
:1029500002234A46FDF786FF09F1010000F0FF0956
:1029600008F1010000F0FF08701F4045D8DC4CF270
:10297000186004F1320C1FFA8CF3A6F1050C1FFA53
:102980008CF204F1230C1FFA8CF105F1050C009078
:102990001FFA8CF0FDF72AFC01201021FEA2CDE9E0
:1029A0000021029004F1230291B205F1190290B2C4
:1029B000FC4A13881F22FEF73AF940F2DC5002F07D
:1029C00067FCBDE8FE8338B5F7A0FEF79BFD4FF628
:1029D000FF700090FA484088143883B2F8480088A5
:1029E000401E82B214210020FDF700FC0020F549B2
:1029F0000880D223142232211046FDF72EFC322308
:102A000014223C210A20FDF728FC322314223C2109
:102A10001E20FDF722FCD223DC2219461420FDF7EC
:102A20001CFCD223DC22C8211846FDF716FCD22359
:102A3000DC2211461846FDF710FC4FF47840D123F4
:102A40003722502100902320FDF7D0FB4FF6E07095
:102A5000D1235F22822100904B20FDF7C7FB1F206E
:102A6000D12387223C2100907320FDF7BFFB4FF458
:102A7000FC60D123AF225A2100909B20FDF7B6FBCA
:102A8000322002F005FC51240DE04FF6FF70234682
:102A90003722502100902320FDF7A8FB0A2002F0E6
:102AA000F7FB601C84B2D12CEFDBD0240DE04FF497
:102AB0007840D1233722214600902320FDF796FB52
:102AC0000A2002F0E5FB601E84B2642CEFDC812456
:102AD0000DE04FF6E07082235F22214600904B20EC
:102AE000FDF784FB0A2002F0D3FB601E84B2502C59
:102AF000EFDC19240DE04FF6FF70234687221821E2
:102B000000907320FDF772FB0A2002F0C1FB601CED
:102B100084B2A02CEFDB40F2DC5002F0B9FB38BDF0
:102B20002DE9F84302241E25A54800884000032112
:102B300090FBF1F086B2A24840881E3887B28846E2
:102B4000A1A0FEF7DFFC48F2304000909C4840888E
:102B5000143883B29A480088401E82B214210020A3
:102B6000FDF744FB00BFAFF258203B4632462946F2
:102B700000902046FEF74CFB4FF4FA7002F088FB01
:102B80004FF4FA7002F084FB04F10F0084B205F1F7
:102B90000F0085B2A6F11E0086B2A7F11E0087B213
:102BA000A8F10100C0B2B0F10008DCD140F2DC5065
:102BB00002F06EFBBDE8F8830EB588A0FEF7A2FC1C
:102BC0004FF6FF7000907E484088143883B27C48EE
:102BD0000088401E82B214210020FDF707FB5A2313
:102BE000AA223C211E20FEF741F95A23EB223C2168
:102BF000B420FEF746FA0020724908804CF21860B3
:102C0000684908800120102179A2CDE900210290B5
:102C1000644803886B4802884321B820FEF707F810
:102C20001F20684908804FF6FF705E490880012028
:102C3000102171A2CDE9002102905A480388614811
:102C4000028826211E20FDF7F2FF37233E22194677
:102C50001E20FDF702FB0120102169A2CDE9002111
:102C60000290504803885748028826217620FDF7B5
:102C7000DEFF3723962219467620FDF7EEFA002074
:102C800050490880012010215EA2CDE90021029068
:102C9000444803884B48028826214620FDF7C7FF99
:102CA0004FF4FA7002F0F4FA4FF4FA7002F0F0FA0E
:102CB0004FF4FA7002F0ECFA012010214322CDE922
:102CC00000210290374803883E4802884321232090
:102CD000FDF704FD4FF4FA7002F0DAFA012010213A
:102CE0006F22CDE9002102902E48038835480288E2
:102CF00043212B20FDF7F2FC4FF4FA7002F0C8FAE2
:102D0000012010217222CDE900210290254803887C
:102D10002C48028843213320FDF7E0FC4FF4FA7081
:102D200002F0B6FA012010217422CDE900210290B0
:102D30001C4803882348028843213A20FDF7CEFC33
:102D40004FF4FA7002F0A4FA012010216522CDE9B7
:102D500000210290134803881A4802884321422028
:102D6000FDF7BCFC4FF4FA7002F092FA012010213A
:102D70007822CDE9002102900A4803881148028890
:102D800043214A20FDF7AAFC4FF4FA7002F080FAC2
:102D9000012010212D2239E053756363657373217F
:102DA0002121000030000020B2E2CAD431343A4779
:102DB0005549204261725265706F727400000000C4
:102DC0007C0000202E000020B2E2CAD431353A4700
:102DD00055492057696E646F77000000B2E2CAD48B
:102DE00031363A47554920427574746F6E000000C1
:102DF00053656172636800004E65777300000000E0
:102E0000506963004C6162656C000000CDE90021EF
:102E10000290734803887348028843215220FDF7CB
:102E20005DFC4FF4FA7002F033FA012010214D22BC
:102E3000CDE9002102906A4803886A48028843214C
:102E40005820FDF74BFC4FF4FA7002F021FA5A2398
:102E5000EB223C21B420FEF735F9002061490880BF
:102E60004CF218605E49088001201021AFF2800208
:102E7000CDE9002102905A4803885A48028843212C
:102E8000B820FDF7D4FE4FF4FA7002F001FA5A238D
:102E9000EB223C21B420FEF77DF800205149088048
:102EA0004CF218604E49088001201021AFF2C00298
:102EB000CDE9002102904A4803884A48028843210C
:102EC000B820FDF7B4FE4FF47840464908804FF62D
:102ED000FF70434908800120102143A2CDE9002161
:102EE00002903F4803883F48028864210C20FDF788
:102EF0009EFE0120102143A2CDE900210290384816
:102F000003883848028878210C20FDF790FE0120C4
:102F1000102144A2CDE900210290314803883148B4
:102F200002888C210C20FDF782FE0120102145A291
:102F3000CDE9002102902A4803882A480288A0216E
:102F40000C20FDF774FE0120102145A2CDE90021DF
:102F500002902348038823480288B4210C20FDF7FF
:102F600066FE0120102146A2CDE9002102901C48F6
:102F700003881C480288C8210C20FDF758FE4FF436
:102F8000FA7002F085F94FF4FA7002F081F94FF40B
:102F9000FA7002F07DF94FF4FA7002F079F94FF40B
:102FA000FA7002F075F94FF4FA7002F071F94FF40B
:102FB000FA7002F06DF94FF4FA7002F069F94FF40B
:102FC000FA7002F065F94FF4FA7002F061F94FF40B
:102FD000FA7002F05DF94FF4FA7002F059F90EBD83
:102FE000300000202E0000205468652041524D2002
:102FF000436F727465782D4D20697320612067726C
:103000006F7570006F662033322D626974205249EB
:1030100053432041524D2070726F636573736F721A
:1030200000000000636F726573206C6963656E73E6
:1030300065642062792041524D20486F6C64696E4E
:1030400067732E0054686520636F72657320617228
:103050006520696E74656E64656420666F72200019
:103060006D6963726F636F6E74726F6C6C657220E2
:103070007573652C616E6420636F6E736973740081
:103080006F662074686520436F727465782D4D30CB
:103090002F4D312F4D322F4D332F4D342E00000048
:1030A00008B50121142002F075F80121284801F02B
:1030B00086FE4FF40040ADF8000048208DF8030074
:1030C0006946244801F0AAFD2020ADF80000482000
:1030D0008DF803006946204801F0A0FD0120ADF8FD
:1030E000000028208DF8030069461A4801F096FD7B
:1030F00008BD10B52021184801F023FE58B14FF447
:103100000041144801F01DFE28B10121114801F0D1
:1031100018FE012819D10A2002F0BAF820210E4821
:1031200001F00FFE08B9012010BD4FF4004109481D
:1031300001F007FE08B90220F6E70121054801F079
:1031400000FE012801D10320EEE70020ECE700009B
:103150000002300000080140001001404FF40071EF
:10316000FE4A5161FE490860802151611161890068
:103170001161704710B54FF40070F8494861402064
:103180004861012002F0A0F8F548001F006884B2F1
:103190004020F2490861C0000861204610BD00B51A
:1031A00003464FF48070ED4948611846FFF7D6FF9B
:1031B00000BD00B503464FF48070E8490861184629
:1031C000FFF7CCFF00BD10B54FF48070E3490861F4
:1031D000FFF7D0FF10BD30B505460C462846FFF777
:1031E000DEFF2046FFF7E5FF30BD70B506460C4612
:1031F00015463046FFF7D3FF4FF08830D8490C39D9
:103200000860091D08604FF6FF70D549086003E0AB
:10321000FFF7D9FF04F8010B281EA5F10105F7D12E
:103220004FF03330CE490C390860091D08604FF665
:10323000FF70CB49086070BD00B5CA490889FFF727
:10324000AEFF00BD00B5C7494889FFF7A8FF00BD24
:103250004FF48071C14A1161490051610112C04AA5
:1032600011608021BD4A51611161BD490860802112
:103270005161116189001161704710B5034603F077
:10328000F800000201F0FC0440EAC40040EAD20069
:1032900010BD70B54FF48070B049086140004861BE
:1032A00040204861012002F00FF8AD48001F00687F
:1032B00084B24020A94908614861012002F004F865
:1032C000A748001F006884B24020A44908614861F3
:1032D000012001F0F9FFA248001F006885B24020DC
:1032E0009E4908614861012001F0EEFF9C48001FE3
:1032F000006886B2402099490861C0000861F2B2B6
:10330000E9B2E0B2FFF7B9FF70BDF0B504460D4673
:1033100016461F4693498889FFF741FF2012FFF7A1
:1033200048FFE0B2FFF745FF3012FFF742FFF0B26F
:10333000FFF73FFF8B49C889FFF731FF2812FFF7DE
:1033400038FFE8B2FFF735FF3812FFF732FFF8B267
:10335000FFF72FFFFFF770FFF0BD30B504460D46B5
:103360002B46224629462046FFF7CFFF30BD30B519
:1033700004460D4629462046FFF7EFFF7A480088AD
:10338000FFF766FF30BD70B504460D4675480088EE
:10339000A04203DD73484088A84201DC002070BDD4
:1033A00029462046FFF7D9FFFFF74CFF4FF0883042
:1033B0006B490C390860091D08604FF6FF706849B9
:1033C0000860FFF766FF06464FF0333064490C395A
:1033D0000860091D08604FF6FF70614908603046BB
:1033E000DDE730B505465F484088401E83B25D4842
:1033F0000088401E82B200210846FFF786FF0024A5
:1034000003E02846FFF724FF641C564840885549CE
:1034100009884843A042F4D830BD08B501211920DD
:1034200001F0B8FE0121514801F0C9FC4FF4FA60E7
:10343000ADF8000003208DF8020010208DF8030085
:103440006946464801F0EAFB4FF4FA61434801F04F
:1034500092FC4FF6FF70ADF80000694640480C380A
:1034600001F0DCFB4FF6FF713D480C3801F083FCA6
:1034700008BD10B5102039494861642001F008FFEB
:10348000102036490861322001F002FF10BD10B54E
:1034900004462A20334988812B20C8812C200881AA
:1034A0002E2048812046E11704EB91718910A4EB8E
:1034B00081012C4A91711046807930B1012810D0D9
:1034C00002281AD0032830D123E04FF4A0702549F8
:1034D00008804FF4F070488048213620FFF77BFECB
:1034E00024E04FF4F0701F4908804FF4A07048802A
:1034F00028213620FFF76FFE18E04FF4A07019491D
:1035000008804FF4F070488088213620FFF763FE72
:103510000CE04FF4F070134908804FF4A07048801D
:1035200028213620FFF757FE00E000BF00BF10BD86
:1035300010B5FFF772FFFFF79CFF0120FFF72FFE8A
:10354000322001F0A5FE2820FFF729FEC020FFF75A
:1035500026FE1020FFF72DFE102009E0001001408C
:103560000C0C01407C0000202E00002000023000E6
:10357000FFF71FFEC120FFF712FE4120FFF719FEE3
:10358000C520FFF70CFE0020FFF713FE2220FFF7F7
:1035900010FE8020FFF70DFE4020FFF70AFE3620C8
:1035A000FFF7FDFD0820FFF704FEB020FFF7F7FD51
:1035B0000020FFF7FEFDB120FFF7F1FDB020FFF77F
:1035C000F8FD1120FFF7F5FDB420FFF7E8FD02201C
:1035D000FFF7EFFDB620FFF7E2FD0220FFF7E9FD60
:1035E0000220FFF7E6FD3B20FFF7E3FDB720FFF7E2
:1035F000D6FDC620FFF7DDFD3A20FFF7D0FD5520B0
:10360000FFF7D7FDF720FFF7CAFDA920FFF7D1FD8F
:103610005120FFF7CEFD2C20FFF7CBFD8220FFF7D6
:10362000C8FD1120FFF7BBFD962001F031FE2920D7
:10363000FFF7B5FD0020FFF72AFF4FF6FF70FFF7F9
:10364000D0FE10BD08B50020009004226946D320AA
:10365000FFF7CBFD9DF803009DF8021040EA012022
:1036600008BD10B501F08EF810BD70B504460026F7
:1036700001F0A2F82546E11704EB11610912A0221E
:1036800002EB4101C8B201F045F901F0D6F8E117AB
:1036900004EB11610912A4EB0121C8B201F03AF95F
:1036A00001F0CBF801F088F8A12001F033F901F026
:1036B000C4F8002001F05BF9064601F09FF830469F
:1036C00070BD70B504460E4601F076F82546E11748
:1036D00004EB11610912A02202EB4101C8B201F012
:1036E00019F901F0AAF8E11704EB11610912A4EB32
:1036F0000121C8B201F00EF901F09FF8304601F047
:1037000009F901F09AF801F079F80A2001F0C0FDFA
:1037100070BD2DE9F04105460E461746002409E02C
:10372000E20026FA02F2D1B22A1990B2FFF7C9FFDD
:10373000601CC4B2BC42F3DBBDE8F0812DE9F0416E
:1037400007460C460026002509E036023919491BB8
:10375000491E88B2FFF789FF0644681CC5B2A5421E
:10376000F3DB3046BDE8F08110B5FF20FFF77DFFA9
:103770000446552C01D1002010BD5521FF20FFF734
:10378000A0FFFF20FFF771FF0446552C01D1002058
:10379000F2E70120F0E770B506460C46154608E052
:1037A0003046721C96B2FFF760FF04F8010B681EEA
:1037B00085B2002DF4D170BD70B505460C46164695
:1037C00006E021782846FFF77CFF681C85B2641C60
:1037D000301EA6F101018EB2F3D170BD002100BFF1
:1037E00015E000F080021AB10122FE4B1A6002E0DF
:1037F0000022FC4B1A604206100E0022F94B0C3BD3
:103800001A600122F84BC3F880214A1CD1B2082962
:10381000E7DB704770B50646002500240020F1491B
:103820000C390860F049C1F88C01EE492831086074
:103830003046FFF7D3FF062001F046FD0020EA499D
:10384000C1F88001012001F03FFD0120E5490C395C
:1038500008600020E449C1F8800100BF13E04FF682
:10386000FF7000EA44040020DE490C3908600120A2
:10387000DD49C1F88001DB488438006808B1601C6C
:1038800084B2681CC5B2102DE9DB24110120D54992
:1038900028310860204670BD2DE9FE438046002790
:1038A000002406E04046FFF7B5FF2DF81400601C29
:1038B00084B2052CF6DB002416E0601C85B20FE014
:1038C0003DF814003DF81510884207DD3DF81460FE
:1038D0003DF815002DF814002DF81560681C85B210
:1038E000052DEDDB601C84B2042CE6DB00270124EF
:1038F00005E03DF81400384487B2601C84B2042C03
:10390000F7DB032097FBF0F086B23046BDE8FE837C
:103910002DE9F04104460D46B4480078FFF7BCFF9E
:103920000646B3480078FFF7B7FF074626802F808A
:103930000120BDE8F0817FB504460D4602A903A829
:10394000FFF7E6FF064616B9002004B070BD6946D1
:1039500001A8FFF7DDFF06460EB90020F5E7BDF828
:103960000400BDF80C10884206DCBDF80C10BDF850
:103970000400323081420CDBBDF80C00BDF80410AD
:10398000884236DCBDF80410BDF80C0032308142AC
:103990002FDABDF80000BDF80810884206DCBDF83B
:1039A0000810BDF80000323081420CDBBDF8080081
:1039B000BDF8001088421CDCBDF80010BDF80800FE
:1039C0003230814215DABDF80C10BDF80420881899
:1039D00000EBD071C1F34F012180BDF80810BDF894
:1039E0000020881800EBD071C1F34F01298001201D
:1039F000ABE70020A9E7F8B504460D4616467D481A
:103A0000068004F10D018AB2193988B22B46294685
:103A1000FCF723FC05F10D0083B2193881B2224670
:103A20002046FCF71AFC6A1C91B2621C90B2FFF7A8
:103A30009EFC6A1C91B2621E90B2FFF798FC6A1E4F
:103A400091B2621C90B2FFF792FC6A1E91B2621EA4
:103A500090B2FFF78CFC0020062300906548028896
:103A600029462046FCF7C2FCF8BD70B504460D4659
:103A700016466048068029462046FFF778FC611C00
:103A800088B22946FFF773FC681C81B22046FFF715
:103A90006EFC6A1C91B2621C90B2FFF768FC70BDAC
:103AA0002DE9F04104464F4888380068002853D17A
:103AB00024B15149881EFFF73EFF3CE04E49881E65
:103AC000FFF739FFB8B34C491239B1F9200002F0C1
:103AD000D9F9074648491239088A02F0EBF98046BD
:103AE000454812388169404602F0F8F906463946E1
:103AF00002F068F8054602F0A5F93F49123908823C
:103B0000B1F9220002F0BEF907463B491239488A52
:103B100002F0D0F9804638481238C169404602F0B8
:103B2000DDF90646394602F04DF8054602F08AF9FD
:103B300031491239488230481238007D00F0800047
:103B400010BBC0202C49123908750846008A8881AC
:103B50000846408AC88117E027481238007D00F0E7
:103B6000800040B124481238007D20F080002249B6
:103B70001239087508E000201F4912398881C88170
:103B80004FF6FF70088248821B481238007D00F013
:103B90008000BDE8F08170B517491239886917496E
:103BA00002F09CF9054602F031F904460422214650
:103BB0002820FFF7AEFD10491239C8690F4902F0FD
:103BC0008DF9054602F022F90446042221462C20F4
:103BD000FFF79FFD08481238B0F92010022230206C
:103BE0000EE000008C012242000022425C00002016
:103BF0005D0000202E0000204600002020BCBE4CAE
:103C0000FFF787FDFB48B0F9221002223220FFF7B0
:103C100080FDF84890F824103420FFF752FD0A2464
:103C200021463520FFF74DFD70BD70B53520FFF7FB
:103C30001CFD04460A2C42D104212820FFF77EFDFA
:103C40000446204602F01EF90546EB4902F01CF836
:103C5000E849886104212C20FFF770FD04462046C6
:103C600002F010F90546E44902F00EF8E149C86196
:103C700002213020FFF762FD00B2DE4908840221F4
:103C80003220FFF75BFD00B2DA4948843420FFF7A9
:103C9000ECFCD84981F82400084690F8240030B1A3
:103CA0009020D6490870D020D549087005E0D02072
:103CB000D24908709020D2490870012070BD0020C0
:103CC000FCE72DE9F84F04460D4617461E46DDE990
:103CD0000CABDDE90A894FF47840CA49088001201D
:103CE000C9A310228C2100902820FCF781FD01201F
:103CF000C6A310228C2100907820FCF779FD0120CA
:103D0000C3A31022A02100902820FCF771FD012000
:103D1000C0A31022A02100907820FCF769FD0120AB
:103D2000BDA31022B42100902820FCF761FD0120E2
:103D3000BAA31022B42100907820FCF759FD01208D
:103D4000B7A31022C82100902820FCF751FD0120C4
:103D5000B4A31022C82100907820FCF749FD01206F
:103D6000B1A31022DC2100902820FCF741FD102097
:103D7000042322468C2100904020FCF773FD102084
:103D800004232A468C2100909020FCF76BFD102024
:103D900004233A46A02100904020FCF763FD102048
:103DA00004233246A02100909020FCF75BFD1020F8
:103DB00004234246B42100904020FCF753FD10201C
:103DC00004234A46B42100909020FCF74BFD1020BC
:103DD00004235246C82100904020FCF743FD1020E8
:103DE00004235A46C82100909020FCF73BFD102088
:103DF00003230090DC2160200E9AFCF733FDBDE820
:103E0000F88F00B595B0002010900A9010901F20F8
:103E10007C4908804FF6FF7085490880FFF7E1FA7A
:103E20004FF47840774908804FF6FF70FFF7D9FAD2
:103E300000207449088001207EA3102228210090D0
:103E40000A20FCF7D5FC012081A310223821009024
:103E50000A20FCF7CDFC012084A310224821009009
:103E60000A20FCF7C5FC012087A3102258210090EE
:103E70000A20FCF7BDFC01208AA3102268210090D3
:103E80000A20FCF7B5FC4FF4784214210846FFF7EE
:103E9000B2FD002057490875886154E255484068D2
:103EA00009900120099988475248007D00F0C00020
:103EB00040287AD100200A904E48007D20F0400032
:103EC0004C4908750846018A11AA109822F820105A
:103ED0004848418A109802EB800041801098401CAD
:103EE000C0B210901098012806D0022815D00328DF
:103EF00029D0042810D141E04FF6FF721421084662
:103F0000FFF779FD6B480088143880B24FF478428F
:103F100014210990FFF76FFDC8E366480088143844
:103F200080B24FF6FF7214210990FFF764FD6148DB
:103F30004088143880B24FF478420146099014202A
:103F4000FFF759FDB2E35B484088143880B24FF662
:103F5000FF72014609901420FFF74DFD5548408837
:103F6000143880B2099053480088143880B24FF456
:103F7000784208900999FFF73EFD97E3BDF84400A9
:103F8000BDF84810401A0990002801DB099801E0AB
:103F9000099840420D90BDF8461011A8C088081A33
:103FA0000990002802DB099802E080E3099840426A
:103FB0000C900D9840430D900C9840430C90DDE917
:103FC0000C100844059001F012FCCDE9060101F047
:103FD000AFFBCDE9080101F0DDFB80B20F90BDF829
:103FE0004C00BDF85010401A0990002864DB099875
:103FF00064E061E03400002020BCBE4C5C00002086
:104000005D0000202E00002078313A0079313A001E
:1040100078323A0079323A0078333A0079333A000C
:1040200078343A0079343A006661632069733A0063
:1040300030000020506C65617365207573652074D5
:104040006865207374796C757320636C69636B00A9
:104050007468652063726F7373206F6E2074686577
:104060002073637265656E2E000000005468652041
:1040700063726F73732077696C6C20616C77617900
:1040800073206D6F76650000756E74696C207468BE
:10409000652073637265656E2061646A7573746D03
:1040A000656E7400697320636F6D706C6574656410
:1040B0002E0000007C000020099840420D9011A8BD
:1040C0004189C089081A0990002801DB099801E09C
:1040D000099840420C900D9840430D900C98404335
:1040E0000C90DDE90C100844059001F080FBCDE94F
:1040F000060101F01DFBCDE9080101F04BFB80B288
:104100000E900E9801F0D6FE09900F9801F0D2FEA5
:104110000890099901F0B8FD0B900B9801F026FD6D
:104120004FF06632FE4BCDE9080101F073FB0DD371
:104130000B9801F01BFDFB4AFB4BCDE9080101F098
:10414000F9FB03D30F9808B10E98E8BB002010903C
:10415000F6484088143880B20990F4480088143832
:1041600080B24FF6FF7208900999FFF744FC4FF4B4
:10417000784214210846FFF73EFCED490B9801F008
:10418000ADFE089001F05EFE80B211A90990C989C8
:10419000BDF8502011AB5B89CDE90132CDE90310A8
:1041A000BDF84C00009011A8C0880890BDF84800E8
:1041B0000790BDF846000690BDF84400059006A99A
:1041C0000EC9FFF77EFD81E2FFE7BDF84400BDF8B0
:1041D0004C10401A0990002801DB099801E0099869
:1041E00040420D90BDF8461011A84089081A099068
:1041F000002801DB099801E0099840420C900D98D5
:1042000040430D900C9840430C90DDE90C1008449D
:10421000059001F0ECFACDE9060101F089FACDE94B
:10422000080101F0B7FA80B20F90BDF84800BDF860
:104230005010401A0990002801DB099801E0099804
:1042400040420D9011A8C188C089081A0990002821
:1042500001DB099801E0099840420C900D98404319
:104260000D900C9840430C90DDE90C10084405902B
:1042700001F0BDFACDE9060101F05AFACDE90801D5
:1042800001F088FA80B20E900E9801F013FE0990AA
:104290000F9801F00FFE0890099901F0F5FC0B90C2
:1042A0000B9801F063FC4FF066329D4BCDE908019D
:1042B00001F0B0FA09D30B9801F058FC994A9A4BD7
:1042C000CDE9080101F036FB3ED20020109097485E
:1042D0004088143880B2099094480088143880B21D
:1042E0004FF6FF7208900999FFF785FB4FF478426B
:1042F00014210846FFF77FFB8D490B9801F0EEFD76
:10430000089001F09FFD80B20146099011A8C08974
:10431000BDF8502011AB5B89CDE90132CDE9030135
:10432000BDF84C00009011A8C0880890BDF8480066
:104330000790BDF846000690BDF84400059006A918
:104340000EC9FFF7BEFCC1E1BDF84800BDF84C1036
:10435000401A0990002801DB099801E009984042C1
:104360000D9011A8C1884089081A0990002801DB26
:10437000099801E0099840420C900D9840430D9037
:104380000C9840430C90DDE90C100844059001F0B6
:104390002EFACDE9060101F0CBF9CDE9080101F0D3
:1043A000F9F980B20F90BDF84400BDF85010401AE2
:1043B0000990002801DB099801E0099840420D901E
:1043C000BDF8461011A8C089081A0990002801DB21
:1043D000099801E0099840420C900D9840430D90D7
:1043E0000C9840430C90DDE90C100844059001F056
:1043F000FEF9CDE9060101F09BF9CDE9080101F0D4
:10440000C9F980B20E900E9801F054FD09900F98F2
:1044100001F050FD0890099901F036FC0B900B98C3
:1044200001F0A4FB4FF066323D4BCDE9080101F0ED
:10443000F1F909D30B9801F099FB3A4A3A4BCDE9CF
:10444000080101F077FA3ED20020109037484088EA
:10445000143880B2099035480088143880B24FF67D
:10446000FF7208900999FFF7C6FA4FF478421421B9
:104470000846FFF7C0FA2E490B9801F02FFD08906F
:1044800001F0E0FC80B20246099011A8C189BDF894
:10449000500011AB5B89CDE90130CDE90312BDF8C5
:1044A0004C00009011A8C0880890BDF84800079003
:1044B000BDF846000690BDF84400059006A90EC957
:1044C000FFF7FFFB02E1BDF84800BDF84410401AB9
:1044D000079001F0D7FC099014480088283807900D
:1044E00001F0D0FC0890099901F0CEFB11498861D8
:1044F000BDF84800BDF844100844049001F0C2FC27
:1045000005900C48806901460490059801F0E6FC8E
:10451000079006480088059001F0CCFC06900BE05F
:104520006666EE3FCDCCCCCCCCCCF03F7C000020FE
:104530000000C84234000020079901F09BFD4FF0B5
:104540008041089001F0A0FB099001F05FFC00B2EF
:104550007B49088411A84089BDF84610401A07908D
:1045600001F090FC0990774840882838079001F0C6
:1045700089FC0890099901F087FB7149C86111A86D
:104580004089BDF846100844049001F07BFC05907A
:104590006B48C06901460490059801F09FFC0790A4
:1045A00068484088059001F085FC0690079901F065
:1045B00061FD4FF08041089001F066FB099001F029
:1045C00025FC00B25E49488408468069079001F0E6
:1045D0001DFC0890002801DB089801E00898404283
:1045E00002280DDC5648C069079001F00FFC0990C5
:1045F000002801DB099801E00998404202283ADDD1
:10460000002010904F484088143880B209904D48DF
:104610000088143880B24FF6FF7208900999FFF7AE
:10462000EAF94FF4784214210846FFF7E4F9012033
:1046300045A310221A2100902820FCF7D9F8404801
:1046400090F8240008B9012000E000203C4981F8DE
:104650002400084690F8240030B190203F490870AB
:10466000D0203F49087005E0D0203C4908709020D8
:104670003B4908702AE01F203A4908804FF6FF7036
:10468000FEF7AFFE012038A310226E2100902320F8
:10469000FCF7AEF84FF47A7000F0FAFDFFF77BFA02
:1046A0004FF6FF70FEF79DFE15B000BD00BF0A205B
:1046B00000F0EEFD0A98401C80B20A900A98B0F50E
:1046C0007A7F02DDFFF7B1FA02E000BFFFF7E6BB39
:1046D00000BF00BFE8E708B50121112000F05AFD36
:1046E00042F20900ADF8000010208DF8030003200D
:1046F0008DF802006946224800F090FA0620ADF8D5
:10470000000048208DF8030069461D4800F086FA35
:104710000B491231881EFFF7FBF8FEF7A2FFFFF7E7
:1047200084FA08B1002008BD4FF6FF70FEF759FE6D
:10473000FFF767FBFFF72FFAFFF777FA0120F2E7A1
:10474000340000207C0000205450204E6565642019
:10475000726561646A757374210000005C0000205A
:104760005D0000202E000020546F756368205363A5
:104770007265656E2041646A757374204F4B210029
:104780000010014008B50121102000F003FD4FF496
:10479000C050ADF8000010208DF8030003208DF804
:1047A000020069468A4800F039FA01208949086008
:1047B0008949C1F8AC0108BD10B58548406820F4AE
:1047C0007040834948600846406840F44050486063
:1047D00001208049091F08607F49C1F8B001042009
:1047E00000F072FD00207B49091F0860042000F0E2
:1047F0006BFD00207849C1F8B00110BD10B57448B8
:10480000406820F47040724948600846406840F4AF
:104810004050486000206F4908606F49C1F8AC0102
:10482000042000F051FD01206A4908606A49C1F87E
:10483000AC01042000F048FD10BD10B50024644810
:10484000406820F47040624948600846406840F47F
:104850000040486001205F49091F086000F034FDF6
:1048600001205D49C1F8B00100F02EFD07E0601C99
:10487000C4B2FA2C03DDFFF7C1FF012010BD55487B
:10488000843800680028F2D15249086000BFF5E77B
:1048900010B500204F4908604D48406820F4704032
:1048A0004B4948600846406840F44050486000204A
:1048B0004949C1F8AC01022000F006FD012045493C
:1048C0000860022000F000FD00204349C1F8B0015B
:1048D00010BD10B500203F4908603D48406820F4F5
:1048E00070403B4948600846406840F4405048608A
:1048F00001203949C1F8AC01022000F0E5FC01209B
:1049000034490860022000F0DFFC00203249C1F881
:10491000B00110BD70B504462D48406820F47040C9
:104920002B4948600846406840F4405048600020E9
:1049300028490860002517E0E0092649091F08609A
:104940006006040E022000F0BFFC01202249C1F8DD
:10495000B001022000F0B8FC00201E4908600220CF
:1049600000F0B2FC681CC5B2082DE5DB70BD70B567
:10497000054600241648406820F4704014494860F9
:104980000846406840F400404860002616E00020D9
:1049900010490860022000F097FC01200E49C1F880
:1049A000B0016006040E0B488438006808B1601C32
:1049B000C4B2012000F088FC701CC6B2082EE6DBF1
:1049C00015B9FFF786FF01E0FFF762FF204670BDD3
:1049D00000100140B00122420000224208B501212E
:1049E000042000F0D7FB4FF48070ADF800001020D9
:1049F0008DF8030003208DF8020069460E4800F090
:104A00000DF94FF480710C4800F0B5F90121202018
:104A100000F0C0FB0420ADF8000010208DF803006A
:104A200003208DF802006946044800F0F7F80421DD
:104A3000024800F0A0F908BD000801400014014040
:104A40000948804709480047FEE7FEE7FEE7FEE722
:104A5000FEE7FEE7FEE7FEE7FEE7FEE7044805495E
:104A6000054A064B70470000031400083101000896
:104A7000F0000020F0060020F0020020F0020020EC
:104A800031490143314A1160704770B5002100235C
:104A90000F22C47804B32D4C246804F4E064C4F5F8
:104AA000E064210AC1F10403CA40447804FA03F126
:104AB0008478144021430901254C0678A1550478D7
:104AC00004F01F050124AC4005786D11AD0005F11F
:104AD000E025C5F8004109E0047804F01F05012431
:104AE000AC401C4D0678761145F8264070BD1A4A38
:104AF0000A400243154B1B1F1A60704739B1134A15
:104B0000121D12680243114B1B1D1A6006E00F4A6A
:104B1000121D126882430D4B1B1D1A60704704283A
:104B200008D14FF0E021096941F004014FF0E02283
:104B3000116107E04FF0E021096921F004014FF015
:104B4000E0221161704700000000FA050CED00E062
:104B500000E400E080E100E080FFFF1F10B50446A4
:104B6000CC48844208D10121042000F02DFB002113
:104B7000042000F029FB46E0C748844208D1012107
:104B8000082000F021FB0021082000F01DFB3AE086
:104B9000C248844208D10121102000F015FB0021F9
:104BA000102000F011FB2EE0BD48844208D1012105
:104BB000202000F009FB0021202000F005FB22E06E
:104BC000B848844208D10121402000F0FDFA0021BC
:104BD000402000F0F9FA16E0B348844208D10121E0
:104BE000802000F0F1FA0021802000F0EDFA0AE0C8
:104BF000AE48844207D10121801500F0E5FA00217A
:104C0000A01500F0E1FA10BD10B50121084600F032
:104C1000DBFA0021012000F0D7FA10BD2DE9F041A8
:104C2000024600250026002000230024002791F8DA
:104C300003C00CF00F0591F803C00CF0100CBCF190
:104C4000000F03D091F802C04CEA050591F800C0AE
:104C5000BCF1000F31D0146800202BE04FF0010CA4
:104C60000CFA00F3B1F800C00CEA03069E4220D112
:104C700083004FF00F0C0CFA03F7BC4305FA03FC5A
:104C80004CEA040491F803C0BCF1280F06D14FF0A0
:104C9000010C0CFA00FCC2F814C00AE091F803C041
:104CA000BCF1480F05D14FF0010C0CFA00FCC2F822
:104CB00010C0401C0828D1D31460B1F800C0BCF16A
:104CC000FF0F34DD546800202EE000F1080C4FF097
:104CD000010808FA0CF3B1F800C00CEA03069E4282
:104CE00021D183004FF00F0C0CFA03F7BC4305FAF7
:104CF00003FC4CEA040491F803C0BCF1280F05D171
:104D000000F1080C08FA0CF8C2F8148091F803C0FE
:104D1000BCF1480F07D100F1080C4FF0010808FA68
:104D20000CF8C2F81080401C0828CED35460BDE8AF
:104D3000F0814FF6FF710180022181700421C17062
:104D400070470246002093680B400BB1012000E041
:104D5000002070470146886880B2704702460020F4
:104D6000D3680B400BB1012000E0002070470146E2
:104D7000C86880B2704701617047416170470AB1ED
:104D8000016100E041617047C16070474FF48032BB
:104D90000A43826181618261826982697047024649
:104DA0000020434B18684FF68073184040EA021009
:104DB00008433F4B186070473E49C8617047F0B5E3
:104DC0000A46002300240021002500F00046B6F129
:104DD000004F02D1364EF16901E0354E7168C0F3E3
:104DE000034583B200F44016B6F5401F08D121F008
:104DF00070612F4E766826F070662D4F7E6012E04F
:104E000000F48016B6F5801F06D1032606FA05F4D5
:104E1000A14341F0706106E0460D360103FA06F643
:104E2000B14341F0706122B1460D360103FA06F636
:104E3000314300F00046B6F1004F02D11C4EF16143
:104E400001E01B4E7160F0BD30B500228B071C0FD6
:104E50000F2303FA04F2164B08338C1053F8243056
:104E60009343134C08348D1044F8253023468C109E
:104E700053F824308C07240F00FA04F423430C4C1D
:104E800008348D1044F8253030BD0A49DC31086003
:104E90007047000000080140000C01400010014074
:104EA0000014014000180140001C01400020014096
:104EB0000000014000002042DF48006840F001008F
:104EC000DD49086008464068DC490840DA49486026
:104ED00008460068DA490840D74908600846006873
:104EE00020F4802008600846406820F4FE004860F6
:104EF0004FF41F0088607047CF49096821F4803162
:104F0000CD4A11601146096821F480211160B0F585
:104F1000803F03D0B0F5802F0ED106E0C649096866
:104F200041F48031C44A116007E0C349096841F483
:104F3000A021C14A116000E000BF00BF704710B55A
:104F400001460022002300204A11012A02D1BA4C56
:104F5000236806E0022A02D1B74C236A01E0B64C6E
:104F6000636A01F01F02012494401C400CB101202F
:104F700000E0002010BD38B500200090002400257E
:104F800000BF3120FFF7DBFF05460098401C009072
:104F90000098B0F5A06F01D0002DF2D03120FFF7BE
:104FA000CEFF08B1012400E00024204638BD0146B0
:104FB0000020A14A106820F0F80040EAC10010600B
:104FC0007047A04908607047024600209A4B586815
:104FD00020F47C1042EA01031843974B5860704755
:104FE00098490866704701460020934A506820F0AF
:104FF00003000843506070478F48406800F00C0081
:105000007047014600208C4A506820F0F0000843A9
:105010005060704701460020874A506820F4E060E5
:1050200008435060704701460020834A506820F4CE
:10503000605040EAC1005060704729B17E4A527A00
:1050400002437D4B5A7204E07B4A527A82437A4B88
:105050005A7270477B49D83108607047014600207A
:10506000754A506820F44040084350607047002162
:10507000714A20321170704A82F82010012802D043
:1050800004280AD104E001216B4A2032117005E0A6
:105090000521694A2032117000E000BF00BF70474F
:1050A0006949086070476449096A0143624A1162AC
:1050B0007047654944390860704730B500210022C7
:1050C000002400235C4D6D6805F00C0121B104291A
:1050D00005D0082923D105E05C4D056022E05B4D39
:1050E00005601FE0544D6D6805F47012524D6D68F7
:1050F00005F48034022505EB92421CB9544D55430A
:1051000005600BE04C4D6D6805F400351DB1504D48
:105110005543056002E04D4D5543056002E04B4D9F
:10512000056000BF00BF444D6D6805F0F00109093E
:10513000484D6B5C0568DD4045603F4D6D6805F48A
:10514000E061090A434D6B5C4568DD4085603A4D7E
:105150006D6805F46051C90A3E4D6B5C4568DD40E1
:10516000C560354D6D6805F44041890B3A4D6B5C67
:10517000C568B5FBF3F5056130BD29B12E4A52690A
:1051800002432D4B5A6104E02B4A526982432A4B59
:105190005A61704729B1284A92690243264B9A61A5
:1051A00004E0254A92698243234B9A61704729B1F2
:1051B000214AD2690243204BDA6104E01E4AD269D7
:1051C00082431D4BDA61704729B11B4AD268024302
:1051D000194BDA6004E0184AD2688243164BDA6051
:1051E000704729B1144A12690243134B1A6104E053
:1051F000114A12698243104B1A61704712494039B3
:10520000086070470F49C86470470B49C871704700
:105210000948406A40F0807007494862704701467B
:105220000020054A92680A400AB1012000E00020EF
:105230007047014988727047001002400000FFF873
:10524000FFFFF6FE000042428004424200127A0054
:1052500000093D00640000207400002010B50446E1
:105260006FF00400FFF75BFCE11704EB5171C1F331
:10527000C701234A11701046007800EB4001C1EBD2
:10528000C0104FF6FF7101EAC0001E49088010BD32
:1052900001461C4A12884A434FF0E0235A6100221B
:1052A0009A6101221A6100BF4FF0E022106900F0FC
:1052B00001021AB100F48032002AF5D000224FF02A
:1052C000E0231A619A61704701460D4A12784A43F9
:1052D0004FF0E0235A6100229A6101221A6100BF57
:1052E0004FF0E022106900F001021AB100F48032A0
:1052F000002AF5D000224FF0E0231A619A6170472E
:10530000780000207A0000200FB41CB5074B06AAD5
:105310007B4469460090059800F0ADF9002069468D
:1053200000F0BCF91CBC5DF814FB00008903000010
:1053300070B5044685690068C10601D5302600E0D5
:105340002026C00707D070BDD4E901213046904720
:10535000206A401C20626D1EF6D570BD70B50446F3
:1053600085690078C00707D170BDD4E901212020EC
:105370009047206A401C20626D1EF6D570BD00006B
:1053800070B504460D4621461068AFF300802188B1
:10539000090502D50F4A7A4402E00E4A7A440E32D9
:1053A000002104F1240305E000F00F060009965DDA
:1053B0005E54491C0028F7D120780023000704D54B
:1053C000702D02D009B1022311322046BDE8704091
:1053D00000F0F2B8F22E00002DE9F05F8946044695
:1053E0004FF0000ADFF824B1FB44C0F820A02046AB
:1053F000E168884700287DD0252806D0D4E901211E
:105400009047206A401C2062F1E700255F46204655
:10541000E16888472028064607DB312E05D2B819F7
:1054200010F8200C08B10543F1E7A80701D525F0D5
:105430000405C4F81CA00027C4F818A02A2E09D01F
:10544000304600F06EF938B304EB8708303EC8F8F8
:10545000186019E059F8041B204604EB870291619B
:10546000E1688847012F064618D1E069002820DA54
:1054700025F020051DE0D8F8180000EB800006EBB1
:1054800040003038C8F818002046E16888470646D2
:1054900000F047F90028EED1012F0AD02E2E08D1B6
:1054A0002046E16888477F1C0646022F45F020050C
:1054B000C4DBA069002803DA404245F00105A06181
:1054C000E80701D025F01005A6B1A6F14100192882
:1054D00002D8203645F400654A463146204625600C
:1054E0004D46FAF75FFE60B1012807D0ED1D25F0AB
:1054F000070000E007E000F1080978E705F104097A
:1055000075E730467AE7206ABDE8F09FC82E0000B4
:1055100010B5431C02E010F8011B71B18107FAD1EC
:105520004FF0013202C88C1A8C4314EAC211F9D030
:10553000C01A0A0603D0C01E10BDC01A10BD0A044E
:1055400001D0801E10BD0902FCD0401E10BD4FF0DE
:10555000000200B5134694469646203922BFA0E8C3
:105560000C50A0E80C50B1F12001BFF4F7AF0907CF
:1055700028BFA0E80C5048BF0CC05DF804EB8900C0
:1055800028BF40F8042B08BF704748BF20F8022B03
:1055900011F0804F18BF00F8012B7047704770471B
:1055A000704710B500F080F8006810BD10B50446D3
:1055B00000F07AF8046010BD2DE9F0470D469946D9
:1055C0009246044600F124080168880604D5E06983
:1055D00021F01001216000E00120A84201DD471BFD
:1055E00000E00027A1697A1902EB0900081AA061FE
:1055F0002078C00602D42046FFF79AFE002608E075
:10560000D4E901211AF806009047206A401C761C54
:1056100020624E45F4DB2078C0060AD52046FFF70D
:1056200087FE06E0D4E9012130209047206A401C23
:105630002062381EA7F10107F4DC07E0D4E901215C
:1056400018F805009047206A401C2062281EA5F12A
:105650000105F3DC2046FFF781FE2078000602D525
:105660000220BDE8F0870120FBE7000001694A1C29
:1056700002610878704700B58FB0CDE90131002193
:10568000059105497944CDE9031011466846FFF7B5
:10569000A3FE0FB000BD0000E5FFFFFF0A6802F89F
:1056A000010B0A6070470000004870478C00002022
:1056B000004870478C0000207546FFF7F9FFAE46A2
:1056C00005006946534620F00700854618B020B50E
:1056D000FFF7C4F9BDE820404FF000064FF0000787
:1056E0004FF000084FF0000B21F00701AC46ACE88A
:1056F000C009ACE8C009ACE8C009ACE8C0098D46F7
:10570000704710B50446AFF300802046BDE8104056
:10571000FAF75ABD01491820ABBEFEE72600020089
:10572000704730380A2801D20120704700207047A6
:105730002DE9F04106460F4600F032F9041E0D46F1
:1057400018BF0120284320F00040C0F17F6000F125
:10575000E040C00F0ED0301C18BF0120384320F0AD
:105760000040C0F17F6000F1E040C00F04BF0120A5
:10577000FFF71CFF20462946BDE8F081491058BFBD
:10578000C1F140415B1058BFC3F140438B42EFF37E
:10579000008070474FEA1153A3F58063D3F11E03D5
:1057A000A8BFD3F1200C08DB4FF0004242EAC1222F
:1057B00052EA505232FA03F0704709420BD4102BD0
:1057C000C4BF0020704703F5787CBCF1FF3F05D0D3
:1057D0004FF0FF3070474FF00000704770B500F099
:1057E00055F800BF4992248000207047F0E7B0FAD6
:1057F00080F310FA03F10AD0C3F11D0303F58063AF
:105800004FEA41504FEA035202EBD12170474FF06B
:105810000000704751EA030C17D41CF5801F58BFD5
:10582000BCF5801F00F10680994218BF704708BF81
:105830009042704707D711F5801F58BF13F5801F9E
:1058400019D499427047894270471CF5801F08D5CA
:10585000BCF5801FF7D58B4218BF704708BF824246
:1058600070474FF4001C1CEB410F38BF1CEB430F7B
:1058700001D28B42704770B500F008F892244900BD
:105880004FF000514FF08053FFF778BF0EF1020E3A
:105890002EF0030E5EF8046B364205D4012A43EB6A
:1058A000030515F5001F12D8012841EB010C1CF56A
:1058B000001F0CD80ED14FEAD17C15F5001F0CEB60
:1058C0004C0C0CF1020C08BF4CEBD37C04E04FF005
:1058D000080C01E04FEAD37C0CEB4C0526FA05F6E8
:1058E00006F00706B6F1040C06D20EEB860CBDE8F6
:1058F00070404CF0010C6047DFE80CF0090B02022D
:105900004FF000414FF00000A1F5002170BD194695
:105910001046012851EB010418BFD4F5001484BFD0
:10592000002001F0004170BD0808A0F500114FEA09
:105930003101704753EA010C17D41CF5801F58BF82
:10594000BCF5801F00F106808B4218BF704708BF6E
:105950008242704707D713F5801F58BF11F5801F8B
:1059600019D48B4270479B4270471CF5801F08D5A5
:10597000BCF5801FF7D5994218BF704708BF904209
:1059800070474FF4001C1CEB430F38BF1CEB410F5A
:1059900001D2994270470FB40CBC03BCFFF76BBF38
:1059A0002DE9F04101F5801CBCF5001FC0F2C38059
:1059B0004FEA115C21EA0C510CF1FD0C41F480110D
:1059C0005FEA5C0C0CF5C07C01D3400049413DA46A
:1059D000890241EA905187028E0E0A0CA45D04FBF5
:1059E00004F602FB06F6C6F14046A4FB0662F60D7D
:1059F00046EA422606FB06F4A4FB01235242C3F109
:105A0000404338BF5B1EA6FB02420024E6FB032492
:105A1000D20B42EA4446A6FB0623A1FB02E2A3FB0B
:105A200007E4A4184FF0000252F10002E3FB014228
:105A30006442C2F1404E38BFAEF1010EA6FB042312
:105A40004FF00002E6FB0E32A2FB03464FF00004CB
:105A5000B61954F10004E2FB0264A1FB06E6A4FBC4
:105A600007E816EB08064FF0000858F10008E4FBC1
:105A700001687642C8F1405838BFA8F10108A2FB7E
:105A800006E4A3FB08E52D194FF0000454F10004CF
:105A9000E2FB0854A1FB05E6A7FB04E818EB0608A7
:105AA0004FF0000656F10006E1FB048618F12005D0
:105AB00056F10006A809A8F11B08B10908F03F0833
:105AC000B8F10A0F40EA86601CD901EB0C51BDE821
:105AD000F08100BFFCF5EEE8E2DDD8D3CFCBC7C341
