:100384001200037F007EF81202377FE87E03120317
:10039400F27FE87E031203F27FE07E071202377FCA
:1003A400E87E031203F27FE87E031203F27F1F7ECE
:1003B400001202377FE87E031203F27FE87E031205
:0403C40003F280BF01
:1003F200E4FDFCC3ED9FEE6480F8EC648098501538
:10040200E4FBFA0BBB00010ABA03F8BBE8F50DBD29
:0504120000010C80DE7A
:0104170022C2
:10041800E4FDFCC3ED9FEE6480F8EC648098501511
:10042800E4FBFA0BBB00010AEB64014A70F50DBD51
:0504380000010C80DE54
:01043D00229C
:030000000201AB4F
:0C01AB00787FE4F6D8FD7581070201F2B0
:0A04B8004200000000420002FFFFB6
:100478007E80EE60135F6004D2958002C295C297B9
:08048800D297EEC313FE80EAD7
:010490002249
:0A04C300C292C293120478D2932271
:0804A6001204C3E4FF1204AECE
:0A04AE00D292C293120478D2932276
:10049100AD07AC06C293D292ECFF120478AF0512FD
:0504A1000478D2932253
:0804D6001204C3AF050204AEDD
:0904CD0090000BA3E0FF0204C340
:08023700900011EEF0A3EFF0BE
:10023F00900005E024FFFB900004E034FFFA9000EB
:10024F0007E024FFFE900006E034FF90001BF0A3B0
:10025F00CEF0E4FDFCFFFE120337E4900013F0A391
:10026F00F0900004E0FEA3E0FFC3900014E09F9025
:10027F000013E09E5032E4FBFAD3900007E09B900E
:10028F000006E09A4012900011E0FEA3E0FF120476
:10029F00910BBB00010A80E1900014E004F070C1E3
:0802AF00900013E004F080B997
:0102B7002224
:1003C800AB07AA068D828C83C006C007AE83AF82B6
:1003D80090001BEEF0A3EFF0D007D0061203379081
:0A03E8000000E0FEA3E0FF02049114
:10045D00D2B37F327E001203F2C2B37F327E00121E
:0B046D0003F2D2B37F327E000203F2E4
:1000030012045D7FCF1204C3E4FF1204AE7FC91252
:1000130004AE7F301204AE7FED1204C37F6412047A
:10002300AE7F031204AE7F121204AE7F811204AEC0
:100033007FE81204C37F851204AE7F101204AE7FE3
:100043007A1204AE7FCB1204C37F391204AE7F2C25
:100053001204AEE4FF1204AE7F341204AE7F021228
:1000630004AE7FF71204C37F201204AE7FEA1204AA
:10007300A67FC01204C37F1B1204AE7FC11204C348
:10008300E4FF1204AE7FC51204C37F301204AE1224
:1000930004AE7FC71204C37FB71204AE7F361204C7
:1000A300C37F081204AE7F3A1204C37F551204AE15
:1000B3007FB11204C3E4FF1204AE7F1A1204AE7FB1
:1000C300B61204C37F0A1204AE7FA21204AE7FF2FB
:1000D3001204C3E4FF1204AE7F261204C37F01128D
:1000E30004AE7FE01204C37F0F1204AE7F2A120412
:1000F300AE7F281204AE7F081204AE7F0E1204AE48
:100103007F081204AE7F541204AE7FA91204AE7F9F
:10011300431204AE7F0A1204AE7F0F1204AE120420
:10012300A91204AE1204AE7FE11204C3E4FF120469
:10013300AE7F151204AE7F171204AE7F071204AE12
:100143007F111204AE7F061204AE7F2B1204AE7F22
:10015300561204AE7F3C1204AE7F051204AE7F102C
:100163001204AE1F1204AE7F3F1204AE1204AE7F20
:100173000F1204AE7F2B1204A60F1204AE7F3F12A0
:1001830004AE7F2A1204A61204AE7FEF1204AE7FE0
:10019300111204C37F787E001203F27F291204C375
:0801A300E4FF1202B8D2B222FF
:10033700900015EEF0A3EFF090000DA3E0FF12047C
:10034700C3900015E0FF1204AEA3E0FF1204AEEA6B
:10035700FF1204AEAF031204AE90000FA3E0FF122A
:1003670004C3ECFF1204AEAF051204AE90001BE00D
:0D037700FF1204AEA3E0FF1204AE0204CD9D
:10043E00AB07AA068D828C83C006C007AE83AF823F
:0F044E0090001BEEF0A3EFF0D007D006020337AB
:1002B80090000DE4F0A3742AF0A3E4F0A3742BF0EB
:1002C80090000BE4F0A3742CF0EF14601F1460315D
:1002D80014604324037057900004E4F0A374F0F012
:1002E800A37401F0A37440F07D08803D900004746D
:1002F80001F0A37440F0A3E4F0A374F0F07D6880EB
:1003080028900004E4F0A374F0F0A37401F0A3743F
:1003180040F07DC880139000047401F0A37440F08D
:0F032800A3E4F0A374F0F07DA87F361204D62270
:1001B700020384E493A3F8E493A34003F68001F2D7
:1001C70008DFF48029E493A3F85407240CC8C33349
:1001D700C4540F4420C8834004F456800146F6DF18
:1001E700E4800B01020408102040809004B8E47EEC
:1001F700019360BCA3FF543F30E509541FFEE4930D
:10020700A360010ECF54C025E060A840B8E493A3D3
:10021700FAE493A3F8E493A3C8C582C8CAC583CAFE
:10022700F0A3C8C582C8CAC583CADFE9DEE780BEB6
:0104C2000039
:00000001FF
