:020000040800F2
:10000000D817002049660008D10C0008D30C00085E
:10001000D70C0008DB0C0008DF0C00080000000013
:10002000000000000000000000000000E30C0008D9
:10003000E50C000800000000E70C0008E90C0008CF
:10004000636600086366000863660008636600086C
:10005000636600086366000863660008636600085C
:10006000636600086366000863660008636600084C
:10007000636600086366000863660008636600083C
:10008000636600086366000863660008636600082C
:10009000636600086366000863660008636600081C
:1000A000636600086366000863660008636600080C
:1000B00063660008636600086366000863660008FC
:1000C00063660008636600086366000863660008EC
:1000D00063660008BD650008636600086366000883
:1000E00063660008636600086366000863660008CC
:1000F00063660008636600086366000863660008BC
:1001000063660008636600086366000863660008AB
:10011000636600086366000863660008636600089B
:10012000636600086366000863660008636600088B
:1001300000F002F800F03FF80AA090E8000C8244BA
:100140008344AAF10107DA4501D100F034F8AFF297
:10015000090EBAE80F0013F0010F18BFFB1A43F0A5
:1001600001031847D09D0000F09D0000103A24BF05
:1001700078C878C1FAD8520724BF30C830C144BF0C
:1001800004680C607047000000230024002500264E
:10019000103A28BF78C1FBD8520728BF30C148BFEA
:1001A0000B607047782907F02F85002070471FB536
:1001B0001FBD10B510BD07F0F1FD1146FFF7F7FFA9
:1001C00000F07EFC07F00FFE03B4FFF7F2FF03BC64
:1001D00006F096F901464B78303B0A7803EB0212A1
:1001E00013028A78303A03EB0213CA78303A1A4481
:1001F00090B270472DE9FC41502532244FF47840ED
:10020000FB490880FBA01021CDE9001021461023F6
:1002100064220A2001F09BFA4FF6FF7004F11003EC
:1002200005F1640221460090284604F01EFC0026D9
:100230000EE001201021F14BCDE900109B5DA3F1F0
:100240003002A1B2A8B2012304F036FD0935761CB4
:10025000EB4800788642ECDBBDE8FC812DE9FC41EF
:1002600004468846032094FBF0F100FB1140E54969
:100270000978891C484386B2032094FBF0F0E149D9
:100280000978891C484387B206F1140086B207F149
:10029000460087B20C250C2C10DADA48CDF8008025
:1002A00000783844401E83B2D64800783044401E5F
:1002B00082B23946304604F0D8FB9EE00C2C01D0C7
:1002C0000D2CFAD1D048007808283ED1CF480088BC
:1002D000A5F10C0101EBC10303EB01115F2303EB5B
:1002E000810114318AB2A5F10C0101EBC10303EBCA
:1002F0000111142303EB8101009088B240F28F13A7
:100300004FF4AF7104F0B1FB681C85B2C04800889F
:10031000A5F10C0101EBC10303EB01115F2303EB1A
:10032000810114318AB2A5F10C0101EBC10303EB89
:100330000111142303EB8101009088B240F28F1366
:100340004FF4AF7104F091FB3DE0B1480088A5F196
:100350000C0101EBC10303EB01115F2303EB8101EE
:1003600014318AB2A5F10C0101EBC10303EB0111B9
:10037000142303EB8101009088B240F28F134FF4F5
:10038000AF7104F072FB681C85B2A0480088A5F12B
:100390000C0101EBC10303EB01115F2303EB8101AE
:1003A00014318AB2A5F10C0101EBC10303EB011179
:1003B000142303EB8101009088B240F28F134FF4B5
:1003C000AF7104F052FB934800888949088092A0DD
:1003D00010210B463222CDE9001040F26D112D2084
:1003E00001F0B5F98EA010210B463222CDE90010A4
:1003F00040F26D118E2001F0AAF9864800887C49F0
:1004000008800A2C0EDA0120102107F11402CDE930
:10041000001091B206F1190290B20123224604F0B5
:100420004BFC20E00A2C0ED17FA0102107F1140212
:10043000CDE9001091B206F10A0290B210233222E7
:1004400001F085F90FE00B2C0DD179A0102107F1F7
:100450001402CDE9001091B206F1140290B21023FB
:10046000642201F074F9BDE8FC8110B50446012056
:1004700070490860204605F0DCFF00206E49C1F895
:10048000B00110BD1FB54FF6FF706C4908804FF4E6
:100490007840574908806A480078002832D169A01E
:1004A00010210B46C822CDE900100221002001F0E6
:1004B0004EF96349488902A905F0EEFF02A8102110
:1004C0000B46C822CDE900100221322001F03FF98D
:1004D0005B48407801280AD15BA010210B46C82256
:1004E000CDE900100221642001F031F9CBE058A0E1
:1004F00010210B46C822CDE900100221642001F032
:1005000026F9C0E04FF6FF702323EF220021009070
:10051000084604F0AAFA022264214F4804F04FFE74
:10052000012266214D4804F04AFE4DA010210B46E1
:10053000C822CDE900100221002001F008F902A92B
:100540004548008805F0A8FF02A810210B46C822E4
:10055000CDE9001002213C2001F0F9F83F48007875
:1005600001280DD110202849087037A010210B4612
:10057000C822CDE900100221642001F0E8F80CE067
:1005800008202149087032A010210B46C822CDE96D
:1005900000100221642001F0DAF8002014490880DC
:1005A00031A010210B46C822CDE9001016210020F1
:1005B00001F0CDF82249488902A905F06DFF02A893
:1005C00010210B46C822CDE9001016213C2001F075
:1005D000BEF81B48407801284AD11BA010210B46C9
:1005E000C822CDE900101621642001F0B0F84AE0DD
:1005F0002A0000205345542049433A00940000202B
:100600000400002003000020050000200600002058
:10061000080000200A000020384249540000000071
:100620003136424954000000434C4541520000001D
:100630004F4B0000B0012242000022422C0000205B
:100640009E00002049443A0031362042697400007F
:1006500038204269740000000E00002010000020C5
:100660005345543A49440000546869733A49440078
:10067000AFF2240010210B46C822CDE9001016214C
:10068000642001F064F81FBD38B5F948008A1428C9
:100690007DDDF748008ADC2879DAF548408A46286B
:1006A0007EDDF348408AB0F5AF7F79DAF148007813
:1006B000002875D1EE48008A1438EF490978891C62
:1006C00090FBF1F084B2EA48408A4638EA4909785A
:1006D000891C90FBF1F085B205EB45002044401CDD
:1006E000E44908700978491EC8B2E4490988FFF74F
:1006F000B5FDE04800780B2814DADE4800782F308A
:10070000DF49E04A12788854DE480078401CDD4911
:10071000087008460078042801DD00200870FFF703
:1007200069FD82E0D34800780B2805D10020D54927
:100730000870FFF75FFD78E0CE4800780C2874D190
:10074000CF4800788DF80000CD4840788DF8010042
:10075000CB4880788DF80200C948C0788DF8030036
:100760006846FFF737FDC84908800120C74908706F
:10077000C7480078082801D10020087002226421AF
:10078000C14804F0B4FD01226621C04800E007E042
:1007900004F0ADFDFFF776FE9620FFF766FE44E01D
:1007A000B348408AB0F5AF7F1DDDB148408AB0F54F
:1007B000C77F18DCAE48008A142814DDAC48008AD4
:1007C000732810DAAB48007868B90820B04908707F
:1007D0000D20A84908700978491EC8B2A7490988A0
:1007E000FFF73CFD21E0A248408AB0F5AF7F1CDD59
:1007F0009F48408AB0F5C77F17DC9D48008A78285B
:1008000013DD9B48008AD7280FDA9A48007860B930
:1008100010209F4908700E20964908700978491EDB
:10082000C8B296490988FFF719FD322005F001FE8C
:1008300038BD1CB54FF6FF7000F0BCFF1F20954976
:10084000088095A01021CDE900109449C988183975
:1008500088B21023C822002100F079FF4FF47840BD
:100860008C4908801CBD70B50025142410E00025BB
:1008700006E02146284604F07EFA05F1280085B2FC
:100880008648C0882738A842F3DC04F1280084B2E7
:10089000824800892738A042E9DC70BD10B5804845
:1008A000007805281FD2DFE800F0030C10151A00AD
:1008B0004FF6FF7000F07EFFFFF7E4FDFFF7D3FF78
:1008C00011E0002000F076FF0DE04FF4784000F0DA
:1008D00071FF08E04FF4FC6000F06CFF03E01F20A4
:1008E00000F068FF00BF00BF10BD10B50446012C2A
:1008F00009D14FF6FF7000F05DFF05F0DDF804F060
:100900006FFFFFF796FF022C0FD165480078401C5F
:100910006349087000F0E5FF61480078022802D1C1
:1009200000205F490870FFF7B9FF10BD70B504469D
:1009300015460023002211E0A05CCE5CB0420AD133
:10094000581CC3B2C85C7E2802DCC85C202803DACD
:10095000501CC0B270BD0023501CC2B2AA42EBDBD7
:100960000020F7E72DE9F84300264E48008800F400
:100970000040002879D04B480578092D72DD002011
:1009800000F018FF642005F054FD2A4646A14848AF
:10099000FFF7CCFF002803DD0820404948700126FE
:1009A0002A4644A14248FFF7C1FF002803DD012089
:1009B0003A49487001262A4640A13D48FFF7B6FF54
:1009C0000446002C16DD3A48005D8DF800003849D9
:1009D000601C085C8DF80100A01C085C8DF802000A
:1009E000E01C085C8DF803006846FFF7F3FB2B4919
:1009F00048810126012E35D10020294908700027A1
:100A000080461DE025484778B0F80A80022264211C
:100A10000A3004F06CFC012266212048401C04F0DE
:100A200066FC022264211D480A3004F0C8FB012242
:100A300066211A48401C04F0C2FB9620FFF715FD02
:100A400016484078B842DDD1144840894045D9D194
:100A500000F047FF00F0C4FE012803D1FFF712FDAC
:100A6000FFF701FF00200F4908803046BDE8F883FA
:100A700044000020020000200300002006000020A7
:100A800094000020040000200E0000201000002030
:100A9000050000202A000020525354009E00002030
:100AA000010000207C00002069663D380000000045
:100AB000AE10002069663D313600000069643D00DB
:100AC0000024002505F078FC05F0E0FC4FF41650FA
:100AD00005F025FD00F0FAF904F0FEFA00F02CFA1A
:100AE00002226421734804F06AFB012266217148E6
:100AF000093804F064FB00206E490A3988700870D8
:100B00000846408942F24121884213D069480A3898
:100B1000408949F2631188420CD066480A384089FE
:100B2000C91C884206D063480A38408947F23571AB
:100B3000884203D102205F490A394870002000F042
:100B400015FA032809D101205A490A39087048705A
:100B500041F2342048810120887004F093F900F0BC
:100B6000C0FE5549086880474FF4784053490880D3
:100B700050480A38007840B900F032FE012811D1FF
:100B8000FFF780FCFFF76FFE0CE0FFF77BFC002413
:100B900006E0E0B24A490988FFF760FB601C84B2B6
:100BA0000E2CF6DB84E0002000F0E0F90546424818
:100BB000416800208847FFF7D5FE3F48007D00F0E0
:100BC0008000002862D03B480A38007838B93D4898
:100BD0000078012803D04FF6FF7000F0EBFD50E0E5
:100BE000002000F0C3F905463348416800208847DB
:100BF0003148007D00F0800058B32F48008A2D490D
:100C00000A39C98888423CDA2B48408A29490A397E
:100C10000989884235DA27480A380078B0B9264869
:100C2000018A24480A38C0881838814206DD2248E3
:100C3000408A102802DAFFF7FCFD22E01E4A518AA2
:100C4000108A4FF4784204F035FD1AE0FFF71CFDDE
:100C500017E018480A380078012812D11A4800789D
:100C600000280EDD184800780D2807DA16490978A3
:100C7000491EC8B212490988FFF7F0FA002012494C
:100C800008701DB9FFF76EFE0028A9D02846FFF7AF
:100C90002CFE601C84B24FF6E850844208D1002438
:100CA0000A48006808B9012000E0002007490860F0
:100CB00079E70000A8000020440000202A0000205E
:100CC0000800002001000020020000209481214241
:100CD000704700BFFEE700BFFEE700BFFEE700BFB2
:100CE000FEE7704770477047704700000CB5002062
:100CF000019000906C48006840F480306A490860B8
:100D000000BF6948006800F4003000900198401C62
:100D10000190009818B90198B0F5A06FF1D1624820
:100D2000006800F4003010B10120009001E00020C4
:100D300000900098012843D15C48006840F0100002
:100D40005A4908600846006820F003000860084619
:100D5000006840F00200086053484068524948600B
:100D60000846406848600846406840F48060486033
:100D70000846406820F47C1048600846406840F40B
:100D8000E81048600846006840F08070086000BFC6
:100D90004548006800F000700028F9D042484068DB
:100DA00020F00300404948600846406840F00200D7
:100DB000486000BF3C48406800F00C000828F9D1AA
:100DC0000CBD10B5FFF792FF10BD10B53648006896
:100DD00040F0010034490860084640683449084042
:100DE0003149486008460068324908402E49086089
:100DF0000846006820F4802008600846406820F417
:100E0000FE0048604FF41F008860FFF7DAFF4FF0E4
:100E100000602949086010BD10B5002100200022A3
:100E2000214B5B6803F00C0121B1042906D008298D
:100E300028D107E0214B224C236027E01F4B204C98
:100E4000236023E0184B5B6803F47010164B5B685B
:100E500003F48032022303EB904022B9194B434341
:100E6000174C23600DE0104B5B6803F4003323B193
:100E7000144B4343124C236003E0104B4343104C8C
:100E8000236003E00D4B0E4C236000BF00BF064BF8
:100E90005B68C3F303130C4CE15C094B1B68CB404C
:100EA000074C236010BD00000010024000200240EB
:100EB0000000FFF8FFFFF6FE08ED00E000127A00E8
:100EC0001400002000093D001800002008B5012191
:100ED000582006F0FBF92020ADF8000010208DF816
:100EE000030003208DF802006946104805F032FF28
:100EF00020210E4805F0DBFF2020ADF800006946F8
:100F00000B4805F027FF2021094805F0D0FF4FF4DA
:100F10008050ADF800000146064805F0CAFF4FF4C6
:100F20008051044805F0C3FF08BD0000000C0140DB
:100F3000001801400010014008B50121442006F0CE
:100F4000C5F91C20ADF8000048208DF80300694663
:100F5000354805F0FFFE0120ADF8000028208DF88F
:100F600003006946314805F0F5FE08BD10B504469A
:100F700014B101202E4908702D480078002837D080
:100F80001021294805F079FF78B10821264805F09D
:100F900074FF50B10421244805F06FFF28B10121EE
:100FA000224805F06AFF012822D10F2005F041FAFE
:100FB00000201F49087010211B4805F05EFF08B98A
:100FC000012010BD0821184805F057FF08B902207C
:100FD000F7E70421144805F050FF08B90320F0E7B3
:100FE0000121124805F049FF01281BD10420E8E740
:100FF00010210D4805F041FF012813D108210A48AE
:1010000005F03BFF01280DD10421074805F035FF0D
:10101000012807D10121054805F02FFF10B9012053
:10102000034908700020CCE7001801400008014087
:101030002800002010B50446FD48407838B101284A
:1010400002D002281DD10BE0FA48048019E0F948CB
:1010500004804FF6FF7000EA0420F649088010E093
:101060001021F54805F025FF1021F44805F021FF77
:10107000E1B2F34803F0F4FF1021EF4805F017FF49
:1010800000BF00BF10BD10B50446E948407840B12C
:10109000012802D0022824D10EE0E648801C0480FA
:1010A0001FE0E448801C04804FF6FF7000EA042033
:1010B000E049891C088014E01021DF4805F0F9FEA2
:1010C0001021DE4805F0F3FE2112DD4803F0C8FFD1
:1010D000E1B2DB4803F0C4FF1021D74805F0E7FE7A
:1010E00000BF00BF10BD10B504461021D24805F066
:1010F000E0FE1021D14805F0DAFE2146D04803F089
:10110000AFFF1021CC4805F0D2FE10BDC848407892
:10111000012803D1C748801C00887047C548801C3F
:101120000288018802EB212080B2F6E770B50546FF
:101130000C462846FFF77EFF2046FFF7A4FF70BD50
:1011400070B506460024002511E001210020FFF7BC
:10115000EDFFC82005F049F93046FFF76BFF052089
:1011600005F043F9FFF7D2FF0446681CC5B2052D10
:1011700005DA002CE9D04FF6FF708442E5D0204616
:1011800070BD10B5AA49087BFFF754FF10BD30B5FC
:10119000014601F01F04C1F34513CA0AE50205EB3D
:1011A00043151544A8B230BD00BF0100A0F10102F3
:1011B000D0B2FAD170472DE9F04104460D461646EB
:1011C0001F4604EB062081B24620FFF7AFFFB9B2FD
:1011D0004720FFF7ABFFA9B24820FFF7A7FFA1B256
:1011E0002020FFF7A3FFA9B22120FFF79FFFBDE852
:1011F000F08170B505460C468D48408947F235713F
:10120000884210D08A48408942F2412188420AD05F
:101210008748408949F26311884204D08448408954
:10122000C91C884226D18249487BFFF703FF281258
:10123000FFF759FFE8B2FFF756FF7D49887BFFF7BC
:10124000F9FE7B48408949F2631188420BD104F1D1
:101250002000C0F30720FFF746FF04F12001C8B2C9
:10126000FFF741FF29E12012FFF73DFFE0B2FFF752
:101270003AFF22E16E48408949F24131884214D157
:101280006B49487BFFF7D6FE2812FFF7FCFEE8B259
:10129000FFF7F9FE6649887BFFF7CCFE2012FFF7C7
:1012A000F2FEE0B2FFF7EFFE07E16148408949F244
:1012B0008641884220D15E49487BFFF7BBFE281259
:1012C000FFF7E1FEE8B2FFF7DEFE0120FFF7DBFEED
:1012D0003F20FFF7D8FE5649887BFFF7ABFE201270
:1012E000FFF7D1FEE0B2FFF7CEFE0120FFF7CBFE05
:1012F000DF20FFF7C8FEE0E04D48408941F60711C6
:10130000884204D04A484089891E88421ED12A203A
:10131000FFF790FE2812FFF7B6FEE8B2FFF7B3FE24
:101320000320FFF7B0FE1F20FFF7ADFE2B20FFF7D5
:1013300081FE2012FFF7A7FEE0B2FFF7A4FE012016
:10134000FFF7A1FEDF20FFF79EFEB6E03848408998
:1013500041F6431188421ED12A20FFF76BFE281266
:10136000FFF791FEE8B2FFF78EFE0120FFF78BFE3C
:10137000DF20FFF788FE2B20FFF75CFE2012FFF72F
:1013800082FEE0B2FFF77FFE0120FFF77CFE0F2018
:10139000FFF779FE91E02648408941F22111884209
:1013A00007D140F23F13EF2221462846FFF703FF03
:1013B00083E01F484089652803D01D48408966287E
:1013C00020D121120620FFF7B1FE21460720FFF7AA
:1013D000ADFE29120220FFF7A9FE29460320FFF7E0
:1013E000A5FE29128020FFF7A1FE29468120FFF7E4
:1013F0009DFE21128220FFF799FE21468320FFF7F0
:1014000095FE5AE00A48408952281BD12112062035
:10141000FFF78CFE21460720FFF788FE29120220E5
:10142000FFF784FE29460320FFF780FE45E0000019
:101430009E000020FEFF07600008014000100140F0
:1014400000300140F9484089472810D12912022074
:10145000FFF76CFE29460320FFF768FE21120620E5
:10146000FFF764FE21460720FFF760FE25E0EF4806
:10147000408949F22531884204D0EC484089C91C92
:10148000884210D129462020FFF750FE2146212016
:10149000FFF74CFE29465020FFF748FE2146522018
:1014A000FFF744FE09E0E149487B2946FFF73EFE8D
:1014B000DE49887B2146FFF739FE70BD70B50446D2
:1014C0000D4629462046FFF794FED848408941F64C
:1014D000431188420AD0D548408941F60711884215
:1014E00004D0D2484089891E884203D12E20FFF7BC
:1014F000A1FD03E0CD49087BFFF79CFDCB48408967
:1015000049F22531884204D0C8484089C91C884224
:1015100008D10220FFF748FEFFF7F8FD0646FFF767
:1015200036FE70BDFFF7F2FDFBE77047704770B500
:1015300004460D4629462046FFF75BFEFFF721FED5
:10154000BB480088FFF79FFD70BD2DE9F84F81462D
:101550000D4617461E460095B548B0F80080A7F125
:101560002000C7B20A98002850D100244BE00C2E6E
:1015700007D107EB4700AF4901EB800010F804A04A
:1015800004E0AD4800EB071010F804A04FF0000B8A
:1015900033E00AF0800018B1A548A0F8008003E00D
:1015A000A6480088A249088029464846FFF7BFFFA1
:1015B0004FEA4A604FEA106A681C85B29B4800896E
:1015C000A84204DC9A48A0F80080BDE8F88F009893
:1015D000281AB0420DD1009D09F101001FFA80F9CF
:1015E0009248C088484503DC9148A0F80080ECE7A9
:1015F00006E00BF1010000F0FF0BBBF1080FC8DBA8
:1016000000BF601CC4B2B442B1DB46E0002442E03B
:101610000C2E07D107EB4700864901EB800010F83C
:1016200004A004E0844800EB071010F804A04FF079
:10163000000B2AE00AF0800018B129464846FFF75F
:1016400076FF4FEA4A604FEA106A681C85B2774815
:101650000089A84203DC7648A0F80080B5E700982E
:10166000281AB0420DD1009D09F101001FFA80F93E
:101670006E48C088484503DC6D48A0F80080A4E7A8
:1016800006E00BF1010000F0FF0BBBF1080FD1DB0E
:1016900000BF601CC4B2B442BADB6548A0F8008049
:1016A00000BF92E710B50246012000E050430B0056
:1016B000A1F10104E1B2F9D110BD2DE9FF4F81B0D4
:1016C000074691461E460E9D4FF0000A002439E061
:1016D000301B401EC1B20A20FFF7E4FFB9FBF0F057
:1016E0000A21B0FBF1F201FB1208BAF1000F16D18A
:1016F000701EA04213DDB8F1000F0ED10020AB46E2
:1017000005EBDB71491001FB0471009088B22B4698
:1017100020220299FFF719FF12E04FF0010A002082
:10172000AB4605EBDB71491001FB0471009088B2F8
:1017300008F13001CAB22B460299FFF706FF00BF3D
:10174000601CC4B2B442C3DB05B0BDE8F08F2DE924
:10175000F84F04460D4690469946DDE90A6704F0C5
:10176000FF0A08EB04001FFA80F809EB05001FFAD6
:1017700080F916E0444502DB5446A81985B24D4570
:1017800000DB14E0012000903A78334629462046D9
:10179000FFF7DBFE304606EBD07104EB61018CB243
:1017A0007F1C38787E2802DC38782028E2DA00BFF7
:1017B000BDE8F88F70B5064600241C48C58800892E
:1017C000454300210846FFF714FDFFF7DAFC00BF90
:1017D00003E03046FFF757FC641CAC42F9D370BD00
:1017E0002DE9FC4101250027114807880F48408951
:1017F00041F64311884223D00C48408943281FD02A
:101800000A48408941F60511884219D007484089A5
:10181000502815D005484089891C884210D00348BB
:10182000408970280CD00120BDE8FC819E0000207A
:101830002A000020A2940008169900082C0000201D
:10184000002409E005FA04F0FE4908800021204642
:10185000FFF76DFE601C84B2102CF3DB611C88B2B4
:101860000021FFF764FE002435E000212046FFF749
:1018700025FE064600212046FFF720FE064605FA13
:1018800004F0B04225D00020FFF794FF4FF47840D9
:10189000EC490880ECA010210B46C822CDE90010CD
:1018A00000210846FFF753FF102005FA04F2062333
:1018B000002100906420FFF700FF1020062332462D
:1018C000282100906420FFF7F8FEDE480780002002
:1018D000AAE7601C84B2102CC7DBDA48078001201D
:1018E000A2E710B59EB000240121080205F0E1FC3A
:1018F0000121682005F0EAFC4EF2B370ADF87400E7
:1019000003208DF8760018208DF877001DA9D248A5
:1019100005F020FA4FF68070ADF874001DA9CF488D
:1019200005F018FA0220ADF8740003208DF8760057
:1019300010208DF877001DA9C94805F00BFA022088
:101940000790012008900A20099001200A900B902E
:101950000C9000200D9002200090012001900A20A0
:1019600002900120039004900590002006900E90B4
:101970000F9010901020119000201290149013904E
:10198000159016904FF480501790002018904FF447
:101990008040199000201A9007A81B90CDF870D0B5
:1019A0000EA804F0BDFE0121002005F021F8002062
:1019B000AC490860322004F03CFD0120AA49C1F87E
:1019C0008401322004F035FDA848407802280DD16A
:1019D0000121A34805F06DFA322004F02AFD01210F
:1019E0009F4805F064FA322004F023FD9F48807878
:1019F00001280BD19D4948700020FFF7A1FBC4B21C
:101A00000CB1FF2C02D100209849487097484089BA
:101A100041F23421884207D10020FFF791FB93491E
:101A20004881084640898880F0209049C8804FF45A
:101A3000A070088108464078012804D116218CA0A6
:101A400006F0A2F803E0082189A006F09DF8874877
:101A5000418989A006F098F88448408947F2357199
:101A6000884222D08148408949F2631188421CD0C3
:101A70007E484089C91C884217D07C48408942F280
:101A80004121884211D07948408949F286418842F3
:101A90000BD07648408949F24131884205D07348DD
:101AA000408946F60401884239D12C206F490873D9
:101AB0002A2048732B2088730846408946F6040183
:101AC000884207D14FF4A0706849C8804FF4F07085
:101AD0000881A7E06548408949F26311884204D132
:101AE00080206249C88008819CE06048408947F2B4
:101AF0003571884205D180205C49C880A0200881CA
:101B000090E05A48408949F286418842E1D14FF439
:101B1000A0705649C8804FF4F070088182E05348A5
:101B2000408948F68911884207D122204F4908731D
:101B30004E2048734F20887374E04C4840899028A9
:101B400007D04A484089702803D048484089502827
:101B50000DD14FF448704549C8804FF4F0700881AA
:101B600003204873022088730F2008735AE03F480F
:101B7000408943280DD14FF4F0703C49C8804FF4A0
:101B80008870088103204873022088730F2008732F
:101B900048E03648408941F60711884204D033486E
:101BA0004089891E88420DD14FF448702F49C88062
:101BB0004FF4F07008812C2008732A2048732B20E2
:101BC00088732FE02948408941F6431188420DD19E
:101BD0004FF4F0702549C8804FF4887008812C209C
:101BE00008732A2048732B2088731BE01F48408904
:101BF000652807D01D484089522803D01B484089DA
:101C0000662808D1F0201949C8804FF4C8700881AF
:101C10002220087306E0222014490873202048730C
:101C2000212088731148408965287DD11021E52045
:101C3000FFF77CFA1021E720FFF778FA4821E82027
:101C40001EE000002A000020444154412045525229
:101C50004F52204154000000001401400018014080
:101C6000000C014084812142008021429E0000201E
:101C700069663D257800000069643D25780D0A00FD
:101C8000FFF754FA0921EC20FFF750FA6C21ED2000
:101C9000FFF74CFA05211720FFF748FA6F212320A0
:101CA000FFF744FA4E212420FFF740FA7121252046
:101CB000FFF73CFA01212F20FFF738FA1821E22024
:101CC000FFF734FA15211B20FFF730FA002101201D
:101CD000FFF72CFA03211C20FFF728FADD2118203A
:101CE000FFF724FA01211920FFF720FA052004F05C
:101CF000A0FB8C211F20FFF719FA84211F20FFF77A
:101D000015FA0A2004F095FB94211F20FFF70EFA24
:101D10000A2004F08EFBD4211F20FFF707FA0520CC
:101D200004F087FB002100E082E04020FFF7FEF98D
:101D30002B214120FFF7FAF929214220FFF7F6F97C
:101D40003E214320FFF7F2F93D214420FFF7EEF951
:101D50003F214520FFF7EAF924214620FFF7E6F965
:101D600074214720FFF7E2F908214820FFF7DEF948
:101D700006214920FFF7DAF907214A20FFF7D6F9B3
:101D80000D214B20FFF7D2F917214C20FFF7CEF998
:101D900000215020FFF7CAF902215120FFF7C6F9B0
:101DA00001215220FFF7C2F916215320FFF7BEF997
:101DB00014215420FFF7BAF93F215520FFF7B6F957
:101DC0000B215620FFF7B2F95B215720FFF7AEF940
:101DD00008215820FFF7AAF912215920FFF7A6F988
:101DE00018215A20FFF7A2F919215B20FFF79EF96D
:101DF00017215C20FFF79AF9FF215D20FFF796F984
:101E00000B211620FFF792F920212820FFF78EF9E9
:101E1000282004F00EFB38212820FFF787F928201E
:101E200004F007FB3C212820FFF780F902F014BEE4
:101E3000FE48408966287DD11521E220FFF776F91A
:101E40002821E520FFF772F92821E720FFF76EF936
:101E50004821E820FFF76AF90921EC20FFF766F92D
:101E60000621ED20FFF762F905211720FFF75EF943
:101E700076212320FFF75AF957212420FFF756F93E
:101E800071212520FFF752F91E211B20FFF74EF983
:101E900000210120FFF74AF904211C20FFF746F931
:101EA00088211820FFF742F901211920FFF73EF998
:101EB000052004F0BEFA8C211F20FFF737F984219A
:101EC0001F20FFF733F90A2004F0B3FA94211F20F2
:101ED000FFF72CF90A2004F0ACFAD4211F20FFF7F9
:101EE00025F9052004F0A5FA08214020FFF71EF986
:101EF00031214120FFF71AF92F214220FFF716F96F
:101F00003E214320FFF712F93D214420FFF70EF94F
:101F10003F214520FFF70AF92F214620FFF706F958
:101F200079214720FFF702F908214820FFF7FEF842
:101F3000062100E05DE04920FFF7F8F808214A207B
:101F4000FFF7F4F80E214B20FFF7F0F817214C2093
:101F5000FFF7ECF800215020FFF7E8F802215120AC
:101F6000FFF7E4F801215220FFF7E0F81021532099
:101F7000FFF7DCF80E215420FFF7D8F83721552061
:101F8000FFF7D4F806215620FFF7D0F8502157204C
:101F9000FFF7CCF808215820FFF7C8F81121592085
:101FA000FFF7C4F817215A20FFF7C0F819215B206A
:101FB000FFF7BCF817215C20FFF7B8F8FF215D2080
:101FC000FFF7B4F80B211620FFF7B0F820212820E6
:101FD000FFF7ACF8282004F02CFA38212820FFF76E
:101FE000A5F8282004F025FA3C212820FFF79EF8C8
:101FF0001CE78E48408942F2412188427ED1CB20A5
:10200000FFF718F83920FFF76EF82C20FFF76BF870
:102010000020FFF768F83420FFF765F80220FFF78B
:1020200062F8CF20FFF706F80020FFF75CF8C12028
:10203000FFF759F83020FFF756F8E820FEF7FAFFCF
:102040008520FFF750F80020FFF74DF87820FFF7C4
:102050004AF8EA20FEF7EEFF0020FFF744F80020E0
:10206000FFF741F8ED20FEF7E5FF6420FFF73BF8AE
:102070000320FFF738F81220FFF735F88120FFF72B
:1020800032F8F720FEF7D6FF2020FFF72CF8C0200B
:10209000FEF7D0FF2320FFF726F8C120FEF7CAFF86
:1020A0001020FFF720F8C520FEF7C4FF3E20FFF701
:1020B0001AF82820FFF717F8C720FEF7BBFF862085
:1020C000FFF711F83620FEF7B5FF4820FFF70BF8B1
:1020D0003A20FEF7AFFF5520FFF705F8B120FEF7D5
:1020E000A9FF0020FEF7FFFF1820FEF7FCFFB62037
:1020F000FEF7A0FF0820FEF7F6FF00E07EE082205A
:10210000FEF7F1FF2720FEF7EEFFF220FEF792FF29
:102110000020FEF7E8FF2620FEF78CFF0120FEF7E7
:10212000E2FFE020FEF786FF0F20FEF7DCFF312004
:10213000FEF7D9FF2B20FEF7D6FF0C20FEF7D3FFCA
:102140000E20FEF7D0FF0820FEF7CDFF4E20FEF751
:10215000CAFFF120FEF7C7FF3720FEF7C4FF0720B4
:10216000FEF7C1FF1020FEF7BEFF0320FEF7BBFF06
:102170000E20FEF7B8FF0920FEF7B5FF0020FEF79E
:10218000B2FFE120FEF756FF0020FEF7ACFF0E2065
:10219000FEF7A9FF1420FEF7A6FF0320FEF7A3FF1A
:1021A0001120FEF7A0FF0720FEF79DFF3120FEF76C
:1021B0009AFFC120FEF797FF4820FEF794FF082002
:1021C000FEF791FF0F20FEF78EFF0C20FEF78BFF2E
:1021D0003120FEF788FF3620FEF785FF0F20FEF73F
:1021E00082FF1120FEF726FF782004F022F9292033
:1021F000FEF720FF2C20FEF71DFF17E60B48408955
:1022000049F2864188427DD1F120FEF713FF362046
:10221000FEF739FF0420FEF736FF0020FEF733FFFC
:102220003C20FEF730FF0F2002E000009E0000205F
:10223000FEF729FF8F20FEF726FFF220FEF7FAFEB9
:102240001820FEF720FFA320FEF71DFF1220FEF747
:102250001AFF0220FEF717FFB220FEF714FF12202C
:10226000FEF711FFFF20FEF70EFF1020FEF70BFF19
:102270000020FEF708FFF820FEF7DCFE2120FEF725
:1022800002FF0420FEF7FFFEF920FEF7D3FE002038
:10229000FEF7F9FE0820FEF7F6FEC020FEF7CAFEA4
:1022A0001320FEF7F0FE1020FEF7EDFEC120FEF732
:1022B000C1FE4320FEF7E7FE0020FEF7E4FEC22049
:1022C000FEF7B8FE2220FEF7DEFEC520FEF7B2FEC6
:1022D0000020FEF7D8FE4D20FEF7D5FE8020FEF749
:1022E000D2FEB120FEF7A6FEC020FEF7CCFE1120E4
:1022F000FEF7C9FEB420FEF79DFE0120FEF7C3FEE7
:10230000B62000E086E0FEF795FE0020FEF7BBFE5B
:102310004220FEF7B8FE3B20FEF7B5FEE020FEF7B8
:1023200089FE0F20FEF7AFFE1B20FEF7ACFE192042
:10233000FEF7A9FE0B20FEF7A6FE0F20FEF7A3FE78
:102340000820FEF7A0FE4620FEF79DFEB920FEF70E
:102350009AFE3320FEF797FE0820FEF794FE032036
:10236000FEF791FE0020FEF78EFE0020FEF78BFEAA
:102370000020FEF788FE0020FEF785FEE120FEF734
:1023800059FE0F20FEF77FFE3F20FEF77CFE3F2028
:10239000FEF779FE0F20FEF776FE1C20FEF773FE97
:1023A0000720FEF770FE4C20FEF76DFE7420FEF74E
:1023B0006AFE3820FEF767FE0720FEF764FE102055
:1023C000FEF761FE0420FEF75EFE2620FEF75BFEB0
:1023D0002420FEF758FE0020FEF755FE3620FEF7BB
:1023E00029FEC820FEF74FFE3A20FEF723FE5520B7
:1023F000FEF749FE2020FEF71DFE1120FEF71AFE13
:10240000782004F016F82920FEF714FE2C20FEF7A1
:1024100011FE0BE5FE48408949F26311884204D061
:10242000FB484089C91C88427ED11120FEF702FE7C
:10243000142003F0FEFF2620FEF7FCFD0420FEF72B
:1024400052FEB120FEF7F6FD0E20FEF74CFE1020E6
:10245000FEF749FEC020FEF7EDFD0820FEF743FE23
:102460000020FEF740FEC120FEF7E4FD0520FEF748
:102470003AFEC520FEF7DEFD3820FEF734FE402090
:10248000FEF731FE3A20FEF7D5FD0520FEF72BFEC4
:102490003620FEF7CFFD1C20FEF725FE2A20FEF792
:1024A000C9FD0020FEF71FFE0020FEF71CFE0020E5
:1024B000FEF719FE7F20FEF716FE2B20FEF7BAFD71
:1024C0000020FEF710FE2020FEF70DFE0020FEF794
:1024D0000AFE9F20FEF707FEB420FEF7ABFD0020AA
:1024E000FEF701FEF220FEF7A5FD0120FEF7FBFD41
:1024F000E020FEF79FFD3F20FEF7F5FD2220FEF7CE
:10250000F2FD2020FEF7EFFD3020FEF7ECFD292044
:10251000FEF7E9FD0C20FEF7E6FD4E20FEF7E3FD99
:10252000B720FEF7E0FD00E04BE03C20FEF7DBFDCE
:102530001920FEF7D8FD2220FEF7D5FD1E20FEF75C
:10254000D2FD0220FEF7CFFD0120FEF7CCFD0020DA
:10255000FEF7C9FDE120FEF76DFD0020FEF7C3FD8B
:102560001B20FEF7C0FD1F20FEF7BDFD0F20FEF76C
:10257000BAFD1620FEF7B7FD1320FEF7B4FD31209B
:10258000FEF7B1FD8420FEF7AEFD4320FEF7ABFD64
:102590000620FEF7A8FD1D20FEF7A5FD2120FEF771
:1025A000A2FD3D20FEF79FFD3E20FEF79CFD3F2053
:1025B000FEF799FD2920FEF73DFD2C20FEF73AFDA0
:1025C00034E49348408947F2357188427ED1112026
:1025D000FEF730FD782003F02CFFB120FEF72AFD36
:1025E0000520FEF780FD3C20FEF77DFD3C20FEF738
:1025F0007AFDB220FEF71EFD0520FEF774FD3C209B
:10260000FEF771FD3C20FEF76EFDB320FEF712FDD4
:102610000520FEF768FD3C20FEF765FD3C20FEF737
:1026200062FD0520FEF75FFD3C20FEF75CFD3C20CF
:10263000FEF759FDB420FEF7FDFC0320FEF753FD25
:10264000C020FEF7F7FC2820FEF74DFD0820FEF71E
:102650004AFD0420FEF747FDC120FEF7EBFCC02039
:10266000FEF741FDC220FEF7E5FC0D20FEF73BFD25
:102670000020FEF738FDC320FEF7DCFC8D20FEF7BE
:1026800032FD2A20FEF72FFDC420FEF7D3FC8D205B
:10269000FEF729FDEE20FEF726FDC520FEF7CAFC59
:1026A0001A20FEF720FD3620FEF7C4FCC020FEF7FE
:1026B0001AFDE020FEF7BEFC0420FEF714FD2220E8
:1026C000FEF711FD0720FEF70EFD00E063E00A2093
:1026D000FEF709FD2E20FEF706FD3020FEF703FD74
:1026E0002520FEF700FD2A20FEF7FDFC2820FEF73E
:1026F000FAFC2620FEF7F7FC2E20FEF7F4FC3A2029
:10270000FEF7F1FC0020FEF7EEFC0120FEF7EBFCEB
:102710000320FEF7E8FC1320FEF7E5FCE120FEF7BE
:1027200089FC0420FEF7DFFC1620FEF7DCFC062007
:10273000FEF7D9FC0D20FEF7D6FC2D20FEF7D3FCCA
:102740002620FEF7D0FC2320FEF7CDFC2720FEF745
:10275000CAFC2720FEF7C7FC2520FEF7C4FC2D206D
:10276000FEF7C1FC3B20FEF7BEFC0020FEF7BBFCE1
:102770000120FEF7B8FC0420FEF7B5FC1320FEF79D
:10278000B2FC3A20FEF756FC0520FEF7ACFC2920EF
:10279000FEF750FC2CE41E48408952287DD183204E
:1027A000FEF748FC0220FEF76EFC8520FEF742FC97
:1027B0000320FEF768FC8B20FEF73CFC0120FEF7AF
:1027C00062FC8C20FEF736FC9320FEF75CFC912027
:1027D000FEF730FC0120FEF756FC8320FEF72AFCB2
:1027E0000020FEF750FC3E20FEF724FCB020FEF750
:1027F0004AFC3F20FEF71EFC0320FEF744FC40206D
:10280000FEF718FC1020FEF73EFC412002E000001D
:102810009E000020FEF70EFC5620FEF734FC4220FE
:10282000FEF708FC1320FEF72EFC4320FEF702FC07
:102830004620FEF728FC4420FEF7FCFB2320FEF791
:1028400022FC4520FEF7F6FB7620FEF71CFC462016
:10285000FEF7F0FB0020FEF716FC4720FEF7EAFB30
:102860005E20FEF710FC4820FEF7E4FB4F20FEF749
:102870000AFC4920FEF7DEFB4020FEF704FC17208F
:10288000FEF7D8FB9120FEF7FEFB2B20FEF7D2FBD4
:10289000F920FEF7F8FB0A2000E0A7E003F0C9FDED
:1028A0001B20FEF7C7FB1420FEF7EDFB1A20FEF7F6
:1028B000C1FB1120FEF7E7FB1C20FEF7BBFB062047
:1028C000FEF7E1FB1F20FEF7B5FB4220FEF7DBFB26
:1028D000142003F0AEFD1920FEF7ACFB0A20FEF732
:1028E000D2FB1920FEF7A6FB1A20FEF7CCFB28200E
:1028F00003F09FFD1920FEF79DFB1220FEF7C3FB9E
:10290000282003F096FD1E20FEF794FB2720FEF7FB
:10291000BAFB642003F08DFD2420FEF78BFB6020C2
:10292000FEF7B1FB3D20FEF785FB4020FEF7ABFB39
:102930003420FEF77FFB3820FEF7A5FB3520FEF79D
:1029400079FB3820FEF79FFB2420FEF773FB38202D
:10295000FEF799FB282003F06CFD2420FEF76AFBAC
:102960003C20FEF790FB1620FEF764FB1C20FEF7D0
:102970008AFB0120FEF75EFB0620FEF784FB552054
:10298000FEF758FB0020FEF77EFB0220FEF752FB0D
:102990000020FEF778FB0320FEF74CFB0020FEF73B
:1029A00072FB0420FEF746FB0020FEF76CFB0520BF
:1029B000FEF740FBEF20FEF766FB0620FEF73AFB32
:1029C0000020FEF760FB0720FEF734FB0020FEF737
:1029D0005AFB0820FEF72EFB0120FEF754FB0920CE
:1029E000FEF728FB8F20FEF74EFB06E4FE484089E9
:1029F00047287DD1A4214620FEF798FB532147208C
:102A0000FEF794FB00214820FEF790FB442149206B
:102A1000FEF78CFB04214A20FEF788FB67214B2040
:102A2000FEF784FB33214C20FEF780FB77214D20FD
:102A3000FEF77CFB12214E20FEF778FB4C214F2045
:102A4000FEF774FB46215020FEF770FB4421512015
:102A5000FEF76CFB00210220FEF768FB002103203B
:102A6000FEF764FB00210420FEF760FBEF21052048
:102A7000FEF75CFB00210620FEF758FB0021072033
:102A8000FEF754FB01210820FEF750FB3F210920EF
:102A9000FEF74CFB06210120FEF748FBC82116205B
:102AA000FEF744FB95212320FEF740FB95212420CF
:102AB000FEF73CFBFF212520FEF738FB02212720F3
:102AC000FEF734FB02212820FEF730FB02212920EB
:102AD000FEF72CFB02212A20FEF728FB02212C20E6
:102AE000FEF724FB02212D20FEF720FB012100E050
:102AF00091E03A20FEF71AFB00213B20FEF716FB7F
:102B0000F0213C20FEF712FB00213D20FEF70EFBDA
:102B1000012003F08EFC38213520FEF707FB7821D9
:102B20003620FEF703FB38213E20FEF7FFFA0F2187
:102B30004020FEF7FBFAF0214120FEF7F7FA492189
:102B40001920FEF7F3FA0F219320FEF7EFFA012088
:102B500003F06FFC40212020FEF7E8FA07211D203A
:102B6000FEF7E4FA00211E20FEF7E0FA04211F2000
:102B7000FEF7DCFA4D214420FEF7D8FA0E2145205D
:102B8000FEF7D4FA012003F054FC04211C20FEF7C8
:102B9000CDFA022003F04DFC18211B20FEF7C6FAE7
:102BA000012003F046FC10211B20FEF7BFFA012094
:102BB00003F03FFC80214320FEF7B8FA022003F027
:102BC00038FC7F219020FEF7B1FA04212620FEF781
:102BD000ADFA012003F02DFC24212620FEF7A6FAF1
:102BE0002C212620FEF7A2FA012003F022FC3C2132
:102BF0002620FEF79BFA02215720FEF797FA0121C3
:102C00009520FEF793FA00215720FEF78FFA222035
:102C1000FEF710FAD4E47448408949F24131884201
:102C20007ED1CB20FEF706FA3920FEF72CFA2C20B5
:102C3000FEF729FA0020FEF726FA3420FEF723FAE1
:102C40000220FEF720FACF20FEF7F4F90020FEF76D
:102C50001AFAC120FEF717FA3020FEF714FAE8201E
:102C6000FEF7E8F98520FEF70EFA0020FEF70BFAD2
:102C70007820FEF708FAEA20FEF7DCF90020FEF7DC
:102C800002FA0020FEF7FFF9ED20FEF7D3F96420E9
:102C9000FEF7F9F90320FEF7F6F91220FEF7F3F933
:102CA0008120FEF7F0F9F720FEF7C4F92020FEF7A7
:102CB000EAF9C020FEF7BEF92320FEF7E4F9C120AF
:102CC000FEF7B8F91020FEF7DEF9C520FEF7B2F9DD
:102CD0003E20FEF7D8F92820FEF7D5F9C720FEF7E9
:102CE000A9F98620FEF7CFF93620FEF7A3F9482090
:102CF000FEF7C9F93A20FEF79DF95520FEF7C3F912
:102D0000B120FEF797F90020FEF7BDF91820FEF775
:102D1000BAF9B620FEF78EF90820FEF7B4F900E004
:102D200082E08220FEF7AFF92720FEF7ACF9F2200F
:102D3000FEF780F90020FEF7A6F92620FEF77AF9C3
:102D40000120FEF7A0F9E020FEF774F90F20FEF74E
:102D50009AF92220FEF797F91C20FEF794F91B2020
:102D6000FEF791F90820FEF78EF90F20FEF78BF998
:102D70004820FEF788F9B820FEF785F93420FEF7E1
:102D800082F90520FEF77FF90C20FEF77CF9092077
:102D9000FEF779F90F20FEF776F90720FEF773F9B1
:102DA0000020FEF770F9E120FEF744F90020FEF75D
:102DB0006AF92320FEF767F92420FEF764F907205B
:102DC000FEF761F91020FEF75EF90720FEF75BF9C8
:102DD0003820FEF758F94720FEF755F94B20FEF74B
:102DE00052F90A2002E000009E000020FEF74BF995
:102DF0001320FEF748F90620FEF745F93020FEF7CC
:102E000042F93820FEF73FF90F20FEF73CF9112078
:102E1000FEF710F9322003F00CFB2920FEF70AF927
:102E20002C20FEF707F9B5E4FE48408946F6040178
:102E300088427CD11120FEF7FDF8142003F0F9FA46
:102E4000D020FEF7F7F80720FEF71DF94220FEF725
:102E50001AF91D20FEF717F9D120FEF7EBF8002034
:102E6000FEF711F91A20FEF70EF90920FEF70BF90B
:102E7000D220FEF7DFF80120FEF705F92220FEF749
:102E800002F9C020FEF7D6F81020FEF7FCF83B2030
:102E9000FEF7F9F80020FEF7F6F80220FEF7F3F847
:102EA0001120FEF7F0F8C520FEF7C4F80320FEF766
:102EB000EAF8C820FEF7BEF80020FEF7E4F8252067
:102EC000FEF7E1F82120FEF7DEF80520FEF7DBF83B
:102ED0000020FEF7D8F80A20FEF7D5F86520FEF7A7
:102EE000D2F82520FEF7CFF87720FEF7CCF8502057
:102EF000FEF7C9F80F20FEF7C6F80020FEF7C3F86A
:102F0000F820FEF797F80120FEF7BDF8FE20FEF747
:102F100091F80020FEF7B7F80220FEF7B4F8202061
:102F2000FEF788F83620FEF785F8082000E02CE050
:102F3000FEF7A9F83A20FEF77DF85520FEF7A3F832
:102F40002B20FEF777F80020FEF79DF80020FEF713
:102F50009AF80120FEF797F83F20FEF794F82A2010
:102F6000FEF768F80020FEF78EF80020FEF78BF8D9
:102F70000120FEF788F8DF20FEF785F8782003F0BF
:102F800058FA2920FEF756F804E4A648408949F289
:102F90002531884204D0A3484089C91C88427DD18C
:102FA0001021E720FEF7C2F801210020FEF7BEF84D
:102FB0004FF480710120FEF7B9F84FF4E061022070
:102FC000FEF7B4F841F230010320FEF7AFF800211C
:102FD0000420FEF7ABF840F207210820FEF7A6F820
:102FE00000210920FEF7A2F800210A20FEF79EF832
:102FF00001210C20FEF79AF800210D20FEF796F82B
:1030000000210F20FEF792F800211020FEF78EF825
:1030100007211120FEF78AF800211220FEF786F81A
:1030200000211320FEF782F80A2003F002FA41F291
:1030300090511020FEF77AF840F227211120FEF778
:1030400075F80A2003F0F5F99C211220FEF76EF8BE
:103050000A2003F0EEF94FF4C8511320FEF766F88A
:1030600023212920FEF762F80E212B20FEF75EF8BF
:103070000A2003F0DEF900212020FEF757F8002196
:103080002120FEF753F80A2003F0D3F9072130205E
:10309000FEF74CF840F20771312000E085E0FEF7C2
:1030A00045F806213220FEF741F840F20471352040
:1030B000FEF73CF841F604713620FEF737F804219C
:1030C0003720FEF733F800213820FEF72FF840F2C2
:1030D00006713920FEF72AF840F201713C20FEF714
:1030E00025F80F213D20FEF721F80A2003F0A1F971
:1030F00000215020FEF71AF8EF215120FEF716F8B4
:1031000000215220FEF712F840F23F115320FEF743
:103110000DF84FF427416020FEF708F801216120E7
:10312000FEF704F800216A20FEF700F80021802055
:10313000FDF7FCFF00218120FDF7F8FF0021822030
:10314000FDF7F4FF00218320FDF7F0FF002184202C
:10315000FDF7ECFF00218520FDF7E8FF102190200E
:10316000FDF7E4FF00219220FDF7E0FF032193200B
:10317000FDF7DCFF4FF488719520FDF7D7FF0021A4
:103180009720FDF7D3FF00219820FDF7CFFF40F2F5
:1031900033110720FDF7CAFF00212020FDF7C6FFED
:1031A00000212120FDF7C2FF1FE41E48408949F29B
:1031B000203188427ED100210720FDF7B7FF322061
:1031C00003F037F94FF48E711220FDF7AFFF0121A4
:1031D000A420FDF7ABFF0F210820FDF7A7FF082172
:1031E0000A20FDF7A3FF08210D20FDF79FFF40F205
:1031F00007713020FDF79AFF07213120FDF796FF78
:1032000040F203613220FDF791FF4FF4E06133207B
:10321000FDF78CFF40F202213420FDF787FF0221E9
:10322000352001E09E000020FDF780FF41F60F7180
:103230003620FDF77BFF40F207713720FDF776FF60
:1032400000213820FDF772FF00213920FDF76EFFC5
:1032500040F207713A20FDF769FF00213B20FDF79E
:1032600065FF07213C20FDF761FF00213D20FDF7B0
:103270005DFF322003F0DDF801210720FDF756FF46
:1032800001211720FDF752FF322003F0D2F84FF44E
:10329000BD511020FDF74AFF40F217211120FDF724
:1032A00045FF4FF48F711220FDF740FF4FF470611E
:1032B000132000E09AE0FDF739FF00212A20FDF7F6
:1032C00035FF0A212920FDF731FF4FF49F711220AD
:1032D000FDF72CFF00215020FDF728FFEF215120A2
:1032E000FDF724FF00215220FDF720FF40F23F119F
:1032F0005320FDF71BFF4FF41C516020FDF716FF14
:1033000001216120FDF712FF00216A20FDF70EFF69
:1033100000218020FDF70AFF00218120FDF706FF34
:1033200000218220FDF702FF00218320FDF7FEFE31
:1033300000218420FDF7FAFE00218520FDF7F6FE2E
:1033400013219020FDF7F2FE4FF440719220FDF71B
:10335000EDFE05219320FDF7E9FE00219520FDF704
:10336000E5FE00219720FDF7E1FE00219820FDF702
:10337000DDFE4FF480710120FDF7D8FE4FF4E061CF
:103380000220FDF7D3FE41F230010320FDF7CEFE0F
:1033900000210420FDF7CAFE00210C20FDF7C6FE27
:1033A00000210F20FDF7C2FE00212020FDF7BEFE08
:1033B00000212120FDF7BAFE21210720FDF7B6FEEE
:1033C000142003F036F861210720FDF7AFFE14202A
:1033D00003F02FF840F273110720FDF7A7FE142029
:1033E00003F027F82220FDF725FE13E4FE4840896C
:1033F00049F2313188427DD141F21401E720FDF7D5
:1034000095FE4FF480710120FDF790FE4FF400719E
:103410000220FDF78BFE41F238010320FDF786FE06
:1034200040F202210820FDF781FE00210920FDF76E
:103430007DFE00210A20FDF779FE00210C20FDF71A
:1034400075FE00210D20FDF771FE00210F20FDF714
:103450006DFE00211020FDF769FE07211120FDF708
:1034600065FE00211220FDF761FE00211320FDF70B
:103470005DFEC82002F0DDFF41F290611020FDF7F3
:1034800055FE40F227211120FDF750FE322002F0B8
:10349000D0FF0C211220FDF749FE322002F0C9FFB7
:1034A0004FF400611320FDF741FE11212920FDF7A3
:1034B0003DFE0B212B20FDF739FE322002F0B9FF33
:1034C00000212020FDF732FE40F23F112120FDF7C0
:1034D0002DFE00213020FDF729FE4FF483713120AD
:1034E000FDF724FE00213220FDF720FE4FF401718C
:1034F000352000E064E0FDF719FE41F20A61362054
:10350000FDF714FE40F207713720FDF70FFE4FF470
:1035100083713820FDF70AFE40F207713920FDF76C
:1035200005FE40F202413C20FDF700FE40F60F414F
:103530003D20FDF7FBFD00215020FDF7F7FDEF21B9
:103540005120FDF7F3FD00215220FDF7EFFD40F281
:103550003F115320FDF7EAFD4FF41C516020FDF7A9
:10356000E5FD01216120FDF7E1FD00216A20FDF765
:10357000DDFD00218020FDF7D9FD00218120FDF730
:10358000D5FD00218220FDF7D1FD00218320FDF72C
:10359000CDFD00218420FDF7C9FD00218520FDF728
:1035A000C5FD10219020FDF7C1FD4FF4C0619220B0
:1035B000FDF7BCFD40F233110720FDF7B7FD32E403
:1035C0008948408945F2084188427DD14FF4807195
:1035D0000120FDF7ABFD4FF4E0610220FDF7A6FDF1
:1035E00041F230010320FDF7A1FD00210420FDF789
:1035F0009DFD40F207210820FDF798FD00210920DC
:10360000FDF794FD00210A20FDF790FD00210C201C
:10361000FDF78CFD00210D20FDF788FD00210F2016
:10362000FDF784FD142002F004FF41F2B061102088
:10363000FDF77CFD01211120FDF778FD0121172008
:10364000FDF774FD4FF49C711220FDF76FFD4FF4F0
:1036500000611320FDF76AFD09212920FDF766FDB1
:1036600009212A20FDF762FD0021A420FDF75EFD5F
:1036700000215020FDF75AFDEF215120FDF756FDA6
:1036800000215220FDF752FD40F23F115320FDF77B
:103690004DFD4FF41C516020FDF748FD01216120D4
:1036A000FDF744FD00216A20FDF740FD0021802048
:1036B000FDF73CFD00218120FDF738FD002182202F
:1036C000FDF734FD002100E024E08320FDF72EFD0E
:1036D00000218420FDF72AFD00218520FDF726FD2D
:1036E00013219020FDF722FD00219220FDF71EFD01
:1036F00003219320FDF71AFD4FF488719520FDF703
:1037000015FD40F273110720FDF710FD322002F085
:1037100090FE39E43448408941F2055188427DD118
:1037200000210720FDF702FD322002F082FE4FF457
:103730008E711220FDF7FAFC0121A420FDF7F6FCA2
:103740000F210820FDF7F2FC08210A20FDF7EEFC0E
:1037500008210D20FDF7EAFC40F207713020FDF74B
:10376000E5FC07213120FDF7E1FC40F20361322046
:10377000FDF7DCFC4FF4E0613320FDF7D7FC40F2AD
:1037800002213420FDF7D2FC02213520FDF7CEFCCA
:1037900041F60F713620FDF7C9FC40F20771372062
:1037A000FDF7C4FC00213820FDF7C0FC00213920C2
:1037B000FDF7BCFC40F207713A20FDF7B7FC002191
:1037C0003B20FDF7B3FC07213C20FDF7AFFC0021B7
:1037D0003D20FDF7ABFC322002F02BFE012107203B
:1037E000FDF7A4FC012101E09E0000201720FDF759
:1037F0009DFC322002F01DFE4FF4BD511020FDF75C
:1038000095FC40F217211120FDF790FC4FF48F71C9
:103810001220FDF78BFC4FF4706100E098E013205C
:10382000FDF784FC00212A20FDF780FC0A212920D5
:10383000FDF77CFC4FF49F711220FDF777FC00210F
:103840005020FDF773FCEF215120FDF76FFC0021A4
:103850005220FDF76BFC40F23F115320FDF766FC50
:103860004FF41C516020FDF761FC01216120FDF740
:103870005DFC00216A20FDF759FC00218020FDF746
:1038800055FC00218120FDF751FC00218220FDF72D
:103890004DFC00218320FDF749FC00218420FDF729
:1038A00045FC00218520FDF741FC13219020FDF708
:1038B0003DFC4FF440719220FDF738FC0521932028
:1038C000FDF734FC00219520FDF730FC0021972006
:1038D000FDF72CFC00219820FDF728FC4FF48071A7
:1038E0000120FDF723FC4FF4E0610220FDF71EFCF0
:1038F00041F238010320FDF719FC00210420FDF7F7
:1039000015FC00210C20FDF711FC00210F20FDF714
:103910000DFC00212020FDF709FC00212120FDF7EE
:1039200005FC21210720FDF701FC142002F081FD98
:1039300061210720FDF7FAFB142002F07AFD40F226
:1039400073110720FDF7F2FB142002F072FD2BE447
:10395000FE4840894BF2055188427CD1002108463F
:10396000FDF7E4FB00210846FDF7E0FB00210846D7
:10397000FDF7DCFB00210846FDF7D8FB0121A42060
:10398000FDF7D4FB142002F054FD4FF41C516020CD
:10399000FDF7CCFB40F202210820FDF7C7FB4FF4F6
:1039A00005713020FDF7C2FB43F215713120FDF7A0
:1039B000BDFB40F204613220FDF7B8FB40F6166112
:1039C0003320FDF7B3FB42F211213420FDF7AEFBAB
:1039D0004FF4A8513520FDF7A9FB48F207513620D6
:1039E000FDF7A4FB41F207413720FDF79FFB41F2B1
:1039F00003413820FDF79AFB20213920FDF796FB83
:103A00001A219020FDF792FB00211020FDF78EFB7C
:103A100007211120FDF78AFB00211220FDF786FB0C
:103A200000211320FDF782FB142002F002FD4FF469
:103A3000E6611020FDF77AFB40F237111120FDF707
:103A400075FB142002F0F5FC4FF4DC711220FDF739
:103A50006DFB142000E085E002F0EBFC4FF4706198
:103A60001320FDF763FB80212A20FDF75FFB48212F
:103A70002920FDF75BFB142002F0DBFC4FF4807182
:103A80000120FDF753FB4FF4E0610220FDF74EFBF0
:103A900041F238010320FDF749FB40F202210820E2
:103AA000FDF744FB00210A20FDF740FB00210C201C
:103AB000FDF73CFB00210D20FDF738FB30210E20E7
:103AC000FDF734FB00215020FDF730FBEF215120A2
:103AD000FDF72CFB00215220FDF728FB40F23F119F
:103AE0005320FDF723FB4FF41C516020FDF71EFB14
:103AF00001216120FDF71AFB00216A20FDF716FB6A
:103B000011219020FDF712FB4FF4C0619220FDF7C8
:103B10000DFB40F202419320FDF708FB02219420A7
:103B2000FDF704FB142002F084FC01210720FDF7BF
:103B3000FDFA142002F07DFC61210720FDF7F6FA62
:103B400040F273110720FDF7F1FA00212020FDF764
:103B5000EDFA00212120FDF7E9FA22210020FDF7EE
:103B6000E5FA42E4794840894CF2055188427CD11B
:103B700000210846FDF7DAFA00210846FDF7D6FADB
:103B8000142002F056FC00210846FDF7CFFA002170
:103B90000846FDF7CBFA00210846FDF7C7FA0021D9
:103BA0000846FDF7C3FA0121A420FDF7BFFA14204F
:103BB00002F03FFC4FF41C516020FDF7B7FA40F6CD
:103BC00006010820FDF7B2FA40F203713020FDF73C
:103BD000ADFA01213120FDF7A9FA04213220FDF7C9
:103BE000A5FA4FF481713320FDF7A0FA4FF440712C
:103BF0003420FDF79BFA40F203113520FDF796FAC9
:103C00001F213620FDF792FA40F203713720FDF7AD
:103C10008DFA01213820FDF789FA04213920FDF7BA
:103C200085FA15219020FDF781FA4FF4826110206A
:103C3000FDF77CFA40F247211120FDF777FA4FF4A7
:103C4000DE711220FDF772FA4FF460611320FDF768
:103C50006DFA782002F0EDFB4FF480710120FDF742
:103C600065FA4FF40071022000E052E0FDF75EFAC1
:103C700041F230010320FDF759FA08210A20FDF72F
:103C800055FA00210C20FDF751FA20210E20FDF7F6
:103C90004DFA00210F20FDF749FA00212020FDF701
:103CA00045FA00212120FDF741FA3D212A20FDF7A8
:103CB0003DFA142002F0BDFB2D212920FDF736FA34
:103CC00000215020FDF732FA4DF2EF015120FDF7AF
:103CD0002DFA00215220FDF729FA40F23F1153201E
:103CE000FDF724FA00216120FDF720FA00216A2067
:103CF000FDF71CFA4FF440719220FDF717FA0521E9
:103D00009320FDF713FA4FF480710720FDF70EFAA8
:103D100055E40E48408948F6891188427DD1012139
:103D20000020FDF703FA012002F083FB4AF6A4010C
:103D30000320FDF7FBF9012002F07BFB00210C20A2
:103D4000FDF7F4F9012002F074FB01E09E00002071
:103D500040F60C010D20FDF7E9F9012002F069FBA6
:103D60004FF42C510E20FDF7E1F9012002F061FB28
:103D7000B7211E20FDF7DAF9012002F05AFB42F6C6
:103D80003F310120FDF7D2F9012002F052FB4FF440
:103D9000C0610220FDF7CAF9012002F04AFB0021B0
:103DA0001020FDF7C3F9012002F043FB46F2700139
:103DB0001120FDF7BBF9012002F03BFB002105209B
:103DC000FDF7B4F9012002F034FB00210620FDF7D5
:103DD000ADF9012002F02DFB4EF61C711620FDF707
:103DE000A5F9012002F025FB03211720FDF79EF91C
:103DF000012002F01EFB40F233210720FDF796F967
:103E0000012002F016FB00210B20FDF78FF90120A5
:103E100002F00FFB00210F2000E0B5E0FDF786F96E
:103E2000012002F006FB00214120FDF77FF901206F
:103E300002F0FFFA00214220FDF778F9012002F09C
:103E4000F8FA00214820FDF771F9012002F0F1FA9B
:103E500040F23F114920FDF769F9012002F0E9FA2B
:103E600000214A20FDF762F9012002F0E2FA002168
:103E70004B20FDF75BF9012002F0DBFA4FF46F41B4
:103E80004420FDF753F9012002F0D3FA0021452028
:103E9000FDF74CF9012002F0CCFA40F23F11462028
:103EA000FDF744F9012002F0C4FA40F20771302016
:103EB000FDF73CF9012002F0BCFA4FF4017131200A
:103EC000FDF734F9012002F0B4FA4FF40171322009
:103ED000FDF72CF9012002F0ACFA40F20251332038
:103EE000FDF724F9012002F0A4FA40F20751342032
:103EF000FDF71CF9012002F09CFA4FF40171352006
:103F0000FDF714F9012002F094FA4FF40171362004
:103F1000FDF70CF9012002F08CFA40F20251372033
:103F2000FDF704F9012002F084FA40F202313A2050
:103F3000FDF7FCF8012002F07CFA40F202313B2050
:103F4000FDF7F4F8012002F074FA00212320FDF7B8
:103F5000EDF8012002F06DFA00212420FDF7E6F8CB
:103F6000012002F066FA4FF400412520FDF7DEF84B
:103F7000012002F05EFA00214F20FDF7D7F8002162
:103F80004E20FDF7D3F8E2E4FE48408944F2315177
:103F900088427DD101210020FDF7C8F80A2002F0F7
:103FA00048FA41F228611020FDF7C0F80E211220D6
:103FB000FDF7BCF840F639211320FDF7B7F80A20C9
:103FC00002F037FA40211120FDF7B0F850211520FA
:103FD000FDF7ACF80A2002F02CFA1E211220FDF7A2
:103FE000A5F80A2002F025FA4FF4B1511020FDF790
:103FF0009DF842F639211320FDF798F80A2002F0C7
:1040000018FA4FF480710120FDF790F84FF44071D9
:104010000220FDF78BF841F238010320FDF786F806
:1040200040F202210820FDF781F808210A20FDF75F
:104030007DF800213020FDF779F840F2024131206F
:10404000FDF774F84FF483713220FDF76FF840F2FA
:1040500003513320FDF76AF84FF482713420FDF7E5
:1040600065F840F201313520FDF760F840F2077144
:104070003620FDF75BF840F205313720FDF756F8A2
:104080004FF402713820FDF751F840F60B7100E053
:104090003CE03920FDF74AF802214120FDF746F8BF
:1040A0004FF41C516020FDF741F801216120FDF71C
:1040B0003DF84FF404719020FDF738F84FF4857106
:1040C0009220FDF733F804219320FDF72FF84FF4E9
:1040D0008071A020FDF72AF801210720FDF726F8BE
:1040E00021210720FDF722F823210720FDF71EF8E4
:1040F00033210720FDF71AF840F233110720FDF7AE
:1041000015F80021A020FDF711F820E49D48408912
:1041100044F2355188427CD130211520FDF706F854
:1041200010219A20FDF702F820211120FCF7FEFF54
:1041300043F228411020FCF7F9FF02211220FCF77E
:10414000F5FF41F238011320FCF7F0FF282002F0C0
:1041500070F912210846FCF7E9FF282002F069F9FE
:1041600043F220411020FCF7E1FF43F23801132015
:10417000FCF7DCFF462002F05CF900213020FCF760
:10418000D5FF40F202413120FCF7D0FF40F2073169
:104190003220FCF7CBFF4FF441713320FCF7C6FF10
:1041A00004213420FCF7C2FF40F201413520FCF726
:1041B000BDFF40F207713620FCF7B8FF40F2053131
:1041C0003720FCF7B3FF4FF4C2613820FCF7AEFF95
:1041D0004FF4C2613920FCF7A9FF4FF48071012030
:1041E000FCF7A4FF4FF440710220FCF79FFF41F25F
:1041F00030010320FCF79AFF40F608010820FCF785
:1042000095FF08210A20FCF791FF4FF41C51602014
:1042100000E033E0FCF78AFF01216120FCF786FF14
:104220004FF49F719020FCF781FF4FF48071922032
:10423000FCF77CFF4FF480719320FCF777FF4FF47D
:104240004051A020FCF772FF1021A320FCF76EFF65
:1042500001210720FCF76AFF21210720FCF766FFF8
:1042600023210720FCF762FF33210720FCF75EFFC4
:1042700040F233110720FCF759FFEDE34148408934
:1042800043280BD03F484089502807D03D484089FB
:10429000702803D03B484089902804D11021012088
:1042A000FCF744FFD8E33748408941F607118842BC
:1042B00067D140F21F30344908804FF468703349A9
:1042C00008802E20324908800F2032490880302093
:1042D0003149087040F2DF103049088040F20D206B
:1042E0002F49088010202F49088008202E49088077
:1042F00010202E490870E220FCF79CFE2320FCF7DA
:10430000C2FE0220FCF7BFFE0420FCF7BCFEE0204A
:10431000FCF790FE0120FCF7B6FE012002F089F8C0
:10432000E020FCF787FE0320FCF7ADFE052002F03D
:1043300080F80120FCF77EFE052002F07AF8E620E6
:10434000FCF778FE0320FCF79EFEFF20FCF79BFEA7
:10435000FF20FCF798FEB020FCF76CFE0020FCF775
:1043600092FE0020FCF78FFE07490988080AFCF737
:104370008AFE05490878FCF786FE08490988080A7C
:1043800016E08DE09E0000202E000020300000206E
:1043900032000020340000203600002038000020C9
:1043A0003A0000203C0000203E0000204000002099
:1043B000FCF769FEFE490878FCF765FE0020FCF773
:1043C00062FEB420FCF736FEFA490988080AFCF7B9
:1043D0005AFEF8490878FCF756FEF7490988080A9A
:1043E000FCF751FEF4490878FCF74DFEF3480078DD
:1043F000FCF749FEF2490988080AFCF744FEF04937
:104400000878FCF740FE0020FCF73DFEB620FCF7E4
:1044100011FEEC490988080AFCF735FEE9490878DD
:10442000FCF731FEE8490988080AFCF72CFEE6494A
:104430000878FCF728FEE5480078FCF724FEE449FC
:104440000988080AFCF71FFEE1490878FCF71BFE03
:10445000BA20FCF7EFFD0520FCF715FEB820FCF7AD
:10446000E9FD0720FCF70FFE0120FCF70CFE3620CB
:10447000FCF7E0FD0020FCF706FEF020FCF7DAFD7B
:104480000320FCF700FE052001F0D3FF2920FCF7F4
:10449000D1FDD020FCF7CEFD0D20FCF7F4FDDBE2D2
:1044A000CC48408941F6051188427DD140F21F3049
:1044B000C94908804FF46870BE4908802E20BE4963
:1044C00008800F20BE4908803020BC49087040F2A7
:1044D000DF10B749088040F20D20BA49088010204B
:1044E000B94908800820BA4908801020B7490870E7
:1044F000E220FCF79FFD2320FCF7C5FD0220FCF71E
:10450000C2FD0420FCF7BFFDE020FCF793FD012075
:10451000FCF7B9FD012001F08CFFE020FCF78AFDDB
:104520000320FCF7B0FD052001F083FF0120FCF71C
:1045300081FD052001F07DFFE620FCF77BFD0320D7
:10454000FCF7A1FDFF20FCF79EFDFF20FCF79BFD83
:10455000B020FCF76FFD2720FCF795FD0020FCF74D
:1045600092FD9D490988080AFCF78DFD9A49087853
:10457000FCF789FD8E490988080AFCF784FD8C49FF
:104580000878FCF780FD0020FCF77DFDB420FCF7E7
:1045900051FD88490988080AFCF775FD85490878A6
:1045A000FCF771FD844900E061E00988080AFCF726
:1045B0006AFD81490878FCF766FD80480078FCF7C1
:1045C00062FD7F490988080AFCF75DFD7C4908788F
:1045D000FCF759FD0020FCF756FDB620FCF72AFD3C
:1045E00078490988080AFCF74EFD76490878FCF7F7
:1045F0004AFD75490988080AFCF745FD72490878A3
:10460000FCF741FD71480078FCF73DFD70490988D1
:10461000080AFCF738FD6E490878FCF734FDBA202B
:10462000FCF708FD0F20FCF72EFDB820FCF702FD7B
:104630000720FCF728FD0120FCF725FD3620FCF7BC
:10464000F9FC0020FCF71FFDF020FCF7F3FC032031
:10465000FCF719FD052001F0ECFE2920FCF7EAFC2F
:10466000D020FCF7E7FC0D20FCF70DFDF4E15948E4
:10467000408941F6431188427DD140F2DF1056490E
:10468000088040F213204B4908802B204A490880BB
:1046900008204B4908800A204849087040F20F1052
:1046A000434908804FF49070464908800C204649E1
:1046B00008800420464908800A2044490870E22006
:1046C000FCF7B8FC2D20FCF7DEFC0220FCF7DBFC3D
:1046D0000420FCF7D8FCE020FCF7ACFC0120FCF740
:1046E000D2FC012001F0A5FEE020FCF7A3FC032092
:1046F000FCF7C9FC052001F09CFE0120FCF79AFCA8
:10470000052001F096FEE620FCF794FC0020FCF763
:10471000BAFCFF20FCF7B7FCBE20FCF7B4FCB020CD
:10472000FCF788FC2020FCF7AEFC0020FCF7ABFC7B
:1047300029490988080AFCF7A6FC27490878FCF7EC
:10474000A2FC1B490988080AFCF79DFC1849087857
:10475000FCF799FC0020FCF796FC052001F069FEAF
:10476000B420FCF767FC13490988080AFCF78BFCA6
:104770001049087800E090E0FCF785FC0E490988B4
:10478000080AFCF780FC0C490878FCF77CFC0B4815
:104790000078FCF778FC0A490988080AFCF773FCE2
:1047A00007490878FCF76FFC0020FCF76CFC15E06B
:1047B00038000020300000203200002036000020A9
:1047C000340000203A0000203C000020400000207F
:1047D0003E0000209E0000202E000020B620FCF7A6
:1047E00029FCF9490988080AFCF74DFCF6490878C4
:1047F000FCF749FCF5490988080AFCF744FCF34931
:104800000878FCF740FCF2480078FCF73CFCF149E2
:104810000988080AFCF737FCEE490878FCF733FCF6
:104820003620FCF707FC0020FCF72DFCF020FCF7FD
:1048300001FC0320FCF727FC052001F0FAFD2920EC
:10484000FCF7F8FBBE20FCF7F5FB0620FCF71BFC91
:10485000F020FCF718FC0120FCF715FCF020FCF719
:1048600012FC0020FCF70FFC0020FCF70CFCD02011
:10487000FCF7E0FB0D20FCF706FCB820FCF7DAFBA8
:104880000020FCF700FC0120FCF7FDFBBA20FCF740
:10489000D1FB0020FCF7F7FBDEE0CF48408941F276
:1048A00021118842F8D142F204011120FCF73EFCAC
:1048B0004FF44C411320FCF739FC4FF418511520EC
:1048C000FCF734FC42F22A511420FCF72FFC332170
:1048D0001220FCF72BFC4CF604411320FCF726FCBD
:1048E000012001F0A6FD4CF606411320FCF71EFC4A
:1048F000012001F09EFD4CF64F411320FCF716FC01
:10490000012001F096FD46F24F711320FCF70EFCDA
:1049100042F203011120FCF709FC012001F089FD9E
:1049200042F209613020FCF701FC42F22C413120B7
:10493000FCF7FCFB41F623713220FCF7F7FB42F257
:1049400025413320FCF7F2FB42F226213420FCF70C
:10495000EDFB42F223513520FCF7E8FB41F61A410A
:104960003620FCF7E3FB41F21D313720FCF7DEFB7C
:1049700040F611313820FCF7D9FB41F210213920E3
:10498000FCF7D4FB41F215313A20FCF7CFFB43F2A0
:1049900019613B20FCF7CAFB4FF450613C20FCF747
:1049A000C5FB0D213D20FCF7C1FB07211620FCF7BC
:1049B000BDFB13210220FCF7B9FB03210846FCF7DD
:1049C000B5FB40F227110120FCF7B0FB012001F0FC
:1049D00030FD40F203310820FCF7A8FB0B210A2030
:1049E000FCF7A4FB03210B20FCF7A0FB00210C200B
:1049F000FCF79CFB00214120FCF798FB0021502094
:104A0000FCF794FB05216020FCF790FB0B21702044
:104A1000FCF78CFB00217120FCF788FB002178203B
:104A2000FCF784FB00217A20FCF780FB072179202A
:104A3000FCF77CFB51210720FCF778FB012001F0FB
:104A4000F8FC53210720FCF771FB00217920FCF7CB
:104A50006DFB012001F0EDFC322001F0EAFC4FF685
:104A6000FF70FCF7A7FE1EB010BD2DE9F05F0546F4
:104A70000E4617469846DDF828A04FF0000B781B2D
:104A8000401C1FFA80FB344613E021462846FCF701
:104A9000B0FBFCF776FB4FF0000906E05046FCF750
:104AA000F2FA09F101001FFA80F9D945F6DB601C22
:104AB00084B24445E9DDBDE8F09F2DE9F84F074693
:104AC0000D4690469946DDF828B0A8EB0700401C3B
:104AD00080B20090A9EB0500401C1FFA80FA002468
:104AE00015E0281981B23846FCF783FBFCF749FB37
:104AF000002607E004FB0A603BF8100037490880F5
:104B0000701C86B200988642F4DB601C84B2544567
:104B1000E7DBBDE8F88F2DE9FF4F85B081468A4677
:104B20000020049003900798A0EB09050898A0EBDB
:104B30000A06CDF80890CDF804A0002D01DD01276C
:104B400005E00DB9002702E04FF0FF376D42002E5F
:104B500002DD4FF0010806E016B94FF0000802E050
:104B60004FF0FF387642B54201DD2C4600E0344676
:104B70004FF0000B21E0019A91B2029A90B2FCF73B
:104B8000D6FC049828440490039830440390049879
:104B9000A04205DD0498001B04900298384402905E
:104BA0000398A04205DD0398001B03900198404440
:104BB00001900BF101001FFA80FB601C8345DADDD8
:104BC00009B0BDE8F08F00003A0000203C00002052
:104BD000400000203E0000209E00002000000860F1
:104BE0002DE9F04104460D4616461F462B46324637
:104BF00029462046FFF78FFF3B462246294620469E
:104C0000FFF789FF3B46324639462046FFF783FFD0
:104C10003B46324629463046FFF77DFFBDE8F0812E
:104C20002DE9F04706460F469046002445460320EE
:104C3000A0EB48093CE07A1B91B2321990B2FCF724
:104C400076FC3A1B91B2721990B2FCF770FC3A19DB
:104C500091B2721990B2FCF76AFC7A1991B23219CA
:104C600090B2FCF764FC7A1991B2321B90B2FCF757
:104C70005EFC3A1991B2721B90B2FCF758FC7A1B99
:104C800091B2321B90B2FCF752FC3A1B91B2721BEC
:104C900090B2FCF74CFC641CB9F1000F03DAA000E1
:104CA000801D814404E0601B80000A3081446D1E39
:104CB000AC42C0DDBDE8F0872DE9FF4F83B006466A
:104CC00092461F46DDE910480020029000254DE085
:104CD000781B401EC1B20A20FCF7E4FCBAFBF0F0DE
:104CE0000A21B0FBF1F201FB1209029850BB781EB9
:104CF000A84227DDB9F1000F22D108F0800078B179
:104D000008F00100A34604EBDB71491001FB0561CB
:104D1000009088B2234630220499FCF716FC0EE07E
:104D200008F00100A34604EBDB71491001FB0561AB
:104D3000009088B2234620220499FCF706FC13E079
:104D40000120029008F00100A34604EBDB7149103A
:104D500001FB0561009088B209F13001CAB2234617
:104D60000499FCF7F2FB00BF681CC5B2BD42AFDB83
:104D700007B0BDE8F08F2DE9F04781460F460024CB
:104D8000002524E0781981B24846FCF732FAFCF796
:104D9000F8F94FF0000815E0012000EB4400374916
:104DA0000E5C4FF6FF7000EA0626084610F8140065
:104DB00006433046FCF767F9601C84B208F1010035
:104DC0001FFA80F8B8F1280FE6DB681C85B2282DA1
:104DD000D8DBBDE8F08708B5294806884FF478404D
:104DE00027490880642405E064212046FCF79FFBE6
:104DF000601C84B2962CF7DB10200523009020481D
:104E0000028800210846FCF758FC64242FE0642146
:104E10002046FCF753FB054664212046FCF74EFB79
:104E200005461748058078212046FCF780FB642C56
:104E300007D1102005232A46142100900020FCF7FA
:104E40003CFC652C07D1102005232A462821009020
:104E50000020FCF732FC662C07D1102005232A46DF
:104E60003C2100900020FCF728FC601C84B2962CAA
:104E7000CDDB0348068000BFFEE700002288000863
:104E80002A00002000B587B00121042002F01EFA9C
:104E90000121080302F01AFAA020ADF8180018202A
:104EA0008DF81B0003208DF81A0006A9754801F043
:104EB00051FF1020ADF8180003208DF81A001020C3
:104EC0008DF81B0006A96F4801F044FF10216D48C2
:104ED00001F0EFFF1020ADF8180003208DF81A0044
:104EE00010208DF81B0006A9674801F033FF102140
:104EF000654801F0DEFF0120ADF8180003208DF8B1
:104F00001A0010208DF81B0006A9604801F022FF4E
:104F100001215E4801F0CDFF0020ADF804004FF400
:104F20008270ADF806000020ADF808000220ADF850
:104F30000A000120ADF80C004002ADF80E00002080
:104F4000ADF81000ADF812000720ADF8140001A96B
:104F50004F4802F045FA01214D4802F0E6FA07B049
:104F600000BD70B50546002405E0601CC4B2C82C25
:104F700001DD002070BD0221464802F05AFB0028E6
:104F8000F3D02946434802F001FB002405E0601CF1
:104F9000C4B2C82C01DD0020ECE701213D4802F03D
:104FA00048FB0028F3D03B4802F0F2FAC0B2E1E738
:104FB00000B587B00121082002F088F9012188039B
:104FC00002F091F94FF46040ADF8180018208DF808
:104FD0001B0003208DF81A0006A92C4801F0BAFE28
:104FE0004FF46041294801F062FF0020ADF8040051
:104FF0004FF48270ADF806000020ADF808000220E2
:10500000ADF80A000120ADF80C004002ADF80E002A
:105010001820ADF810000020ADF812000720ADF800
:10502000140001A91B4802F0DBF90121194802F024
:105030007CFAFF20FFF795FF07B000BD10B50446CE
:10504000144800884FF6C771084012490880084686
:1050500000882043088001210E4802F066FA10BD46
:10506000024600BF108900F002000028FAD09181AA
:1050700000BF108900F001000028FAD09089C0B26A
:10508000704700000008014000100140000C014082
:10509000003001400038004010B500240020D849FD
:1050A00008609020FFF75DFF0020FFF75AFF002007
:1050B000FFF757FF0020FFF754FFFF20FFF751FFD6
:1050C00044EA0024FF20FFF74CFF04430120CD49B0
:1050D000C1F8B001204610BD08B501214FF494700D
:1050E00002F0F4F84FF48050ADF8000010208DF875
:1050F000030003208DF802006946C34801F02AFE30
:105100004FF48051C04801F0D2FE0420ADF80000F9
:105110006946BE4801F01EFE0421BC4801F0C7FEEE
:105120008020ADF800006946B94801F013FE8021E7
:10513000B74801F0BCFEFFF73BFF0020FFF77EFF02
:10514000FFF7AAFFB349088008BD10B5002400206E
:10515000AB4908600520FFF704FFFF20FFF701FFC0
:1051600004460120A749C1F8B001204610BD10B582
:1051700004460020A24908600120FFF7F2FE204605
:10518000FFF7EFFE01209F49C1F8B00110BD10B537
:1051900000209B4908600620FFF7E3FE01209949A3
:1051A000C1F8B00110BD10B5002095490860042079
:1051B000FFF7D7FE01209349C1F8B00110BD2DE9DA
:1051C000F04106460C46174600208D490860032032
:1051D000FFF7C7FEC4F30740FFF7C3FEC4F3072081
:1051E000FFF7BFFEE0B2FFF7BCFE002505E0FF20A1
:1051F000FFF7B7FE7055681C85B2BD42F7DB012092
:105200007F490860BDE8F08110B500BFFFF79DFF42
:1052100000F001000028F9D110BD2DE9F04106464B
:105220000C461746FFF7B3FF0020754908600220BF
:10523000FFF797FEC4F30740FFF793FEC4F3072080
:10524000FFF78FFEE0B2FFF78CFE002504E0705DF3
:10525000FFF787FE681C85B2BD42F8DB0120684974
:105260000860FFF7D1FFBDE8F0812DE9F041074666
:105270000E461446F0B2C0F58075AC4200DC2546FF
:1052800012E02A4631463846FFF7C7FFAC4200D14C
:105290000BE02F442E44601B84B2B4F5807F02DD06
:1052A0004FF4807500E02546EBE700BFBDE8F081D4
:1052B00010B504462403FFF76AFFFFF7A5FF00209F
:1052C0004F4908602020FFF74CFEC4F30740FFF76A
:1052D00048FEC4F30720FFF744FEE0B2FFF741FEAB
:1052E00001204849C1F8B001FFF78EFF10BD2DE93C
:1052F000F04781460F4616464FEA1738C7F30B0AA8
:10530000CAF58054A64200DC344644E04FEA083136
:105310004FF480524048FFF752FF002508E00AEBA7
:1053200005003D49085CFF2800D003E0681C85B2F9
:10533000A542F4DB00BFA54216DA4046FFF7B8FFEE
:10534000002507E019F8050005EB0A01324A505420
:10535000681C85B2A542F5DB4FEA08314FF4805254
:105360002D48FFF782FF04E0224639464846FFF702
:105370007CFFA64200D10FE008F101084FF0000ABF
:10538000A1442744301B86B2B6F5805F02DD4FF49E
:10539000805400E03446B9E700BFBDE8F08710B59F
:1053A000FFF7F5FEFFF730FF002015490860C72022
:1053B000FFF7D7FD01201349C1F8B001FFF724FF23
:1053C00010BD10B500200E490860B920FFF7C9FDD7
:1053D00001200C49C1F8B001032001F006F810BD0E
:1053E00010B5002006490860AB20FFF7BAFD012088
:1053F0000449C1F8B001032000F0F7FF10BD000020
:10540000B081214200802142000C01400014014083
:105410000020014042000020AE000020002100BF1B
:1054200015E000F080021AB10122FE4B1A6002E082
:105430000022FC4B1A604206100E0022F94B083B7A
:105440001A600122F84BC3F884214A1CD1B2082902
:10545000E7DB704770B50646002500240020F149BF
:1054600008390860F049C1F88C01EE490C39086030
:105470003046FFF7D3FF072000F0B7FF0020EA49CE
:10548000C1F88401012000F0B0FF0120E54908398E
:1054900008600020E449C1F8840100BF13E04FF622
:1054A000FF7000EA44040020DE490839086001204A
:1054B000DD49C1F88401DB488438006808B1601C0C
:1054C00084B2681CC5B2102DE9DB24110120D54936
:1054D0000C390860204670BD2DE9F04186B0804649
:1054E0000027002407E04046FFF7B4FF01A921F898
:1054F0001400601C84B20A2CF5DB00241BE0601C45
:1055000085B214E001A830F8140001A931F8151093
:1055100088420ADD01A830F8146030F8150001A9AE
:1055200021F8140001A820F81560681C85B20A2D26
:10553000E8DB601C84B2092CE1DB0027022406E0D2
:1055400001A830F81400384487B2601C84B2082CDB
:10555000F6DB062097FBF0F086B2304606B0BDE8D9
:10556000F0812DE9F04104460D46B0480078FFF780
:10557000B3FF0646AE480078FFF7AEFF0746268029
:105580002F800120BDE8F0817FB504460D4602A9B9
:1055900003A8FFF7E6FF064616B9002004B070BD69
:1055A000694601A8FFF7DDFF06460EB90020F5E7C2
:1055B000BDF80400BDF80C10884206DCBDF80C10E4
:1055C000BDF80400323081420CDBBDF80C00BDF8A0
:1055D0000410884236DCBDF80410BDF80C003230EF
:1055E00081422FDABDF80000BDF80810884206DCC1
:1055F000BDF80810BDF80000323081420CDBBDF868
:105600000800BDF8001088421CDCBDF80010BDF891
:1056100008003230814215DABDF80C10BDF80420C4
:10562000881800EBD071C1F34F012180BDF808103C
:10563000BDF80020881800EBD071C1F34F0129801C
:105640000120ABE70020A9E770B504460D461646D9
:105650007848068004F10D018AB2193988B22B46C8
:105660002946FFF758FA05F10D0083B2193881B2C7
:1056700022462046FFF74FFA6A1C91B2621C90B294
:10568000FBF755FF6A1C91B2621E90B2FBF74FFF09
:105690006A1E91B2621C90B2FBF749FF6A1E91B27A
:1056A000621E90B2FBF743FF062229462046FFF711
:1056B000B7FA70BD70B504460D4616465D480680C3
:1056C00029462046FBF733FF611C88B22946FBF7C9
:1056D0002EFF681C81B22046FBF729FF6A1C91B29D
:1056E000621C90B2FBF723FF70BD2DE9F041044628
:1056F0004C4864380068002853D124B14E49881EB4
:10570000FFF742FF3CE04C49881EFFF73DFFB8B36E
:1057100049491239B1F9200002F016FF07464649FF
:105720001239088A02F028FF8046434812388169FE
:10573000404602F035FF0646394602F0A5FD054613
:1057400002F0E2FE3C4912390882B1F9220002F06F
:10575000FBFE074638491239488A02F00DFF8046A1
:1057600035481238C169404602F01AFF06463946EC
:1057700002F08AFD054602F0C7FE2F491239488221
:105780002D481238007D00F0800010BBC0202A494F
:10579000123908750846008A88810846408AC881FF
:1057A00017E025481238007D00F0800040B1224803
:1057B0001238007D20F080001F491239087508E07A
:1057C00000201D4912398881C8814FF6FF70088278
:1057D000488219481238007D00F08000BDE8F08151
:1057E00038B5154912398869144902F0D9FE0446C2
:1057F00002F06EFE00900422114801886846FFF70F
:1058000076FD0D491239C8690C4902F0C9FE0446FB
:1058100002F05EFE0090042209480188091D6846D6
:1058200010E000008C012242000022426C000020A7
:105830006D0000202A0000205600002020BCBE4C35
:105840006E000020FFF753FD0222FA48018808315C
:10585000F948FFF74CFD0222F64801880A31F64864
:10586000801CFFF744FD0122F24801880C31F24808
:10587000001DFFF73CFD0A2000900122ED48018841
:105880000D316846FFF733FD38BD38B50020009074
:105890000122E84801880D316846FFF790FC009826
:1058A0000A284BD10422E34801886846FFF787FCA9
:1058B000009802F049FE0446E04902F047FDDE4947
:1058C000203988610422DB480188091D6846FFF7FA
:1058D00076FC009802F038FE0446D84902F036FD06
:1058E000D5492039C8610222D24801880831D248FE
:1058F000FFF765FC0222CF4801880A31CE48801CA0
:10590000FFF75DFC0122CB4801880C31CA48001D1D
:10591000FFF755FCC848203890F8240030B190209B
:10592000C7490870D020C749087005E0D020C44995
:1059300008709020C3490870012038BD0020FCE7A2
:105940002DE9FC5F04460D4617461E46DDE90EAB09
:10595000DDE90C894FF47840BB490880BBA01021D9
:10596000CDE90010BA480389C288A0212820FBF79E
:10597000EEFEB8A01021CDE90010B5480389C28819
:10598000A0217820FBF7E3FEB3A01021CDE90010A1
:10599000AF480389C288B4212820FBF7D8FEAFA006
:1059A0001021CDE90010AA480389C288B4217820CB
:1059B000FBF7CDFEAAA01021CDE90010A448038971
:1059C000C288C8212820FBF7C2FEA6A01021CDE97D
:1059D00000109F480389C288C8217820FBF7B7FED2
:1059E000A1A01021CDE9001099480389C288DC21CB
:1059F0002820FBF7ACFE9DA01021CDE900109448B3
:105A00000389C288DC217820FBF7A1FE98A0102131
:105A1000CDE900108E480389C288F0212820FBF7C9
:105A200096FE102004232246A02100904020FBF780
:105A300044FE102004232A46A02100909020FBF76A
:105A40003CFE102004233A46B42100904020FBF78E
:105A500034FE102004233246B42100909020FBF73E
:105A60002CFE102004234246C82100904020FBF762
:105A700024FE102004234A46C82100909020FBF702
:105A80001CFE102004235246DC2100904020FBF72E
:105A900014FE102004235A46DC2100909020FBF7CE
:105AA0000CFE102000906A48C18803236020109AE1
:105AB000FBF703FEBDE8FC9F00B595B000201090F9
:105AC0000A9010901F20604908804FF6FF706A49C5
:105AD0000880FBF76FFE4FF478405B4908804FF673
