:0300000002387F44
:0C387F00787FE4F6D8FD7581070238C69A
:103D8000687474703A2F2F74746D63752E74616F3C
:103D900062616F2E636F6D004C43445F573A004C75
:103DA00043445F483A0056583A0056793A0043482F
:083DB000583A004348593A005B
:043CB4004100A80023
:103B5C00123EA5EF701E74FFFFFE123BBA74FF906D
:103B6C000093F0A3F090008E74F8F0A3E4F01235FB
:103B7C008C7F012220B2061213737F01227F00205A
:103B8C00B32B7EF8123BBA7FB87E0B123DEB7FE075
:103B9C007E07123BBA7FB87E0B123DEB7F1F7E0077
:0E3BAC00123BBA7FB87E0B123DEB7F01222246
:1028030074FF900093F0A3F090008E74F8F0A3E4AB
:10281300F0FBFDFC7F0AFE1236657B01E4FDFC7FC5
:102823002DFE1236657BFF7A3D79807D237C007F08
:102833000A7E001237DE7BFF7A3D79987D377C0074
:102843007F0A7E001237DE9000471225DB0000016D
:10285300E090004B7403F07D377C007F467E0012CE
:1028630034AB7BFF7A3D799F7D377C007F6E7E00A2
:102873001237DE9000471225DB0000011090004B59
:102883007403F07D377C007FA07E001234AB900090
:1028930006E4F0A3740AF0A3E4F0A3744BF07BFF07
:1028A3007A3D79A6FD7C007F0A7E001237DE900018
:1028B30007E02428F0900006E03400F09000A4E044
:1028C300FEA3E0FFE4FCFD9000471225CF90004BF0
:1028D3007405F0900008E0FCA3E0FD900006E0FE24
:1028E300A3E0FF1234AB900007E0243CF090000615
:1028F300E03400F0E0FEA3E0FFA3E0FCA3E0FD7BF7
:10290300FF7A3D79AA1237DE900007E02428F09081
:102913000006E03400F09000A6E0FEA3E0FFE4FC34
:10292300FD9000471225CF90004B7405F0900008EE
:10293300E0FCA3E0FD900006E0FEA3E0FF1234AB51
:10294300900006E4F0A3740AF0A3E4F0A3745FF02C
:102953007BFF7A3D79AEFD7C007F0A7E001237DE75
:10296300900007E02428F0900006E03400F0900087
:1029730098E0FEA3E0FFE4FCFD9000471225CF9012
:10298300004B7405F0900008E0FCA3E0FD90000606
:10299300E0FEA3E0FF1234AB900007E0243CF0908C
:1029A3000006E03400F0E0FEA3E0FFA3E0FCA3E0B8
:1029B300FD7BFF7A3D79B31237DE900007E02428D0
:1029C300F0900006E03400F090009AE0FEA3E0FFF0
:1029D300E4FCFD9000471225CF90004B7405F09066
:1029E3000008E0FCA3E0FD900006E0FEA3E0FF0288
:0229F30034AB03
:1031AB0074FFFFFE123BBA122803900004E4F0A355
:1031BB007403F0E4900002F0A3F0900002E0FAA395
:1031CB00E0FB7C007D28FFAE021223F7C006C00790
:1031DB00A3E0FEA3E0FF1223F7C006C007AF03AEC8
:1031EB00021223F7EF2427FBE43EFA900004E0FEE3
:1031FB00A3E0FF1223F7EF2427FFE43E900069F0D2
:10320B00A3EFF0D005D004D007D006123D46E490D2
:10321B000000F0A3F0123B5CEF60079000A8740174
:10322B00F022900001E025E0FD900000E033FC74FB
:10323B00042DF58274003CF583E493FF74032DF5A4
:10324B008274003CF583E493FD123EAB900001E0E9
:10325B0004F07006900000E004F0C3900001E094CD
:10326B0040900000E06480948640AA900003E00444
:10327B00F07006900002E004F0C3900003E0940CA1
:10328B00900002E06480948050030231C5900005E9
:10329B00E004F07006900004E004F0C3900005E039
:1032AB009406900004E06480948050030231BEE4E5
:0432BB009000A8F0E7
:0132BF0022EC
:103DB800123E9C122BE074FFFFFE123BBAE4900007
:103DC80093F0A3F074FF90008EF0A3F01231AB12C1
:103DD8003B5CEF60031231AB9000A8E060F1123158
:033DE800AB80ECC1
:023EB0002000F0
:103CB80042008601DF420082021342008C002B4240
:103CC800009100084100900A42008A010F420084D6
:103CD8000120420095000C42008800044100970A28
:0B3E86008FA0AF058F80C2B6D2B6221D
:053EAB00D2B5023E86C5
:093E6400A3E0FF123E6DA3E0FF94
:0B3E6D00AD07AC06D2B5ECFF023E86AC
:0B3E9100AD07AC06C2B5ECFF023E8698
:0E3E7800AB05AA04123E91AE02AF03023E6DEE
:103D4600900063EEF0A3EFF0A3ECF0A3EDF07F2A72
:103D56007E00123E91900063123E65EAFF123E6DB0
:103D6600AF037E00123E6D7F2B123E91123E649091
:0A3D76000069123E657F2C023E91A9
:102BE000D29020905BE4FDFCFFFE123E787BFF7AE2
:102BF0003E79B0E4FDFCFFFE1237DE90004712255F
:102C0000DB00000000E490004BF0FDFCFFFE1234FE
:102C1000ABE4900006F0FBFAFDFCFFFE123991E4F4
:102C2000FDFCFFFE123C68E4900006F0A3F0FBFA06
:102C3000FDFCFFFE123734E4FBFDFCFFFE12260C08
:102C4000D2927F057E00123DEBC2927F057E00127C
:102C50003DEBD292D290D2B7D2B67F057E00123D24
:102C6000EBC2907FE27E00123E917F2D123E6D7F7F
:102C700002123E6D7F04123E6D7FE0123E917F0195
:102C8000123E6D7F01123DEB7FE07E00123E917F90
:102C900003123E6D7F05123DEB7F017E00123E91D7
:102CA0007F05123DEB7FE67E00123E91E4FF123E6F
:102CB0006D7FFF123E6D7FBE123E6D7FB0123E9162
:102CC0007F20123E6DE4FF123E6D900086123E653D
:102CD00090008A123E65E4FF123E6D7F05123DEBC7
:102CE0007FB47E00123E91900082123E6590008C6F
:102CF000123E65900090E0FF123E6D123E64E4FFCC
:102D0000123E6D7FB6123E91900084123E65900097
:102D100095E0FF123E6D123E64900088123E657F82
:102D200036123E91E4FF123E6D7FF0123E917F031A
:102D3000123E6D7F05123DEB7F297E00123E917F92
:102D4000BE123E917F06123E6D7FF0123E6D7F01F6
:102D5000123E6D7FF0123E6DE4FF123E6DE4FF12F5
:102D60003E6D7FD0123E917F0D123E6D7FB8123EB8
:102D700091E4FF123E6D7F01123E6D7FBA123E91CB
:052D8000E4FF023E6DBE
:023BBA00AC0657
:103BBC00EC90004AF0A9079000697401F0A3740F0F
:103BCC00F07BDF7A01E4FDFCFFFE123D46E4900041
:103BDC004BF0A3F0E4FBFA90004AE0FFAD01123E7B
:103BEC00AB0BBB00010ABA01EEBB10EB90004CE032
:103BFC0004F0700690004BE004F0C390004CE0948D
:093C0C00E090004BE0940140CB74
:013C1500228C
:1036650090000AEEF0A3EFF090000EEBF090000C46
:05367500ECF0A3EDF0F4
:10367A0090001174FFF0A3740CF0A37483F090000F
:10368A000AE0FAA3E0FFAE02C006C007241FFBE46B
:10369A003AFAA3E0FEA3E0241FFFE43E900069F09B
:1036AA00A3EFF0D007D006123D4690000EE075F069
:1036BA0080A4FF900012E5F08FF012245EE49000DF
:1036CA0010F0E490000FF090000FE0FFC394085050
:1036DA0042900011E0FBA3E0FAA3E0F91223DEFD19
:1036EA007C0074017E00A807088005C333CE33CE60
:1036FA00D8F9FFEE5CFEEF5D4E600590008E800308
:10370A00900093E0FEA3E0FF123E6D90000FE004EC
:10371A00F080B4900012E475F00112245E9000105B
:09372A00E004F0E0C39480409932
:013733002273
:103C1600900004E0FEA3E0FF900001E02FFF90007B
:103C260000E03E900006FEE0FCA3E0FD900003E00D
:083C36002DFD900002E03CFCB2
:103C3E00AB07AA068D828C83C006C007AE83AF8207
:103C4E00900069EEF0A3EFF0D007D006123D46903B
:0A3C5E00008EE0FEA3E0FF023E6DC1
:103C6800AB07AA068D828C83EB24FFFFEA34FFFEA4
:103C7800C006C007E58224FFFDE58334FFFCEB2482
:103C880001FBE43AFAAE83AF82EF2401FFE43E90F1
:103C98000010F0A3EFF090008EE0FFA3E090001278
:0C3CA800CFF0A3EFF0D007D00602390BDC
:10390B0090000AEEF0A3EFF0A3ECF0A3EDF0A3EA26
:04391B00F0A3EBF03A
:10391F00C007A3E0FFA3E0900069CFF0A3EFF0D0C2
:10392F0007123D4690000CE0FFA3E0900014CFF08B
:10393F00A3EFF0900010E0FEA3E0FFD3900015E09E
:10394F009F900014E09E503990000AE0FEA3E0FB28
:10395F00AA06C390000FE09B90000EE09A401290D1
:10396F000012E0FEA3E0FF123E6D0BBB00010A80C8
:10397F00E1900015E004F070BA900014E004F080BC
:01398F00B285
:013990002214
:0E29F500900047EEF0A3EFF0A3ECF0A3EDF09E
:102A0300E4900051F0A3F0A3F0A3F0900047E0FEA0
:102A1300A3E0FFC3EB9FFFEA9E900055F0A3EFF006
:102A2300900049E0FAA3E0FBC390004EE09BFE90C8
:102A3300004DE09A900057F0A3CEF0900047E0FFDE
:102A4300A3E090005FCFF0A3EFF0A3EAF0A3EBF0D5
:102A5300900055E0FEA3E0FFD39400EE64809480E1
:102A6300400A90005BE4F0A304F08021EF4E70086D
:102A730090005BF0A3F0801574FF90005BF0A3F06F
:102A8300C3E49FFFE49E900055F0A3EFF09000573E
:102A9300E0FEA3E0FFD39400EE64809480400A90AC
:102AA300005DE4F0A304F08021EF4E700890005D18
:102AB300F0A3F0801574FF90005DF0A3F0C3E49FD2
:102AC300FFE49E900057F0A3EFF0900057E0FEA3C1
:102AD300E0FF900055E0FCA3E0FDD39FEE6480F897
:102AE300EC6480989000594007ECF0A3EDF080056A
:102AF300EEF0A3EFF0E490004FF0A3F090005AE063
:102B03002401FF900059E03400FED3900050E09F71
:102B130090004FE09E4003022BDF90005FE0FEA396
:102B2300E0FFA3E0FCA3E0FD123C3E900055E0FE75
:102B3300A3E0FF900052E02FF0900051E03EF090B0
:102B43000057E0FEA3E0FF900054E02FF090005305
:102B5300E03EF0900059E0FEA3E0FF900051E0FC5E
:102B6300A3E0FDD39FEE6480F8EC6480984020EDF1
:102B73009FFFEC9E900051F0A3EFF090005BE0FE0E
:102B8300A3E0FF900060E02FF090005FE03EF09044
:102B93000059E0FEA3E0FF900053E0FCA3E0FDD367
:102BA3009FEE6480F8EC6480984020ED9FFFEC9EDC
:102BB300900053F0A3EFF090005DE0FEA3E0FF90E0
:102BC3000062E02FF0900061E03EF0900050E004DE
:0C2BD300F0700690004FE004F0022AFFB2
:012BDF0022D3
:10373400900004EAF0A3EBF0900000EEF0A3EFF0A9
:10374400A3ECF0A3EDF0C007A3E0FAA3E0FB900024
:1037540002E0FFA3E090004DCFF0A3EFF0D00712FA
:1037640029F5900000E0FAA3E0FBFFAE02C007A336
:10377400E0FCA3E0FD900006E0FFA3E090004DCF45
:10378400F0A3EFF0D0071229F5900006E0FCA3E0C7
:10379400FD900004E0FAA3E0FBA3E0FFA3E09000A7
:1037A4004DCFF0A3EFF0900000E0FEA3E0FF12295C
:1037B400F5900004E0FAA3E0FBFFAE02C00790001E
:1037C40002E0FCA3E0FD900006E0FFA3E090004DC2
:0A37D400CFF0A3EFF0D0070229F5B3
:0E260C00900000EEF0A3EFF0A3ECF0A3EDF0D1
:10261A00E4A3F0A3F0EBFF7E00A3EEF0A3EFF02516
:10262A00E0FFEE33FEC374039F900009F0E49E902E
:10263A000008F0900006E0FEA3E0FFD3900005E05A
:10264A009FEE6480F8900004E064809840030228BA
:10265A0002C3900001E09FFF900000E09EFE900000
:10266A0004E0FCA3E0FDC3900003E09DFD9000029E
:10267A00E09CFC123C3E900006E0FEA3E0FF9000C6
:10268A0001E02FFF900000E03EFE900004E0FCA372
:10269A00E0FDC3900003E09DFD900002E09CFC1267
:1026AA003C3E900004E0FEA3E0FFC3900001E09FDF
:1026BA00FF900000E09E123C29900006E0FEA3E095
:1026CA00FFC3900001E09FFF900000E09EFE900093
:1026DA0004E0FCA3E0FDC3900003E09DFD9000022E
:1026EA00E09CFC123C3E900004E0FEA3E0FFC39095
:1026FA000001E09FFF900000E09EFE900006E0FCD3
:10270A00A3E0FDC3900003E09DFD900002E09CFC65
:10271A00123C3E900006E0FEA3E0FF900001E02F8D
:10272A00FF900000E03E900004123C2C900004E070
:10273A00FEA3E0FF900001E02FFF900000E03EFEC4
:10274A00900006E0FCA3E0FDC3900003E09DFD902D
:10275A000002E09CFC123C3E123C16900006E0FE91
:10276A00A3E0FFC3900001E09FFF900000E09EFEFF
:10277A00900004123C2D900005E004F070069000D1
:10278A0004E004F0C3900008E06480948050249030
:10279A000004E0FEA3E07802C333CE33CED8F92496
:1027AA0006FFE43EFE900009E02FF0900008E03EAC
:1027BA00F0803F900006E0FEA3E0FFC3900005E032
:1027CA009FFF900004E09EFEEF7802C333CE33CE23
:1027DA00D8F9240AFFE43EFE900009E02FF09000A9
:1027EA0008E03EF0900007E024FFF0900006E03495
:0827FA00FFF0123C1602263D1F
:0128020022B3
:062D8500FBE4900054F095
:102D8B0090004FEEF0A3EFF0A3ECF0A3EDF0A3EB6C
:012D9B00F047
:102D9C0090004FE0FEA3E0FF900057EEF0A3EFF0A1
:102DAC0090008EE0FDA3E0900059CDF0A3EDF0D3A0
:102DBC00EF94D0EE94014003022F22900051E0FCDE
:102DCC00A3E0FD9400EC94014003022F22900053E9
:102DDC00E024E0F090004FE0FAA3E0FFAE02C00662
:102DEC00C0072407FBE43AFAA3E0FEA3E0240FFF9C
:102DFC00E43E900069F0A3EFF0D007D006123D46F8
:102E0C00900054E06003022EAAF9900053E075F094
:102E1C0010A4FFE97C002FFFEC35F0FE74832FF536
:102E2C0082740D3EF583E493900055F0E4A3F0908A
:102E3C000055E030E0059000598003900093E0FFCE
:102E4C00A3E090008ECFF0A3EFF090008EE0FEA3F5
:102E5C00E0FF123E6D900055E0C313F0900050E07F
:102E6C0004F0700690004FE004F0900056E004F07F
:102E7C00E0C3940840B9900057E0FFA3E090004FE6
:102E8C00CFF0A3EFF0900052E004F07006900051E8
:102E9C00E004F009E964106003022E168069E4F97D
:102EAC00900053E075F010A4FFE97C002FFFEC3587
:102EBC00F0FE74832FF582740D3EF583E49390003D
:102ECC0055F0E4A3F0900056E0FFC3940850339003
:102EDC000055E030E01F900050E02FFF90004FE0D5
:102EEC003400FEE9FD900052E02DFD900051E034DD
:102EFC0000FC123C3E900055E0C313F0A3E004F03C
:102F0C0080C309E9B41099900059E0FFA3E0900048
:062F1C008ECFF0A3EFF0E0
:012F2200228C
:083CFD0090004FEFF0A3EDF081
:103D0500A31225DB00000001900050E0FF14F0EF46
:103D15006020A3E0F8A3E0F9A3E0FAA3E0FB90009C
:103D25004FE0FFE4FCFDFE1224939000511225CFD5
:103D350080D6900051E0FCA3E0FDA3E0FEA3E0FFE8
:013D4500225B
:0E34AB00900043EEF0A3EFF0A3ECF0A3EDF0E1
:1034B900E490004EF0900047A3A3E0FEA3E0FFE4F0
:1034C900FCFD9000471225CFE490004CF090004B92
:1034D900E0FFA3E0FEC39F400302358BC3EF9E14B8
:1034E900FD7F0A123CFDA804A905AA06AB079000B6
:1034F90047E0FCA3E0FDA3E0FEA3E0FF12251EE4E4
:103509007B0AFAF9F812251E90004DEBF0A3E07042
:103519003B90004BE014FFA3E0FEC39F502EA3E0B5
:103529007024EE75F008A4FF900044E02FFF90008E
:1035390043E035F0FE900045E0FCA3E0FDE4900097
:1035490054F07B20803090004E7401F090004CE0E4
:1035590075F008A4FF900044E02FFF900043E03588
:10356900F0FE900045E0FCA3E0FD90004DE0243022
:10357900FBE4900054F0122D8B90004CE004F00213
:0235890034D636
:01358B00221D
:10399100900000EEF0A3EFF0A3ECF0A3EDF0A3EAAA
:0439A100F0A3EBF0B4
:1039A500E4900007F0900006E0F9A3E0FFC399500A
:1039B5005CC3E99F14FD7F0A123CFDA804A905AA72
:1039C50006AB07900004E0FEA3E0FFE4FCFD122532
:1039D5001EE47B0AFAF9F812251EAF03900008EFE2
:1039E500F0900007E075F008A4FF900001E02FFFBC
:1039F500900000E035F0FE900002E0FCA3E0FDEB56
:0D3A05002430122D85900007E004F0809819
:013A12002291
:1037DE00900043EEF0A3EFF0A3ECF0A3EDF0A3EB1B
:1037EE00F0A3EAF0A3E9F0900047E0FBA3E0FAA310
:1037FE00E0F91223DE6079D3900044E094D090007B
:10380E0043E094014012E4F0A3F0900046E024104F
:10381E00F0900045E03400F0D3900046E094009024
:10382E000045E094014011E4900043F0A3F0A3F0B2
:10383E00A3F0FF7EF8123BBA900043E0FEA3E0FF38
:10384E00A3E0FCA3E0FDA3E0FBA3E0FAA3E0F912E2
:10385E0023DE122D85900044E02408F0900043E012
:10386E003400F0900048E475F00112245E0237F542
:01387E002227
:103DEB00E4FDFCC3ED9FEE6480F8EC648098501505
:103DFB00E4FBFA0BBB00010ABA03F8BBE8F50DBDF7
:053E0B0000010C80DE47
:013E1000228F
:10000300FFFFFFFFFFFFFFFFFFFFFFFFFFFFFFFFFD
:10001300FFFFFFFFFFFFFFFFFFFFFFFFBEF77DEFC8
:10002300BAD6B6B5F39CB294B39CB29434A5F7BDDB
:10003300FBDE7DEFFFFFFFFFFFFFFFFFFFFFFFFF84
:10004300FFFFFFFFFFFFFFFFFFFFFFFFFFFFFFFFBD
:10005300FFFFFFFFFFFFFFFFFFFFFFFFFFFFFFFFAD
:10006300FFFFFFFFFFFFFFFFBEF7FBDEF39CCB5A53
:10007300C7390421821042104210410883184529D0
:10008300C7390C6375AD3CE7BEF7FFFFFFFFFFFF0A
:10009300FFFFFFFFFFFFFFFFFFFFFFFFFFFFFFFF6D
:1000A300FFFFFFFFFFFFFFFFFFFFFFFFFFFFFFFF5D
:1000B300FFFFFFFFFFFF3CE7B2940842C318821023
:1000C300042145298631863186318631452904212B
:1000D30082104108C3180842F39C3CE7FFFFFFFF6F
:1000E300FFFFFFFFFFFFFFFFFFFFFFFFFFFFFFFF1D
:1000F300FFFFFFFFFFFFFFFFFFFFFFFFFFFFFFFF0D
:10010300FFFFFFFFFBDE0C63C318C3184529C73984
:10011300084208420842084208420842C739C73920
:1001230086318631042141088210CB5ABAD6FFFFAB
:10013300FFFFFFFFFFFFFFFFFFFFFFFFFFFFFFFFCC
:10014300FFFFFFFFFFFFFFFFFFFFFFFFFFFFFFFFBC
:10015300FFFFFBDECB5A82104529C739084208420C
:10016300094A494A494A494A494A494A0842C73910
:10017300C739C7398631452983180000C84138C6B5
:10018300FFFFFFFFFFFFFFFFFFFFFFFFFFFFFFFF7C
:10019300FFFFFFFFFFFFFFFFFFFFFFFFFFFFFFFF6C
:1001A3007DEF8E7382104529C7390842094A8A5266
:1001B3003084CF7B8A52494A4A52494ACB5ACF7B31
:1001C3000C630842C73986314529C3180000494AE0
:1001D300BAD6FFFFFFFFFFFFFFFFFFFFFFFFFFFF9A
:1001E300FFFFFFFFFFFFFFFFFFFFFFFFFFFFFFFF1C
:1001F300F39CC3180421C7390842494A494A7294F7
:100203007DEF7DEFB2944A52494A8A5275ADBEF7EB
:10021300BAD64D6BC739C73986314529C31841084A
:10022300CF7B7CE7FFFFFFFFFFFFFFFFFFFFFFFF2A
:10023300FFFFFFFFFFFFFFFFFFFFFFFFFFFFBAD639
:1002430008428210C7390842494A494A8E73FBDE85
:10025300FFFFBEF7BAD68E73084230843CE77DEFCA
:10026300FFFFB6B5494AC7398631452904214108FC
:100273004529B6B5FFFFFFFFFFFFFFFFFFFFFFFFAE
:10028300FFFFFFFFFFFFFFFFFFFFFFFFBEF7718CC5
:10029300410845290842494A494A4A52B294BEF79D
:1002A300BEF7B294CF7BCF7B494AB6B5F39C0C63C0
:1002B30038C6BAD60C638739C73986314529C3187E
:1002C300410830847DEFFFFFFFFFFFFFFFFFFFFFCC
:1002D300FFFFFFFFFFFFFFFFFFFFFFFF3CE7CB5ADF
:1002E3004108C7390842494A4A528A52F39CFFFFE0
:1002F3007DEFC739C3180C63CB5AB6B5B294CB5A4A
:1003030075ADFAD64D6B8739C73986314529042136
:1003130041088A5279CEFFFFFFFFFFFFFFFFFFFF78
:10032300FFFFFFFFFFFFFFFFFFFFFFFF38C6863121
:100333000421C841494A494A4A52494AB18CBEF745
:10034300BEF7B294CF7BCF7B494A74A57DEF7CE7A0
:10035300BEF779CE0C63C739C739863145290421E5
:100363008210452975ADBEF7FFFFFFFFFFFFFFFFBB
:10037300FFFFFFFFFFFFFFFFFFFFFFFF34A582101B
:1003830086310842494A494A8A52494A4D6BBAD68C
:10039300FFFFFFFF79CE0D63C739CF7B7DEFFFFFF3
:1003A300FFFF75AD08428631C73986314529452996
:1003B300C318C318B2947DEFFFFFFFFFFFFFFFFFDA
:1003C300FFFFFFFFFFFFFFFFFFFFBEF7B28C4108F8
:1003D300C7390842494A494A8A528A524A4AD07B13
:1003E3007AC67BBE906BC9398831C939B384BBC621
:1003F300F8B5CC5A8631C739C739863145294529DD
:10040300C420410830843CE7FFFFFFFFFFFFFFFFED
:10041300FFFFFFFFFFFFFFFFFFFF3CE78A4AC31019
:10042300C7390842494A494A4A4A4A42093A084AA4
:10043300096B497BC67A05834683C57AC672097BF5
:10044300485A8731882188298631863145294529AB
:10045300042141084A4ABAD6FFFFFFFFFFFFFFFF0F
:10046300FFFFFFFFFFFFFFFFFFFFF7C582500541BF
:10047300C7290842494A4A42494A097B889BC6B36D
:1004830021D4A0DCE1E461ED61ED21EDA0E420DC09
:1004930080CB43ABC482065A472146294529042908
:1004A300041982108218F39C7DEFFFFFFFFFFFFF0B
:1004B300FFFFFFFFFFFFFFFF7DEF4D9300A082B81B
:1004C300C7310932494A867A43C36BEDF4F6EBFD33
:1004D30020FD20FD60FDA0FDA0FD60FD60FD20FD71
:1004E300E0FCA0FC60F4C1DB839AC54945290419EB
:1004F300C42082380050CB6ABAD6FFFFFFFFFFFF4C
:10050300FFFFFFFFFFFFFFFFFBEE04A100C000F0B2
:10051300C3A0C8414942059B20FCA4FC69FDE8FD3A
:1005230063FD20FD60FD60FD60FD20FD20FDE0FC1E
:10053300E0FCA0FC60FC20FC41D3C5494519C4384C
:10054300826841880070495A79CEFFFFFFFFFFFFA1
:10055300FFFFFFFFFFFFFFFFFBF682C000D086C156
:1005630046F141C8457989528862866AC67AC4BB16
:10057300E1FC60FD60FDA0FDA0FD60FD60FDE0FC11
:1005830060E403938472446AC5414529C35841A872
:10059300409800B000600C6B79CEFFFFFFFFFFFFB8
:1005A300FFFFFFFFFFFF7DEFCE83828800F8C4D8F3
:1005B3000CF38AFA82E882B04569C7510842083AC7
:1005C300865A839BA2BC22CD21CDA1C422B4C47A76
:1005D300063A862945290531C450419000C000A838
:1005E30000A000A800304A4ABAD6FFFFFFFFFFFF72
:1005F300FFFFFFFF7DEF8E73C318053982A800F854
:10060300C3F84DFB4DFBC7F9C3F082D8C3B00481D7
:1006130045614651864986494641454145414541E3
:1006230005490461829041B000D000C800A800A829
:1006330000B8415882108210B294BEF7FFFFFFFF4B
:10064300FFFFBEF7CF7B82100421862986410499E0
:1006530040E841F886F9CBFA49FA82F800F800F04D
:1006630000E841D841D041C041C041C041C041C868
:1006730000D000E000E000D800D000B800A8418816
:100683008248821082100000452979CEFFFFFFFFC8
:10069300BEF7F39C8210C31845298631C731307CDD
:1006A300F3DC86E100F000F841F841F800F800F8C7
:1006B30000F800F800F800F800F800F800F800F877
:1006C30000E800E000E000D800C841A08A9A0C636B
:1006D300041182108210410800004D6B7DEFFFFF73
:1006E300FBDE08424210452986318631494A38BE2D
:1006F300FFFF38D686A900C800E000F000F800F834
:1007030000F800F800F800F800F800F800F000F036
:1007130000E800E000D0C3988A8AB2A4BAC6F7B54D
:10072300084241088210410800004529F7BDFFFF38
:10073300718C410804214529863186310C633CE7DD
:10074300FFFF79D646B900E042C882A882B041D8FB
:1007530082E882F041E841E841E841F041E841D8CC
:1007630004C108924D8B34A5FBC6FBD6BACE3CE739
:100773003084C3184108410800004108CF7B7DEF56
:10078300494A000004214529463186313084FFFF60
:10079300FFF7F7DD09DA83F801F042C08298499A3E
:1007A300F3B4F3CC71BC8EBB8EBB30BC71BCF3BC59
:1007B300B6BDFBCEBEE77DE73BDFBAD679CEFBDE27
:1007C30075AD86314108410800000000494AFBDE4F
:1007D300042141080421452945298739B294FFFFA3
:1007E300BEF734DD0CEB09FA00F001D800D88BD248
:1007F3007DE7FFFFFFFFFFFFFFFFFFFFFFFFFFFFA0
:10080300FFFFBEFF7DEFFBDEFBDEBAD679CEBAD6A5
:1008130078C6C7390000410800000000C73979CE07
:1008230000008210C318042105298631B39CFFFF01
:10083300FFF775DDC7E9C7F901F801F000E849E200
:10084300FBEEFFFFFFFFFFFFFFFFFFFFFFFFFFFFCA
:10085300FFFFBEF77DEFFBDEFBDEBAD679CEBAD65D
:10086300B9CE08420000000000000000C73938C6B6
:100873000000821082100421042145293084FFFFE7
:10088300FFFF38DEC4D000F001F800F800F008D212
:10089300FBE6FFFFFFFFFFFFFFFFFFFFFFFFFFFF82
:1008A300FFFFBEF77DEFFBDEBAD679CE79CEBAD69F
:1008B30079CEC7394108000000000000863138C6F0
:1008C30000000000C318CB5A8631C318CB5A7DEF02
:1008D300FFFF7DEFCFBBC3B041D041D082B84DB352
:1008E3007DE7FFFFFFFFFFFFFFFFFFFFFFFFFFFFAF
:1008F300BEF7BEF73DEFFBDEBAD679CE79CEFAD698
:10090300F7BD04218631042100000000863138C67A
:100913008631C318CB5A75ADCF7B41088631F7BDFD
:10092300FFFFFFFFBEEF74B5309C309C72A4BBD6B3
:10093300FFFFFFFFFFFFFFFFFFFFFFFFFFFFFFFFC4
:10094300BEF77DEF3CE7FBDEBAD679CE79CE3CE746
:10095300718C81080C63CF7B821000008A5238C6E9
:1009630075AD718CB6B53CE7FBDEC7390000CF73BC
:10097300FFFFFFFFFFFFFFFFFFFFFFFFFFFFFFFF84
:10098300FFFFFFFFFFFFFFFFFFFFFFFFFFFFBEF7BD
:100993007DEF7DEF3BDFFAD679CE79CEFBDEB9CEA4
:1009A300C739C420718CBAD6718CCB5AB294BAD6DB
:1009B300FFFF7DEF7DEFFFFFFFFFB6B5462905196A
:1009C30075A5FFFFFFFFFFFFFFFFFFFFFFFFFFFF18
:1009D300FFFFFFFFFFFFFFFFFFFFFFFFFFFFBEF76D
:1009E3007DEF3CE7FBDEBAD679CEBAD6FCDE4E63AA
:1009F30042080C63F7BDBEF7FFFFFBDEFBDEBEF76D
:100A0300FFFFFFFFFFFFFFFFFFFFFFFFF49C04213A
:100A13000521B6A5FFFFFFFFFFFFFFFFFFFFFFFF5E
:100A2300FFFFFFFFFFFFFFFFFFFFBEF7BEF77DEFF7
:100A33003CE7FBDEBAD679CEFBDEBBD6D173831897
:100A43008639349DBDEFFFFFFFFFFFFFFFFFFFFF71
:100A5300FFFFFFFFFFFFFFFFBEFF35D6EBCC43B326
:100A630040510519F58CBEEFFFFFFFFFFFFFFFFFAE
:100A7300FFFFFFFFFFFFBEF7BEF77DEF7DEF3CE714
:100A8300FBDEBADEBAD63CDF3ABE4F63824940A3EF
:100A930023B4CC833ABEFFFFFFFFFFFFFFFFFFFF3F
:100AA300FFFFFFFFFFFFBFF7B5BD829220F4A0FC5D
:100AB30060E4408284418F6B77AD3DE7FFFFFFFF2A
:100AC300FEFFBEF7BEF7BEF77DEF7DEF3CE7FBDE33
:100AD300FBDE3DE7BBCE369D0B6B416A60C420FE57
:100AE30060F5008BC76A38C6BEF7FFFFFFFFFFFF45
:100AF300FFFFFFFFFFFF7DEF4B7B80B2A0FCA0FC5D
:100B0300E0FCE0FCC0CBC18A45624D6BB394F7BDFA
:100B13003DDFFFF7FFFFBEF77DEF7DEF7DE73DDFB5
:100B2300BAC675A58D7B847A40B3E0ECE0FDE0FDA9
:100B330060F520E5A0D40A6BFBDEFFFFFFFFFFFF9C
:100B4300FFFFFFFFFFFF7DEFCC9340EB60FCA0FCBA
:100B5300E0FC20FD60FD20F5A0D4C0BB429B458B8B
:100B63006B9CAE9C718CB394339D34A5F2A4F0B40A
:100B7300CA9B049B40BB20E420FDA0FDA0FDE0FD3B
:100B8300E0FDE0FD20C4885A38BEFFFFFFFFFFFFF2
:100B9300FFFFFFFFFFFFFFFF78D646AB40DB20F4EC
:100BA30060FCA0FCE0FC60FDA0FD60FD20F5A0DC86
:100BB300C0B3C05186290D638F7B0D5BC741018292
:100BC30000C3C0E360FCA0FCE0FCE0FC60F560F562
:100BD30020E5809B8662308479CEFFFFFFFFFFFF15
:100BE300FFFFFFFFFFFFFFFFFFFF38C62D9C0593AD
:100BF30043A382B3C2BBC2BB22B482A34293C37AD0
:100C030085620B637184B6B579CE79C6B5AD709440
:100C13004A8B06830493049B439B439B4393048324
:100C230008738D73B39479CE7DEFFFFFFFFFFFFF52
:100C3300FFFFFFFFFFFFFFFFFFFFFFFF3CDF38BEAC
:100C430075B533A533A5F39CF39CF39CF394F39C04
:100C530035A5F8BDFBDEBEF7FFFFFFFFFFFF7EEF0D
:100C6300BBD6F8BDB6AD75AD34A5339D349D35A562
:100C7300B7AD79C63CE7BEF7FFFFFFFFFFFFFFFFFE
:100C830000000000000000000000800000FEFF01E3
:100C930000FEFF010006C0000006C0000006C00001
:100CA30000FEFF000006C0000006C0000006C000F2
:100CB30000FEFF000006C0000006C00000020000A6
:100CC30030300C1CF07FFC3F30300C1C30300C1CDF
:100CD30030300C1C30300C1CF03FFC1F30300C1C2F
:100CE30030300C1C30300C1C30300C1CF03FFC1F1F
:100CF300F03FFC1F30300C1C3010040C00000000CF
:100D03000000000000000000C0000808C0F1FF1F41
:100D1300C0F0FF1FC0484C1CC4DCCC1DCCDC8D1DB7
:100D2300DC8E8D1DD8060E1FF8C3EF1DF8F1EC1CE9
:100D3300D0601D1CC01C770CFE9FE7003483E30CBE
:100D430030C3FF1F30C3610030E3610030E361064D
:100D530030F3FF0F30DB610030FB610438DB610EE1
:100D630018CFFF0F18C7610098C761000CC3613823
:100D730004C2FF3F06C0010002C0010000000000E2
:100D83000000000000000000000000000000000060
:100D930000000008080808080808000018180000E8
:100DA30000486C2412000000000000000000000056
:100DB3000000002424247F1212127F12121200005A
:100DC3000000081C2A2A0A0C1828282A2A1C0808AA
:100DD30000000022251515152A58545454220000EA
:100DE3000000000C1212120A76252911916E0000E0
:100DF30000060604030000000000000000000000DD
:100E030000402010100808080808081010204000AF
:100E13000002040808101010101010080804020043
:100E23000000000008086B1C1C6B08080000000091
:100E330000000000080808087F08080808000000F0
:100E4300000000000000000000000000060604038C
:100E53000000000000000000FE0000000000000091
:100E63000000000000000000000000000606000073
:100E730000008040402020101008080404020200F3
:100E83000000001824424242424242422418000019
:100E9300000000080E08080808080808083E0000BB
:100EA3000000003C4242422020100804427E000021
:100EB3000000003C4242201820404042221C000017
:100EC300000000203028242422227E2020780000E5
:100ED3000000007E0202021A26404042221C00004B
:100EE300000000382402021A26424242241800005D
:100EF3000000007E222210100808080808080000DD
:100F03000000003C4242422418244242423C00007A
:100F1300000000182442424264584040241C000050
:100F2300000000000000181800000000181800005E
:100F33000000000000000008000000000008080492
:100F430000000040201008040204081020400000A4
:100F53000000000000007F0000007F000000000090
:100F630000000002040810204020100804020000C2
:100F73000000003C424246402010100018180000B8
:100F83000000001C225A555555552D42221C0000C5
:100F93000000000808181414243C224242E7000011
:100FA3000000001F2222221E22424242221F000072
:100FB3000000007C4242010101010142221C0000A9
:100FC3000000001F2242424242424242221F0000CE
:100FD3000000003F4212121E12120242423F000062
:100FE3000000003F4212121E12120202020700000A
:100FF3000000003C2222010101712122221C000079
:10100300000000E7424242427E42424242E7000081
:101013000000003E0808080808080808083E000009
:101023000000007C10101010101010101010110F81
:101033000000007722120A0E0A1212222277000001
:10104300000000070202020202020202427F0000C5
:1010530000000077363636362A2A2A2A2A6B000001
:10106300000000E346464A4A525252626247000079
:101073000000001C2241414141414141221C00002A
:101083000000003F424242423E02020202070000C9
:101093000000001C2241414141414D53321C60007C
:1010A3000000003F4242423E1212222242C7000089
:1010B3000000007C4242020418204042423E0000ED
:1010C3000000007F4908080808080808081C0000F9
:1010D300000000E74242424242424242423C000098
:1010E300000000E7424222242414141808080000D8
:1010F3000000006B49494949555536222222000018
:10110300000000E7422424181818242442E70000B2
:10111300000000772222141408080808081C0000A5
:101123000000007E2120101008040442423F00000A
:10113300007808080808080808080808080878005C
:101143000000020204040808081010202020404078
:10115300001E1010101010101010101010101E0090
:101163000038440000000000000000000000000000
:10117300000000000000000000000000000000FF6D
:10118300000608000000000000000000000000004E
:10119300000000000000003C4278444242FC000092
:1011A300000000030202021A26424242261A0000ED
:1011B300000000000000003844020202443800002E
:1011C30000000060404040784442424264D800003E
:1011D300000000000000003C427E0202423C00008E
:1011E300000000F08808087E08080808083E000090
:1011F300000000000000007C22221C023C42423C12
:10120300000000030202023A4642424242E7000063
:101213000000000C0C00000E08080808083E00003F
:101223000000003030000038202020202020221E23
:101233000000000302020272120A16122277000053
:101243000000000E0808080808080808083E000007
:10125300000000000000007F9292929292B700007B
:10126300000000000000003B4642424242E700000B
:10127300000000000000003C42424242423C0000A9
:10128300000000000000001B26424242221E02070B
:10129300000000000000007844424242447840E0ED
:1012A30000000000000000774C040404041F000049
:1012B300000000000000007C42023C40423E00006F
:1012C300000000000008083E080808080830000075
:1012D30000000000000000634242424262DC000062
:1012E30000000000000000E7422424140808000066
:1012F30000000000000000EB494955552222000080
:10130300000000000000007624181818246E000066
:1013130000000000000000E7422424141808080716
:10132300000000000000007E22100808447E000038
:1013330000C0202020202010202020202020C000BA
:10134300101010101010101010101010101010109A
:101353000006080808080810080808080808060016
:101363000C32C2000000000000000000000000007A
:103A8E005658313A005679313A00434858313A0087
:103A9E00434859313A005658323A005679323A0074
:103AAE00434858323A00434859323A0056583A0081
:103ABE0056793A004348583A004348593A0041640F
:103ACE006A757374204F4B212020546F75636820E4
:103ADE00416E79776865726520546F20436F6E74FE
:0B3AEE00696E756500583A00593A00F7
:103CE8004200A41E2C4200A632AA4200980F20428D
:043CF800009A0EB36D
:063EA500A2B4E433FF2289
:093E9C00D294D297D2B0D2972241
:103E3300E4FEC297EF25E0FF92B0C297000000D2E4
:093E4300970000000EEEB408EB3C
:013E4C002253
:103E1100E4FDFFFEEF25E0FFEE33FED29700000048
:103E2100C29700000030B104EF4401FF0DEDB40C66
:013E3100E3AD
:013E3200226D
:103E4D00C294123E33D29700000000C297000000CA
:063E5D0000123E11D29498
:013E6300223C
:022F2300A907FC
:102F2500E490007EF0A3F0FBFAAF01123E4DAC0633
:102F3500AD07EB25E0FFEA33FE74602FF5827400E0
:102F45003EF583ECF0A3EDF00BBB00010AEB640F3B
:102F55004A70D6E4FAFBEB2401FEE43A90005EF0F9
:102F6500A3CEF090005EE0FEA3E0FFC3940FEE94C5
:102F750000400302301FEF25E0FFEE33FE74602FA3
:102F8500F58274003EF583E0FCA3E0FDEB25E0FF50
:102F9500EA33FE74602FF58274003EF583E0FEA3EC
:102FA500E0FFD39DEE9C405E900080EEF0A3EFF035
:102FB50090005FE025E0FF90005EE033FE74602F37
:102FC500F58274003EF583E0FCA3E0FDEB25E0FF10
:102FD500EA33FE74602FF58274003EF583ECF0A3AE
:102FE500EDF0900080E0FCA3E0FD90005FE025E0BF
:102FF500FF90005EE033FE74602FF58274003EF5AD
:1030050083ECF0A3EDF090005FE004F06003022F85
:103015006890005EE004F0022F680BBB00010AEB2C
:10302500640E4A6003022F5BE490007EF0A3F0FA81
:103035007B05EB25E0FFEA33FE74602FF582740013
:103045003EF583E0FEA3E0FF90007FE02FF09000C7
:103055007EE03EF00BBB00010AEB640A4A70D39098
:10306500007EE0FEA3E0FF7C007D05122409A3EEAF
:04307500F0A3EFF0E5
:013079002234
:0B3AF900900056EBF0A3EAF0A3E9F008
:103B04007FD0122F2390005CEEF0A3EFF07F901291
:103B14002F23C390005DE0946490005CE094004027
:103B240008EF9464EE940050037F002290005CE060
:103B3400F9A3E0FD900056E0FBA3E0FAA3E0C98DF1
:103B4400F0122474900059E0FBA3E0FAA3E0F9EE2C
:073B54008FF01224747F01C1
:013B5B002247
:0B307A00900048EBF0A3EAF0A3E9F09F
:103085009000597401F0A37400F0A37450F07B0113
:103095007A00794E123AF9EF7002FF2290005974C6
:1030A50001F0A37400F0A37454F07B017A00795207
:1030B500123AF9EF7002FF2290004EE0FEA3E0FF06
:1030C500900052E0FCA3E0FDD39FEC9E500EED2452
:1030D50014FDE43CFCC3EF9DEE9C402A900052E0B9
:1030E500FEA3E0FF90004EE0FCA3E0FDD39FEC9E25
:1030F50040030231A8ED2414FDE43CFCC3EF9DEE32
:103105009C40030231A8900050E0FEA3E0FF900030
:1031150054E0FCA3E0FDD39FEC9E500EED2414FD7E
:10312500E43CFCC3EF9DEE9C4024900054E0FEA3DC
:10313500E0FF900050E0FCA3E0FDD39FEC9E5063C0
:10314500ED2414FDE43CFCC3EF9DEE9C505590002E
:1031550052E0FEA3E0FF90004FE02FFF90004EE00D
:103165003EC313F9EF13FF900048E0FBA3E0FAA379
:10317500E0C98FF0122474900054E0FEA3E0FF90A4
:103185000051E02FFF900050E03EC313F9EF13FF0D
:1031950090004BE0FBA3E0FAA3E0C98FF012247482
:0531A5007F01227F0004
:0131AA002202
:103A1300E4900043F0900043E0706A90004B74011F
:103A2300F0A37400F0A374A2F07B017A0079A012D2
:103A3300307AEF60E67F0A7E00123DEB90004B7414
:103A430001F0A37400F0A37446F07B017A0079447B
:103A530012307AEF60E6900044E0FEA3E0FF9000AE
:103A6300A0E0B506B0A3E0B507AB900046E0FEA327
:103A7300E0FF9000A2E06E7003A3E06F70979000E8
:0A3A83004304F08090900043E0FF40
:013A8D002216
:1033C300900043EEF0A3EFF0A3ECF0A3EDF0900038
:1033D30043E0FAA3E0FB24F4FFEA34FFFEC007EB6B
:1033E300240DFBE43AFAA3E0FFA3E090004DCFF0F5
:1033F300A3EFF0D0071229F5900043E0FAA3E0FB16
:10340300FFAE02C006C007900046E024F4FD900022
:1034130045E034FFFCE0FEA3E0240DFFE43E900012
:103423004DF0A3EFF0D007D0061229F5900044E049
:103433002401FF900043E03400FE900046E02401A5
:10344300FD900045E03400FC123C3E900044E02433
:10345300FFFF900043E034FFFE900046E02401FDAF
:10346300900045E03400FC123C3E900044E024010F
:10347300FF900043E03400FE900046E024FFFD90FF
:103483000045E034FFFC123C3E900044E024FFFF83
:10349300900043E034FFFE900046E024FFFD9000DF
:0834A30045E034FFFC023C3E51
:1032C000E490000AF07B0190004B04F0A37400F03E
:1032D000A374A2F07A0079A012307AEF700302335F
:1032E000BD90000A7401F0900098E0FEA3E0FFD3C7
:1032F0009000A1E09F9000A0E09E400BAB07AA06C3
:10330000E0FEA3E0FF80139000A0E0FEA3E0FBAA94
:1033100006900098E0FEA3E0FFC3EF9BFFEE9AFE4D
:10332000E49400FDE49400FCE47BE87A03F9F812ED
:103330002493C006C0079000A4E0FEA3E0FBAA0609
:10334000E4F9F8D007D00612251E90009CEEF0A3F9
:10335000EFF090009AE0FEA3E0FFD39000A3E09F7F
:103360009000A2E09E400BAB07AA06E0FEA3E0FFA0
:1033700080139000A2E0FEA3E0FBAA0690009AE072
:10338000FEA3E0FFC3EF9BFFEE9AFEE49400FDE492
:103390009400FCE47BE87A03F9F8122493C006C099
:1033A000079000A6E0FEA3E0FBAA06E4F9F8D00728
:1033B000D00612251E90009EEEF0A3EFF090000ABA
:0233C000E0FF2C
:0133C20022E8
:10137300E4900042F0F090008EF0A3741FF074FF2D
:10138300900093F0A3F0FFFE123BBA90008E74F826
:10139300F0A3E4021A9020B4FD123A13EF604290D6
:1013A30000A0E0FEA3E0FFE4FCFD900042E0FB753B
:1013B300F008A42422F582E43400F5831225CF90AB
:1013C30000A2E0FEA3E0FFE4FCFDEB75F008A4241B
:1013D30026F582E43400F5831225CF900042E00421
:1013E300F0900042E024FE60181460241460362458
:1013F3000370A374FFFFFE123BBA30B4FD7D32804D
:101403001B74FFFFFE123BBA30B4FD7DDD021A9A56
:1014130074FFFFFE123BBA30B4FD7DDD7C007FAD6F
:101423007E01021AA074FFFFFE123BBA30B4FD9096
:101433000022E0FCA3E0FDA3E0FEA3E0FF90002A6E
:10144300E0F8A3E0F9A3E0FAA3E0FBD31225BE4042
:1014530034900022E0F8A3E0F9A3E0FAA3E0FB90C4
:10146300002AE0FCA3E0FDA3E0FEA3E09BFFEE9ACD
:10147300FEED99FDEC98FCEF2401FFE43EFEE43D14
:10148300FDE43C803690002AE0F8A3E0F9A3E0FAFB
:10149300A3E0FB900022E0FCA3E0FDA3E0FEA3E0B9
:1014A300C39BFFEE9AFEED99FDEC98FCEF24FFFF42
:1014B300EE34FFFEED34FFFDEC34FFFCE47BE87A11
:1014C30003F9F8122493E47B7C7A01F9F812251EC0
:1014D300E412231F9000061225CF900022E0FCA304
:1014E300E0FDA3E0FEA3E0FF90002AE0F8A3E0F90B
:1014F300A3E0FAA3E0FBD31225BEE4FFFE7D487C04
:1015030042900006E0F8A3E0F9A3E0FAA3E0FB4071
:101513003412210CE4FBFA797A7844122215C004C0
:10152300C005C006C007900022E0FCA3E0FDA3E0D5
:10153300FEA3E0FFE412231FD003D002D001D000AA
:10154300122017803212210CE4FBFA797A784412C4
:101553002215C004C005C006C007900022E0FCA30A
:10156300E0FDA3E0FEA3E0FFE412231FD003D002BB
:10157300D001D00012201B12235D900016EEF0A3C1
:10158300EFF0900026E0FCA3E0FDA3E0FEA3E0FF64
:10159300900036E0F8A3E0F9A3E0FAA3E0FBD3124E
:1015A30025BE401D900026E0F8A3E0F9A3E0FAA3CE
:1015B300E0FB900036E0FCA3E0FDA3E0FEA3E080A7
:1015C3001C900036E0F8A3E0F9A3E0FAA3E0FB9057
:1015D3000026E0FCA3E0FDA3E0FEA3E0C39BFFEE37
:1015E3009AFEED99FDEC98FCEF24FFFFEE34FFFE2D
:1015F300ED34FFFDEC34FFFCE47BE87A03F9F812E9
:101603002493E47BACFAF9F812251EE412231F900D
:10161300000E1225CF900026E0FCA3E0FDA3E0FE20
:10162300A3E0FF900036E0F8A3E0F9A3E0FAA3E01B
:10163300FBD31225BEE4FFFE7D487C4290000EE002
:10164300F8A3E0F9A3E0FAA3E0FB403412210CE491
:10165300FBFA797A7844122215C004C005C006C08B
:1016630007900026E0FCA3E0FDA3E0FEA3E0FFE477
:1016730012231FD003D002D001D0001220178032D2
:1016830012210CE4FBFA797A7844122215C004C0C3
:1016930005C006C007900026E0FCA3E0FDA3E0FE22
:1016A300A3E0FFE412231FD003D002D001D0001225
:1016B300201B12235D90001AEEF0A3EFF09000328E
:1016C300E0FCA3E0FDA3E0FEA3E0FF90003AE0F816
:1016D300A3E0F9A3E0FAA3E0FBD31225BE403490C4
:1016E3000032E0F8A3E0F9A3E0FAA3E0FB90003AAC
:1016F300E0FCA3E0FDA3E0FEA3E09BFFEE9AFEED7A
:1017030099FDEC98FCEF2401FFE43EFEE43DFDE48B
:101713003C803690003AE0F8A3E0F9A3E0FAA3E0B6
:10172300FB900032E0FCA3E0FDA3E0FEA3E0C39B3B
:10173300FFEE9AFEED99FDEC98FCEF24FFFFEE34EB
:10174300FFFEED34FFFDEC34FFFCE47BE87A03F9A4
:10175300F8122493E47B7C7A01F9F812251EE41233
:10176300231F90000A1225CF900032E0FCA3E0FD76
:10177300A3E0FEA3E0FF90003AE0F8A3E0F9A3E0C2
:10178300FAA3E0FBD31225BEE4FFFE7D487C429022
:10179300000AE0F8A3E0F9A3E0FAA3E0FB40341267
:1017A300210CE4FBFA797A7844122215C004C005AF
:1017B300C006C007900032E0FCA3E0FDA3E0FEA357
:1017C300E0FFE412231FD003D002D001D000122087
:1017D30017803212210CE4FBFA797A78441222152D
:1017E300C004C005C006C007900032E0FCA3E0FDC2
:1017F300A3E0FEA3E0FFE412231FD003D002D00135
:10180300D00012201B12235D900018EEF0A3EFF01E
:1018130090002EE0FCA3E0FDA3E0FEA3E0FF900018
:101823003EE0F8A3E0F9A3E0FAA3E0FBD31225BE60
:10183300401D90002EE0F8A3E0F9A3E0FAA3E0FB3B
:1018430090003EE0FCA3E0FDA3E0FEA3E0801C903B
:10185300003EE0F8A3E0F9A3E0FAA3E0FB90002E3A
:10186300E0FCA3E0FDA3E0FEA3E0C39BFFEE9AFE32
:10187300ED99FDEC98FCEF24FFFFEE34FFFEED3411
:10188300FFFDEC34FFFCE47BE87A03F9F8122493C0
:10189300E47BACFAF9F812251EE412231F90001220
:1018A3001225CF90002EE0FCA3E0FDA3E0FEA3E011
:1018B300FF90003EE0F8A3E0F9A3E0FAA3E0FBD336
:1018C3001225BEE4FFFE7D487C42900012E0F8A39F
:1018D300E0F9A3E0FAA3E0FB403412210CE4FBFAA5
:1018E300797A7844122215C004C005C006C0079057
:1018F300002EE0FCA3E0FDA3E0FEA3E0FFE412233F
:101903001FD003D002D001D0001220178032122141
:101913000CE4FBFA797A7844122215C004C005C09E
:1019230006C00790002EE0FCA3E0FDA3E0FEA3E0C9
:10193300FFE412231FD003D002D001D00012201BDA
:1019430012235D90001CEEF0A3EFF090000AE0FC80
:10195300A3E0FDA3E0FEA3E0FF900006E0F8A3E010
:10196300F9A3E0FAA3E0FB1222B260324030E4FFB5
:10197300FE7D7A7C4490000AE0F8A3E0F9A3E0FA44
:10198300A3E0FB12201B900006E0F8A3E0F9A3E01C
:10199300FAA3E0FB1222B260054003021A8C900006
:1019A3000AE0FCA3E0FDA3E0FEA3E0FF900006E055
:1019B300F8A3E0F9A3E0FAA3E0FB1222B2502EE46D
:1019C300FFFE7D7A7CC490000AE0F8A3E0F9A3E06F
:1019D300FAA3E0FB12201B900006E0F8A3E0F9A3B2
:1019E300E0FAA3E0FB1222B25003021A8C90001219
:1019F300E0FCA3E0FDA3E0FEA3E0FF90000EE0F80F
:101A0300A3E0F9A3E0FAA3E0FB1222B2602F402D7A
:101A1300E4FFFE7D7A7C44900012E0F8A3E0F9A392
:101A2300E0FAA3E0FB12201B90000EE0F8A3E0F91C
:101A3300A3E0FAA3E0FB1222B26002504C90001222
:101A4300E0FCA3E0FDA3E0FEA3E0FF90000EE0F8BE
:101A5300A3E0F9A3E0FAA3E0FB1222B25045E4FFAE
:101A6300FE7D7A7CC4900012E0F8A3E0F9A3E0FACB
:101A7300A3E0FB12201B90000EE0F8A3E0F9A3E023
:101A8300FAA3E0FB1222B2501AE4900042F074FF72
:101A9300FFFE123BBA7D327C007F327E001233C3DD
:101AA30002139990000AE0FCA3E0FDA3E0FEA3E08B
:101AB300FF900006E0F8A3E0F9A3E0FAA3E0FB122D
:101AC300201BE4FBFAF9784012221512235D9000E3
:101AD300A4EEF0A3EFF0900012E0FCA3E0FDA3E07E
:101AE300FEA3E0FF90000EE0F8A3E0F9A3E0FAA361
:101AF300E0FB12201BE4FBFAF978401222151223B3
:101B03005D9000A6EEF0A3EFF0900018E0FEA3E0D6
:101B1300FF900017E02FFF900016E03EC313FEEF87
:101B230013FF900098EEF0A3EFF090001CE0FEA3EB
:101B3300E0FF90001BE02FFF90001AE03EC313FE6E
:101B4300EF13FF90009AEEF0A3EFF074FFFFFE1285
:101B53003BBAE490008EF0A3F0900093F0A3741FBF
:101B6300F0E490001EF0A3F0A3F0A37432F07BFF27
:101B73007A3A798EFD7C00E4FFFE1237DE90001F77
:101B8300E02428F090001EE03400F0900006E0FC12
:101B9300A3E0FDA3E0FEA3E0FF12235D9000471244
:101BA30025CF90004B7404F0900020E0FCA3E0FDEF
:101BB30090001EE0FEA3E0FF1234ABE490001EF0A1
:101BC300A3F0900021E02414F0900020E03400F012
:101BD300E0FCA3E0FD7BFF7A3A7993E4FFFE123742
:101BE300DE90001FE02428F090001EE03400F09007
:101BF300000EE0FCA3E0FDA3E0FEA3E0FF12235DE3
:101C03009000471225CF90004B7404F0900020E021
:101C1300FCA3E0FD90001EE0FEA3E0FF1234ABE462
:101C230090001EF0A3F0900021E02414F090002017
:101C3300E03400F0E0FCA3E0FD7BFF7A3A7998E41E
:101C4300FFFE1237DE90001FE02428F090001EE014
:101C53003400F0900016E0FEA3E0FFE4FCFD9000EA
:101C6300471225CF90004B7404F0900020E0FCA3B2
:101C7300E0FD90001EE0FEA3E0FF1234ABE4900011
:101C83001EF0A3F0900021E02414F0900020E03433
:101C930000F0E0FCA3E0FD7BFF7A3A799EE4FFFECF
:101CA3001237DE90001FE02428F090001EE034007D
:101CB300F090001AE0FEA3E0FFE4FCFD9000471261
:101CC30025CF90004B7404F0900020E0FCA3E0FDCE
:101CD30090001EE0FEA3E0FF1234AB90001EE4F080
:101CE300A37464F0A3E4F0A37432F07BFF7A3A792F
:101CF300A4FD7C007F647E001237DE90001FE02489
:101D030028F090001EE03400F090000AE0FCA3E00D
:101D1300FDA3E0FEA3E0FF12235D9000471225CF51
:101D230090004B7404F0900020E0FCA3E0FD9000D1
:101D33001EE0FEA3E0FF1234AB90001EE4F0A37498
:101D430064F0900021E02414F0900020E03400F0CF
:101D5300E0FCA3E0FD7BFF7A3A79A97F647E001261
:101D630037DE90001FE02428F090001EE03400F0DE
:101D7300900012E0FCA3E0FDA3E0FEA3E0FF12232A
:101D83005D9000471225CF90004B7404F090002023
:101D9300E0FCA3E0FD90001EE0FEA3E0FF1234ABE5
:101DA30090001EE4F0A37464F0900021E02414F08A
:101DB300900020E03400F0E0FCA3E0FD7BFF7A3AE2
:101DC30079AE7F647E001237DE90001FE02428F096
:101DD30090001EE03400F0900018E0FEA3E0FFE462
:101DE300FCFD9000471225CF90004B7404F0900047
:101DF30020E0FCA3E0FD90001EE0FEA3E0FF123410
:101E0300AB90001EE4F0A37464F0900021E024146E
:101E1300F0900020E03400F0E0FCA3E0FD7BFF7ACB
:101E23003A79B47F647E001237DE90001FE02428E5
:101E3300F090001EE03400F090001CE0FEA3E0FFF1
:101E4300E4FCFD9000471225CF90004B7404F09002
:101E53000020E0FCA3E0FD90001EE0FEA3E0FF12E3
:101E630034AB90001EE4F0A37432F0A3E4F0A37447
:101E730096F07BFF7A3A79BAFD7C007F327E0012BE
:101E830037DE90001FE02428F090001EE03400F0BD
:101E93009000A4E0FEA3E0FFE4FCFD9000471225C0
:101EA300CF90004B7404F0900020E0FCA3E0FD9081
:101EB300001EE0FEA3E0FF1234AB90001EE4F0A38B
:101EC3007432F0900021E02414F0900020E03400FC
:101ED300F0E0FCA3E0FD7BFF7A3A79BE7F327E001F
:101EE3001237DE90001FE02428F090001EE034003B
:101EF300F09000A6E0FEA3E0FFE4FCFD9000471293
:101F030025CF90004B7404F0900020E0FCA3E0FD8B
:101F130090001EE0FEA3E0FF1234AB90001EE4F03D
:101F2300A37432F0900021E02414F0900020E034F8
:101F330000F0E0FCA3E0FD7BFF7A3A79C27F327EBA
:101F4300001237DE90001FE02428F090001EE034DA
:101F530000F0900098E0FEA3E0FFE4FCFD90004752
:101F63001225CF90004B7404F0900020E0FCA3E016
:101F7300FD90001EE0FEA3E0FF1234AB90001EE4D0
:101F8300F0A37432F0900021E02414F0900020E0DC
:101F93003400F0E0FCA3E0FD7BFF7A3A79C77F329F
:101FA3007E001237DE90001FE02428F090001EE030
:101FB3003400F090009AE0FEA3E0FFE4FCFD900003
:101FC300471225CF90004B7404F0900020E0FCA34F
:101FD300E0FD90001EE0FEA3E0FF1234AB90001E74
:101FE300E4F0A3741EF0900021E0241EF090002082
:101FF300E03400F0E0FCA3E0FD7BFF7A3A79CC7F8C
:102003001E7E001237DE123A1374FFFFFE123BBA34
:0120130022AA
:10358C009000061225DB0000000030B40302362642
:10359C009000061225DB000000001232C0EF60EA3A
:1035AC007BFF7A3A79F37DFA7C007F0A7E00123732
:1035BC00DE9000A0E0FEA3E0FFE4FCFD90004712CB
:1035CC0025CF90004B7404F07DFA7C007F1E7E00AA
:1035DC001234AB7BFF7A3A79F67DFA7C007FB47EAD
:1035EC00001237DE9000A2E0FEA3E0FFE4FCFD90A9
:1035FC0000471225CF90004B7404F07DFA7C007FBD
:10360C00C87E001234AB90009CE0FEA3E0FFA3E068
:10361C00FCA3E0FD123C68023596900006E0FCA38A
:10362C00E0FDA3E0FEA3E0FFE4FBFA7980783F1213
:10363C00201B9000061225CF7F007EE87D7D7C4705
:10364C00900006E0F8A3E0F9A3E0FAA3E0FB122255
:09365C00B260025003023596220F
:102014000223C9E86480F8E933E83360110460F00E
:10202400ED33EC337009E8FCE9FDEAFEEBFF220432
:1020340060DED3EB9FEA9EE99DE8C2E78CF0C2F72D
:1020440095F0400CE8CCF8E9CDF9EACEFAEBCFFBF9
:1020540012239485D0F05804700320D5B3E804709B
:10206400075002B2D50223D392D5EC0460F7E4CC36
:10207400C0E0C398F8603B94186008400DD0E0FBC2
:102084000223ABE4FBFAC9FC8028E830E406E4C987
:10209400FBE4CAFCE830E305E4C9CACBFCE8540716
:1020A4006010F8C3E913F9EA13FAEB13FBEC13FC21
:1020B400D8F130F52FC3E49CFCEF9BFFEE9AFEEDC4
:1020C40099FDD0E0FBEF4E4D4C701222DB0302234E
:1020D400D0EC2CFCEF33FFEE33FEED33FDED30E7B7
:1020E400EB0223ABEF2BFFEE3AFEED39FDD0E0FB24
:1020F40050130BBB00030223D3ED13FDEE13FEEFCD
:0821040013FFEC13FC0223ABF6
:10210C00EC4D6011E8497017ED33EC3304600DE4CD
:10211C00FCFFFEFD22E933E8330470F80223C912F8
:10212C00239458046009E4CC2481500628500902F9
:10213C0023D32840030223D0C0E0EB4A7044B9807B
:10214C0006D0E0FB0223BFEF4E701CBD8008EBFFF6
:10215C00EAFEE9FD80EBE98DF0A4FEE5F00221F545
:10216C00E9CDF9EAFEEBFFEF89F0A4FCE5F0CE89AE
:10217C00F0A42EFFE435F0CD89F0A42DFEE435F06B
:10218C008067EF4E7005BD80D780C3EF8BF0A4AC99
:10219C00F0EE8BF0A42CFCE435F0F8EF8AF0A42CD4
:1021AC00E5F038FCE433CB8DF0A42CFCE5F03BF8E7
:1021BC00EE8AF0A42CFCE5F038F8E433CF89F0A4D7
:1021CC002CFCE5F038CF3400CE89F0A42FFFE5F0DD
:1021DC003EFEE433C98DF0A42EFEE5F039CD8AF035
:1021EC00A42FFFE5F03EFEE43DFD33D0E0FB5007AD
:1021FC000BBB000F0223D3EC2CFCEF33FFEE33FEB2
:06220C00ED33FD0223ABDF
:102212000223D3EC5D046005E8590470030223C96C
:10222200122394580460F6EC4860F2EC7004FDFE50
:10223200FF22C860DB2481C85009C398600250069F
:102242000223D09850CAF582E9294B4A7005AB8225
:102252000223BF75F0007C1A7880C3EF9BEE9AEDE3
:1022620099400DC3EF9BFFEE9AFEED99FDE842F017
:10227200DC23ACF0D0E0FFD0E0FED0E0FDAB82206A
:10228200E7101BEB60BAEC2CFCEF33FFEE33FEEDF4
:1022920033FD0223ABE803F830E705C0F075F00028
:1022A200EF2FFFEE33FEED33FD40B830E7C280AAD8
:1022B20074F8CC6480CCC86480C8F582046043C3DF
:1022C200EB9FF5F0EA9E42F0E99D42F0E89C45F072
:1022D20060305018E5825FFFE582F42B5582FB5097
:1022E200210ABA001D09B90019088016E5825BFBB4
:1022F200E582F42F5582FF50090EBE00050DBD0088
:10230200010CC3EB9FF5F0EA9E42F0E99D42F0E832
:0D2312009C45F06007CC4820E701B3EC22A9
:10231F0075F020800E75F010800575F0087D007E39
:10232F00007F003392D530D5031225B0EC33401027
:10233F00EF33FFEE33FEED33FDEC33FCD5F0ED2242
:0E234F00E5F0247EA2D513CC92E7CDCEFF227E
:10235D00EDD2E7CD33EC3392D524814006E4FFFE78
:10236D00FDFC22FCE4CFCECDCC24E0501174FF80D7
:10237D00EDC3CC13CCCD13CDCE13CECF13CF047074
:07238D00F030D5DE0225B09F
:10239400E9D2E7C933E833F892D5EDD2E7CD33EC8F
:0723A40033FC5002B2D52208
:1023AB00EC30E7100FBF000C0EBE00080DBD000493
:1023BB000BEB6014A2D5EB13FCED92E7FD2274FF3F
:1023CB00FCFDFEFF22E480F8A2D574FF13FC7D8098
:0323DB00E480EFAC
:10388B00023DB8E493A3F8E493A34003F68001F25E
:10389B0008DFF48029E493A3F85407240CC8C3333E
:1038AB00C4540F4420C8834004F456800146F6DF0D
:1038BB00E4800B0102040810204080903CB4E47EAD
:1038CB00019360BCA3FF543F30E509541FFEE49302
:1038DB00A360010ECF54C025E060A840B8E493A3C9
:1038EB00FAE493A3F8E493A3C8C582C8CAC583CAF4
:1038FB00F0A3C8C582C8CAC583CADFE9DEE780BEAC
:013CFC0000C7
:1023DE00BB010689828A83E0225002E722BBFE02FD
:0923EE00E32289828A83E4932230
:1023F700EF8DF0A4A8F0CF8CF0A428CE8DF0A42EFA
:02240700FE22B3
:10240900BC000BBE0029EF8DF084FFADF022E4CCB7
:10241900F875F008EF2FFFEE33FEEC33FCEE9DEC80
:10242900984005FCEE9DFE0FD5F0E9E4CEFD22EDC6
:10243900F8F5F0EE8420D21CFEADF075F008EF2F10
:10244900FFED33FD4007985006D5F0F222C398FD01
:052459000FD5F0EA229E
:10245E00C5F0F8A3E028F0C5F0F8E5821582700209
:06246E001583E038F022A6
:10247400BB010A89828A83F0E5F0A3F0225006F7B3
:0F24840009A7F01922BBFE06F3E5F009F31922B0
:10249300E88FF0A4CC8BF0A42CFCE98EF0A42CFCE8
:1024A3008AF0EDA42CFCEA8EF0A4CDA8F08BF0A466
:1024B3002DCC3825F0FDE98FF0A42CCD35F0FCEBC5
:1024C3008EF0A4FEA9F0EB8FF0A4CFC5F02ECD398A
:0F24D300FEE43CFCEAA42DCE35F0FDE43CFC22F7
:1024E20075F008758200EF2FFFEE33FECD33CDCCB1
:1024F20033CCC58233C5829BED9AEC99E582984034
:102502000CF582EE9BFEED9AFDEC99FC0FD5F0D610
:10251200E4CEFBE4CDFAE4CCF9A88222B800C1B93A
:102522000059BA002DEC8BF084CFCECDFCE5F0CB78
:10253200F97818EF2FFFEE33FEED33FDEC33FCEBB1
:1025420033FB10D703994004EB99FB0FD8E5E4F96C
:10255200FA227818EF2FFFEE33FEED33FDEC33FC59
:10256200C933C910D7059BE99A4007EC9BFCE99A4D
:10257200F90FD8E0E4C9FAE4CCFB2275F010EF2F92
:10258200FFEE33FEED33FDCC33CCC833C810D70792
:102592009BEC9AE899400AED9BFDEC9AFCE899F8CD
:0E25A2000FD5F0DAE4CDFBE4CCFAE4C8F92260
:0E25B000C3E49FFFE49EFEE49DFDE49CFC223C
:1025BE00EB9FF5F0EA9E42F0E99D42F0E89C45F073
:0125CE0022EA
:0C25CF00ECF0A3EDF0A3EEF0A3EFF0227F
:1025DB00A8828583F0D083D0821225F21225F212C5
:1025EB0025F21225F2E473E493A3C583C5F0C583EA
:1025FB00C8C582C8F0A3C583C5F0C583C8C582C84A
:01260B0022AC
:00000001FF
