:106C1E0053B1FB43B2041252AF1262B61254571262
:106C2E0050CB1255B6123F4712611D12643B1261D2
:096C3E00EC1265A112489080E0FF
:1016F500687474703A2F2F7777772E6C63647769E7
:101705006B692E636F6D00C8ABB6AFB5E7D7D3D79E
:10171500DBBACFB2E2CAD4B3CCD0F200C8ABB6AF15
:10172500B5E7D7D300D7DBBACFB2E2CAD4B3CCD0B2
:10173500F200322E382220494C49393334312032D7
:10174500343058333230007869616F46656E6740D2
:1017550051447465636820323031382D30382D326C
:101765003000424C205465737400524544200047B4
:101775005245454E2000424C55452000B2E2CAD4A0
:10178500323A475549BED8D0CECCEEB3E4B2E2CA20
:10179500D400B2E2CAD4333A475549BBADD4B2CC32
:1017A500EEB3E4B2E2CAD400B2E2CAD4343A475541
:1017B5004920547269616E676C65CCEEB3E4B2E2A0
:1017C500CAD400B2E2CAD4353AD3A2CEC4CFD4CA61
:1017D500BEB2E2CAD400365831323A6162636465FA
:1017E500666768696A6B6C6D6E6F7071727374751C
:1017F500767778797A00365831323A414243444512
:10180500464748494A4B4C4D4E4F503031323334A0
:10181500353637383900365831323A7E214023245F
:10182500255E262A28295F2B7B7D3A3C3E3F2F7C6F
:101835002D2B2E00385831363A6162636465666730
:1018450068696A6B6C6D6E6F70717273747576779B
:1018550000385831363A4142434445464748494A9B
:101865004B4C4D4E303132333435363700385831E4
:10187500363A7E21402324255E262A28295F2B7BA4
:101885007D3A3C3E3F2F7C00B2E2CAD4363AD6D0F0
:10189500CEC4CFD4CABEB2E2CAD40031365831362E
:1018A5003AC8ABB6AFB5E7D7D3BCBCCAF5D3D0CF32
:1018B500DEB9ABCBBEBBB6D3ADC4FA0031365831B9
:1018C500363A57656C636F6D65C8ABB6AFB5E7D78C
:1018D500D30032345832343AC9EEDBDACAD0D6D026
:1018E500CEC4B2E2CAD40033325833323AD7D6CC5A
:1018F500E5B2E2CAD400B2E2CAD4373ACDBCC6AC2E
:10190500CFD4CABEB2E2CAD400515100526F74613D
:1019150074696F6E3A3000526F746174696F6E3A14
:10192500393000526F746174696F6E3A3138300026
:10193500526F746174696F6E3A32373000B2E2CA21
:10194500D4383AC6C1C4BBBDC7B6C8B2E2CAD40012
:10195500B2E2CAD4393A546F756368B2E2CAD42088
:10196500200052535400FFFFFFFFFFFFFFFFFFFF63
:10197500FFFFFFFFFFFFFFFFFFFFFFFFFFFFFFFF72
:10198500FFFFFFFFBEF7FFFFDEFF38C6928C8E6BB1
:101995006E6B107C96AD3CE7FFFFFFFFFFFFFFFF7F
:1019A500FFFFFFFFFFFFFFFFFFFFFFFFFFFFFFFF42
:1019B500FFFFFFFFFFFFFFFFFFFFFFFFFFFFFFFF32
:1019C500FFFFFFFFFFFFFFFFFFFFFFFFFFFFFFFF22
:1019D500FFFFFFFF5DEF159D4F636C420A328829BB
:1019E500461925194521E8318E6B38C6FFFFFFFFE3
:1019F500FFFFFFFFFFFFFFFFFFFFFFFFFFFFFFFFF2
:101A0500FFFFFFFFFFFFFFFFFFFFFFFFFFFFFFFFE1
:101A1500FFFFFFFFFFFFFFFFFFFFFFFFFFFFFFFFD1
:101A2500FFFF36A51053104B51530F4B6C3AE9315C
:101A350067212519E410A30862008308CB529AD6C2
:101A4500FFFFFFFFFFFFFFFFFFFFFFFFFFFFFFFFA1
:101A5500FFFFFFFFFFFFFFFFFFFFFFFFFFFFFFFF91
:101A6500FFFFFFFFFFFFFFFFFFFFFFFFFFFF3CE75C
:101A75007063B363B87CF56311434D32EA2988215D
:101A850026190519051904110411E4108300A3088A
:101A9500728CFFFFFFFFFFFFFFFFFFFFFFFFFFFF51
:101AA500FFFFFFFFFFFFFFFFFFFFFFFFFFFFFFFF41
:101AB500FFFFFFFFFFFFFFFFFFFFFFFFDBDE4B3AEF
:101AC500F042356C544BB1322E2AEB21A92167190E
:101AD5000519041104110411041104110519E41068
:101AE5004200AF73FFFFFFFFFFFFFFFFFFFFFFFF99
:101AF500FFFFFFFFFFFFFFFFFFFFFFFFFFFFFFFFF1
:101B0500FFFFFFFFFFFFFFFFFFFF5DEF09324C32D5
:101B1500104B8F324F2A2E2ACC1989198921471942
:101B2500051904110411C410C41004110411041181
:101B3500E41042003184FFFFFFFFFFFFFFFFFFFFBF
:101B4500FFFFFFFFFFFFFFFFFFFFFFFFFFFFFFFFA0
:101B5500FFFFFFFFFFFFFFFFFFFFEC5247194C326E
:101B65000B2AEC21EC210C22915BEE4A0611261979
:101B75000419E410E410A7296621A3080519041126
:101B85000411E4108200F7BDFFFFFFFFFFFFFFFF19
:101B9500FFFFFFFFFFFFFFFFFFFFFFFFFFFFFFFF50
:101BA500FFFFFFFFFFFFFFFF35A583088821882181
:101BB5008921AA218A216B42718CFFFF728C8308CF
:101BC5000411C4082942FBDE5DEFEC5A83080411B9
:101BD500041104118308E831DFFFFFFFFFFFFFFF5A
:101BE500FFFFFFFFFFFFFFFFFFFFFFFFFFFFFFFF00
:101BF500FFFFFFFFFFFFBEF7C731C41025192619E8
:101C050047194719A8298A52284A55ADFFFFE831D7
:101C1500A30805194D6B4D6BFFFF7DEF4521C410E2
:101C2500041104110411620076ADFFFFFFFFFFFFF1
:101C3500FFFFFFFFFFFFFFFFFFFFFFFFFFFFFFFFAF
:101C4500FFFFFFFFFFFF96B56200041104190511A0
:101C55000519C4088B4AB6B55DEFF7BDFFFF8E6B5E
:101C650062002942AA5A0842FFFFFFFFCC528308AF
:101C7500041104110411A308AD52FFFFFFFFFFFF7C
:101C8500FFFFFFFFFFFFFFFFFFFFFFFF1CE7FFFF5A
:101C9500FFFFFFFFFFFF4E636200041104110411F3
:101CA500E41062008E63FFFFFFFFFFFFFFFFCF73AE
:101CB5000100F39C2C6396B5FFFFFFFF2D5B8300AE
:101CC500041104110411E41067213DEFFFFFFFFF2C
:101CD500FFFFFFFFFFFFF8BDB7B59EEFCB52B394F3
:101CE500FFFFFFFFDFFFE831A30804110411041112
:101CF5000411A3084942FFF7FFF7FFFFFFFF6A4AF8
:101D050001007284FFFFFFFFFFF7DFEF093AA30829
:101D15000411041104110411051118BEFFFFFFFF82
:101D2500FFFFFFFFFFFFF07B6200E831C731410095
:101D350035A5FFFF5DEF4621C41004110411041100
:101D45000411E410A308769DFFF7FFFFB7ADA308C4
:101D5500A308C7319EE7FFF7FFF776A5A308E410B0
:101D65000411041104110511051135A5FFFFFFFF2D
:101D7500FFFFFFFFFFFFDBDEA7298300C410C410B0
:101D8500C4101CE79EEF0511E410041104110411A1
:101D950004110419C408E510D16BD16BC5086400A2
:101DA500A50843002B32779DB3842519C41004116F
:101DB50004110411041125192609359DFFFFFFFFA4
:101DC500FFFFFFFFFFFFFFFFAF7362000419051957
:101DD50082000D5B8E9B621005110411041104191C
:101DE500E41085000511C439815A407B229C43AC1F
:101DF50003A4839B82728249C218A400C500E41023
:101E050004190411051947196711EC5ABEFFFFFFA4
:101E1500FFFFFFFFFFFFDFFFDBDEC410E41004114F
:101E25000511A41801C08388E40005190419C50823
:101E35004421438323D542FEE4FE27FF07FFA4FE8A
:101E450064FE03FEA3FDE2FC42EC83B32462E510CD
:101E5500C40804192619A81987210090D3BCFFFFCF
:101E6500FFFFFFFFFFFFDFFFFFFF107C42000519AB
:101E75000511832801D044F8A348E400C508445A55
:101E850002EDE2FD02FE66FE74FFB8FF73FFE7F6A2
:101E9500A6F645F6A4F5C3FC62FCC2FCC2FCE3CB86
:101EA500C449061188198701A49001F8EC9AFFFF2F
:101EB500FFFFFFFFFFFFFFFFFFFFBEF7E8318300D6
:101EC5000509824001C023F885F0A348A400445ABF
:101ED50002FD23CCC2DC04FE28FE48F646F624F6B5
:101EE500E4F564FDE3FC62FCC2FC02E402DCE2FC16
:101EF500A47A48016701C47824F802F884B07DE724
:101F0500FFFFFFFFFFFFFFFFFFFFFFFFDBDE2519E1
:101F1500A300C43802E022D844F8A6F8A4786300E8
:101F2500432183728339829B21F561FD22FDE2FC09
:101F3500A2FC42FC42FC42FC22AB8341C392045208
:101F450026012519A49844F823F802F8A4D09EEF99
:101F5500FFFFFFFFFFFFFFFFFFFFFFFFFFFF9AD61A
:101F65008729A50043B822F823E065F8E8F807C9F2
:101F750083484200A30084006329A27A62B3A2CBFE
:101F850062D302BB828A8339A400E500E500E50837
:101F9500C46064D844F824F823F802F88388DBC6C3
:101FA500FFFFFFFFFFFFFFFFFFFFFFFFFFFFFFFF3C
:101FB5003DE7505B083123E843F844F065F809F93B
:101FC500ABF989D10689A348421802004200610095
:101FD5008200620062008300A320C450A58885D8D2
:101FE50065F844F844F823F823F803D08210C7298C
:101FF5005DEFFFFFFFFFFFFFFFFFFFFFFFFFFFFF9E
:10200500FFFFFFFF6C32A53802D823F865F866F8A4
:10201500A7F84AF90CFA4DFA4CEA0BD2A9B968B1FE
:1020250047A927B107B907D1E7E8C7F8A7F865F8C1
:1020350065F844F823F803F802D0A3280509C40875
:10204500EC5AFFFFFFFFFFFFFFFFFFFFFFFFFFFF53
:10205500FFFFFBDE0519C400A741E6C003F886F8BB
:10206500A7F887F886F8C7F829F98AF9ABF9ABF923
:102075008BF96AF929F908F9C7F8A6F886F865F819
:1020850064F823F802F006B12529E400E4102519C7
:102095002519149DFFFFFFFFFFFFFFFFFFFFFFFF58
:1020A500FFFF96AD620082083595BACE8BA244D06B
:1020B50025F887F8A7F8C7F8A7F887F886F886F807
:1020C50086F887F8A7F8A7F8A6F885F865F864F8FC
:1020D50024F064B80D93BBB6CF6383080411E410F4
:1020E5006621493A5DEFFFFFFFFFFFFFFFFFFFFF9F
:1020F500FFFFD3944200E410BBCEFFFFBEE776B5E9
:10210500CCAA07C145E045F846F866F886F886F892
:1021150086F886F865F845F865F865E844D043A87B
:10212500018882903CD7FFEF55958308041104116F
:1021350005194619B394FFFFFFFFFFFFFFFFFFFFE0
:10214500FFFFB394410086215DDFFFFFFFFFFFFF27
:10215500DFE77AC6D3B44EB32AC268D1E6E0A6E873
:10216500A5E8A5E8E6D888C906A922A802A800A07E
:1021750000C800D8F7E5FFE7F8ADC410E410041176
:10218500E41005118B4AFFFFFFFFFFFFFFFFFFFF75
:10219500FFFF55A54100A7295DDFFFF7FFFFFFFF03
:1021A500FFFFFFFFFFFFFFEF7DDFDBCE59CEF8CD51
:1021B500D7CDF7C579CEFBBEABA203F045F842D02B
:1021C50043E800F072D4FFDF39AEE410E4100411E7
:1021D500E41005118729FFFFFFFFFFFFFFFFFFFF4A
:1021E500FFFF59CE830846211CD7FFF7FFFFFFFFEE
:1021F500FFFFFFFFFFFFFFFFFFFFFFFFFFFFFFFFEA
:10220500FFFFFFFFFFFFFFEF8BBA04F845F862E021
:1022150044F000F88EDBFFDFF8A5C410E410E410ED
:102225000411E4102519FFFFFFFFFFFFFFFFFFFF6C
:10223500FFFFBEF78729830839B6FFF7DFF7FFFFF2
:10224500FFFFFFFFFFFFFFFFFFFFFFFFFFFFFFFF99
:10225500FFFFFFFFFFFFBEE74ABA03F845F864F842
:1022650044F800F86EE3FFD7F48C83080411E410FA
:10227500E410E4100519FFFFFFFFFFFFFFFFFFFF5D
:10228500FFFFFFFFEF7300007284FFEFBEEFDFFF7C
:10229500FFFFFFFFFFFFFFFFFFFFFFFFFFFFFFFF49
:1022A500FFFFFFFFFFFFDFE78BBA03F845F845F8AF
:1022B50023F800F8D3D4FFD74E5B2100293A55A562
:1022C5008308C4102519FFFFFFFFFFFFFFFFFFFF76
:1022D500FFFFFFFFFBDEA308E8319EDF9EE7BFEFB0
:1022E500FFFFFFFFFFFFFFFFFFFFFFFFFFFFFFFFF9
:1022F500FFFFFFFFFFFFFFF751BC02E003F803F00C
:1023050043E0ECC27ECFFCBE46212100D394FFFF03
:10231500518400008729FFFFFFFFFFFFFFFFFFFF3D
:10232500FFFFFFFFFFFF51840000F48CFFEF9EE7E6
:10233500BFEFDFFFFFFFFFFFFFFFFFFFFFFFFFFF18
:10234500FFFFFFFFFFFFFFFF3DDF55BD52BC72BC26
:10235500B7B55DC7FFDFF06B0000093ABFF7FFFFB8
:10236500FFFF149D55A5FFFFFFFFFFFFFFFFFFFFC9
:10237500FFFFFFFFFFFFFFFFAC4AA408BBBEDFE77F
:102385007EE7BEEFDFF7DFFFFFFFFFFFFFFFFFFF8A
:10239500FFFFFFFFFFFFDFFFDFF7FFEFDFDFBFD748
:1023A5009ED7DFDFD8A583082611DBD6FFFFFFFF09
:1023B500FFFFFFFFFFFFFFFFFFFFFFFFFFFFFFFF28
:1023C500FFFFFFFFFFFF79EE8BDC2131A9213DCF18
:1023D500BFDF7EDF9EE7BEEFBFEFDFF7DFF7DFF79B
:1023E500DFF7DFF7BFEFBEEF9EE77EDF5ED75ED795
:1023F500DFDF9AB626194208EDA3BFFFFFFFFFFFF7
:10240500FFFFFFFFFFFFFFFFFFFFFFFFFFFFFFFFD7
:10241500FFFFFFFF74DDC0DB00FE42EE02428921B3
:102425007BB6DFDF7ED77EDF7EDF9EE79EE79EE71A
:102435009EE79EE77EDF7EDF5DD75DD79EDFFFE708
:10244500F8A50711E31802C560FDE6D3DBEEFFFF33
:10245500FFFFFFFFFFFFFFFFFFFFFFFFFFFFFFFF87
:10246500FFFF9EF784BAC1FC42FE82FEA2FE818375
:10247500452174745EC7DFDF7ED75ED75DD75ED733
:102485005ED75DD75DD75ED79EDFFFE73DC7F163BA
:102495008408425226E629FF86FEE0F36AC3FFFF61
:1024A500FFFFFFFFFFFFFFFFFFFFFFFFFFFFFFFF37
:1024B500FFFF18DEC1D2A2FD22FE42FE42FE62FEF1
:1024C500E2D4416A494253743BA63EC7BFD7BFD742
:1024D500BFD7BFDFBFD73EC71AA6F263A729824180
:1024E50022B462FE83FEAAFE0FFF67FD63BA3CEFCE
:1024F500FFFFFFFFFFFFFFFFFFFFFFFFFFFFFFFFE7
:10250500FFFF9AE680D221FDC2FDE2F5C2F582F514
:1025150082FD62FD61DC219B846AE96A2C63AF63FD
:1025250011746E632C63895A0452817AC2CBE2FC22
:1025350062FD82FDC2FDC2FDE4FD24FD62CA1CE709
:10254500FFFFFFFFFFFFFFFFFFFFFFFFFFFFFFFF96
:10255500FFFFFFFFB1CC81D2C0F3C1FC02FD02FD3C
:10256500E2FCC2FCC2FC81FC80FBC0C9A48135AD84
:1025750059CE719C218100DAA1FB82FCA2FC82FC70
:10258500A2FC02FD22FDE2FC00FC60DA90CCFFFF1C
:10259500FFFFFFFFFFFFFFFFFFFFFFFFFFFFFFFF46
:1025A500FFFFFFFFFFFF59DE0DC406CBE4D203DBBF
:1025B50003DBE3DAC3D2A4C209B3D2BC9EF7FFFFA3
:1025C500FFFFFFFFFBE60EB4A6BA83D2E3E202EB00
:1025D50022EB22E303DBE4D26AC3B6D5FFFFFFFF9C
:1025E500FFFFFFFFFFFFFF1911FF191CFF1928FF50
:0225F500193596
:0D6BC8004A00B4F80007E0001FFFE0F81FCE
:065F75007BFF7A1979554B
:105F7B0090000DEBF0A3EAF0A3E9F074FFFFFE1223
:105F8B00676490008AE0FAA3E0FB90002FE4F0A393
:105F9B007414F0A3E4F0A3741FF0E4FDFCFFFE12F5
:105FAB005C5390008CE0FEA3E0FF24ECFDEE34FF8D
:105FBB00FC90008AE0FAA3E0FB90002FEEF0A3EF39
:105FCB00F0A3E4F0A3741FF0E4FFFE125C5374FF24
:105FDB00900086F0A3F0900016E4F0A3741FF090ED
:105FEB00000DE0F9A3E0FAA3E0900018C9F0A3EAD2
:105FFB00F0A3E9F0A37410F0A37401F074FFFBFAA3
:10600B007D027C00E4FFFE12664690008DE024EEDC
:10601B00FD90008CE034FFFC900016E4F0A3741F9D
:10602B00F0A374FFF0A37416F0A374F5F0A374102F
:0F603B00F0A37401F074FFFBFAE4FFFE02664667
:1062B6007BFF7A17790C125F7B900016E4F0A374CB
:1062C6001FF0A374FFF0A37417F0A37421F0A37456
:1062D60010F0A37401F07B007AF87D1E7C00E4FFC9
:1062E600FE126646900016E4F0A3741FF0A374FF36
:1062F600F0A37417F0A3742AF0A37410F0A374012A
:10630600F07B007AF87D3C7C00E4FFFE1266469046
:106316000016E4F0A3741FF0A374FFF0A37417F043
:10632600A37437F0A37410F0A37401F07BE07A072E
:106336007D5A7C00E4FFFE126646900016E4F0A348
:10634600741FF0A374FFF0A37417F0A3744CF0A3AA
:106356007410F0A37401F07B1F7A007D787C00E452
:10636600FFFE1266467FDC7E05126C477FDC7E05EB
:03637600026C476F
:1054570090008AE0FAA3E0FBA3E0FFA3E090002F0F
:10546700CFF0A3EFF074FFA3F0A3F0E4FDFCFFFE81
:10547700125C5390002374FFF0A374E0F0A374FF51
:10548700F0A37417F0A37467F0A37410F0A374016A
:10549700F07B1F7A007D1E7C007F147E00123CA6E5
:1054A7007F207E03126C4790008AE0FAA3E0FBA3FB
:1054B700E0FFA3E090002FCFF0A3EFF0A374F8F084
:1054C700A3E4F0FDFCFFFE125C5390002374FFF091
:1054D700A374E0F0A374FFF0A37417F0A3746FF044
:1054E700A37410F0A37401F07B1F7A007D1E7C006B
:1054F7007F147E00123CA67F207E03126C4790002B
:105507008AE0FAA3E0FBA3E0FFA3E090002FCFF02F
:10551700A3EFF0A37407F0A374E0F0E4FDFCFFFE33
:10552700125C5390002374FFF0A374E0F0A374FFA0
:10553700F0A37417F0A37474F0A37410F0A37401AC
:10554700F07B1F7A007D1E7C007F147E00123CA634
:105557007F207E03126C4790008AE0FAA3E0FBA34A
:10556700E0FFA3E090002FCFF0A3EFF0A3E4F0A3B8
:10557700741FF0E4FDFCFFFE125C5390002374FFE0
:10558700F0A374E0F0A374FFF0A37417F0A3747B87
:10559700F0A37410F0A37401F07B007AF87D1E7CF1
:0F55A700007F147E00123CA67F207E03026C471B
:1050CB00E4900000F07BFF7A177981125F7B9000F0
:1050DB008AE0FAA3E0FB90008DE024ECFE90008CBC
:1050EB00E034FF90002FF0A3CEF074FFA3F0A3F0F9
:1050FB007D147C00E4FFFE125C53E4900000F09002
:10510B000000E0FD25E024B4F582E43400F583E0F3
:10511B00FFA3E0900086CFF0A3EFF090008AE0C3EE
:10512B0013FEA3E01324B0FBEE34FFFAED75F00F82
:10513B00A4FDACF02BFFEC3AFEC006C007A3E0C306
:10514B0013FEA3E01324B0FFEE34FFCF2DFDEF3C95
:10515B00FCC004C00590008AE0C313FCA3E013FD60
:10516B00900000E0F975F00FA42DFFE5F03CCF2483
:10517B00ECFBEF34FFFA90008CE0C313FCA3E013BD
:10518B00FDE975F00FA42DFFE5F03CCF24ECCF34F7
:10519B00FF900007F0A3EFF0D005D004D007D006A6
:1051AB001264F7900000E004F0E0C3940550030292
:1051BB00510A7FDC7E05126C4790008AE0FAA3E06F
:1051CB00FB90008DE024ECFE90008CE034FF90000F
:1051DB002FF0A3CEF074FFA3F0A3F07D147C00E4BA
:1051EB00FFFE125C53E4900000F0900000E0FD2500
:1051FB00E024B4F582E43400F583E0FFA3E09000F3
:10520B0086CFF0A3EFF090008AE0C313FEA3E01368
:10521B0024B0FBEE34FFFAED75F00FA4FDACF02BD0
:10522B00FFEC3AFEC006C007A3E0C313FEA3E013D6
:10523B0024B0FFEE34FFCF2DFDEF3CFCC004C005C6
:10524B0090008AE0C313FCA3E013FD900000E0F98B
:10525B0075F00FA42DFFE5F03CCF24ECFBEF34FFF2
:10526B00FA90008CE0C313FCA3E013FDE975F00F7B
:10527B00A42DFFE5F03CCF24ECCF34FF900007F0DA
:10528B00A3EFF0D005D004D007D006126C9390009A
:10529B0000E004F0E0C3940550030251F57FDC7E7F
:0452AB0005026C4745
:1055B600E4900000F07BFF7A177997125F7B9000EA
:1055C6008AE0FAA3E0FB90008DE024ECFE90008CCC
:1055D600E034FF90002FF0A3CEF074FFA3F0A3F009
:1055E6007D147C00E4FFFE125C53E4900000F09012
:1055F600008AE0C313FEA3E01324B0FDEE34FFFCE3
:10560600900000E0F975F019A4FBAAF02DFFEA3C22
:10561600FEC006C00790008CE0C313FEA3E013246F
:10562600CEFFEE34FFCF2BFDEF3AFCE925E024B4A4
:10563600F582E43400F583E0FAA3E0FB900007E48A
:10564600F0A3741EF0E4A3F0A3F0D007D006124C2A
:10565600EA900000E004F0E0C3940540927FDC7E0F
:1056660005126C4790008AE0FAA3E0FB90008DE0FB
:1056760024ECFE90008CE034FF90002FF0A3CEF0D7
:1056860074FFA3F0A3F07D147C00E4FFFE125C53CC
:10569600E4900000F090008AE0C313FEA3E0132418
:1056A600B0FDEE34FFFC900000E0F975F019A4FBA4
:1056B600AAF02DFFEA3CFEC006C00790008CE0C3AE
:1056C60013FEA3E01324CEFFEE34FFCF2BFDEF3AFB
:1056D600FCE925E024B4F582E43400F583E0FAA37E
:1056E600E0FB900007E4F0A3741EF0A3E4F0A3042B
:1056F600F0D007D006124CEA900000E004F0E0C3B8
:0B570600940540917FDC7E05026C479B
:103F4700E4900000F07BFF7A1779AD125F7B900059
:103F57008AE0FAA3E0FB90008DE024ECFE90008C51
:103F6700E034FF90002FF0A3CEF074FFA3F0A3F08E
:103F77007D147C00E4FFFE125C53E4900000F09097
:103F87000000E0F9C394054003024087E925E024D7
:103F9700B4F582E43400F583E0FFA3E0900086CF18
:103FA700F0A3EFF090008AE0C313FAA3E013FB2419
:103FB700B0FDEA34FFFCE975F014A42DFFE5F03CF1
:103FC700FEC006C007A3E0C313FEA3E01324ECFD65
:103FD700EE34FFFCE975F00FA42DFDE5F03CFCC0C5
:103FE70004C005EB24CDFDEA34FFFCE975F014A409
:103FF7002DFBE5F03CFAC002C00390008CE0C31330
:10400700FEA3E01324B7FDEE34FFFCE975F00FA41F
:104017002DFDE5F03CFCC005C00490008AE0C31309
:10402700FEA3E01324EBFDEE34FFFCE975F014A4C6
:104037002DFDE5F03CFCA3E0C313FEA3E01324EC45
:10404700FBEE34FFFAE975F00FA42BFEE5F03A908A
:10405700000BF0A3CEF0900009ECF0A3EDF0900078
:1040670007D0E0F0A3D0E0F0D003D002D005D00411
:10407700D007D0061268DF900000E004F0023F8608
:104087007FDC7E05126C4790008AE0FAA3E0FB9084
:10409700008DE024ECFE90008CE034FF90002FF0C0
:1040A700A3CEF074FFA3F0A3F07D147C00E4FFFE21
:1040B700125C53E4900000F0900000E0F9C394050F
:1040C70040030241C0E925E024B4F582E43400F559
:1040D70083E0FFA3E0900086CFF0A3EFF090008A83
:1040E700E0C313FAA3E013FB24B0FDEA34FFFCE9B5
:1040F70075F014A42DFFE5F03CFEC006C007A3E051
:10410700C313FEA3E01324ECFDEE34FFFCE975F0C6
:104117000FA42DFDE5F03CFCC004C005EB24CDFD4C
:10412700EA34FFFCE975F014A42DFBE5F03CFAC076
:1041370002C00390008CE0C313FEA3E01324B7FD75
:10414700EE34FFFCE975F00FA42DFDE5F03CFCC053
:1041570005C00490008AE0C313FEA3E01324EBFD1F
:10416700EE34FFFCE975F014A42DFDE5F03CFCA34B
:10417700E0C313FEA3E01324ECFBEE34FFFAE9756A
:10418700F00FA42BFEE5F03A90000BF0A3CEF090D1
:104197000009ECF0A3EDF0900007D0E0F0A3D0E029
:1041A700F0D003D002D005D004D007D0061237AC28
:1041B700900000E004F00240BF7FDC7E05026C4700
:10611D007BFF7A1779C8125F7B90008674F8F0A325
:10612D00E4F0900088F0A3741FF090000A74FFF063
:10613D00A37417F0A374DBF0E4A3F07B0C7D1EFCBD
:10614D007F0AFE12637990000A74FFF0A37417F0B2
:10615D00A374FBF0A37401F07B0C7D2D7C007F0AF2
:10616D007E0012637990000A74FFF0A37418F0A3F7
:10617D00741BF0E4A3F07B0C7D3CFC7F0AFE1263E4
:10618D007990000A74FFF0A37418F0A37439F0E449
:10619D00A3F07B107D50FC7F0AFE12637990000AFC
:1061AD0074FFF0A37418F0A37456F0A37401F07B80
:1061BD00107D647C007F0A7E0012637990000A7462
:1061CD00FFF0A37418F0A37472F0E4A3F07B107DBC
:0F61DD0078FC7F0AFE1263797FB07E04026C4764
:10643B007BFF7A18798D125F7B90002374FFF0A39A
:10644B0074E0F0A374FFF0A37418F0A374A0F0A38E
:10645B007410F0E4A3F07B1FFA7D1EFC7F0AFE1282
:10646B003CA690002374FFF0A374E0F0A374FFF03C
:10647B00A37418F0A374C1F0A37410F0E4A3F07B21
:10648B001FFA7D32FC7F0AFE123CA690002374FF9C
:10649B00F0A374E0F0A374FFF0A37418F0A374D707
:1064AB00F0A37418F0A37401F07B1F7A007D467C77
:1064BB00007F0A7E00123CA690002374FFF0A374A9
:1064CB00E0F0A374FFF0A37418F0A374ECF0A374C2
:1064DB0020F0A37401F07B1F7A007D647C007F0A9F
:0C64EB007E00123CA67FB07E04026C47CD
:1061EC007BFF7A1879FB125F7B7BFF7A19796B7DC9
:1061FC001E7C007F1E7E0012604A90002374FFF00C
:10620C00A374E0F0A374FFF0A37419F0A3740EF060
:10621C00A37410F0A37401F07B1F7A007D4B7C00FB
:10622C007F2A7E00123CA67BFF7A19796B7D1E7C3F
:10623C00007F5A7E0012604A90002374FFF0A37412
:10624C00E0F0A374FFF0A37419F0A3740EF0A37420
:10625C0010F0A37401F07B1F7A007D4B7C007F66ED
:10626C007E00123CA67BFF7A19796B7D1E7C007F29
:10627C00967E0012604A90002374FFF0A374E0F045
:10628C00A374FFF0A37419F0A3740EF0A37410F0B0
:10629C00A37401F07B1F7A007D4B7C007FA27E00F3
:0A62AC00123CA67FB07E04026C478E
:1065A100E4900000F078017C007D017BFF7A257981
:1065B100EBFE7F0C1234DEE4900000F0900000E06E
:1065C100FFC39404507A1267E57BFF7A197942126E
:1065D1005F7B900000E075F003A42401F582E434B0
:1065E10000F583E0F9A3E0FAA3E0900025C9F0A348
:1065F100EAF0A3E9F090002374FFF0A374E0F090B7
:1066010000287410F0A37401F07B1F7A007D1E7CBA
:10661100007F147E00123CA67BFF7A19796B7D32D4
:106621007C007F1E7E0012604A7FE87E03126C4769
:106631007FE87E03126C47900000E004F00265BD24
:05664100E4FF0267E523
:10489000E4900000F0A3F0A3F0A3F0A3F0125F7582
:1048A00090008BE024E8FF90008AE034FFFE900047
:1048B0000A74FFF0A37419F0A37467F0A37401F0F5
:1048C0007B10E4FDFC12637990008AE0FCA3E0FD1C
:1048D00024CCFFEC34FFFEED24E2FBEC34FFFA9035
:1048E000002FE4F0A37412F0A374F8F0A3E4F07DB9
:1048F00002FC125C5390008674F8F0A3E4F01258A6
:1049000068EF7003024AC890008AE0FEA3E0FF90BF
:10491000009BE0FCA3E0FDC39FEC9E50E190008C67
:10492000E0FEA3E0FF90009DE0FAA3E0FBC39FEA56
:104930009E50CB90008BE024E8FF90008AE034FF8B
:10494000FED3ED9FEC9E407BEB9410EA94005073F5
:10495000125F7590008BE024E8FF90008AE034FF3E
:10496000FE90000A74FFF0A37419F0A37467F0A31B
:104970007401F07B10E4FDFC126379900003E0FF0A
:10498000A3E0900086CFF0A3EFF090008AE0FCA3B4
:10499000E0FD24CCFFEC34FFFEED24E2FBEC34FF21
:1049A000FA90002FE4F0A37412F0900086E0FDA3CB
:1049B000E0900031CDF0A3EDF07D027C00125C535D
:1049C0000248FE90008AE0FEA3E0FF24C4FDEE341E
:1049D000FFFC90009BE0FAA3E0FBD39DEA9C500310
:1049E000024AACEF24E2FFEE34FFFEC3EB9FEA9EE7
:1049F0004003024AACC390009EE0941490009DE0F6
:104A000094004003024AAC90008AE0FCA3E0FD243D
:104A1000CCFFEC34FFFEC006C007ED24E2FBEC3413
:104A2000FFFA90002FE4F0A37412F0900001E0FE72
:104A3000A3E0FF7C007D0512355CED25E0FFEC3343
:104A4000FE74B42FF58274003EF583E0FFA3E0907E
:104A50000031CFF0A3EFF0D007D0067D027C00122A
:104A60005C53900001E475F0011235C7AFF0FE7C95
:104A7000007D0512355CED25E0FFEC33FE74B42FAC
:104A8000F58274003EF583E0FFA3E0900086CFF04E
:104A9000A3EFF0900086E0FFA3E0900003CFF0A327
:104AA000EFF07F0A7E00126C470248FE90009BE008
:104AB000FEA3E0FFA3E0FCA3E0FD900086E0FAA3E4
:104AC000E0FB1269550248FE7F0A7E00126C470225
:024AD00048FE9E
:1000030000000000000000000000000000000404E5
:10001300040404040004000000140A0A00000000A1
:1000230000000000000014143F140A3F0A0A0000F5
:1000330000041E1505060C14150F0400000012150C
:100043000D0A142C2A1200000000040A0A1E1515BA
:100053000936000000020201000000000000000059
:1000630000201008080808080810200000020408EF
:10007300080808080804020000000004150E0E1505
:100083000400000000000404041F04040400000032
:100093000000000000000000000202010000000058
:1000A300001F00000000000000000000000000002E
:1000B3000002000000100808080404020202010004
:1000C30000000E1111111111110E000000000406A1
:1000D30004040404040E000000000E1111080402BD
:1000E300011F000000000E11100C1010110E000073
:1000F3000000080C0A0A091E0818000000001F016E
:10010300010F1010110E000000000E09010F111154
:10011300110E000000001F09080404040404000079
:1001230000000E11110E1111110E000000000E112E
:1001330011111E10120E0000000000000400000048
:10014300000400000000000000040000000404009C
:100153000020100804020408102000000000000022
:100163001F00001F000000000002040810201008F8
:100173000402000000000E11110804040004000032
:1001830000000E111915151D011E000000000404C6
:100193000C0A0A1E1233000000000F12120E121274
:1001A300120F000000001E1101010101110E0000D9
:1001B30000000F1212121212120F000000001F1281
:1001C3000A0E0A02121F000000001F120A0E0A0282
:1001D3000207000000001C1201013911120C00007B
:1001E30000003312121E12121233000000001F040B
:1001F30004040404041F000000003E080808080863
:1002030008090700000037120A060A0A123700001D
:100213000000070202020202223F000000001B1B33
:100223001B1B15151515000000003B1216161A1A94
:100233001217000000000E1111111111110E000010
:1002430000000F12120E02020207000000000E113E
:1002530011111117190E180000000F12120E0A12B5
:100263001237000000001E1101060810110F0000D4
:1002730000001F1504040404040E000000003312E0
:1002830012121212120C000000003312120A0A0C8E
:100293000404000000001515150E0A0A0A0A0000DE
:1002A30000001B0A0A04040A0A1B000000001B0AC0
:1002B3000A040404040E000000001F0908040402D9
:1002C300121F0000001C04040404040404041C00A2
:1002D300000202020404080808100000000E0808C7
:1002E3000808080808080E0000040A0000000000BF
:1002F3000000000000000000000000000000003FBC
:1003030000040000000000000000000000000000E6
:10031300000C121C123C000000000302020E121219
:10032300120E000000000000001C1202021C00005C
:1003330000001810101C1212123C000000000000F4
:10034300000C121E021C000000003804041E0404EA
:10035300041E000000000000003C120C021E221CC0
:1003630000000302020E1212123700000000040004
:1003730000060404040E000000000800000C080836
:100383000808080700000302023A0A0E12370000A9
:100393000000070404040404041F0000000000001C
:1003A300000F15151515000000000000000F1212B4
:1003B3001237000000000000000C1212120C0000A3
:1003C30000000000000F1212120E020700000000CE
:1003D300001C1212121C103800000000001B060241
:1003E3000207000000000000001E020C101E0000A7
:1003F30000000004040E04040418000000000000C0
:10040300001B1212123C0000000000000037120A09
:100413000C040000000000000015150E0A0A00007D
:1004230000000000001B0A040A1B0000000000007B
:100433000037120A0C04040300000000001E080425
:10044300041E00000018080808040808080818001B
:10045300080808080808080808080808000604042B
:100463000408040404040600022518000000000028
:100473000000000000000000000000000000000079
:100483000000000000000008080808080808000031
:100493001818000000486C2412000000000000003F
:1004A300000000000000002424247F1212127F1297
:1004B300121200000000081C2A2A0A0C1828282AF5
:1004C3002A1C080800000022251515152A58545423
:1004D300542200000000000C1212120A7625291182
:1004E300916E0000000606040300000000000000F7
:1004F3000000000000402010100808080808081039
:1005030010204000000204080810101010101008FA
:10051300080402000000000008086B1C1C6B08089C
:100523000000000000000000080808087F08080811
:1005330008000000000000000000000000000000B0
:10054300060604030000000000000000FE00000097
:100553000000000000000000000000000000000098
:100563000606000000008040402020101008080408
:100573000402020000000018244242424242424266
:1005830024180000000000080E08080808080808DE
:10059300083E00000000003C4242422020100804B4
:1005A300427E00000000003C4242201820404042AE
:1005B300221C0000000000203028242422227E2058
:1005C300207800000000007E0202021A264040420A
:1005D300221C0000000000382402021A2642424274
:1005E300241800000000007E2222101008080808CA
:1005F300080800000000003C424242241824424202
:10060300423C00000000001824424242645840402B
:10061300241C000000000000000018180000000067
:10062300181800000000000000000008000000008F
:100633000008080400000040201008040204081009
:10064300204000000000000000007F0000007F0049
:1006530000000000000000020408102040201008E1
:10066300040200000000003C4242464020101000FB
:10067300181800000000001C225A555555552D42EC
:10068300221C00000000000808181414243C224215
:1006930042E700000000001F2222221E22424242A3
:1006A300221F00000000007C4242010101010142BF
:1006B300221C00000000001F2242424242424242EA
:1006C300221F00000000003F4212121E12120242BB
:1006D300423F00000000003F4212121E12120202AB
:1006E300020700000000003C2222010101712122C7
:1006F300221C0000000000E7424242427E42424286
:1007030042E700000000003E08080808080808083F
:10071300083E00000000007C101010101010101094
:100723001010110F0000007722120A0E0A12122273
:100733002277000000000007020202020202020206
:10074300427F000000000077363636362A2A2A2AEE
:100753002A6B0000000000E346464A4A52525262A6
:10076300624700000000001C2241414141414141D8
:10077300221C00000000003F424242423E020202AD
:10078300020700000000001C2241414141414D533A
:10079300321C60000000003F4242423E12122222FD
:1007A30042C700000000007C42420204182040427D
:1007B300423E00000000007F4908080808080808B6
:1007C300081C0000000000E742424242424242420B
:1007D300423C0000000000E7424222242414141883
:1007E300080800000000006B494949495555362265
:1007F30022220000000000E74224241818182424B1
:1008030042E70000000000772222141408080808B9
:10081300081C00000000007E212010100804044280
:10082300423F00000078080808080808080808087C
:1008330008087800000002020404080808101020C9
:1008430020204040001E1010101010101010101027
:1008530010101E00003844000000000000000000DB
:100863000000000000000000000000000000000085
:10087300000000FF00060800000000000000000068
:1008830000000000000000000000003C42784442E9
:1008930042FC0000000000030202021A2642424208
:1008A300261A000000000000000000384402020283
:1008B3004438000000000060404040784442424217
:1008C30064D80000000000000000003C427E0202E9
:1008D300423C0000000000F08808087E0808080871
:1008E300083E0000000000000000007C22221C02E1
:1008F3003C42423C000000030202023A46424242AA
:1009030042E700000000000C0C00000E0808080875
:10091300083E000000000030300000382020202076
:100923002020221E0000000302020272120A161285
:10093300227700000000000E0808080808080808CD
:10094300083E0000000000000000007F9292929297
:1009530092B70000000000000000003B4642424204
:1009630042E70000000000000000003C4242424217
:10097300423C0000000000000000001B26424242EF
:10098300221E020700000000000000784442424299
:10099300447840E000000000000000774C040404A9
:1009A300041F0000000000000000007C42023C40E5
:1009B300423E0000000000000008083E0808080846
:1009C3000830000000000000000000634242424281
:1009D30062DC000000000000000000E74224241451
:1009E3000808000000000000000000EB49495555CD
:1009F30022220000000000000000007624181818CE
:100A0300246E000000000000000000E742242414CC
:100A130018080807000000000000007E22100808E4
:100A2300447E000000C02020202020102020202011
:100A33002020C000101010101010101010101010F3
:100A43001010101000060808080808100808080805
:100A5300080806000C32C20000000000000000007D
:100A630000000000C9EE000027FC140414A4811048
:100A730042084040104017FC2040E0E0215022484B
:100A83002C4620400040DBDA1104112411241124E8
:100A93001124FD24112411241124112411241D24B3
:100AA300E124422402040404CAD00200010000002D
:100AB3007FFC0100010001003FF821082108210803
:100AC30021082128211001000100C8AB000000000B
:100AD300018002400430180860061FF9010001007C
:100AE30001003FF80100010001007FFEB6AF0000E6
:100AF300000000203E20007C002200227F221022E2
:100B0300102212221222224223423D82009CB5E788
:100B13000000010001001FF0610C410441047FFC4F
:100B23004104410441047FFC01000102010201FC74
:100B3300D7D3000000003FF80010006000800100E0
:100B430000807FFE0040004000200020002018406D
:100B53000780BCBC00000000104013FE10407C4026
:100B6300104013FC1104190830885050106010D045
:100B730013087C06CAF500000100013001080100DA
:100B83007FFE018003400540052009101108210460
:100B9300410201000100D3D00000010002007FFEEA
:100BA300040008001FFC700490041FFC10041004D0
:100BB3001FFC10041004103CCFDE000000007BFC7F
:100BC3004A044A044BFC52044A044BFC4A404A443C
:100BD3007A2842304210420843C6B9AB00000000F5
:100BE30004400420081010101008210442020220BF
:100BF30004100810080810081FFC0004CBBE0000F6
:100C030000003FFC000400043FF400043FE4202400
:100C130020242024202420241FC40004007CBBB6ED
:100C23000000000000807EFC02A202A222A4152480
:100C330014240C300C300C481248228442840102E4
:100C4300D3AD000000002398246414440444644496
:100C5300144414441444144415C4125C1040284032
:100C630047FEC4FA00000000120013FE24222522CE
:100C7300652862242224242020E0050814842444C7
:100C8300241A47F2B4BF00000020102013FE2020D6
:100C930026244A247A241224222423FC7C200022A2
:100CA30004227822003CC9AB0000000004000FF0CE
:100CB300102020207FFC20842084208420843FF87F
:100CC3002000200220021FFECCEE00000000204086
:100CD30023FE204079FC220423FC220423FC22046B
:100CE30023FC3A0465FA01980204B3E4000001000E
:100CF30001007FFE02200410040808043FFC0442A4
:100D030004400440044208421042607EBED8000002
:100D13000000207E3E804880488048FE48827F82D3
:100D230008820C8214FA12842280218040FED0CEE5
:100D3300000000007F842208223022C02202220405
:100D43007FC8223022C222022204220822304040DD
:100D5300BBAD000000007FFE00000FF0111011106A
:100D6300111051125FF25112511251124FF24002FF
:100D73007FFCD4B2000000007FFE47E24812481215
:100D830047E24FF2501250125112511242924472E2
:100D9300580A3FFCC800000000007FFC0000000070
:100DA300000000003FF80000000000000000000009
:100DB300FFFE00000000BDC7080008001FE0202060
:100DC3004040BFF8210821083FF8210821083FF8D7
:100DD3002108410841288010CDBC000000003FFEDF
:100DE300440247F24C225362408243625E1A4182BC
:100DF3004062430240C240223FFCC6AC00000040B8
:100E03002040204020403FFE2000200020003FE003
:100E1300201020102010201040104010CFD40000CC
:100E230000003FFC200420043FFC200420041FF8A2
:100E330024441448144814480C5004407FFECABE8E
:100E4300000000003FFC0000000000007FFE008067
:100E530008900888108810842084208240820780AC
:100E6300B2CB0000002008207FFE002000783F88DE
:100E73001108089009207FFE018003400D30310CDA
:100E83004002B5A500000010081004203FF821041B
:100E930021043FFC210421043FF801007FFE0100EF
:100EA30001000100D6D000000100010001003FFC59
:100EB3002104210421042104210421043FFC010015
:100EC300010001000100D3A20000000008207FFE02
:100ED3000820092001003FF82108210821081FF4F8
:100EE300014002200C10700ECEC40000010001006E
:100EF30000803F7C081008100410042002200240E8
:100F03000180018002601C18E006D7DB00000000AE
:100F1300102011FE2202220249FC5800300013FE69
:100F23002528792401240D24722202A2BACF0000BD
:100F33000000018002400430180860061FF800001A
:100F43001FF8200420042004200420041FF8C1C13A
:100F53000000010001007FFE00003FF820083FF879
:100F63003FF8400647C24824082008221022603E6A
:100F7300B6C80000000000803FFE44105FFC441030
:100F8300441043F040005FF84408423041C04360DE
:100F9300BC1EB2E20000000067C2145205520552A3
:100FA300C55225520552055215521752228222422A
:100FB3004442483ECAD4000000002014101417FE17
:100FC30000120010601013F0109010901090149203
:100FD30014EA1F0A0006B3CC0000000019FE7202D7
:100FE300120212027DFC18001BFE3420502053FE17
:100FF30010201020102013FED0F20000000000800B
:101003003FFE400047FC4208413040C05FFE404283
:1010130040424044404840404440B5F7000000008F
:1010230023FE122202FA0222E22212FE1272128A14
:10103300128A128A16BA1A421202040EB9E2000088
:101043000100010411080908091009207FFE04406A
:10105300044004400440084208421042607CB0E669
:101063000000000048FE4900490049007EFE41821D
:101073004144794445284528451045284644038280
:10108300C8A800001000100013FC7D04110419040B
:10109300188434885048505010201050108813047E
:1010A3001402CBF9000000003F7C204020403E406A
:1010B300227E2244224422443E842084208440848D
:1010C30041044204C6C100003FF8200820083FF84D
:1010D300241022202FF8222022203FFC222042200D
:1010E300442084200820C4BB04407FFC04401FF03C
:1010F30010101FF010101FF00400FFFE11103FF836
:10110300D116115011200100D0002080108010FE54
:101113000100FE0021FC20243C2424A024A024BCA4
:1011230024A024A04560553E8A00D7AA2020202071
:101133002020FDFC4020504093FEFC40108011FC19
:101143001C04F0885050102010101010BFAA00008B
:101153007FFC08200820082008200820FFFE082024
:101163000820082008201020102020204020D4B47C
:10117300000027FE1420144085FC450445FC15049B
:1011830015FC2524E42024A829242A2230A0004089
:10119300D2BA0080204017FE11208120423C4244F5
:1011A300166412942348E2482230222022502288D7
:1011B3000306BEA70FE0082008200FE00820082040
:1011C3000FE000007EFC428442847EFC4284428421
:1011D3007EFC4284CDF800007FFC400440044214AE
:1011E30052944A54442444244A544A545294610421
:1011F300400440144008D5BE1020082008207E205B
:10120300003E04204420442025FC290429040F0423
:10121300F104410401FC0104B0B41040102010207B
:1012230013FEFA02144410401BFE3088D0881108C4
:1012330010D01020105050882304BCFC2010201024
:101243003B7C211441FE7A14A27C2710F97C2510E3
:1012530025FE22102A10350028FE0000D0A31040DE
:101263001020102011FEFC00108831043A0254882B
:101273005088905010501020105010881306D7BC7F
:1012830001404120212023FE022016201BFC1220B6
:10129300222023FCE2202220222023FE220002001F
:1012A300B4A520202020782049FC91247D245524B6
:1012B30055247DFC552454207C28542457FE450294
:1012C3008C00C3FE1110111017FC1110FC0013F851
:1012D300120817F81A0833F8D04017FC10A01110A1
:1012E30052082406C9EE00000000000010000008A8
:1012F30000080C7FFC04401001C8A00218604230B3
:101303001832231812C30014030004030C047FF0E3
:10131300080F80080B4078136018332018631818DF
:10132300831C190308180300000300000000DBDA24
:1013330000000000000004100C04180C04108C04BE
:10134300108C04108C04108C04D08C3F108C04106F
:101353008C04108C04108C04108C04108C04108CDE
:1013630005F08C0E208C78208C20408C00808C0122
:10137300000C02000C000000CAD0000000000000B6
:1013830000300000180000180800001C1FFFE000D8
:10139300180000182007FFF0041820041820041870
:1013A30020041820041820041820041820041820EE
:1013B3000418200418E00418400018000018000066
:1013C3000000D6D000000000000000000000000074
:1013D3000018000018000018000018003FFFFE303E
:1013E30018063018063018063018063018063FFF66
:1013F300FE3018060018000018000018000018003E
:10140300001800000000000000000000CEC400002F
:1014130000000000000000003800001C000006006F
:10142300FFFFFF0600300600300300600300600189
:1014330080C000C18000E300003600001C0000777C
:101443000003C1E01E003C60000700000000000034
:10145300000000000000B2E20000000000000000F5
:101463000000000040000321FF333983331183332D
:10147300019B33C19B33719B33199B33019B330115
:101483009B33119B3319B333303033306C0330C685
:10149300036383032E01BE00000000000000000070
:1014A300CAD400000000000000000000000040005B
:1014B300D83000CE1800C21C00C001FFFF0000C0DE
:1014C300F800C01800C019FFC01818401818601998
:1014D30018601B18611E18311C1FB139F019100058
:1014E3000F000000000000000000D7D6000000003D
:1014F30000060000000300000000C0000001C0C09F
:10150300000107C00001FF00021FFE0007F01C00DE
:1015130007C070000F00E0000E03F0001C0FF00086
:101523003C0F70003C00E0001800C0000000C00049
:101533000000C00000006000000020000000370031
:101543000001FF00007FF80007F830001F80300023
:101553000080300000C03000006060000018E00030
:10156300000FC0000006000000000000CCE50000F2
:10157300000000000000000000C0000000E00020A8
:1015830001B800703FF80061FFC000C3030001C64B
:101593000600038C060003080C0006080C000E1856
:1015A300183F1E101BF31F903F0700803C1C019047
:1015B300707C019060FE01A0C3F801A00FD803A0C6
:1015C3000818036000180340001803C000180380C4
:1015D30000180300001800000018000000100000AD
:1015E3000030000000300000000000000000B2E204
:1015F30000000000000000000000000000000000E8
:10160300020C1008071FF80403BFF00201BC3003EB
:1016130003EC3003015C600300D8600300D860036F
:101623008098620361B8430771B1430631324306C0
:101633003376C3063A64C7063EECC0063E78C0065E
:101643003C3040067C70000678E060067BFFF006C5
:10165300F7C00006E4000006400000060000000694
:101663000000007C00008FF000007C000000000000
:10167300CAD40000000000000000000000000000C9
:101683003F0000007F8000000180000000C00000D8
:1016930000C0000000CE038000CFFFC000DD41800A
:1016A3000FFE0007FFFC000C00F000180FC03E19EE
:1016B300FF40F311BC6083307FE003B1FE200333AE
:1016C300802003700030036000100360001807C01F
:1016D300000C07C0000407800002010000030000A3
:1016E30000010000000000000000000000000000F6
:0216F3000000F5
:106B9500900017FEE0FCA3E0FD900016E02DFD90AF
:0D6BA5000015E03CFC90001BE0FAA3E0FBB3
:106BB20090001DEAF0A3EBF0126CDA90001DE0FEEB
:066BC200A3E0FF026D5E7E
:105C1F00900011E0FCA3E0FD90000FE0FAA3E0FB81
:105C2F00A3E0FFA3E090002FCFF0A3EFF09000864A
:105C3F00E0FFA3E0900031CFF0A3EFF090000DE074
:045C4F00FEA3E0FFD1
:0E5C5300900029EEF0A3EFF0A3ECF0A3EDF02B
:105C6100900029E0FEA3E0FFC3EB9FFFEA9ECF2453
:105C710001CF3400900037F0A3EFF090002BE0FE4D
:105C8100A3E0FFC3900030E09FFF90002FE09ECF84
:105C91002401CF3400900039F0A3EFF090002BE005
:105CA100FCA3E0FD90002FE0FFA3E0900047CFF0C0
:105CB100A3EFF0900029E0FEA3E0FF126A83E490D5
:105CC1000033F0A3F0900039E0FEA3E0FFC39000A1
:105CD10034E09F900033E09E5047E4900035F0A3FC
:105CE100F0900037E0FEA3E0FFC3900036E09F9004
:105CF1000035E09E501B900031E0FEA3E0FF126DE5
:105D01005E900036E004F070D8900035E004F08039
:105D1100D0900034E004F070AC900033E004F080E7
:105D2100A490008BE024FFFB90008AE034FFFA90FE
:105D3100008DE024FFFE90008CE034FF900047F0DE
:0B5D4100A3CEF0E4FDFCFFFE026A832D
:0E4EE00090000DEEF0A3EFF0A3ECF0A3EDF0C8
:104EEE00E4900017F0A3F0A3F0A3F090000DE0FE05
:104EFE00A3E0FFC3EB9FFFEA9E90001BF0A3EFF031
:104F0E0090000FE0FAA3E0FBC3900014E09BFE902C
:104F1E000013E09A90001DF0A3CEF090000DE0FF7C
:104F2E00A3E0900025CFF0A3EFF0A3EAF0A3EBF0FF
:104F3E0090001BE0FEA3E0FFD39400EE648094800B
:104F4E00400A900021E4F0A304F08021EF4E700897
:104F5E00900021F0A3F0801574FF900021F0A3F0D3
:104F6E00C3E49FFFE49E90001BF0A3EFF090001DA2
:104F7E00E0FEA3E0FFD39400EE64809480400A909C
:104F8E000023E4F0A304F08021EF4E70089000237C
:104F9E00F0A3F0801574FF900023F0A3F0C3E49FFC
:104FAE00FFE49E90001DF0A3EFF090001DE0FEA325
:104FBE00E0FF90001BE0FCA3E0FDD39FEE6480F8C1
:104FCE00EC64809890001F4007ECF0A3EDF0800594
:104FDE00EEF0A3EFF0E4900015F0A3F0900020E0C7
:104FEE002401FF90001FE03400FED3900016E09FD6
:104FFE00900015E09E40030250CA900025E0FEA3EB
:10500E00E0FFA3E0FCA3E0FD126BF490001BE0FEBA
:10501E00A3E0FF900018E02FF0900017E03EF09014
:10502E00001DE0FEA3E0FF90001AE02FF0900019A3
:10503E00E03EF090001FE0FEA3E0FF900017E0FCC2
:10504E00A3E0FDD39FEE6480F8EC6480984020EDE1
:10505E009FFFEC9E900017F0A3EFF0900021E0FE72
:10506E00A3E0FF900026E02FF0900025E03EF090A8
:10507E00001FE0FEA3E0FF900019E0FCA3E0FDD3CB
:10508E009FEE6480F8EC6480984020ED9FFFEC9ECC
:10509E00900019F0A3EFF0900023E0FEA3E0FF9044
:1050AE000028E02FF0900027E03EF0900016E0047C
:0C50BE00F07006900015E004F0024FEACC
:0150CA0022C3
:1064F700900005EAF0A3EBF0900001EEF0A3EFF0B7
:10650700A3ECF0A3EDF0C007A3E0FAA3E0FB900033
:1065170003E0FFA3E0900013CFF0A3EFF0D0071242
:106527004EE0900001E0FAA3E0FBFFAE02C007A334
:10653700E0FCA3E0FD900007E0FFA3E0900013CF8D
:10654700F0A3EFF0D007124EE0900007E0FCA3E0C5
:10655700FD900005E0FAA3E0FBA3E0FFA3E09000B5
:1065670013CFF0A3EFF0900001E0FEA3E0FF124E7F
:10657700E0900005E0FAA3E0FBFFAE02C007900041
:1065870003E0FCA3E0FD900007E0FFA3E090001309
:0A659700CFF0A3EFF0D007024EE0B2
:106C9300C007900007E0FFA3E090002FCFF0A3EF21
:106CA300F0900086E0FFA3E0900031CFF0A3EFF077
:056CB300D007025C5354
:1059B100900019F0A3EFF0900005E0FFA3E0900044
:0E59C1001BCFF0A3EFF0900001E0FEA3E0FF8B
:1059CF00900015ECF0A3EDF0900013EEF0A3EFF0C4
:1059DF00900017EAF0A3EBF02FFFEE3AA3126B98AB
:1059EF00900017E0FEA3E0FFC3900014E09FFF902C
:1059FF000013E09EFE900019126B99900017E0FEC5
:105A0F00A3E0FF900014E02FFF900013E03EFE9004
:105A1F000019E0FCA3E0FDC3900016E09DFD90008F
:105A2F0015E09C126BA9900017E0FEA3E0FFC39056
:105A3F000014E09FFF900013E09EFE900019E0FC21
:105A4F00A3E0FDC3900016E09DFD900015E09C12B1
:105A5F006BA9900019E0FEA3E0FF900014E02FFF68
:105A6F00900013E03E126B95900019E0FEA3E0FF4B
:105A7F00C3900014E09FFF900013E09E126B95906F
:105A8F000019E0FEA3E0FF900014E02FFF90001339
:105A9F00E03EFE900017E0FCA3E0FDC3900016E08F
:105AAF009DFD900015E09C126BA9900019E0FEA3DC
:105ABF00E0FFC3900014E09FFF900013E09EFE9064
:105ACF000017E0FCA3E0FDC3900016E09DFD9000E1
:0F5ADF0015E09CFC90001BE0FAA3E0FB026BB209
:104CEA00900001EEF0A3EFF0A3ECF0A3EDF0A3EA3D
:044CFA00F0A3EBF048
:104CFE00E490000BF0A3F0900007E0FEA3E0FF901D
:104D0E00000DEEF0A3EFF025E0FFEE33FEC37403CB
:104D1E009F900012F0E49E900011F0900009E07058
:104D2E0002A3E07003024E2D90000DE0FEA3E0FF03
:104D3E0090000BE0FCA3E0FDD39FEE6480F8EC64E2
:104D4E0080984003024EDF90000FECF0A3EDF09040
:104D5E00000DE0FEA3E0FFD3900010E09FEE648014
:104D6E00F890000FE0648098502B900003E0FCA3B5
:104D7E00E0FD90000BE0FAA3E0FB90000FE0FFA334
:104D8E00E0CF1259B1900010E004F070C290000F05
:104D9E00E004F080BA900011E0FCA3E0FDC3EC64E7
:104DAE00809480502390000BE0FEA3E07802C33382
:104DBE00CE33CED8F92DFFEC3ECF2406CF34009063
:104DCE000011F0A3EFF0804390000DE0FEA3E0FF92
:104DDE00C390000CE09FFF90000BE09EFEEF780268
:104DEE00C333CE33CED8F9FF900012E02FFF9000E0
:104DFE0011E03ECF240ACF3400F0A3EFF090000E66
:104E0E00E024FFF090000DE034FFF090000CE00481
:104E1E00F06003024D3690000BE004F0024D369028
:104E2E00000DE0FEA3E0FF90000BE0FAA3E0FBD341
:104E3E009FEE6480F8EA6480984003024EDF900093
:104E4E0003E0FCA3E0FDEE1259B1900011E0FCA3CB
:104E5E00E0FDC3EC64809480502390000BE0FEA331
:104E6E00E07802C333CE33CED8F92DFFEC3ECF24FB
:104E7E0006CF3400900011F0A3EFF0804390000DA8
:104E8E00E0FEA3E0FFC390000CE09FFF90000BE05C
:104E9E009EFEEF7802C333CE33CED8F9FF900012C8
:104EAE00E02FFF900011E03ECF240ACF3400F0A394
:104EBE00EFF090000EE024FFF090000DE034FFF0D4
:104ECE0090000CE004F0700690000BE004F0024E2F
:014EDE002DA6
:014EDF0022B0
:1068DF00900001EEF0A3EFF0A3ECF0A3EDF0A3EA2C
:1068EF00F0A3EBF0C007A3E0FFA3E0900013CFF0FD
:1068FF00A3EFF0D007124EE0900007E0FCA3E0FDFD
:10690F00A3E0FAA3E0FBA3E0FFA3E0900013CFF016
:10691F00A3EFF0900005E0FEA3E0FF124EE0900021
:10692F000BE0FCA3E0FD900001E0FAA3E0FBA3E085
:10693F00FFA3E0900013CFF0A3EFF0900009E0FE6B
:06694F00A3E0FF024EE090
:106A2C0090002C7401F0A37400F0A37407F07B01A8
:046A3C007A00790360
:0B6A4000900029EBF0A3EAF0A3E9F0BE
:106A4B001235DDFFAEF090002CE0FBA3E0FAA3E0E3
:106A5B00F91235DDFD900029E0FBA3E0FAA3E0F984
:106A6B00E5F08DF012360890002CE0FBA3E0FAA3C2
:086A7B00E0F9EE8FF00236088D
:1037AC00900001EEF0A3EFF0A3ECF0A3EDF0A3EA90
:0437BC00F0A3EBF09B
:1037C00090002112376F0000000090002512376F23
:1037D00000000000900007E0FEA3E0FF900003E07F
:1037E000FCA3E0D39FEC9E401A126A2C90002C742C
:1037F00001F0A37400F0A37405F07B017A00790155
:10380000126A4090000BE0FEA3E0FF900007E0FC8E
:10381000A3E0D39FEC9E402E90002C7401F0A37483
:1038200000F0A37407F07B017A00790B126A4090D4
:10383000002C7401F0A37400F0A37405F07B017AEE
:10384000007909126A40900007E0FEA3E0FF9000B3
:1038500003E0FCA3E0D39FEC9E401A126A2C900078
:103860002C7401F0A37400F0A37405F07B017A00BE
:103870007901126A4090000BE0FEA3E0FF90000384
:10388000E0FCA3E0FD6F7002EC6E6003023954901F
:103890000001E0FEA3E0FF90000FEEF0A3EFF09038
:1038A000000DEEF0A3EFF090000DE0FEA3E0FF901E
:1038B0000005E0FAA3E0FBC39FEA9E500A90000DCA
:1038C000EAF0A3EBF0801E90000FE0FEA3E0FFD330
:1038D000EB9FEA9E400F900005E0FFA3E090000FF1
:1038E000CFF0A3EFF090000DE0FEA3E0FF90000901
:1038F000E0FAA3E0FBC39FEA9E500A90000DEAF0B5
:10390000A3EBF0801E90000FE0FEA3E0FFD3EB9F3F
:10391000EA9E400F900009E0FFA3E090000FCFF077
:10392000A3EFF090000FE0FAA3E0FB900003E0FFAC
:10393000A3E090002FCFF0A3EFF0900086E0FFA36C
:10394000E0900031CFF0A3EFF090000DE0FEA3E097
:10395000FF025C53900001E0FAA3E0FB900005E059
:10396000FEA3E0C39BFFEE9A900015F0A3EFF0904A
:103970000003E0FEA3E0FF900007E0FCA3E0C39F8C
:10398000FFEC9E900017F0A3EFF0900009E0FEA37B
:10399000E0C39BFFEE9A900019F0A3EFF0900003B4
:1039A000E0FEA3E0FF90000BE0FCA3E0C39FFFEC70
:1039B0009E90001BF0A3EFF0900005E0FEA3E0FF57
:1039C000900009E0FCA3E0C39FFFEC9E90001DF077
:1039D000A3EFF0900007E0FAA3E0FB90000BE0FCFF
:1039E000A3E0FDC39BFEEC9A90001FF0A3CEF0EB8A
:1039F000B50510EAB5040C900007FFA3E090001392
:103A0000CF8010900007E0FEA3E024FFFFEE34FF1C
:103A1000900013F0A3EFF0900003E0FFA3E090000C
:103A200011CFF0A3EFF0900013E0FEA3E0FF9000B1
:103A300011E0FCA3E0D39FEC9E4003023B409000CA
:103A400017E0FEA3E0FBAA06EA3395E0F9F8900040
:103A500021E0FCA3E0FDA3E0FEA3E0FF126B1990C0
:103A60000001E0FCA3E02FFFEC3E90000DF0A3EF7F
:103A7000F090001BE0FEA3E0FBAA06EA3395E0F914
:103A8000F8900025E0FCA3E0FDA3E0FEA3E0FF1218
:103A90006B19900001E0FCA3E02FFFEC3E90000FBB
:103AA000F0A3EFF0900021E0F8A3E0F9A3E0FAA37F
:103AB000E0FB900015E0FEA3E0FFEE3395E0FDFC97
:103AC000EB2FFFEA3EFEE93DFDE83CFC90002112B1
:103AD0003763900025E0F8A3E0F9A3E0FAA3E0FB48
:103AE000900019E0FEA3E0FFEE3395E0FDFCEB2F24
:103AF000FFEA3EFEE93DFDE83CFC900025123763FD
:103B000090000FE0FEA3E0FF90000DE0FCA3E0D3E7
:103B10009FEC9E401790002C7401F0A37400F0A35A
:103B2000740FF07B017A00790D126A40125C1F90CD
:103B30000012E004F07006900011E004F0023A2652
:103B4000900007E0FEA3E0FF900011E0FAA3E0FB85
:103B5000C39FFFEA9EFE90001DE0FCA3E0FD12352E
:103B60004AE4FCFD900021123763900003E0FEA3BD
:103B7000E0FFC3EB9FFFEA9EFE900019E0FCA3E08C
:103B8000FD12354AE4FCFD90002512376390000BCE
:103B9000E0FEA3E0FF900011E0FCA3E0D39FEC9EC9
:103BA0004003023CA590001FE0FEA3E0FBAA06EA4A
:103BB0003395E0F9F8A3E0FCA3E0FDA3E0FEA3E069
:103BC000FF126B19900005E0FCA3E02FFFEC3E9084
:103BD000000DF0A3EFF090001BE0FEA3E0FBAA06AF
:103BE000EA3395E0F9F8900025E0FCA3E0FDA3E0BE
:103BF000FEA3E0FF126B19900001E0FCA3E02FFF91
:103C0000EC3E90000FF0A3EFF0900021E0F8A3E06D
:103C1000F9A3E0FAA3E0FB90001DE0FEA3E0FFEEB5
:103C20003395E0FDFCEB2FFFEA3EFEE93DFDE83C6D
:103C3000FC900021123763900025E0F8A3E0F9A37F
:103C4000E0FAA3E0FB900019E0FEA3E0FFEE33955D
:103C5000E0FDFCEB2FFFEA3EFEE93DFDE83CFC9079
:103C6000002512376390000FE0FEA3E0FF90000DE7
:103C7000E0FCA3E0D39FEC9E401790002C7401F071
:103C8000A37400F0A3740FF07B017A00790D126A1F
:103C900040125C1F900012E004F07006900011E0EA
:053CA00004F0023B8D61
:013CA50022FC
:104AD200F0900029E0900037F0900021E0FAA3E086
:014AE200FBD8
:104AE30090002DEEF0A3EFF0900031EAF0A3EBF08D
:084AF30090002FECF0A3EDF0A0
:104AFB00900086E0FFA3E090003BCFF0A3EFF09097
:104B0B000035E024E0F0A3E0F9C313FF7E00900032
:104B1B002DE0FAA3E02FFFEE3ACF24FFFBEF34FF9B
:104B2B00FAE9FFA3E0F8A3E02FFFEE38CF24FFCF85
:104B3B0034FF900047F0A3EFF090002DE0FEA3E0D0
:104B4B00FF126A83900037E06003024BF29000394A
:104B5B00F0900036E0FF900039E0FEC39F40030267
:104B6B004CB1EFB40C17900035E075F00CA4240396
:104B7B00F582E5F03400F583E5822E801A9000393A
:104B8B00E0FF900035E075F010A42477F582E5F096
:104B9B003404F583E5822FF582E43583F583E493C2
:104BAB00900038F0E490003AF0900036E0C313FF29
:104BBB0090003AE0C39F5026900038E030E005901B
:104BCB0000318003900033E0FEA3E0FF126D5E9096
:104BDB000038E0C313F090003AE004F080CB900073
:104BEB0039E004F0024B5CE4900039F0900036E0C1
:104BFB00FF900039E0FEC39F4003024CB1EFB40CB1
:104C0B0017900035E075F00CA42403F582E5F03421
:104C1B0000F583E5822E801A900039E0FF90003575
:104C2B00E075F010A42477F582E5F03404F583E504
:104C3B00822FF582E43583F583E493900038F0E41A
:104C4B0090003AF0900036E0C313FF90003AE0FE7C
:104C5B00C39F5049900031E0FDA3E0900086CDF05A
:104C6B00A3EDF0900038E030E024EEFF90002EE052
:104C7B002FFF90002DE03400FE900039E0FD9000F6
:104C8B0030E02DFD90002FE03400FC126BF490000F
:104C9B0038E0C313F090003AE004F080A79000399D
:104CAB00E004F0024BF790003BE0FFA3E09000869E
:104CBB00CFF0A3EFF090008BE024FFFB90008AE095
:104CCB0034FFFA90008DE024FFFE90008CE034FF5F
:0F4CDB00900047F0A3CEF0E4FDFCFFFE026A83D9
:10637900900005EEF0A3EFF0A3ECF0A3EDF0A3EB92
:10638900F090000AE0FBA3E0FAA3E0F9123504FF5C
:10639900D3947E400302643AEFC39420500302640D
:1063A9003A90008BE024FFFD90008AE034FFFC90D6
:1063B9000005E0FEA3E0FFD39DEE9C507490008D94
:1063C900E024FFFB90008CE034FFFA900007E0FC2A
:1063D900A3E0FDD39BEC9A5058900088E0FBA3E022
:1063E900900033CBF0A3EBF090000AE0FBA3E0FAB6
:1063F900A3E0F9123504900035F0900009E090000F
:1064090036F090000DE0900037F0900086124ADED9
:10641900900009E0C313FF900006E02FF0900005FB
:10642900E03400F090000BE475F0011235B102631D
:026439008A22B5
:086AD0009000BEEFF0A3EDF011
:106AD800A312376F000000019000BFE0FF14F0EF31
:106AE8006020A3E0F8A3E0F9A3E0FAA3E0FB90009C
:106AF800BEE0FFE4FCFDFE1236279000C0123763AB
:106B080080D69000C0E0FCA3E0FDA3E0FEA3E0FF78
:016B1800225A
:0E5E64009000A7EEF0A3EFF0A3ECF0A3EDF09A
:105E7200E49000B3F09000B1F09000AFE0FF90002A
:105E8200B1E0FEC39F4003025F74C3EF9E14FD7F27
:105E92000A126AD0A804A905AA06AB079000ABE0D3
:105EA200FCA3E0FDA3E0FEA3E0FF1236B2E47B0A0E
:105EB200FAF9F81236B29000B2EBF0A3E070579004
:105EC20000AFE014FF9000B1E0FEC39F5048A3E092
:105ED200703E9000B0E0F9C3138EF0A4FF9000A8CA
:105EE200E02FFF9000A7E035F0FEC0079000A9E088
:105EF200FCA3E0FD900086E0FAA3E0FB900088E0BE
:105F0200FFA3E0900033CFF0A3EFF0A37420804D05
:105F12009000B37401F09000B0E0F9C313FFA3E066
:105F2200FEEF8EF0A4FF9000A8E02FFF9000A7E004
:105F320035F0FEC0079000A9E0FCA3E0FD900086CA
:105F4200E0FAA3E0FB900088E0FFA3E0900033CFEB
:105F5200F0A3EFF09000B2E02430900035F0A3E916
:105F6200F0E4A3F0D007124AE39000B1E004F0029B
:025F72005E7B54
:015F7400220A
:1041C70090002FECF0A3EDF0A3EAF0A3EBF0900042
:0641D7002DEEF0A3EFF055
:1041DD0090003FEEF0A3EFF090003DE4F0A37440AB
:1041ED00F0E490003BF0A3F090003DE0FEA3E0FF73
:1041FD0090003BE0FCA3E0FDC39FEC9E4003024317
:10420D00E0900035E0FBA3E0FAA3E0F9123504FFDE
:10421D00900A6775F022ED1237A0EC75F022A425F7
:10422D0083F583E4936F60030243CF900001123551
:10423D001DFF90003BA3E0900A6875F0221237A095
:10424D00EC75F022A42583F583E4936F600302439C
:10425D00CF90002DE0FAA3E0FBFFAE02C006C00731
:10426D00A3E0FCA3E0FDEB240FFBE43AFA90002F52
:10427D00E0FEA3E0240FFFE43E900047F0A3EFF033
:10428D00D007D006126A83E4900039F0E490003A2A
:10429D00F090003AE0FFC3940840030243C0900041
:1042AD0038E0705AA3E0FE90003BE0FCA3E0900ADA
:1042BD006975F0221237A0EC75F022A42583F583E1
:1042CD00E5822EF582E43583F583E493FD3395E0A5
:1042DD00FC74807E00A807088006CEA2E713CE13DB
:1042ED00D8F8FFEE5CFEEF5D4E6005900031800367
:1042FD00900033E0FEA3E0FF126D5E0243B7900025
:10430D0031E0FFA3E0900086CFF0A3EFF0900039ED
:10431D00E0FF90003BE0FCA3E0900A6975F02212EB
:10432D0037A0EC75F022A42583F583E5822FF58265
:10433D00E43583F583E493FD3395E0FC90003AE09A
:10434D00FF74807E00A807088006CEA2E713CE1367
:10435D00D8F8FFEE5CFEEF5D4E601190002DE0FE93
:10436D00A3E0FFA3E0FCA3E0FD126BF490002EE0B0
:10437D0004F0700690002DE004F090003FE0FEA3E5
:10438D00E0FFC390002EE09FFD90002DE09EFCED20
:10439D0064104C7015EEF0A3EFF0900030E004F0D7
:1043AD00701190002FE004F0800990003AE004F0C5
:1043BD0002429E900039E004F0E0C39420500302C5
:1043CD00429990003CE004F0700690003BE004F050
:1043DD000241F590008BE024FFFB90008AE034FF52
:1043ED00FA90008DE024FFFE90008CE034FF9000E9
:0D43FD0047F0A3CEF0E4FDFCFFFE026A8352
:10440A0090002FECF0A3EDF0A3EAF0A3EBF09000FC
:06441A002DEEF0A3EFF00F
:1044200090003FEEF0A3EFF090003DE4F0A374079E
:10443000F0E490003BF0A3F090003DE0FEA3E0FF2D
:1044400090003BE0FCA3E0FDC39FEC9E40030246CE
:1044500023900035E0FBA3E0FAA3E0F9123504FF56
:104460009012E775F04AED1237A0EC75F04AA425DA
:1044700083F583E4936F60030246129000011235C6
:104480001DFF90003BA3E09012E875F04A1237A0A0
:10449000EC75F04AA42583F583E4936F600302462C
:1044A0001290002DE0FAA3E0FBFFAE02C006C007A9
:1044B000A3E0FCA3E0FDEB2417FBE43AFA90002F05
:1044C000E0FEA3E02417FFE43E900047F0A3EFF0E6
:1044D000D007D006126A83E4900039F0E490003AE5
:1044E000F090003AE0FFC3940840030246039000B6
:1044F00038E0705AA3E0FE90003BE0FCA3E090128D
:10450000E975F04A1237A0EC75F04AA42583F583CB
:10451000E5822EF582E43583F583E493FD3395E05F
:10452000FC74807E00A807088006CEA2E713CE1395
:10453000D8F8FFEE5CFEEF5D4E6005900031800321
:10454000900033E0FEA3E0FF126D5E0245FA90009A
:1045500031E0FFA3E0900086CFF0A3EFF0900039A8
:10456000E0FF90003BE0FCA3E09012E975F04A12F6
:1045700037A0EC75F04AA42583F583E5822FF582F8
:10458000E43583F583E493FD3395E0FC90003AE055
:10459000FF74807E00A807088006CEA2E713CE1322
:1045A000D8F8FFEE5CFEEF5D4E601190002DE0FE4E
:1045B000A3E0FFA3E0FCA3E0FD126BF490002EE06B
:1045C00004F0700690002DE004F090003FE0FEA3A0
:1045D000E0FFC390002EE09FFD90002DE09EFCEDDB
:1045E00064184C7015EEF0A3EFF0900030E004F08A
:1045F000701190002FE004F0800990003AE004F080
:104600000244E1900039E004F0E0C3944850030212
:1046100044DC90003CE004F0700690003BE004F0C5
:1046200002443890008BE024FFFB90008AE034FFC6
:10463000FA90008DE024FFFE90008CE034FF9000A3
:0D46400047F0A3CEF0E4FDFCFFFE026A830C
:10464D0090002FECF0A3EDF0A3EAF0A3EBF09000B7
:06465D002DEEF0A3EFF0CA
:1046630090003FEEF0A3EFF090003DE4F0A374045C
:10467300F0E490003BF0A3F090003DE0FEA3E0FFE8
:1046830090003BE0FCA3E0FDC39FEC9E4003024887
:1046930066900035E0FBA3E0FAA3E0F9123504FFCE
:1046A3009014ED75F082ED1237A0EC75F082A4251D
:1046B30083F583E4936F600302485590000112353C
:1046C3001DFF90003BA3E09014EE75F0821237A01B
:1046D300EC75F082A42583F583E4936F60030248AD
:1046E3005590002DE0FAA3E0FBFFAE02C006C00721
:1046F300A3E0FCA3E0FDEB241FFBE43AFA90002FB8
:10470300E0FEA3E0241FFFE43E900047F0A3EFF098
:10471300D007D006126A83E4900039F0E490003A9F
:10472300F090003AE0FFC39408400302484690002B
:1047330038E0705AA3E0FE90003BE0FCA3E0901445
:10474300EF75F0821237A0EC75F082A42583F58310
:10475300E5822EF582E43583F583E493FD3395E01A
:10476300FC74807E00A807088006CEA2E713CE1350
:10477300D8F8FFEE5CFEEF5D4E60059000318003DC
:10478300900033E0FEA3E0FF126D5E02483D90000F
:1047930031E0FFA3E0900086CFF0A3EFF090003963
:1047A300E0FF90003BE0FCA3E09014EF75F0821271
:1047B30037A0EC75F082A42583F583E5822FF5827B
:1047C300E43583F583E493FD3395E0FC90003AE010
:1047D300FF74807E00A807088006CEA2E713CE13DD
:1047E300D8F8FFEE5CFEEF5D4E601190002DE0FE09
:1047F300A3E0FFA3E0FCA3E0FD126BF490002EE026
:1048030004F0700690002DE004F090003FE0FEA35A
:10481300E0FFC390002EE09FFD90002DE09EFCED95
:1048230064204C7015EEF0A3EFF0900030E004F03C
:10483300701190002FE004F0800990003AE004F03A
:10484300024724900039E004F0E0C394805003024F
:10485300471F90003CE004F0700690003BE004F03A
:1048630002467B90008BE024FFFB90008AE034FF3C
:10487300FA90008DE024FFFE90008CE034FF90005E
:0D48830047F0A3CEF0E4FDFCFFFE026A83C7
:103CA60090001FECF0A3EDF0A3EAF0A3EBF0900078
:063CB6001DEEF0A3EFF08B
:103CBC0090002AEEF0A3EFF0E4A3F0900025E0FBD7
:103CCC00A3E0FAA3E0F91235047003023F4690001A
:103CDC002CE06003023E08900028E0FFC313FDC3F4
:103CEC0090008BE09DFD90008AE09400FCD3900046
:103CFC001EE09D90001DE09C4003023F46C39000D7
:103D0C008DE09FFF90008CE09400FE90001FE0FC83
:103D1C00A3E0FDD39FEC9E4003023F46900025E0BC
:103D2C00FBA3E0FAA3E0F9123504FFD3948040081A
:103D3C0090002C7401F08083EFB40D2E900028E0DD
:103D4C00FF900020E02FF090001FE03400F0900076
:103D5C002AE0FFA3E090001DCFF0A3EFF090002627
:103D6C00E475F0011235B1023DFB900028E0D394CC
:103D7C001090001DE0FEA3E0FF402F900023E0FB1D
:103D8C00A3E0900033CBF0A3EBF0900025E0FBA375
:103D9C00E0FAA3E0F9123504900035F0A374101288
:103DAC004AD290001EE02408803DA3E0FCA3E0FD75
:103DBC00900023E0FBA3E0900033CBF0A3EBF0905A
:103DCC000025E0FBA3E0FAA3E0F9123504900035DE
:103DDC00F0900028E0900036124AD2900028E0C300
:103DEC0013FF90001EE02FF090001DE03400F090C7
:103DFC000026E475F0011235B1023CC7900028E0B2
:103E0C00F9FF7E00C390008BE09FFD90008AE09E3E
:103E1C00FCD390001EE09D90001DE09C4003023FEF
:103E2C0046C390008DE09FFF90008CE09EFE9000BA
:103E3C001FE0FCA3E0FDD39FEC9E4003023F46E451
:103E4C0090002CF0E9B4204290001DE0FEA3E0FFAE
:103E5C00900023E0FBA3E0900033CBF0A3EBF090B9
:103E6C000025E0F9A3E0FAA3E0900035C9F0A3EA3D
:103E7C00F0A3E9F0900029E0900038F0900021E0E8
:103E8C00FAA3E0FB12464D023F27900028E064188D
:103E9C0090001D7044E0FEA3E0FFA3E0FCA3E0FD56
:103EAC00900023E0FBA3E0900033CBF0A3EBF09069
:103EBC000025E0F9A3E0FAA3E0900035C9F0A3EAED
:103ECC00F0A3E9F0900029E0900038F0900021E098
:103EDC00FAA3E0FB12440A8042E0FEA3E0FFA3E059
:103EEC00FCA3E0FD900023E0FBA3E0900033CBF0BB
:103EFC00A3EBF0900025E0F9A3E0FAA3E0900035E5
:103F0C00C9F0A3EAF0A3E9F0900029E0900038F0A2
:103F1C00900021E0FAA3E0FB1241C7900026E47563
:103F2C00F0021235B1900028E0FF90001EE02FF057
:0A3F3C0090001DE03400F0023CC7C5
:013F46002258
:10664600900010EEF0A3EFF0A3ECF0A3EDF0A3EAB8
:04665600F0A3EBF0D2
:10665A00900018E0FBA3E0FAA3E0F9126D73EF785B
:10666A0003C333CE33CED8F9FFC390008BE09FFF2C
:10667A0090008AE09EC313FEEF13FF900011E02FF3
:10668A00FF900010E03EFE900012E0FCA3E0FD90B7
:10669A000016E0FBA3E0900023CBF0A3EBF0900000
:1066AA0018E0F9A3E0FAA3E0900025C9F0A3EAF004
:1066BA00A3E9F090001BE0900028F090001CE09005
:0E66CA000029F0900014E0FAA3E0FB023CA6C9
:10604A0090000DEEF0A3EFF0900011EBF0A3EAF050
:0B605A00A3E9F090000FECF0A3EDF0C4
:1060650090000DE0FAA3E0FFAE02C006C0072427AA
:10607500FBE43AFAA3E0FEA3E02427FFE43E900008
:1060850047F0A3EFF0D007D006126A83E49000141E
:10609500F0A3F0900015E025E0FF900014E033FE3A
:1060A500900011E0FBA3E0FAA3E0F98F828E831242
:1060B500351D900017F0E92FF9EA3EFA900001121C
:1060C500351D900016F0FEA3E0FDEDFF126D5E900C
:1060D5000015E004F07006900014E004F0C3900091
:1060E50015E09440900014E06480948640A59000EB
:1060F5008BE024FFFB90008AE034FFFA90008DE0EE
:1061050024FFFE90008CE034FF900047F0A3CEF012
:08611500E4FDFCFFFE026A83B9
:106C4700E4FDFCC3ED9FEE6480F8EC64809850157A
:106C5700E4FBFA0BBB00010ABA03F8BBE8F50DBD6C
:056C670000010C80DEBD
:016C6C002205
:106C6D00E4FDFCC3ED9FEE6480F8EC648098501554
:106C7D00E4FBFA0BBB00010AEB64014A70F50DBD94
:056C8D0000010C80DE97
:016C920022DF
:030000000266D8BD
:0C66D800787FE4F6D8FD75810702671F8B
:106B5D0056583A0056793A004348583A0043485936
:106B6D003A0041646A757374204F4B2100546F7560
:106B7D00636820416E79776865726520546F204394
:086B8D006F6E74696E756500FE
:106BD5004200A33D054200A52BD54200970F324246
:046BE50000990154BE
:066DBE00A2C0E433FF2235
:096DA400D2B7D2B6D2B4D2B622A5
:106D1400E4FEC2B6EF25E0FF92B4C2B6000000D292
:096D2400B60000000EEEB408EB0D
:016D2D002243
:106CB800E4FDFFFEEF25E0FFEE33FED2B600000054
:106CC800C2B600000030B504EF4401FF0DEDB40C6E
:016CD800E3D8
:016CD9002298
:106D4700C2B7126D14D2B600000000C2B600000030
:066D570000126CB8D2B777
:016D5D002213
:02571100A907E6
:10571300E490003CF0A3F0FBFAAF01126D47AC0636
:10572300AD07EB25E0FFEA33FE741E2FF58274000C
:105733003EF583ECF0A3EDF00BBB00010AEB640F25
:105743004A70D6E4FAFBEB2401FEE43A90001CF025
:10575300A3CEF090001CE0FEA3E0FFC3940FEE94F1
:1057630000400302580DEF25E0FFEE33FE741E2FB9
:10577300F58274003EF583E0FCA3E0FDEB25E0FF3A
:10578300EA33FE741E2FF58274003EF583E0FEA318
:10579300E0FFD39DEE9C405E90003EEEF0A3EFF061
:1057A30090001DE025E0FF90001CE033FE741E2FE7
:1057B300F58274003EF583E0FCA3E0FDEB25E0FFFA
:1057C300EA33FE741E2FF58274003EF583ECF0A3DA
:1057D300EDF090003EE0FCA3E0FD90001DE025E02D
:1057E300FF90001CE033FE741E2FF58274003EF51B
:1057F30083ECF0A3EDF090001DE004F0600302578A
:105803005690001CE004F00257560BBB00010AEB54
:10581300640E4A6003025749E490003CF0A3F0FA97
:105823007B05EB25E0FFEA33FE741E2FF58274003F
:105833003EF583E0FEA3E0FF90003DE02FF09000F3
:105843003CE03EF00BBB00010AEB640A4A70D390C4
:10585300003CE0FEA3E0FF7C007D0512355CA3EE77
:04586300F0A3EFF0CF
:01586700221E
:0B69C900900014EBF0A3EAF0A3E9F04B
:1069D4007FD012571190001AEEF0A3EFF07F9012BF
:1069E4005711C390001BE0946490001AE094004097
:1069F40008EF9464EE940050037F002290001AE0A4
:106A0400F9A3E0FD900014E0FBA3E0FAA3E0C98D34
:106A1400F0123608900017E0FBA3E0FAA3E0F9EEC9
:076A24008FF01236087F011C
:016A2B002248
:0B5AEE00900006EBF0A3EAF0A3E9F043
:105AF9009000177401F0A37400F0A3740EF07B01F9
:105B09007A00790C1269C9EF7002FF2290001774AC
:105B190001F0A37400F0A37412F07B017A007910EC
:105B29001269C9EF7002FF2290000CE0FEA3E0FFAA
:105B3900900010E0FCA3E0FDD39FEC9E500EED24F5
:105B490014FDE43CFCC3EF9DEE9C402A900010E05C
:105B5900FEA3E0FF90000CE0FCA3E0FDD39FEC9EC8
:105B69004003025C1CED2414FDE43CFCC3EF9DEEF4
:105B79009C4003025C1C90000EE0FEA3E0FF900035
:105B890012E0FCA3E0FDD39FEC9E500EED2414FD22
:105B9900E43CFCC3EF9DEE9C4024900012E0FEA380
:105BA900E0FF90000EE0FCA3E0FDD39FEC9E506364
:105BB900ED2414FDE43CFCC3EF9DEE9C5055900090
:105BC90010E0FEA3E0FF90000DE02FFF90000CE035
:105BD9003EC313F9EF13FF900006E0FBA3E0FAA31D
:105BE900E0C98FF0123608900012E0FEA3E0FF90A2
:105BF900000FE02FFF90000EE03EC313F9EF13FFF3
:105C0900900009E0FBA3E0FAA3E0C98FF01236087F
:055C19007F01227F0065
:015C1E002263
:10686400E49000C4F09000C4E0706A9000097401E0
:10687400F0A37400F0A374A1F07B017A00799F1255
:106884005AEEEF60E67F0A7E00126C4790000974AE
:1068940001F0A37400F0A374C7F07B017A0079C5FA
:1068A400125AEEEF60E69000C5E0FEA3E0FF900010
:1068B4009FE0B506B0A3E0B507AB9000C7E0FEA328
:1068C400E0FF9000A1E06E7003A3E06F709790006A
:0A68D400C404F080909000C4E0FFBF
:0168DE002297
:105D4C009000C9EEF0A3EFF0A3ECF0A3EDF09000FF
:105D5C008674F8F0A3E4F09000C9E0FAA3E0FB2409
:105D6C00F4FFEA34FFFEC007EB240DFBE43AFAA380
:105D7C00E0FFA3E0900013CFF0A3EFF0D007124E9A
:105D8C00E09000C9E0FAA3E0FBFFAE02C006C0073A
:105D9C009000CCE024F4FD9000CBE034FFFCE0FE5E
:105DAC00A3E0240DFFE43E900013F0A3EFF0D00726
:105DBC00D006124EE09000CAE02401FF9000C9E02A
:105DCC003400FE9000CCE02401FD9000CBE03400C8
:105DDC00FC126BF49000CAE024FFFF9000C9E03481
:105DEC00FFFE9000CCE02401FD9000CBE03400FCE1
:105DFC00126BF49000CAE02401FF9000C9E034005B
:105E0C00FE9000CCE024FFFD9000CBE034FFFC12B0
:105E1C006BF49000CAE024FFFF9000C9E034FFFE51
:105E2C009000CCE024FFFD9000CBE034FFFC126B23
:105E3C00F49000C9E0FEA3E0FFA3E0FCA3E0FD901A
:105E4C000086E0FAA3E0FB900007E4F0A37406F0F0
:085E5C00E4A3F0A3F0024CEAFC
:10695500900005EEF0A3EFF0A3ECF0A3EDF0AF038C
:10696500900086EAF0A3EFF0900005E0FEA3E0FFBB
:10697500126BF4900006E02401FF900005E034005E
:10698500FE900007E0FCA3E0FD126BF4900005E02B
:10699500FEA3E0FF900008E02401FD900007E0342D
:1069A50000FC126BF4900006E02401FF900005E066
:1069B5003400FE900008E02401FD900007E034005B
:0469C500FC026BF471
:10586800E4900005F07B0190000904F0A37400F0B7
:10587800A374A1F07A00799F125AEEEF70030259CF
:10588800659000057401F0900097E0FEA3E0FFD357
:105898009000A0E09F90009FE09E400BAB07AA06F7
:1058A800E0FEA3E0FF801390009FE0FEA3E0FBAAC8
:1058B80006900097E0FEA3E0FFC3EF9BFFEE9AFE81
:1058C800E49400FDE49400FCE47BE87A03F9F81220
:1058D8003627C006C0079000A3E0FEA3E0FBAA0697
:1058E800E4F9F8D007D0061236B290009BEEF0A388
:1058F800EFF0900099E0FEA3E0FFD39000A2E09FB4
:105908009000A1E09E400BAB07AA06E0FEA3E0FFD3
:1059180080139000A1E0FEA3E0FBAA06900099E0A6
:10592800FEA3E0FFC3EF9BFFEE9AFEE49400FDE4C4
:105938009400FCE47BE87A03F9F8123627C006C025
:10594800079000A5E0FEA3E0FBAA06E4F9F8D0075B
:10595800D0061236B290009DEEF0A3EFF090008BC7
:10596800E024FFFF90008AE034FFFE90009BE0FCFB
:10597800A3E0FDC3EF9DFFEE9C90009BF0A3EFF02A
:1059880090008DE024FFFF90008CE034FFFE900033
:105998009DE0FCA3E0FDC3EF9DFFEE9C90009DF011
:0859A800A3EFF0900005E0FF01
:0159B00022D4
:1025F700E4900085F0F0900086F0A3741FF074FF5C
:10260700900088F0A3F0FFFE12676490008674F8CC
:10261700F0A3E4022D3320C0FD126864EF604290FE
:10262700009FE0FEA3E0FFE4FCFD900085E0FB7562
:10263700F008A42465F582E43400F583123763902B
:1026470000A1E0FEA3E0FFE4FCFDEB75F008A42485
:1026570069F582E43400F583123763900085E0045E
:10266700F0900085E024FE602914604514606B2417
:102677000370A374FFFFFE12676430C0FD90008BE8
:10268700E024CDFF90008AE034FFFE7D327C00021B
:102697002D4374FFFFFE12676430C0FD90008DE08C
:1026A70024CDFD90008CE034FFFC7F327E00022DAC
:1026B7004374FFFFFE12676430C0FD90008BE02477
:1026C700CDFF90008AE034FFFE90008DE024CDFD21
:1026D70090008CE034FFFC022D4374FFFFFE12676D
:1026E7006430C0FD900065E0FCA3E0FDA3E0FEA31D
:1026F700E0FF90006DE0F8A3E0F9A3E0FAA3E0FBA8
:10270700D31237524034900065E0F8A3E0F9A3E014
:10271700FAA3E0FB90006DE0FCA3E0FDA3E0FEA3BD
:10272700E09BFFEE9AFEED99FDEC98FCEF2401FF8C
:10273700E43EFEE43DFDE43C803690006DE0F8A306
:10274700E0F9A3E0FAA3E0FB900065E0FCA3E0FD5D
:10275700A3E0FEA3E0C39BFFEE9AFEED99FDEC9884
:10276700FCEF24FFFFEE34FFFEED34FFFDEC34FFFA
:10277700FCE47BE87A03F9F8123627C006C0079015
:10278700008BE0249CFF90008AE034FFAB07FAE45B
:10279700F9F8D007D0061236B2E412334F90004949
:1027A700123763900065E0FCA3E0FDA3E0FEA3E021
:1027B700FF90006DE0F8A3E0F9A3E0FAA3E0FBD3F4
:1027C700123752E4FFFE7D487C42900049E0F8A3AF
:1027D700E0F9A3E0FAA3E0FB401A12313CE4FBFA6C
:1027E700797A7844123245C004C005C006C0079004
:1027F700006D801812313CE4FBFA797A7844123282
:1028070045C004C005C006C007900065E0FCA3E012
:10281700FDA3E0FEA3E0FFE412334FD003D002D0C4
:1028270001D00012304B12338D900059EEF0A3EF18
:10283700F0900069E0FCA3E0FDA3E0FEA3E0FF90B9
:102847000079E0F8A3E0F9A3E0FAA3E0FBD312379D
:1028570052401D900069E0F8A3E0F9A3E0FAA3E075
:10286700FB900079E0FCA3E0FDA3E0FEA3E0801C61
