:020000040800F2
:10000000E017002045390008990B00089B0B0008F9
:100010009F0B0008A30B0008A70B000800000000BE
:10002000000000000000000000000000AB0B000812
:10003000AD0B000800000000AF0B0008B10B00087A
:100040005F3900085F3900085F3900085F39000830
:100050005F3900085F3900085F3900085F39000820
:100060005F3900085F3900085F3900085F39000810
:100070005F3900085F3900085F3900085F39000800
:100080005F3900085F3900085F3900085F390008F0
:100090005F3900085F3900085F3900085F390008E0
:1000A0005F3900085F3900085F3900085F390008D0
:1000B0005F3900085F3900085F3900085F390008C0
:1000C0005F3900085F3900085F3900085F390008B0
:1000D0005F390008B93800085F3900085F39000847
:1000E0005F3900085F3900085F3900085F39000890
:1000F0005F3900085F3900085F3900085F39000880
:100100005F3900085F3900085F3900085F3900086F
:100110005F3900085F3900085F3900085F3900085F
:100120005F3900085F3900085F3900085F3900084F
:1001300000F002F800F03AF80AA090E8000C8244BF
:100140008344AAF10107DA4501D100F02FF8AFF29C
:10015000090EBAE80F0013F0010F18BFFB1A43F0A5
:1001600001031847B4680000D4680000103A24BFA7
:1001700078C878C1FAD8520724BF30C830C144BF0C
:1001800004680C607047000000230024002500264E
:10019000103A28BF78C1FBD8520728BF30C148BFEA
:1001A0000B6070471FB51FBD10B510BD04F07AFB82
:1001B0001146FFF7F7FF00F0DFFB04F098FB03B4F4
:1001C000FFF7F2FF03BC03F019FB000001464B7878
:1001D000303B0A7803EB021213028A78303A03EBC1
:1001E0000213CA78303A1A4490B270472DE9FC41A4
:1001F000502532244FF47840FE490880FEA010219B
:10020000CDE900102146102364220A2001F028F9CC
:100210004FF6FF7004F1100305F1640221460090CF
:10022000284601F00FFB00260EE001201021F44BC0
:10023000CDE900109B5DA3F13002A1B2A8B2012369
:1002400001F02CFC0935761CEE4800788642ECDB88
:10025000BDE8FC812DE9FC4104468846032094FB5F
:10026000F0F100FB1140E8490978891C484386B247
:10027000032094FBF0F0E4490978891C484387B2D5
:1002800006F1140086B207F1460087B20C250C2C4B
:1002900010DADD48CDF8008000783844401E83B283
:1002A000D94800783044401E82B23946304601F0C9
:1002B000C9FA9EE00C2C01D00D2CFAD1D34800785D
:1002C00008283ED1D2480088A5F10C0101EBC103FA
:1002D00003EB01115F2303EB810114318AB2A5F115
:1002E0000C0101EBC10303EB0111142303EB8101AA
:1002F000009088B240F28F134FF4AF7101F0A2FA70
:10030000681C85B2C3480088A5F10C0101EBC1034C
:1003100003EB01115F2303EB810114318AB2A5F1D4
:100320000C0101EBC10303EB0111142303EB810169
:10033000009088B240F28F134FF4AF7101F082FA4F
:100340003DE0B4480088A5F10C0101EBC10303EBCB
:1003500001115F2303EB810114318AB2A5F10C0175
:1003600001EBC10303EB0111142303EB81010090A6
:1003700088B240F28F134FF4AF7101F063FA681C3A
:1003800085B2A3480088A5F10C0101EBC10303EB82
:1003900001115F2303EB810114318AB2A5F10C0135
:1003A00001EBC10303EB0111142303EB8101009066
:1003B00088B240F28F134FF4AF7101F043FA9648C0
:1003C00000888C49088095A010210B463222CDE987
:1003D000001040F26D112D2001F042F891A0102183
:1003E0000B463222CDE9001040F26D118E2001F053
:1003F00037F8894800887F4908800A2C0EDA0120E6
:10040000102107F11402CDE9001091B206F1190292
:1004100090B20123224601F041FB20E00A2C0ED1CC
:1004200082A0102107F11402CDE9001091B206F16B
:100430000A0290B21023322201F012F80FE00B2CC6
:100440000DD17CA0102107F11402CDE9001091B26A
:1004500006F1140290B21023642201F001F8BDE805
:10046000FC811CB54FF6FF7001F02DF81F2061498B
:10047000088071A01021CDE900107049C988183991
:1004800088B21023C822002100F0EAFF4FF4784020
:10049000584908801CBD1FB54FF6FF706849088099
:1004A0004FF478405349088064480078002832D1DE
:1004B00064A010210B46C822CDE9001002210020C3
:1004C00000F0CEFF5D49488902A903F063F902A854
:1004D00010210B46C822CDE900100221322000F085
:1004E000BFFF5648407801280AD157A010210B467B
:1004F000C822CDE900100221642000F0B1FFCAE05B
:1005000053A010210B46C822CDE90010022164201F
:1005100000F0A6FFBFE04FF6FF702323EF2200217B
:100520000090084601F08EF9022264214A4801F049
:100530003EFD01226621494801F039FD48A0102105
:100540000B46C822CDE900100221002000F088FFF0
:1005500002A94148008803F01DF902A810210B46AA
:10056000C822CDE9001002213C2000F079FF3B4871
:10057000007801280DD110202449087032A01021E4
:100580000B46C822CDE900100221642000F068FF6C
:100590000CE008201D4908702DA010210B46C82230
:1005A000CDE900100221642000F05AFF002011491B
:1005B00008802DA010210B46C822CDE9001016217D
:1005C000002000F04DFF1D49488902A903F0E2F820
:1005D00002A810210B46C822CDE9001016213C20AC
:1005E00000F03EFF15484078012849D116A010219F
:1005F0000B463DE02A0000205345542049433A0071
:1006000098000020040000200300002005000020C6
:1006100006000020080000200A000020384249544B
:10062000000000003136424954000000434C45416F
:10063000520000004F4B000052535400A200002013
:100640002C00002049443A003136204269740000F1
:1006500038204269740000000E00002010000020C5
:100660005345543A49440000546869733A49440078
:10067000C822CDE900101621642000F0F1FE0AE046
:10068000AFF2340010210B46C822CDE9001016212C
:10069000642000F0E5FE1FBD70B50025142410E0B5
:1006A000002506E02146284601F057FA05F128000A
:1006B00085B2FE48C0882738A842F3DC04F1280040
:1006C00084B2FA4800892738A042E9DC70BD2DE9E0
:1006D000F843F748007809287BD2DFE800F0050EE0
:1006E00012171C21252A4A004FF6FF7000F0EBFE7E
:1006F000FFF7D1FEFFF7D0FF6BE0002000F0E3FE34
:1007000067E04FF6FF7000F0DEFE62E04FF47840E5
:1007100000F0D9FE5DE04FF4FC6000F0D4FE58E03C
:100720001F2000F0D0FE54E042F6A91000F0CBFEEE
:100730004FE000250027DD490889C11700EBD16192
:100740004E11002412E0B819401E83B2D74800951C
:10075000C088401E82B23946002001F073F805F6C9
:10076000410085B2B81987B2601C84B2202CEADB44
:100770002FE04FF00009002426E04D46B9F1000FAC
:1007800002D14FF6FF7901E04FF000094FF0000869
:1007900013E004F1270083B208F1270082B221465A
:1007A0004046009501F04EF815B94FF6FF7500E090
:1007B000002508F128001FFA80F8BC48C088404591
:1007C000E7DC04F1280084B2B8480089A042D4DCF8
:1007D00000BF00BFBDE8F88310B50446012C09D165
:1007E0004FF6FF7000F06FFE02F05EF801F0F0FED1
:1007F000FFF737FE022C0FD1AD480078401CAC4902
:10080000087000F0EDFEAA480078092802D1002007
:10081000A7490870FFF75BFF10BD70B50446154689
:100820000023002211E0A05CCE5CB0420AD1581C2B
:10083000C3B2C85C7E2802DCC85C202803DA501CE6
:10084000C0B270BD0023501CC2B2AA42EBDB002034
:10085000F7E710B50446012096490860204602F0EB
:1008600066FF00209449C1F8B00110BD2DE9F8439E
:1008700000269248008800F40040002879D08F4874
:100880000578092D72DD002000F01DFE642002F0C5
:100890004EFF2A468AA18C48FFF7BFFF002803DDE0
:1008A00008208249487001262A4688A18648FFF719
:1008B000B4FF002803DD01207C49487001262A4648
:1008C00084A18148FFF7A9FF0446002C16DD7E486D
:1008D000005D8DF800007C49601C085C8DF801000B
:1008E000A01C085C8DF80200E01C085C8DF8030079
:1008F0006846FFF76BFC6D4948810126012E35D112
:1009000000206B490870002780461DE06748477843
:10091000B0F80A80022264210A3001F0E0FB0122D3
:1009200066216248401C01F0DAFB022264215F4824
:100930000A3001F03CFB012266215C48401C01F0BA
:1009400036FB9620FFF785FF58484078B842DDD146
:10095000564840894045D9D100F042FE00F0C9FD1B
:10096000012803D1FFF797FDFFF796FE00205349BA
:1009700008803046BDE8F8830024002502F09AFE86
:1009800002F002FF4FF4165002F047FF00F002FAA7
:1009900001F09AFA00F034FA0222642143480A3046
:1009A00001F005FB012266214048401C01F0FFFADE
:1009B00049F288403D4948810220487000208870F3
:1009C00008700846408949F28841884202D10220D5
:1009D0003649487001F04EF900F002FE3E490868C1
:1009E00080474FF478403D4908803048007800BB8C
:1009F00000F07FFD012829D1FFF74DFDFFF74CFEE8
:100A00004FF4FA7002F093FE00240CE028480078BE
:100A1000401C27490870FFF75AFE4FF4FA7002F0A5
:100A200086FE601C84B2092CF0DB0020204908708F
:100A30000CE0FFF730FD002406E0E0B22849098809
:100A4000FFF708FC601C84B20E2CF6DB99E0002056
:100A500000F0F0F905462048416800208847FFF77C
:100A600005FF1D48007D00F08000002877D00F486A
:100A7000007838B90E480078012803D04FF6FF708F
:100A800000F021FD66E0002000F0D4F90546124890
:100A90004168002088471048007D00F08000C8B3FE
:100AA0000D48008A0149C98888421BE0A200002045
:100AB00001000020B00122420000224280000020FC
:100AC00069663D3800000000B210002069663D31C3
:100AD0003600000069643D00440000202A00002028
:100AE0000800002036DA2748408A274909898842C9
:100AF00030DA2548007868BB2248018A2248C0883D
:100B00001838814207DD1F48408A102803DAFFF7B2
:100B1000A8FC1FE007E01B4A518A108A4FF4784274
:100B200001F0C0FC16E018480078012812D11748DF
:100B3000007800280EDD154800780D2807DA1349E3
:100B40000978491EC8B212490988FFF783FB0020C3
:100B50000E4908701DB9FFF789FE002893D028467A
:100B6000FFF73AFE601C84B24FF6E850844208D189
:100B700000240848006808B9012000E00020054969
:100B8000086064E744000020A2000020020000206A
:100B90000800002094812142704700BFFEE700BF9B
:100BA000FEE700BFFEE700BFFEE7704770477047F3
:100BB000704700000CB50020019000906C48006860
:100BC00040F480306A49086000BF6948006800F45A
:100BD000003000900198401C0190009818B90198CD
:100BE000B0F5A06FF1D16248006800F4003010B198
:100BF0000120009001E0002000900098012843D1DE
:100C00005C48006840F010005A49086008460068D7
:100C100020F0030008600846006840F00200086009
:100C20005348406852494860084640684860084652
:100C3000406840F4806048600846406820F47C10BA
:100C400048600846406840F4E8104860084600687C
:100C500040F08070086000BF4548006800F00070F8
:100C60000028F9D04248406820F00300404948601D
:100C70000846406840F00200486000BF3C484068B9
:100C800000F00C000828F9D10CBD10B5FFF792FF59
:100C900010BD10B53648006840F0010034490860C6
:100CA00008464068344908403149486008460068B1
:100CB000324908402E4908600846006820F4802028
:100CC00008600846406820F4FE0048604FF41F00AA
:100CD0008860FFF7DAFF4FF000602949086010BD17
:100CE00010B5002100200022214B5B6803F00C01AD
:100CF00021B1042906D0082928D107E0214B224C34
:100D0000236027E01F4B204C236023E0184B5B68D7
:100D100003F47010164B5B6803F48032022303EB7C
:100D2000904022B9194B4343174C23600DE0104B00
:100D30005B6803F4003323B1144B4343124C23602C
:100D400003E0104B4343104C236003E00D4B0E4C6B
:100D5000236000BF00BF064B5B68C3F303130C4C5A
:100D6000E15C094B1B68CB40074C236010BD0000C1
:100D700000100240002002400000FFF8FFFFF6FED6
:100D800008ED00E000127A001400002000093D0088
:100D90001800002008B50121582003F07DF920201B
:100DA000ADF8000010208DF8030003208DF802003C
:100DB0006946104802F0B4FE20210E4802F05DFFA3
:100DC0002020ADF8000069460B4802F0A9FE202162
:100DD000094802F052FF4FF48050ADF80000014680
:100DE000064802F04CFF4FF48051044802F045FFE2
:100DF00008BD0000000C0140001801400010014037
:100E000008B50121442003F047F91C20ADF800008B
:100E100048208DF803006946354802F081FE012024
:100E2000ADF8000028208DF803006946314802F033
:100E300077FE08BD10B5044614B101202E49087094
:100E40002D480078002837D01021294802F0FBFEF9
:100E500078B10821264802F0F6FE50B1042124485A
:100E600002F0F1FE28B10121224802F0ECFE012837
:100E700022D10F2002F05BFC00201F4908701021D6
:100E80001B4802F0E0FE08B9012010BD08211848F7
:100E900002F0D9FE08B90220F7E70421144802F055
:100EA000D2FE08B90320F0E70121124802F0CBFE80
:100EB00001281BD10420E8E710210D4802F0C3FEF1
:100EC000012813D108210A4802F0BDFE01280DD1E6
:100ED0000421074802F0B7FE012807D10121054887
:100EE00002F0B1FE10B90120034908700020CCE7E0
:100EF00000180140000801402800002010B50446F9
:100F0000F748407838B1012802D002282AD118E0E9
:100F1000F448048026E0F248408949F24131884291
:100F200008D0F04804804FF6FF7000EA0420ED4935
:100F3000088005E04FF6FF7000EA0420E9490880C8
:100F400010E01021E84802F09AFE1021E74802F074
:100F500096FEE1B2E64800F07BFF1021E24802F085
:100F60008CFE00BF00BF10BD10B50446DC484078C1
:100F700040B1012802D002283CD10EE0D948801CA3
:100F8000048037E0D748801C04804FF6FF7000EAE9
:100F90000420D449891C08802CE01021D24802F09A
:100FA0006EFE1021D14802F068FECD48408949F21A
:100FB0008841884211D1F82000EA2421CC4800F071
:100FC00047FFFC2000EAE401C94800F041FFE006C9
:100FD000010EC74800F03CFF07E02112C44800F0B2
:100FE00037FFE1B2C24800F033FF1021BE4802F0E3
:100FF00044FE00BF00BF10BD10B50446B84840789D
:1010000040B1012802D0022832D11CE0B548801C32
:1010100004802DE0B248408949F2413188420AD02B
:10102000B048801C04804FF6FF7000EA0420AD49F0
:10103000891C088006E04FF6FF7000EA0420A949E9
:10104000891C088014E01021A74802F018FE102126
:10105000A64802F012FE2112A54800F0F9FEE1B206
:10106000A34800F0F5FE10219F4802F006FE00BFE5
:1010700000BF10BD10B5044610219B4802F0FFFDD3
:1010800010219A4802F0F9FD2146994800F0E0FE4F
:101090001021954802F0F1FD10BD914840780128DB
:1010A00003D19048801C008870478E48801C0288BD
:1010B000018802EB212080B2F6E770B505460C46A8
:1010C0002846FFF71BFF8648408949F24131884294
:1010D00003D02046FFF748FF02E02046FFF78CFFD1
:1010E00070BD70B506460024002511E001210020E6
:1010F000FFF7E3FFC82002F0F6FA3046FFF7FEFEE6
:10110000052002F0F0FAFFF7C8FF0446681CC5B2DC
:10111000052D05DA002CE9D04FF6FF708442E5D0AA
:10112000204670BD10B56E498889FFF7E7FE10BDF7
:1011300030B5014601F01F04C1F34513CA0AE502A8
:1011400005EB43151544A8B230BD00BF011EA0F148
:101150000102D0B2FAD1704770B504460D4660491D
:10116000887BFFF7CBFE2012FFF784FFE0B2FFF78A
:1011700081FF0120FFF77EFF3F20FFF77BFF5849EB
:10118000C87BFFF7BBFE2812FFF774FFE8B2FFF73A
:1011900071FF0120FFF76EFFDF20FFF76BFF70BDCF
:1011A00070B504460D4629462046FFF7D5FF4C484A
:1011B000408941F6431188420AD04948408941F6A6
:1011C0000711884204D046484089891E884203D1CD
:1011D0002E20FFF793FE03E041498889FFF78EFE3A
:1011E0003F48408949F2253188420AD03C4840892D
:1011F000C91C884205D03A48408949F235318842B5
:1012000008D10220FFF7A1FFFFF747FF0646FFF7CF
:101210008FFF70BDFFF741FFFBE770B504460D4639
:1012200029462046FFF798FFFFF77CFF31480088EA
:10123000FFF79AFE70BD2DE9F84F81460D4617461F
:101240001E4600952B48B0F80080A7F12000C7B2D9
:101250000A98002863D100245EE00C2E07D107EB2A
:101260004700254901EB800010F804A004E0234862
:1012700000EB071010F804A04FF0000B46E00AF056
:10128000800018B11B48A0F8008003E01C480088CB
:101290001849088029464846FFF7BFFF4FEA4A60D1
:1012A0004FEA106A681C85B20D480089A84204DC28
:1012B0001048A0F80080BDE8F88F0098281AB042C6
:1012C00020D1009D09F101001FFA80F90448C0886F
:1012D000484503DC0748A0F80080ECE719E000006F
:1012E000A2000020FEFF076000080140001001403E
:1012F000003001402A000020AE5F00082264000890
:101300002C0000200BF1010000F0FF0BBBF1080FD7
:10131000B5DB00BF601CC4B2B4429EDB46E00024D3
:1013200042E00C2E07D107EB4700FE4901EB80009D
:1013300010F804A004E0FC4800EB071010F804A02B
:101340004FF0000B2AE00AF0800018B12946484609
:10135000FFF763FF4FEA4A604FEA106A681C85B2E4
:10136000F2480089A84203DCF148A0F80080A2E717
:101370000098281AB0420DD1009D09F101001FFA12
:1013800080F9EA48C088484503DCE948A0F80080B5
:1013900091E706E00BF1010000F0FF0BBBF1080F35
:1013A000D1DB00BF601CC4B2B442BADBE048A0F895
:1013B000008000BF7FE710B50246012000E05043E7
:1013C0000B1EA1F10104E1B2F9D110BD2DE9FF4FCF
:1013D00081B0074691461E460E9D4FF0000A00243C
:1013E00039E0301B401EC1B20A20FFF7E4FFB9FB11
:1013F000F0F00A21B0FBF1F201FB1208BAF1000F84
:1014000016D1701EA04213DDB8F1000F0ED10020DE
:10141000AB4605EBDB71491001FB0471009088B20B
:101420002B4620220299FFF706FF12E04FF0010A37
:101430000020AB4605EBDB71491001FB0471009005
:1014400088B208F13001CAB22B460299FFF7F3FEC9
:1014500000BF601CC4B2B442C3DB05B0BDE8F08F6E
:101460002DE9F84F04460D4690469946DDE90A6796
:1014700004F0FF0A08EB04001FFA80F809EB0500EE
:101480001FFA80F916E0444502DB5446A81985B2DC
:101490004D4500DB14E0012000903A7833462946A0
:1014A0002046FFF7C8FE304606EBD07104EB610121
:1014B0008CB27F1C38787E2802DC38782028E2DA6B
:1014C00000BFBDE8F88F70B5064600249748C58870
:1014D0000089454300210846FFF73EFEFFF722FE44
:1014E00000BF03E03046FFF73FFD641CAC42F9D378
:1014F00070BD2DE9FC41012500278D4807888B48E8
:10150000408941F64311884219D0884840894328D0
:1015100015D08648408941F6051188420FD083488E
:10152000408950280BD081484089891C884206D0C8
:101530007E484089702802D00120BDE8FC8100244B
:1015400009E005FA04F07A49088000212046FFF7F7
:1015500064FE601C84B2102CF3DB611C88B2002195
:10156000FFF75BFE002435E000212046FFF718FE60
:10157000064600212046FFF713FE064605FA04F052
:10158000B04225D00020FFF79EFF4FF47840684915
:10159000088068A010210B46C822CDE90010002168
:1015A0000846FFF75DFF102005FA04F2062300212C
:1015B00000906420FFF70AFF1020062332462821FE
:1015C00000906420FFF702FF594807800020B4E72D
:1015D000601C84B2102CC7DB554807800120ACE7A3
:1015E00008B50121080202F04AFD0121682002F03D
:1015F00053FD4EF2B370ADF8000003208DF80200E9
:1016000018208DF8030069464E4802F089FA4FF61B
:101610008070ADF8000069464B4802F081FA022064
:10162000ADF8000003208DF8020010208DF80300B3
:101630006946464802F074FA0121444802F01FFB53
:10164000322002F074F80121404802F016FB3220EB
:1016500002F06DF82C20354988812A2088732B20D0
:10166000C8734FF4A070C8804FF4F0700881F72061
:10167000FFF744FCA920FFF7FDFC5120FFF7FAFC1F
:101680002C20FFF7F7FC8220FFF7F4FCC020FFF7C7
:1016900035FC1120FFF7EEFC0920FFF7EBFCC12021
:1016A000FFF72CFC4120FFF7E5FCC520FFF726FCE7
:1016B0000020FFF7DFFC0A20FFF7DCFC8020FFF7AB
:1016C000D9FCB120FFF71AFCB020FFF7D3FC1120A2
:1016D000FFF7D0FCB420FFF711FC0220FFF7CAFC93
:1016E000B620FFF70BFC0220FFF7C4FC2220FFF717
:1016F000C1FCB720FFF702FCC620FFF7BBFCBE20F1
:10170000FFF7FCFB0020FFF7B5FC0420FFF7B2FC5D
:10171000E920FFF7F3FB0020FFF7ACFC3620FFF7D2
:10172000EDFB15E0AE5F000822640008A200002077
:101730002A00002044415441204552524F5220413A
:10174000540000000014014000180140000C01404A
:101750000820FFF78FFC3A20FFF7D0FB6620FFF749
:1017600089FCE020FFF7CAFB0020FFF783FC07207D
:10177000FFF780FC1020FFF77DFC0920FFF77AFCC3
:101780001720FFF777FC0B20FFF774FC4120FFF7D1
:1017900071FC8920FFF76EFC4B20FFF76BFC0A20E1
:1017A000FFF768FC0C20FFF765FC0E20FFF762FCDA
:1017B0001820FFF75FFC1B20FFF75CFC0F20FFF7F2
:1017C00059FCE120FFF79AFB0020FFF753FC17209C
:1017D000FFF750FC1A20FFF74DFC0420FFF74AFCEE
:1017E0000E20FFF747FC0620FFF744FC2F20FFF7F1
:1017F00041FC4520FFF73EFC4320FFF73BFC022065
:10180000FFF738FC0A20FFF735FC0920FFF732FC10
:101810003220FFF72FFC3620FFF72CFC0F20FFF7BC
:1018200029FC1120FFF76AFB782001F080FF2920B6
:10183000FFF764FB322001F07AFF4FF6FF70FFF7ED
:1018400042FE08BD2DE9F05F0746884615461E4654
:10185000DDF828A04FF0000BFE48C088401EA842CB
:1018600003DAFC48C088401E85B2FA480089401E51
:10187000B04203DAF7480089401E86B2E81B401CDC
:101880001FFA80FB444613E021463846FFF764FC0C
:10189000FFF748FC4FF0000906E05046FFF764FBF5
:1018A00009F101001FFA80F9D945F6DB601C84B20A
:1018B000B442E9DDBDE8F09F2DE9F84F07460D463B
:1018C00090469946DDF828B0A8EB0700401C80B28E
:1018D0000090A9EB0500401C1FFA80FA002415E0D7
:1018E000281981B23846FFF737FCFFF71BFC0026AA
:1018F00007E004FB0A603BF81000D7490880701C21
:1019000086B200988642F4DB601C84B25445E7DB63
:10191000BDE8F88F2DE9FF4F85B081468A4600204B
:10192000049003900798A0EB09050898A0EB0A061D
:10193000CDF80890CDF804A0002D01DD012705E0C9
:101940000DB9002702E04FF0FF376D42002E02DD97
:101950004FF0010806E016B94FF0000802E04FF022
:10196000FF387642B54201DD2C4600E034464FF0A8
:10197000000B21E0019A91B2029A90B2FFF74DFC60
:101980000498284404900398304403900498A0429B
:1019900005DD0498001B04900298384402900398D7
:1019A000A04205DD0398001B03900198404401907C
:1019B0000BF101001FFA80FB601C8345DADD09B0E2
:1019C000BDE8F08F2DE9F04104460D4616461F464E
:1019D0002B46324629462046FFF79CFF3B462246CF
:1019E00029462046FFF796FF3B46324639462046B9
:1019F000FFF790FF3B46324629463046FFF78AFF05
:101A0000BDE8F0812DE9F04706460F4690460024D8
:101A100045460320A0EB48093CE07A1B91B23219FD
:101A200090B2FFF7FAFB3A1B91B2721990B2FFF72E
:101A3000F4FB3A1991B2721990B2FFF7EEFB7A19E2
:101A400091B2321990B2FFF7E8FB7A1991B2321BCA
:101A500090B2FFF7E2FB3A1991B2721B90B2FFF716
:101A6000DCFB7A1B91B2321B90B2FFF7D6FB3A1B1C
:101A700091B2721B90B2FFF7D0FB641CB9F1000F5A
:101A800003DAA000801D814404E0601B80000A305E
:101A900081446D1EAC42C0DDBDE8F0872DE9FF4FEB
:101AA00083B0064692461F46DDE9104800200290AA
:101AB00000254DE0781B401EC1B20A20FFF77BFCD9
:101AC000BAFBF0F00A21B0FBF1F201FB1209029817
:101AD00050BB781EA84227DDB9F1000F22D108F0D3
:101AE000800078B108F00100A34604EBDB714910D7
:101AF00001FB0561009088B2234630220499FFF76C
:101B00009AFB0EE008F00100A34604EBDB714910DC
:101B100001FB0561009088B2234620220499FFF75B
:101B20008AFB13E00120029008F00100A34604EBB9
:101B3000DB71491001FB0561009088B209F13001A9
:101B4000CAB223460499FFF776FB00BF681CC5B2F2
:101B5000BD42AFDB07B0BDE8F08F2DE9F04781460D
:101B60000F460024002524E0781981B24846FFF78B
:101B7000F3FAFFF7D7FA4FF0000815E0012000EB69
:101B8000440036490E5C4FF6FF7000EA0626084610
:101B900010F8140006433046FFF7E6F9601C84B2E3
:101BA00008F101001FFA80F8B8F1280FE6DB681C85
:101BB00085B2282DD8DBBDE8F08708B5284806880F
:101BC0004FF4784026490880642405E064212046CB
:101BD000FFF723FB601C84B2962CF7DB1020052353
:101BE00000901F48028800210846FFF7EFFB64249D
:101BF0002FE064212046FFF7D3FA054664212046F2
:101C0000FFF7CEFA05461648058078212046FFF7F3
:101C100004FB642C07D1102005232A4614210090D0
:101C20000020FFF7D3FB652C07D1102005232A469F
:101C3000282100900020FFF7C9FB662C07D1102057
:101C400005232A463C2100900020FFF7BFFB601CC3
:101C500084B207E0A2000020000008602E530008B4
:101C60002A000020962CC4DB0148068000BFFEE756
:101C70002A00002000B587B00121042002F00CFAF0
:101C80000121080302F008FAA020ADF8180018207E
:101C90008DF81B0003208DF81A0006A9754801F085
:101CA0003FFF1020ADF8180003208DF81A00102017
:101CB0008DF81B0006A96F4801F032FF10216D4816
:101CC00001F0DDFF1020ADF8180003208DF81A0098
:101CD00010208DF81B0006A9674801F021FF102194
:101CE000654801F0CCFF0120ADF8180003208DF805
:101CF0001A0010208DF81B0006A9604801F010FFA3
:101D000001215E4801F0BBFF0020ADF804004FF454
:101D10008270ADF806000020ADF808000220ADF892
:101D20000A000120ADF80C004002ADF80E000020C2
:101D3000ADF81000ADF812000720ADF8140001A9AD
:101D40004F4802F033FA01214D4802F0D4FA07B0AF
:101D500000BD70B50546002405E0601CC4B2C82C67
:101D600001DD002070BD0221464802F048FB00283A
:101D7000F3D02946434802F0EFFA002405E0601C46
:101D8000C4B2C82C01DD0020ECE701213D4802F07F
:101D900036FB0028F3D03B4802F0E0FAC0B2E1E79E
:101DA00000B587B00121082002F076F901218803EF
:101DB00002F07FF94FF46040ADF8180018208DF85C
:101DC0001B0003208DF81A0006A92C4801F0A8FE7C
:101DD0004FF46041294801F050FF0020ADF80400A5
:101DE0004FF48270ADF806000020ADF80800022024
:101DF000ADF80A000120ADF80C004002ADF80E006D
:101E00001820ADF810000020ADF812000720ADF842
:101E1000140001A91B4802F0C9F90121194802F078
:101E20006AFAFF20FFF795FF07B000BD10B5044622
:101E3000144800884FF6C7710840124908800846C8
:101E400000882043088001210E4802F054FA10BD9A
:101E5000024600BF108900F002000028FAD09181EC
:101E600000BF108900F001000028FAD09089C0B2AC
:101E7000704700000008014000100140000C0140C4
:101E8000003001400038004010B500240020D8493F
:101E900008609020FFF75DFF0020FFF75AFF002049
:101EA000FFF757FF0020FFF754FFFF20FFF751FF18
:101EB00044EA0024FF20FFF74CFF04430120CD49F2
:101EC000C1F8B001204610BD08B501214FF494704F
:101ED00002F0E2F84FF48050ADF8000010208DF8C9
:101EE000030003208DF802006946C34801F018FE84
:101EF0004FF48051C04801F0C0FE0420ADF800004E
:101F00006946BE4801F00CFE0421BC4801F0B5FE54
:101F10008020ADF800006946B94801F001FE80213B
:101F2000B74801F0AAFEFFF73BFF0020FFF77EFF56
:101F3000FFF7AAFFB349088008BD10B500240020B0
:101F4000AB4908600520FFF704FFFF20FFF701FF02
:101F500004460120A749C1F8B001204610BD10B5C4
:101F600004460020A24908600120FFF7F2FE204647
:101F7000FFF7EFFE01209F49C1F8B00110BD10B579
:101F800000209B4908600620FFF7E3FE01209949E5
:101F9000C1F8B00110BD10B50020954908600420BB
:101FA000FFF7D7FE01209349C1F8B00110BD2DE91C
:101FB000F04106460C46174600208D490860032074
:101FC000FFF7C7FEC4F30740FFF7C3FEC4F30720C3
:101FD000FFF7BFFEE0B2FFF7BCFE002505E0FF20E3
:101FE000FFF7B7FE7055681C85B2BD42F7DB0120D4
:101FF0007F490860BDE8F08110B500BFFFF79DFF85
:1020000000F001000028F9D110BD2DE9F04106468D
:102010000C461746FFF7B3FF002075490860022001
:10202000FFF797FEC4F30740FFF793FEC4F30720C2
:10203000FFF78FFEE0B2FFF78CFE002504E0705D35
:10204000FFF787FE681C85B2BD42F8DB01206849B6
:102050000860FFF7D1FFBDE8F0812DE9F0410746A8
:102060000E461446F0B2C0F58075AC4200DC254641
:1020700012E02A4631463846FFF7C7FFAC4200D18E
:102080000BE02F442E44601B84B2B4F5807F02DD48
:102090004FF4807500E02546EBE700BFBDE8F08116
:1020A00010B504462403FFF76AFFFFF7A5FF0020E1
:1020B0004F4908602020FFF74CFEC4F30740FFF7AC
:1020C00048FEC4F30720FFF744FEE0B2FFF741FEED
:1020D00001204849C1F8B001FFF78EFF10BD2DE97E
:1020E000F04781460F4616464FEA1738C7F30B0AEA
:1020F000CAF58054A64200DC344644E04FEA083179
:102100004FF480524048FFF752FF002508E00AEBE9
:1021100005003D49085CFF2800D003E0681C85B23B
:10212000A542F4DB00BFA54216DA4046FFF7B8FF30
:10213000002507E019F8050005EB0A01324A505462
:10214000681C85B2A542F5DB4FEA08314FF4805296
:102150002D48FFF782FF04E0224639464846FFF744
:102160007CFFA64200D10FE008F101084FF0000A01
:10217000A1442744301B86B2B6F5805F02DD4FF4E0
:10218000805400E03446B9E700BFBDE8F08710B5E1
:10219000FFF7F5FEFFF730FF002015490860C72064
:1021A000FFF7D7FD01201349C1F8B001FFF724FF65
:1021B00010BD10B500200E490860B920FFF7C9FD19
:1021C00001200C49C1F8B001032001F08CFA10BDC8
:1021D00010B5002006490860AB20FFF7BAFD0120CA
:1021E0000449C1F8B001032001F07DFA10BD0000E0
:1021F000B081214200802142000C014000140140C6
:102200000020014042000020B2000020002100BF59
:1022100015E000F080021AB10122FE4B1A6002E0C4
:102220000022FC4B1A604206100E0022F94B083BBC
:102230001A600122F84BC3F884214A1CD1B2082944
:10224000E7DB704770B50646002500240020F14901
:1022500008390860F049C1F88C01EE490C39086072
:102260003046FFF7D3FF072001F03DFA0020EA498E
:10227000C1F88401012001F036FA0120E54908394E
:1022800008600020E449C1F8840100BF13E04FF664
:10229000FF7000EA44040020DE490839086001208C
:1022A000DD49C1F88401DB488438006808B1601C4E
:1022B00084B2681CC5B2102DE9DB24110120D54978
:1022C0000C390860204670BD2DE9F04186B080468B
:1022D0000027002407E04046FFF7B4FF01A921F8DA
:1022E0001400601C84B20A2CF5DB00241BE0601C87
:1022F00085B214E001A830F8140001A931F81510D6
:1023000088420ADD01A830F8146030F8150001A9F0
:1023100021F8140001A820F81560681C85B20A2D68
:10232000E8DB601C84B2092CE1DB0027022406E014
:1023300001A830F81400384487B2601C84B2082C1D
:10234000F6DB062097FBF0F086B2304606B0BDE81B
:10235000F0812DE9F04104460D46B0480078FFF7C2
:10236000B3FF0646AE480078FFF7AEFF074626806B
:102370002F800120BDE8F0817FB504460D4602A9FB
:1023800003A8FFF7E6FF064616B9002004B070BDAB
:10239000694601A8FFF7DDFF06460EB90020F5E704
:1023A000BDF80400BDF80C10884206DCBDF80C1026
:1023B000BDF80400323081420CDBBDF80C00BDF8E2
:1023C0000410884236DCBDF80410BDF80C00323031
:1023D00081422FDABDF80000BDF80810884206DC03
:1023E000BDF80810BDF80000323081420CDBBDF8AA
:1023F0000800BDF8001088421CDCBDF80010BDF8D4
:1024000008003230814215DABDF80C10BDF8042006
:10241000881800EBD071C1F34F012180BDF808107E
:10242000BDF80020881800EBD071C1F34F0129805E
:102430000120ABE70020A9E770B504460D4616461B
:102440007848068004F10D018AB2193988B22B460A
:102450002946FFF75FFA05F10D0083B2193881B202
:1024600022462046FFF756FA6A1C91B2621C90B2CF
:10247000FEF7D3FE6A1C91B2621E90B2FEF7CDFE4B
:102480006A1E91B2621C90B2FEF7C7FE6A1E91B23C
:10249000621E90B2FEF7C1FE062229462046FFF7D3
:1024A000B1FA70BD70B504460D4616465D4806800B
:1024B00029462046FEF7B1FE611C88B22946FEF788
:1024C000ACFE681C81B22046FEF7A7FE6A1C91B2E2
:1024D000621C90B2FEF7A1FE70BD2DE9F0410446EA
:1024E0004C4864380068002853D124B14E49881EF6
:1024F000FFF742FF3CE04C49881EFFF73DFFB8B3B1
:1025000049491239B1F9200002F0A4FD07464649B5
:102510001239088A02F0B6FD8046434812388169B4
:10252000404602F0C3FD0646394602F033FC05463C
:1025300002F070FD3C4912390882B1F9220002F024
:1025400089FD074638491239488A02F09BFD8046CA
:1025500035481238C169404602F0A8FD06463946A2
:1025600002F018FC054602F055FD2F491239488249
:102570002D481238007D00F0800010BBC0202A4991
:10258000123908750846008A88810846408AC88141
:1025900017E025481238007D00F0800040B1224845
:1025A0001238007D20F080001F491239087508E0BC
:1025B00000201D4912398881C8814FF6FF700882BA
:1025C000488219481238007D00F08000BDE8F08193
:1025D00038B5154912398869144902F067FD044677
:1025E00002F0FCFC00900422114801886846FFF7C5
:1025F00076FD0D491239C8690C4902F057FD0446B1
:1026000002F0ECFC0090042209480188091D68468C
:1026100010E000008C012242000022426C000020E9
:102620006D0000202A0000205600002020BCBE4C77
:102630006E000020FFF753FD0222FA48018808319E
:10264000F948FFF74CFD0222F64801880A31F648A6
:10265000801CFFF744FD0122F24801880C31F2484A
:10266000001DFFF73CFD0A2000900122ED48018883
:102670000D316846FFF733FD38BD38B500200090B6
:102680000122E84801880D316846FFF790FC009868
:102690000A284BD10422E34801886846FFF787FCEB
:1026A000009802F0D7FC0446E04902F0D5FBDE4971
:1026B000203988610422DB480188091D6846FFF73C
:1026C00076FC009802F0C6FC0446D84902F0C4FB30
:1026D000D5492039C8610222D24801880831D24840
:1026E000FFF765FC0222CF4801880A31CE48801CE2
:1026F000FFF75DFC0122CB4801880C31CA48001D60
:10270000FFF755FCC848203890F8240030B19020DD
:10271000C7490870D020C749087005E0D020C449D7
:1027200008709020C3490870012038BD0020FCE7E4
:102730002DE9FC5F04460D4617461E46DDE90EAB4B
:10274000DDE90C894FF47840BB490880BBA010211B
:10275000CDE90010BA480389C288A0212820FEF7DD
:102760007FFEB8A01021CDE90010B5480389C288CA
:10277000A0217820FEF774FEB3A01021CDE900104F
:10278000AF480389C288B4212820FEF769FEAFA0B4
:102790001021CDE90010AA480389C288B42178200D
:1027A000FEF75EFEAAA01021CDE90010A44803891F
:1027B000C288C8212820FEF753FEA6A01021CDE92B
:1027C00000109F480389C288C8217820FEF748FE80
:1027D000A1A01021CDE9001099480389C288DC210D
:1027E0002820FEF73DFE9DA01021CDE90010944861
:1027F0000389C288DC217820FEF732FE98A01021E0
:10280000CDE900108E480389C288F0212820FEF708
:1028100027FE102004232246A02100904020FEF72E
:10282000D5FD102004232A46A02100909020FEF719
:10283000CDFD102004233A46B42100904020FEF73D
:10284000C5FD102004233246B42100909020FEF7ED
:10285000BDFD102004234246C82100904020FEF711
:10286000B5FD102004234A46C82100909020FEF7B1
:10287000ADFD102004235246DC2100904020FEF7DD
:10288000A5FD102004235A46DC2100909020FEF77D
:102890009DFD102000906A48C18803236020109A93
:1028A000FEF794FDBDE8FC9F00B595B000201090A8
:1028B0000A9010901F20604908804FF6FF706A4907
:1028C0000880FEF700FE4FF478405B4908804FF621
:1028D000FF70FEF7F8FD0020574908806348006844
:1028E00010216423A022CDE9001028210846FEF71C
:1028F000B7FD4FF4784214210846FFF79DFD0020F4
:102900004949203908758861EDE347482038406817
:10291000099001200999884743482038007D00F03C
:10292000C000402870D100200A903F482038007D28
:1029300020F040003C49203908750846018A11AA58
:10294000109822F8201038482038418A109802EB5D
:10295000800041801098401CC0B21090109801284F
:1029600006D0022815D0032829D0042810D141E030
:102970004FF6FF7214210846FFF75EFD3048C0880D
:10298000143880B24FF4784214210990FFF754FDB7
:1029900099E32B48C088143880B24FF6FF72142197
:1029A0000990FFF749FD26480089143880B24FF49A
:1029B0007842014609901420FFF73EFD83E320484A
:1029C0000089143880B24FF6FF7201460990142036
:1029D000FFF732FD1A480089143880B20990184870
:1029E000C088143880B24FF4784208900999FFF7F4
:1029F00023FD68E3BDF84400BDF84810401A099073
:102A0000002802DB099802E05EE3099840420D903D
:102A1000BDF8461011A8C088081A0990002827DBC5
:102A2000099827E06E0000206400002020BCBE4C06
:102A30006C0000206D0000202A00002078313A0050
:102A4000A200002079313A0078323A0079323A0017
:102A500078333A0079333A0078343A0079343A00DE
:102A60006661632069733A002C000020700000202A
:102A7000099840420C900D9840430D900C984043AB
:102A80000C90DDE90C100844059001F098FFCDE9A9
:102A9000060101F035FFCDE9080101F063FF80B2C6
:102AA0000F90BDF84C00BDF85010401A0990002856
:102AB00001DB099801E0099840420D9011A8418975
:102AC000C089081A0990002801DB099801E00998DB
:102AD00040420C900D9840430D900C9840430C9050
:102AE000DDE90C100844059001F069FFCDE906010D
:102AF00001F006FFCDE9080101F034FF80B20E902D
:102B00000E9802F0BFFA09900F9802F0BBFA0890F5
:102B1000099902F0A1F90B900B9802F00FF9FE4A07
:102B2000FE4BCDE9080101F05DFF0DD30B9802F0DB
:102B300005F9FB4AFB4BCDE9080101F0E3FF03D3A4
:102B40000F9808B10E98E8BB00201090F648008955
:102B5000143880B20990F448C088143880B24FF617
:102B6000FF7208900999FFF767FC4FF4784214212F
:102B70000846FFF761FCED490B9802F097FA0890C0
:102B800002F048FA80B211A90990C989BDF8502015
:102B900011AB5B89CDE90132CDE90310BDF84C00E2
:102BA000009011A8C0880890BDF848000790BDF8B3
:102BB00046000690BDF84400059006A90EC9FFF72F
:102BC000B7FD90E2FFE7BDF84400BDF84C10401A95
:102BD0000990002801DB099801E0099840420D9016
:102BE000BDF8461011A84089081A0990002801DB99
:102BF000099801E0099840420C900D9840430D90CF
:102C00000C9840430C90DDE90C100844059001F04D
:102C1000D6FECDE9060101F073FECDE9080101F011
:102C2000A1FE80B20F90BDF84800BDF85010401AC8
:102C30000990002801DB099801E0099840420D90B5
:102C400011A8C188C089081A0990002801DB0998D9
:102C500001E0099840420C900D9840430D900C986B
:102C600040430C90DDE90C100844059001F0A7FEEC
:102C7000CDE9060101F044FECDE9080101F072FE44
:102C800080B20E900E9802F0FDF909900F9802F0B4
:102C9000F9F90890099902F0DFF80B900B9802F00F
:102CA0004DF89D4A9D4BCDE9080101F09BFE09D3EB
:102CB0000B9802F043F89A4A9A4BCDE9080101F0CB
:102CC00021FF3DD20020109097480089143880B22F
:102CD00009909548C088143880B24FF6FF7208906A
:102CE0000999FFF7A9FB4FF4784214210846FFF732
:102CF000A3FB8E490B9802F0D9F9089002F08AF9EB
:102D000080B211A90990C989BDF8502011AB5B8927
:102D1000CDE90132CDE90310BDF84C00009011A8B7
:102D2000C0880890BDF848000790BDF8460006909E
:102D3000BDF84400059006A90EC9FFF7F9FCD2E1E1
:102D4000BDF84800BDF84C10401A0990002801DB7E
:102D5000099801E0099840420D9011A8C188408966
:102D6000081A0990002801DB099801E009984042FF
:102D70000C900D9840430D900C9840430C90DDE969
:102D80000C100844059001F01AFECDE9060101F08F
:102D9000B7FDCDE9080101F0E5FD80B20F90BDF867
:102DA0004400BDF85010401A0990002801DB099832
:102DB00001E0099840420D90BDF8461011A8C08965
:102DC000081A0990002801DB099801E0099840429F
:102DD0000C900D9840430D900C9840430C90DDE909
:102DE0000C100844059001F0EAFDCDE9060101F060
:102DF00087FDCDE9080101F0B5FD80B20E900E9877
:102E000002F040F909900F9802F03CF908900999F6
:102E100002F022F80B900B9801F090FF3E4A3F4BD6
:102E2000CDE9080101F0DEFD09D30B9801F086FF22
:102E30003B4A3C4BCDE9080101F064FE3DD2002045
:102E4000109039480089143880B209903648C088FB
:102E5000143880B24FF6FF7208900999FFF7ECFA28
:102E60004FF4784214210846FFF7E6FA2F490B98F1
:102E700002F01CF9089002F0CDF880B211A9099077
:102E8000C989BDF8502011AB5B89CDE90132CDE98C
:102E90000310BDF84C00009011A8C0880890BDF840
:102EA00048000790BDF846000690BDF84400059024
:102EB00006A90EC9FFF73CFC15E1BDF84800BDF8B6
:102EC0004410401A079002F0C5F809901648C088CF
:102ED0002838079002F0BEF80890099901F0BCFF6D
:102EE00013498861BDF84800BDF8441008440490B7
:102EF00002F0B0F805900E488069014604900598EC
:102F000002F0D4F807900848C088059002F0BAF89B
:102F1000069007990EE00000CDCCCCCCCCCCEC3F99
:102F20009A9999999999F13FA20000200000C8420E
:102F30004400002002F086F94FF08041089001F033
:102F40008BFF099002F04AF800B2FA49088411A8F0
:102F50004089BDF84610401A079002F07BF80990AE
:102F6000F54800892838079002F074F8089009990C
:102F700001F072FFEF49C86111A84089BDF8461001
:102F80000844049002F066F80590EA48C0690146DA
:102F90000490059802F08AF80790E74800890590A8
:102FA00002F070F80690079902F04CF94FF080415A
:102FB000089001F051FF099002F010F800B2DD49CD
:102FC000488408468069079002F008F808900028B5
:102FD00001DB089801E00898404202280DDCD54842
:102FE000C069079001F0FAFF0990002801DB0998F9
:102FF00001E009984042022842DD00201090CE48AE
:103000000089143880B20990CB48C088143880B247
:103010004FF6FF7208900999FFF70EFA4FF47842C5
:1030200014210846FFF708FAC4A01021CDE90010CA
:10303000C14800890990C048C088089002461A21FA
:103040002820099BFEF70CFABA4890F8240008B92A
:10305000012000E00020B74981F82400084690F8DC
:10306000240030B19020BA490870D020B9490870C6
:1030700005E0D020B64908709020B649087032E0CB
:103080001F20B54908804FF6FF70FEF71CFAB3A069
:103090001021CDE90010A84800890990A648C088F1
:1030A000089002466E212320099BFEF7D9F94FF4C0
:1030B0007A7000F03CFBFFF78BFA4FF6FF70FEF7DB
:1030C00002FA15B000BD00BF0A2000F030FB0A98DC
:1030D000401C80B20A900A98B0F57A7F02DDFFF7B3
:1030E000CCFA01E000BF10E400BF00BFE9E708B57B
:1030F0000121102000F0D0FF0B20ADF800000320CC
:103100008DF8020010208DF803006946994800F000
:1031100007FD40F20440ADF8000003208DF80200E6
:1031200048208DF803006946924800F0F9FC824877
:10313000007818B928209049088002E000208E49C4
:1031400008807C491231881EFFF703F9FFF795FAD2
:1031500008B1002008BDFFF790FA0120FAE708B592
:103160000121102000F098FF0120ADF8000003209D
:103170008DF8020010208DF8030069467D4800F0AC
:10318000CFFC4FF48060ADF8000003208DF8020002
:1031900048208DF803006946764800F0C1FC0620FF
:1031A000ADF8000003208DF8020014208DF8030014
:1031B0006946704800F0B4FC00BF04206D49086106
:1031C00000BF00BF0220086100BF00206B490860FB
:1031D0000A2000F0ACFA4FF48060ADF80000032044
:1031E0008DF8020010208DF803006946614800F058
:1031F00097FC00206249C1F8A80101205F490860DE
:10320000642000F094FA4FF48060ADF800000320D1
:103210008DF8020048208DF803006946554800F0FB
:103220007FFC012008BD3EB50446002002905348B3
:103230005838006800284AD1012202A948F24E10ED
:1032400000F0FFF99DF8080000F0800080B39DF8C1
:10325000080000F00F0002909DF8080001281FDB15
:103260000822694648F24F1000F0EBF99DF8010082
:103270009DF8021000EB01202E4908829DF8030002
:103280009DF8041000EB01202A4948820846008A74
:10329000C0F30B0008820846408AC0F30B00488246
:1032A00000200290012202A948F24E1000F0A1F97C
:1032B0002048007D00F08000E8B9C0201D49087555
:1032C0000846008A88810846408AC88113E0194868
:1032D000007D00F0800030B11648007D20F08000B5
:1032E0001449087507E0002012498881C8814FF60B
:1032F000FF70088248820F48007D00F080003EBDCC
:103300001CB54FF6FF70FEF7DEF81EA01021CDE9C8
:10331000001009480389C2886E212320FEF7A0F817
:103320004FF47A7000F003FA4FF6FF70FEF7CBF817
:103330001CBD000044000020A20000205450204E7C
:1033400065656420726561646A75737421000000AC
:103350006C0000206D0000202A000020546F75636F
:10336000682053637265656E2041646A75737420CA
:103370004F4B2100001001406E00002080012242CE
:1033800000002242435450204E6F20546F756368F2
:103390002053637265656E2041646A757374210001
:1033A0000CB5002101910BE00021009102E0009991
:1033B000491C009100990229F9D30199491C0191F6
:1033C00001998142F0D30CBD00B500BF0420B6497D
:1033D000086100BF0220FFF7E3FF00BF0220B249EF
:1033E000086100BF0420FFF7DBFF00BF0420AE49E7
:1033F000486100BFFFF7D4FF00BF0220AA4948611F
:1034000000BFFFF7CDFF00BD00B50520FFF7C8FFE7
:1034100000BF0420A449486100BF0220FFF7C0FF9D
:1034200000BF0220A049486100BFFFF7B9FF00BFFD
:1034300002209D49086100BFFFF7B2FF00BF0420D2
:103440009949086100BF0220FFF7AAFF00BD00B53F
:1034500000BF02209449486100BFFFF7A1FF00BFF1
:1034600004209149486100BF1420FFF799FF00BF75
:1034700002208D49086100BF0420FFF791FF00BFC3
:1034800002208949486100BFFFF78AFF00BF04207E
:103490008549086100BF0220FFF782FF00BD00B52B
:1034A00000BF02208049486100BFFFF779FF00BFDD
:1034B00004207D49086100BFFFF772FF00BF0220B2
:1034C0007949086100BF0420FFF76AFF00BF0220AE
:1034D0007549486100BFFFF763FF00BD00B500BF3D
:1034E00002207149486100BF1420FFF759FF00BF57
:1034F00004206D49086100BFFFF752FF00BF0220A2
:103500006949086100BF1420FFF74AFF00BF02208D
:103510006549486100BFFFF743FF00BD30B5044671
:1035200000BF02206049486100BF0120FFF738FF5B
:10353000002523E000BF02205B49486100BF042052
:10354000FFF72EFF04F0800020B100BF0420564991
:10355000086104E000BF04205349486100BF012016
:10356000FFF71EFF00BF02204F49086100BF042083
:10357000FFF716FF6006040E681CC5B2082DD9DBE4
:1035800030BD30B500240220FFF70AFF00BF042041
:103590004549086100BF0220FFF702FF00251DE03A
:1035A0006006040E00BF02203F49486100BF0420AE
:1035B000FFF7F6FE00BF02203B49086100BF05206F
:1035C000FFF7EEFE3848806800F0040010B144F0C8
:1035D000010401E004F0FE04681CC5B2082DDFDB25
:1035E00000BF02203049486100BFFFF7D9FE2046E6
:1035F00030BD2DE9F04104460D461646FFF7E4FEC6
:103600002A480078FFF78AFFFFF768FF2012FFF7CC
:1036100085FFFFF763FFE0B2FFF780FFFFF75EFF74
:10362000002707E015F8010BFFF778FFFFF756FFBB
:10363000781CC7B2B742F5DBFFF7E6FE0120BDE814
:10364000F0812DE9F04104460D461646FFF7BCFE19
:1036500016480078FFF762FFFFF740FF2012FFF7E0
:103660005DFFFFF73BFFE0B2FFF758FFFFF736FFC4
:10367000FFF7CAFEFFF7A8FE0D480078FFF74EFFE0
:10368000002707E0FFF7E3FEFFF77BFF05F8010BDC
:10369000781CC7B2B742F5DBFFF701FFFFF7B4FEB6
:1036A0000120BDE8F08100000010014074000020FE
:1036B0007500002010B56FF0040000F0B2F92E483C
:1036C00000682E49B0FBF1F02D49087008460078DB
:1036D00000EB4001C1EBC0104FF6FF7101EAC000E2
:1036E0002849088010BD0146254A12784A434FF008
:1036F000E0235A6100229A611A46126942F00102DF
:103700001A6100BF4FF0E022106900F001021AB107
:1037100000F48032002AF5D04FF0E022126922F046
:1037200001024FF0E0231A6100229A6170470146BE
:10373000144A12884A434FF0E0235A6100229A61EA
:103740001A46126942F001021A6100BF4FF0E022EE
:10375000106900F001021AB100F48032002AF5D09D
:103760004FF0E022126922F001024FF0E0231A61CB
:1037700000229A61704700001400002000127A00B5
:10378000760000207800002010B54FF4A06000F013
:10379000F9F810BD10B50A460346C41700EB1454DF
:1037A000241330341470C41700EB14542413A0EB0A
:1037B0000434A1B20B46CC1701EB1464241230344C
:1037C00054700346C41700EB14642412A0EB0424C5
:1037D000A1B20B46CC1701EB147424113034947051
:1037E0000346C41700EB14742411A0EB0414A1B217
:1037F00001F13003D3702023137110BD014600BFC7
:10380000704700BF4B4A128802F04002002AF9D0EC
:10381000C2B2484B1B1D1A80704710B586B00446D3
:10382000012144F2040000F037FC424800F01EFE83
:103830004FF40070ADF8140003208DF81600182026
:103840008DF8170005A93C4800F06AF94FF4806034
:10385000ADF8140004208DF8170005A9364800F0D3
:103860005FF925208DF8000003208DF801008DF808
:10387000020001208DF80300684600F088F80194EA
:103880000020ADF80800ADF80A00ADF80C00ADF866
:1038900010000C20ADF80E0001A9264800F029FE0A
:1038A000012240F22551234800F0BBFE01212148AE
:1038B00000F0ABFE06B010BD10B540F225511D481A
:1038C00000F094FF10B31B4800F010FFC4B21B4877
:1038D000008800F40040C8B91848008800F480400F
:1038E00060B10A2C03D000201449088020E013485E
:1038F000008840F400401149088019E00D2C06D1E1
:103900000E48008840F480400C49088010E00B48C5
:103910000088C0F30D000A490C5408480088401C78
:103920000649088008460088C72801DD0020088075
:1039300010BD000000380140000801408000002058
:10394000B21000200948804709480047FEE7FEE71B
:10395000FEE7FEE7FEE7FEE7FEE7FEE7FEE7FEE73F
:1039600004480549054A064B70470000930C0008BF
:1039700031010008E0110020E0170020E0130020D2
:10398000E013002031490143314A1160704770B59E
:10399000002100230F22C47804B32D4C246804F4C2
:1039A000E064C4F5E064210AC1F10403CA4044782C
:1039B00004FA03F18478144021430901254C067868
:1039C000A155047804F01F050124AC4005786D1161
:1039D000AD0005F1E025C5F8004109E0047804F0E8
:1039E0001F050124AC401C4D0678761145F8264091
:1039F00070BD1A4A0A400243154B1B1F1A607047DC
:103A000039B1134A121D12680243114B1B1D1A6073
:103A100006E00F4A121D126882430D4B1B1D1A60EF
:103A20007047042808D14FF0E021096941F00401F2
:103A30004FF0E022116107E04FF0E021096921F029
:103A400004014FF0E0221161704700000000FA0508
:103A50000CED00E000E400E080E100E080FFFF1FEB
:103A600010B50446CC48844208D10121042000F05E
:103A70002DFB0021042000F029FB46E0C7488442CA
:103A800008D10121082000F021FB0021082000F0CE
:103A90001DFB3AE0C248844208D10121102000F009
:103AA00015FB0021102000F011FB2EE0BD488442E0
:103AB00008D10121202000F009FB0021202000F086
:103AC00005FB22E0B848844208D10121402000F0E3
:103AD000FDFA0021402000F0F9FA16E0B3488442D4
:103AE00008D10121802000F0F1FA0021802000F0AF
:103AF000EDFA0AE0AE48844207D10121801500F0BA
:103B0000E5FA0021A01500F0E1FA10BD10B5012181
:103B1000084600F0DBFA0021012000F0D7FA10BDC2
:103B20002DE9F04102460025002600200023002454
:103B3000002791F803C00CF00F0591F803C00CF0BA
:103B4000100CBCF1000F03D091F802C04CEA05053F
:103B500091F800C0BCF1000F31D0146800202BE0B8
:103B60004FF0010C0CFA00F3B1F800C00CEA0306A8
:103B70009E4220D183004FF00F0C0CFA03F7BC4398
:103B800005FA03FC4CEA040491F803C0BCF1280FC9
:103B900006D14FF0010C0CFA00FCC2F814C00AE088
:103BA00091F803C0BCF1480F05D14FF0010C0CFA9D
:103BB00000FCC2F810C0401C0828D1D31460B1F832
:103BC00000C0BCF1FF0F34DD546800202EE000F18E
:103BD000080C4FF0010808FA0CF3B1F800C00CEA29
:103BE00003069E4221D183004FF00F0C0CFA03F71D
:103BF000BC4305FA03FC4CEA040491F803C0BCF191
:103C0000280F05D100F1080C08FA0CF8C2F814804E
:103C100091F803C0BCF1480F07D100F1080C4FF038
:103C2000010808FA0CF8C2F81080401C0828CED30E
:103C30005460BDE8F0814FF6FF7101800221817070
:103C40000421C17070470246002093680B400BB1FD
:103C5000012000E0002070470146886880B270476C
:103C600002460020D3680B400BB1012000E0002089
:103C700070470146C86880B2704701617047416172
:103C800070470AB1016100E041617047C16070474F
:103C90004FF480320A438261816182618269826964
:103CA000704702460020434B18684FF68073184057
:103CB00040EA021008433F4B186070473E49C86114
:103CC0007047F0B50A46002300240021002500F0CB
:103CD0000046B6F1004F02D1364EF16901E0354E93
:103CE0007168C0F3034583B200F44016B6F5401F77
:103CF00008D121F070612F4E766826F070662D4F46
:103D00007E6012E000F48016B6F5801F06D103260F
:103D100006FA05F4A14341F0706106E0460D360154
:103D200003FA06F6B14341F0706122B1460D360147
:103D300003FA06F6314300F00046B6F1004F02D117
:103D40001C4EF16101E01B4E7160F0BD30B50022E8
:103D50008B071C0F0F2303FA04F2164B08338C1049
:103D600053F824309343134C08348D1044F8253015
:103D700023468C1053F824308C07240F00FA04F4E7
:103D800023430C4C08348D1044F8253030BD0A49CB
:103D9000DC3108607047000000080140000C014061
:103DA000001001400014014000180140001C0140B7
:103DB000002001400000014000002042DF48006870
:103DC00040F00100DD49086008464068DC490840D1
:103DD000DA49486008460068DA490840D74908606F
:103DE0000846006820F4802008600846406820F4F7
:103DF000FE0048604FF41F0088607047CF49096893
:103E000021F48031CD4A11601146096821F48021E6
:103E10001160B0F5803F03D0B0F5802F0ED106E0E1
:103E2000C649096841F48031C44A116007E0C349BA
:103E3000096841F4A021C14A116000E000BF00BF41
:103E4000704710B501460022002300204A11012AC4
:103E500002D1BA4C236806E0022A02D1B74C236A89
:103E600001E0B64C636A01F01F02012494401C403B
:103E70000CB1012000E0002010BD38B500200090FA
:103E80000024002500BF3120FFF7DBFF0546009826
:103E9000401C00900098B0F5A06F01D0002DF2D02A
:103EA0003120FFF7CEFF08B1012400E000242046B6
:103EB00038BD01460020A14A106820F0F80040EA11
:103EC000C10010607047A04908607047024600209A
:103ED0009A4B586820F47C1042EA01031843974B30
:103EE0005860704798490866704701460020934A19
:103EF000506820F003000843506070478F484068C6
:103F000000F00C007047014600208C4A506820F0F9
:103F1000F00008435060704701460020874A50680F
:103F200020F4E06008435060704701460020834A57
:103F3000506820F4605040EAC1005060704729B1D9
:103F40007E4A527A02437D4B5A7204E07B4A527A8F
:103F500082437A4B5A7270477B49D8310860704768
:103F600001460020754A506820F4404008435060E4
:103F700070470021714A20321170704A82F8201077
:103F8000012802D004280AD104E001216B4A203222
:103F9000117005E00521694A2032117000E000BF70
:103FA00000BF70476949086070476449096A014366
:103FB000624A11627047654944390860704730B5FC
:103FC00000210022002400235C4D6D6805F00C01E7
:103FD00021B1042905D0082923D105E05C4D0560F5
:103FE00022E05B4D05601FE0544D6D6805F47012D2
:103FF000524D6D6805F48034022505EB92421CB9E0
:10400000544D554305600BE04C4D6D6805F400358B
:104010001DB1504D5543056002E04D4D55430560BF
:1040200002E04B4D056000BF00BF444D6D6805F0D8
:10403000F0010909484D6B5C0568DD4045603F4D66
:104040006D6805F4E061090A434D6B5C4568DD402D
:1040500085603A4D6D6805F46051C90A3E4D6B5C50
:104060004568DD40C560354D6D6805F44041890BFC
:104070003A4D6B5CC568B5FBF3F5056130BD29B100
:104080002E4A526902432D4B5A6104E02B4A526971
:1040900082432A4B5A61704729B1284A92690243E8
:1040A000264B9A6104E0254A92698243234B9A6128
:1040B000704729B1214AD2690243204BDA6104E0FA
:1040C0001E4AD26982431D4BDA61704729B11B4AEF
:1040D000D2680243194BDA6004E0184AD26882437E
:1040E000164BDA60704729B1144A12690243134B28
:1040F0001A6104E0114A12698243104B1A61704739
:1041000012494039086070470F49C86470470B492D
:10411000C87170470948406A40F08070074948629A
:10412000704701460020054A92680A400AB1012002
:1041300000E000207047014988727047001002407B
:104140000000FFF8FFFFF6FE0000424280044242FA
:1041500000127A0000093D00820000209200002039
:1041600010B50446BE48844208D101218014FFF7EF
:10417000ADFF0021A014FFF7A9FF16E0B948844263
:1041800008D101210014FFF7AEFF00212014FFF732
:10419000AAFF0AE0B448844207D10121C013FFF707
:1041A000A2FF0021E013FFF79EFF10BD10B5002213
:1041B000028802F441520B884C8823438C882343A5
:1041C000CC8823430C8923434C8923438C89234384
:1041D000CC8923431A430280838B4FF2FF74234020
:1041E00083830B8A038210BD2DE9F04F85B005460D
:1041F0000C464FF0000902274FF000084FF0010B6A
:104200000026B246A88B4FF240010840A883022046
:104210002884B5F81C90A068022801D100BF38E0BE
:10422000A08810B94FF0010B01E04FF0020B8D4850
:10423000854200D100E000BF6846FFF7C0FEDDF810
:1042400000A0E088B0F5007F0AD14FEA1A2000EB09
:1042500080004000A168B0FBF1F0401D86B20BE089
:104260004FEA4B10BAFBF0F000EB80004000A16871
:10427000B0FBF1F0401D86B20A20B6FBF0F606F066
:104280000108A6EB0800C0F34F074FF6FF7000EAE5
:104290000828022F01DBFF2F02DD02274FF0000864
:1042A000E08840EA080038432884A088A1890843B0
:1042B000618808432188084340F4006040EA090906
:1042C000A5F81C9005B0BDE8F08F00210180418069
:1042D0008180C180018141818181C1810721018269
:1042E00070470021018041808180C180022181606E
:1042F00000218181704721B1028842F04002028092
:1043000004E002884FF6BF731A400280704721B163
:10431000828B42F48062828304E0828B4FF6FF330B
:104320001A408283704730B5002400230C11012508
:10433000A540ABB21AB185881D43858002E085880F
:104340009D43858030BD1AB183880B43838002E092
:1043500083888B43838070478181704701468889B9
:1043600070474FF6FF62914204D0028842F4807297
:10437000028004E002884FF6FF631A400280704713
:1043800021B1828842F00402828004E082884FF6E4
:10439000FB731A408280704702884FF2FF731A4005
:1043A000028002880A4302807047018841F48051EC
:1043B0000180704721B1028842F40052028004E07B
:1043C00002884DF6FF731A400280704702460020B3
:1043D000012901D0108B00E0908A70470146088ABD
:1043E0007047B1F5804F04D1028842F480420280C8
:1043F00004E002884BF6FF731A40028070470246C1
:10440000002013890B400BB1012000E00020704711
:10441000CA4302817047F0B5024600200024002301
:10442000002501F00F070126BE40B4B20B11012692
:104430009E40B3B2968806EA03051689264016B157
:104440000DB1012000E00020F0BD10B5002201F008
:104450000F040123A3409AB2D343038110BD00008F
:104460000030014000380040003C004010B50446D8
:10447000FB48844209D101218803FFF727FE002170
:104480004FF48040FFF722FE32E0F648844209D123
:1044900001214804FFF727FE00214FF40030FFF709
:1044A00022FE25E0F048844209D101218804FFF76B
:1044B0001AFE00214FF48020FFF715FE18E0EB48AC
:1044C000844209D10121C804FFF70DFE00214FF4F9
:1044D0000020FFF708FE0BE0E548844208D10121E7
:1044E0000805FFF700FE00214FF48010FFF7FBFDE9
:1044F00010BD2DE9F04786B005460E460024A246C1
:1045000000BFA1460027B08900B100BF2F462C8A0A
:104510004CF6FF700440F08804432C82AC894EF6C0
:10452000F3100440B088318908437189084304437B
:10453000AC81AC8A4FF6FF400440B0890443AC82A2
:1045400001A8FFF73CFDC648874202D1DDF810A064
:1045500001E0DDF80CA0A88900F4004040B10AEBAE
:10456000CA0000EB0A1031684900B0FBF1F807E01F
:104570000AEBCA0000EB0A1031688900B0FBF1F8C1
:104580006420B8FBF0F004012009642101FB1089CC
:10459000A88900F4004040B1322000EBC900B0FB14
:1045A000F1F000F00700044308E0322000EB0910AE
:1045B0006421B0FBF1F000F00F0004432C8106B041
:1045C000BDE8F0874FF41651016000218180C18061
:1045D00001810C21418100218181704710B5024683
:1045E0000020108A4FF2FF0318400B884C882343A9
:1045F0008C882343CC8823431843108210BD0021AC
:10460000018041808180C180704721B1828942F45C
:104610000052828104E082894DF6FF731A40828144
:104620007047F0B50346002400260025002040F620
:104630006A17B94200D100BF1846C1F3421401F015
:104640001F06012707FA06F5012C01D10C3004E002
:10465000022C01D1103000E014301AB107682F434A
:10466000076002E00768AF430760F0BD1AB1838AB4
:104670000B43838202E0838A8B4383827047028AE2
:104680004FF6F0731A400282028A0A430282704790
:1046900082894FF2FF731A40828182890A438281A4
:1046A000704721B1828942F00202828104E082894E
:1046B0004FF6FD731A4082817047028A4FF6DF730E
:1046C0001A400282028A0A430282704721B1028A9A
:1046D00042F48042028204E0028A4BF6FF731A40E1
:1046E00002827047C1F308028280704701468888C1
:1046F000C0F308007047818941F001018181704752
:10470000028BD2B20283028B42EA012202837047FB
:10471000028B02F47F420283028B0A4302837047BA
:1047200021B1828A42F02002828204E0828A4FF61E
:10473000DF731A408282704721B1828A42F01002F0
:10474000828204E0828A4FF6EF731A4082827047B9
:1047500021B1828A42F00802828204E0828A4FF606
:10476000F7731A408282704721B1828942F4004275
:10477000828103E08289C2F30E028281704721B1F7
:10478000828A42F40062828204E0828A4FF2FF73DE
:104790001A4082827047828A4FF6FB731A408282E7
:1047A000828A0A438282704721B1828A42F00202E1
:1047B000828204E0828A4FF6FD731A40828270473B
:1047C00002460020B1F5007F00D100BF13880B40E6
:1047D0000BB1012000E00020704701F40072B2F537
:1047E000007F00D100BFCA430280704770B5024607
:1047F000002400230025002040F66A16B14200D1B3
:1048000000BFC1F3421501F01F03012606FA03F3AE
:10481000012D02D19689334006E0022D02D1168A7D
:10482000334001E0968A33400C12012606FA04F464
:104830001688344013B10CB1012000E0002070BD97
:1048400010B50022002340F66A14A14200D100BF37
:104850000A1201249440A3B2DC43048010BD00007E
:10486000003801400044004000480040004C004037
:10487000005000407047704770477047704710B550
:1048800000F008F8006810BD10B5044600F002F80A
:10489000046010BD004870477C110020004870473C
:1048A0007C1100207546FFF7F9FFAE46050069460A
:1048B000534620F00700854618B020B5FFF750F8A2
:1048C000BDE820404FF000064FF000074FF0000811
:1048D0004FF0000B21F00701AC46ACE8C009ACE892
:1048E000C009ACE8C009ACE8C0098D46704710B5F6
:1048F0000446AFF300802046BDE81040FBF75FBCE4
:104900002DE9F04106460F4600F032F9041E0D462F
:1049100018BF0120284320F00040C0F17F6000F163
:10492000E040C00F0ED0301C18BF0120384320F0EB
:104930000040C0F17F6000F1E040C00F04BF0120E3
:10494000FFF7A2FF20462946BDE8F081491058BF75
:10495000C1F140415B1058BFC3F140438B42EFF3BC
:10496000008070474FEA1153A3F58063D3F11E0313
:10497000A8BFD3F1200C08DB4FF0004242EAC1226D
:1049800052EA505232FA03F0704709420BD4102B0E
:10499000C4BF0020704703F5787CBCF1FF3F05D011
:1049A0004FF0FF3070474FF00000704770B500F0D7
:1049B00055F800BF4992248000207047F0E7B0FA14
:1049C00080F310FA03F10AD0C3F11D0303F58063ED
:1049D0004FEA41504FEA035202EBD12170474FF0AA
:1049E0000000704751EA030C17D41CF5801F58BF14
:1049F000BCF5801F00F10680994218BF704708BFC0
:104A00009042704707D711F5801F58BF13F5801FDC
:104A100019D499427047894270471CF5801F08D508
:104A2000BCF5801FF7D58B4218BF704708BF824284
:104A300070474FF4001C1CEB410F38BF1CEB430FB9
:104A400001D28B42704770B500F008F892244900FB
:104A50004FF000514FF08053FFF778BF0EF1020E78
:104A60002EF0030E5EF8046B364205D4012A43EBA8
:104A7000030515F5001F12D8012841EB010C1CF5A8
:104A8000001F0CD80ED14FEAD17C15F5001F0CEB9E
:104A90004C0C0CF1020C08BF4CEBD37C04E04FF043
:104AA000080C01E04FEAD37C0CEB4C0526FA05F626
:104AB00006F00706B6F1040C06D20EEB860CBDE834
:104AC00070404CF0010C6047DFE80CF0090B02026B
:104AD0004FF000414FF00000A1F5002170BD1946D4
:104AE0001046012851EB010418BFD4F5001484BF0F
:104AF000002001F0004170BD0808A0F500114FEA48
:104B00003101704753EA010C17D41CF5801F58BFC0
:104B1000BCF5801F00F106808B4218BF704708BFAC
:104B20008242704707D713F5801F58BF11F5801FC9
:104B300019D48B4270479B4270471CF5801F08D5E3
:104B4000BCF5801FF7D5994218BF704708BF904247
:104B500070474FF4001C1CEB430F38BF1CEB410F98
:104B600001D2994270470FB40CBC03BCFFF76BBF76
:104B70002DE9F04101F5801CBCF5001FC0F2C38097
:104B80004FEA115C21EA0C510CF1FD0C41F480114B
:104B90005FEA5C0C0CF5C07C01D3400049413DA4A8
:104BA000890241EA905187028E0E0A0CA45D04FB33
:104BB00004F602FB06F6C6F14046A4FB0662F60DBB
:104BC00046EA422606FB06F4A4FB01235242C3F147
:104BD000404338BF5B1EA6FB02420024E6FB0324D1
:104BE000D20B42EA4446A6FB0623A1FB02E2A3FB4A
:104BF00007E4A4184FF0000252F10002E3FB014267
:104C00006442C2F1404E38BFAEF1010EA6FB042350
:104C10004FF00002E6FB0E32A2FB03464FF0000409
:104C2000B61954F10004E2FB0264A1FB06E6A4FB02
:104C300007E816EB08064FF0000858F10008E4FBFF
:104C400001687642C8F1405838BFA8F10108A2FBBC
:104C500006E4A3FB08E52D194FF0000454F100040D
:104C6000E2FB0854A1FB05E6A7FB04E818EB0608E5
:104C70004FF0000656F10006E1FB048618F120050E
:104C800056F10006A809A8F11B08B10908F03F0871
:104C9000B8F10A0F40EA86601CD901EB0C51BDE85F
:104CA000F08100BFFCF5EEE8E2DDD8D3CFCBC7C37F
:104CB000C0BDB9B6B4B1AEACA9A7A5A3A19F9D9B39
:104CC0009A9896959392908F8D8C8B8988878685FC
:104CD00084838281A0FB006800FB01F208EB42089C
:104CE000B8EB872807D5341858EB0104D5D5401CFC
:104CF00051F10001D1E7341A78EB0104CDD4401E04
:104D000071F10001C9E75FEA4C0C5FEA9C5C0DD1D0
:104D100005D34FF0000001F00041BDE8F081BDE88F
:104D2000F04170B5FFF79AFE6DDBFFBEBDE8F041C4
:104D30004FF00000004970470000F87F43004FEA41
:104D4000D30C4FEA3C0C43401FBF40070CF16051AD
:104D500013F0FE4F70471CF0006F03D100200CF0E1
:104D6000004170470CF0004343EA507010B540EA30
:104D7000CC0000F01CFA00BF000000924FEA0001D6
:104D8000FFF7BABE4FF000414FF00000A1F500213F
:104D90007047000090EA010F48BF81F0004100F128
:104DA0005882421A3CBF801A89184FEAD0524FF0FD
:104DB0007F4C1CEA410FA2EBD15318BF9CEA026F53
:104DC00000F03B804FF0004C4CEA00204CEA0121FF
:104DD00021FA03FC10EB0C0C1ED202F1FF325FEA49
:104DE0001C2040EBC25038BF70471CF07F0F4FEAC9
:104DF000400C18BFBCF17F4F38BF7047C3F1200390
:104E0000994008BF20F00100BCF17F4F38BF7047C8
:104E1000A0F1C04000F011BA4FEA3C00000A40EB9C
:104E2000C25028BF1CF0FF0F4FEA400CE6D018BF5D
:104E3000BCF17F4F38BF7047EAE79CEA026F05D0AC
:104E400010EA5C0F08BF00F00040704710B500F09A
:104E5000AEF900BF64FBBE3E4FF47F0C1CEAD012DB
:104E60001EBF1CEAD11392EA0C0F93EA0C0F00F05C
:104E7000858090EA010F48BF42F4807240F4000C34
:104E800041F400002CF07F4120F07F4000B58142CA
:104E9000A2EB03020FF2081CACEB504EC0F1000075
:104EA0009EF800E04FEA4E0E00FB0EFC38BF4900B2
:104EB0004FEA2C1C02F5FA020CFB0EF34FEACE1E51
:104EC0004FEA112C4FEAC1210EEB635E42EB224206
:104ED0000EFB0CFC4FEA1C5300FB03114FEA112C94
:104EE0004FEA01310EFB0CFC4FEADC4C00FB0C11CD
:104EF000C14228BF09184CEB03335DF804EB10EBFB
:104F0000410143EBC250B2F57C0F38BF704729D541
:104F100012F0F00F1CBF00F1C04000F000407047DD
:104F2000008182838485868788898B8C8D8E8F9182
:104F30009293959697999A9C9D9FA0A2A3A5A7A8A6
:104F4000AAACAEB0B2B3B5B7B9BCBEC0C2C5C7C9D2
:104F5000CCCED1D4D7D9DCDFE2E6E9ECF0F3F7FA36
:104F6000FE0000004FEA400C0CF1807CBCF17E4F4B
:104F700028BF7047B0F1C04000F05FB990EA010F60
:104F80000CEAD11348BF42F48072624538BF6345D2
:104F900007D213F47F0F16D080EA010000F0004022
:104FA000704710B500F003F9097EFC3E00F005B82B
:104FB00080EA010000F00040704780EA010000F044
:104FC000004000F03AB912F47F0F04BF0248704766
:104FD00080EA010000F031B90000C07F41000B0EF3
:104FE000D3F19E0208D950F400034FEA032323FAB9
:104FF00002F048BF4042704710B500F0D8F800BF3B
:1050000049922480002070476FF0004282EA20001D
:1050100070470000C10DD1F19E0206DB4FEA00236C
:1050200043F0004323FA02F07047004207D54FEAED
:105030004001B1F1FE4F02D24FF00000704710B5B1
:1050400000F0B5F849922480002070476FEA2000F4
:105050007047000010F0004148BF4042B0FA80F3B2
:1050600010FA03F2C3F19D030BD051EAC35101EBD7
:105070001220530638BF704700F1010008BF20F02E
:1050800001007047B0FA80F310FA03F2C3F19D03F8
:105090000AD0D90501EB1220530638BF704700F142
:1050A000010008BF20F00100704700004FF47F0CA2
:1050B0001CEAD0121EBF1CEAD11392EA0C0F93EA2D
:1050C0000C0F00F0478090EA010F48BF42F4807255
:1050D0004FF0004C4CEA00204CEA012102EB0302A5
:1050E000A0FB0113A2F50002002918BF43F0010341
:1050F0005B0028BF4FEA330342EB22425FEA132CE6
:105100004CEBC2502EBFBCEB436FB2F57C0F704727
:105110004FEA036CBCF1004F08BF20F00100B2F56C
:105120007C0F38BF70470BD582F0FF0212F5803F2D
:10513000C8BF704700F1C040D8BF00F000407047C2
:1051400000F5000C5FEA4C0C48BF7047B0F1C0405E
:1051500000F073B890EA010F0CEAD11348BF42F493
:105160008072624538BF634504D280EA010000F0D6
:105170000040704710B500F01AF800BF8900013EEA
:1051800000F007B800F009B85FEA410C5FEA1C6C58
:1051900008D080EA010000F050B85FEA400C5FEAF6
:1051A0001C6CF6D14FF00040A0F5800070470EF166
:1051B000020E2EF0030E5EF8044B244204D44FEA94
:1051C0004102B2F17F4F11D84FEA4003B3F17F4F54
:1051D0000CD80ED14FEAD07CB2F17F4F0CEB4C0CC7
:1051E0000CF1020C08BF4CEBD17C04E04FF0080C32
:1051F00001E04FEAD17C0CEB4C0324FA03F404F0F9
:105200000704B4F1040C06D20EEB840CBDE8104088
:105210004CF0010C6047DFE80CF0070802024FF089
:105220000040A0F5800010BD0846420018BFD2F132
:10523000807288BF00F0004010BDFF2141EAD050CD
:10524000C005704790EA010F48BF81F000413FF56B
:10525000A8AD421A04D882F00042A0EB020011442B
:105260004FEAD0524FF07F4C1CEA410FA2EBD153D2
:1052700018BF9CEA026F4AD04FF0004C4CEA002065
:105280004CEA012121FA03FCB0EB0C0C0FD412F014
:10529000FE0F36D05FEA4C001DD5001240EBC25025
:1052A00038BF70471CF03F0F18BF70470BE0A2F1EA
:1052B00001025FEA1C2040EBC25038BF70471CF06F
:1052C0007F0F18BF7047C3F12003994014BF401EE1
:1052D00020F00100704780084FEA122308BF704792
:1052E000B0FA80FCA2EB0C02CCF1280C60FA0CF0B6
:1052F00093EA122F04BF00EBC25070474FEAC3700D
:105300007047130A5FEADC1008BF7047F6E79CEAB3
:10531000026F04D010EA5C0F08BF0020704710B580
:10532000FFF745FF40DFF63E81F000407047FFFF8A
:10533000FFFFFFFFFFFFFFFFFFFFFFFFFFFFFFFF7D
:10534000FFFFFFFFFFFFFFFFFFFFBEF77DEFBAD6B6
:10535000B6B5F39CB294B39CB29434A5F7BDFBDE12
:105360007DEFFFFFFFFFFFFFFFFFFFFFFFFFFFFFDF
:10537000FFFFFFFFFFFFFFFFFFFFFFFFFFFFFFFF3D
:10538000FFFFFFFFFFFFFFFFFFFFFFFFFFFFFFFF2D
:10539000FFFFFFFFFFFFBEF7FBDEF39CCB5AC739D1
:1053A0000421821042104210410883184529C73950
:1053B0000C6375AD3CE7BEF7FFFFFFFFFFFFFFFF8C
:1053C000FFFFFFFFFFFFFFFFFFFFFFFFFFFFFFFFED
:1053D000FFFFFFFFFFFFFFFFFFFFFFFFFFFFFFFFDD
:1053E000FFFFFFFF3CE7B2940842C318821004217C
:1053F000452986318631863186314529042182103E
:105400004108C3180842F39C3CE7FFFFFFFFFFFF82
:10541000FFFFFFFFFFFFFFFFFFFFFFFFFFFFFFFF9C
:10542000FFFFFFFFFFFFFFFFFFFFFFFFFFFFFFFF8C
:10543000FFFFFBDE0C63C318C3184529C7390842B8
:1054400008420842084208420842C739C739863133
:105450008631042141088210CB5ABAD6FFFFFFFFE4
:10546000FFFFFFFFFFFFFFFFFFFFFFFFFFFFFFFF4C
:10547000FFFFFFFFFFFFFFFFFFFFFFFFFFFFFFFF3C
:10548000FBDECB5A82104529C73908420842094A37
:10549000494A494A494A494A494A0842C739C739E3
:1054A000C7398631452983180000C84138C6FFFF37
:1054B000FFFFFFFFFFFFFFFFFFFFFFFFFFFFFFFFFC
:1054C000FFFFFFFFFFFFFFFFFFFFFFFFFFFF7DEF7E
:1054D0008E7382104529C7390842094A8A5230849E
:1054E000CF7B8A52494A4A52494ACB5ACF7B0C63F6
:1054F0000842C73986314529C3180000494ABAD63F
:10550000FFFFFFFFFFFFFFFFFFFFFFFFFFFFFFFFAB
:10551000FFFFFFFFFFFFFFFFFFFFFFFFFFFFF39C0A
:10552000C3180421C7390842494A494A72947DEF99
:105530007DEFB2944A52494A8A5275ADBEF7BAD647
:105540004D6BC739C73986314529C3184108CF7B10
:105550007CE7FFFFFFFFFFFFFFFFFFFFFFFFFFFFF6
:10556000FFFFFFFFFFFFFFFFFFFFFFFFBAD608426D
:105570008210C7390842494A494A8E73FBDEFFFF51
:10558000BEF7BAD68E73084230843CE77DEFFFFF4A
:10559000B6B5494AC739863145290421410845290C
:1055A000B6B5FFFFFFFFFFFFFFFFFFFFFFFFFFFF9E
:1055B000FFFFFFFFFFFFFFFFFFFFBEF7718C4108FA
:1055C00045290842494A494A4A52B294BEF7BEF7B1
:1055D000B294CF7BCF7B494AB6B5F39C0C6338C6F7
:1055E000BAD60C638739C73986314529C3184108B3
:1055F00030847DEFFFFFFFFFFFFFFFFFFFFFFFFF97
:10560000FFFFFFFFFFFFFFFFFFFF3CE7CB5A410813
:10561000C7390842494A4A528A52F39CFFFF7DEF3C
:10562000C739C3180C63CB5AB6B5B294CB5A75AD13
:10563000FAD64D6B8739C73986314529042141088F
:105640008A5279CEFFFFFFFFFFFFFFFFFFFFFFFF43
:10565000FFFFFFFFFFFFFFFFFFFF38C6863104217A
:10566000C841494A494A4A52494AB18CBEF7BEF735
:10567000B294CF7BCF7B494A74A57DEF7CE7BEF720
:1056800079CE0C63C739C739863145290421821088
:10569000452975ADBEF7FFFFFFFFFFFFFFFFFFFFCF
:1056A000FFFFFFFFFFFFFFFFFFFF34A582108631E2
:1056B0000842494A494A8A52494A4D6BBAD6FFFFC5
:1056C000FFFF79CE0D63C739CF7B7DEFFFFFFFFF73
:1056D00075AD08428631C739863145294529C31839
:1056E000C318B2947DEFFFFFFFFFFFFFFFFFFFFF37
:1056F000FFFFFFFFFFFFFFFFBEF7B28C4108C73976
:105700000842494A494A8A528A524A4AD07B7AC652
:105710007BBE906BC9398831C939B384BBC6F8B533
:10572000CC5A8631C739C739863145294529C42025
:10573000410830843CE7FFFFFFFFFFFFFFFFFFFF53
:10574000FFFFFFFFFFFFFFFF3CE78A4AC310C73997
:105750000842494A494A4A4A4A42093A084A096BB0
:10576000497BC67A05834683C57AC672097B485A47
:1057700087318821882986318631452945290421A8
:1057800041084A4ABAD6FFFFFFFFFFFFFFFFFFFFB6
:10579000FFFFFFFFFFFFFFFFF7C582500541C7294D
:1057A0000842494A4A42494A097B889BC6B321D4E8
:1057B000A0DCE1E461ED61ED21EDA0E420DC80CB33
:1057C00043ABC482065A47214629452904290419B6
:1057D00082108218F39C7DEFFFFFFFFFFFFFFFFFAA
:1057E000FFFFFFFFFFFF7DEF4D9300A082B8C731A1
:1057F0000932494A867A43C36BEDF4F6EBFD20FD8E
:1058000020FD60FDA0FDA0FD60FD60FD20FDE0FC31
:10581000A0FC60F4C1DB839AC54945290419C42062
:1058200082380050CB6ABAD6FFFFFFFFFFFFFFFFB1
:10583000FFFFFFFFFFFFFBEE04A100C000F0C3A0CD
:10584000C8414942059B20FCA4FC69FDE8FD63FDBD
:1058500020FD60FD60FD60FD20FD20FDE0FCE0FC22
:10586000A0FC60FC20FC41D3C5494519C4388268BE
:1058700041880070495A79CEFFFFFFFFFFFFFFFF0D
:10588000FFFFFFFFFFFFFBF682C000D086C146F19D
:1058900041C8457989528862866AC67AC4BBE1FCF0
:1058A00060FD60FDA0FDA0FD60FD60FDE0FC60E42A
:1058B00003938472446AC5414529C35841A840985E
:1058C00000B000600C6B79CEFFFFFFFFFFFFFFFF12
:1058D000FFFFFFFF7DEFCE83828800F8C4D80CF372
:1058E0008AFA82E882B04569C7510842083A865A66
:1058F000839BA2BC22CD21CDA1C422B4C47A063A96
:10590000862945290531C450419000C000A800A057
:1059100000A800304A4ABAD6FFFFFFFFFFFFFFFF93
:10592000FFFF7DEF8E73C318053982A800F8C3F816
:105930004DFB4DFBC7F9C3F082D8C3B0048145616C
:1059400046518649864946414541454145410549BB
:105950000461829041B000D000C800A800A800B83F
:10596000415882108210B294BEF7FFFFFFFFFFFF85
:10597000BEF7CF7B8210042186298641049940E836
:1059800041F886F9CBFA49FA82F800F800F000E80D
:1059900041D841D041C041C041C041C041C800D000
:1059A00000E000E000D800D000B800A8418882489C
:1059B000821082100000452979CEFFFFFFFFBEF75D
:1059C000F39C8210C31845298631C731307CF3DC43
:1059D00086E100F000F841F841F800F800F800F81E
:1059E00000F800F800F800F800F800F800F800E807
:1059F00000E000E000D800C841A08A9A0C630411BE
:105A000082108210410800004D6B7DEFFFFFFBDE2E
:105A100008424210452986318631494A38BEFFFF87
:105A200038D686A900C800E000F000F800F800F8B9
:105A300000F800F800F800F800F800F000F000E8C6
:105A400000E000D0C3988A8AB2A4BAC6F7B508426B
:105A500041088210410800004529F7BDFFFF718C05
:105A6000410804214529863186310C633CE7FFFF5C
:105A700079D646B900E042C882A882B041D882E80F
:105A800082F041E841E841E841F041E841D804C1F1
:105A900008924D8B34A5FBC6FBD6BACE3CE73084CA
:105AA000C3184108410800004108CF7B7DEF494AF7
:105AB000000004214529463186313084FFFFFFF77D
:105AC000F7DD09DA83F801F042C08298499AF3B40D
:105AD000F3CC71BC8EBB8EBB30BC71BCF3BCB6BD0D
