:0300000002394082
:0C394000787FE4F6D8FD75810702398716
:103DC600687474703A2F2F74746D63752E74616FF6
:103DD60062616F2E636F6D004C43445F573A004C2F
:103DE60043445F483A0056583A0056793A004348E9
:083DF600583A004348593A0015
:043CFA004100AC00D9
:103BA200123EEBEF701E74FFFFFE123C0074FF909A
:103BB2000097F0A3F090009274F8F0A3E4F01236AC
:103BC2004D7F012220B2061213737F01227F002053
:103BD200B32B7EF8123C007FB87E0B123E317FE0A1
:103BE2007E07123C007FB87E0B123E317F1F7E00A3
:0E3BF200123C007FB87E0B123E317F01222272
:1028090074FF900097F0A3F090009274F8F0A3E49D
:10281900F0FBFDFC7F0AFE1237267B01E4FDFC7FFD
:102829002DFE1237267BFF7A3D79C67D237C007FFA
:102839000A7E0012389F7BFF7A3D79DE7D377C0066
:102849007F0A7E0012389F9000471225E10000039D
:102859002090004B7403F07D377C007F467E001288
:10286900356C7BFF7A3D79E57D377C007F6E7E0094
:1028790012389F9000471225E1000001E090004BBB
:102889007403F07D377C007FA07E0012356C9000C8
:1028990006E4F0A3740AF0A3E4F0A3744BF07BFF01
:1028A9007A3D79ECFD7C007F0A7E0012389F90000A
:1028B90007E02428F0900006E03400F09000A8E03A
:1028C900FEA3E0FFE4FCFD9000471225D590004BE4
:1028D9007405F0900008E0FCA3E0FD900006E0FE1E
:1028E900A3E0FF12356C900007E0243CF09000064D
:1028F900E03400F0E0FEA3E0FFA3E0FCA3E0FD7BF1
:10290900FF7A3D79F012389F900007E02428F09073
:102919000006E03400F09000AAE0FEA3E0FFE4FC2A
:10292900FD9000471225D590004B7405F0900008E2
:10293900E0FCA3E0FD900006E0FEA3E0FF12356C89
:10294900900006E4F0A3740AF0A3E4F0A3745FF026
:102959007BFF7A3D79F4FD7C007F0A7E0012389F67
:10296900900007E02428F0900006E03400F0900081
:102979009CE0FEA3E0FFE4FCFD9000471225D59002
:10298900004B7405F0900008E0FCA3E0FD90000600
:10299900E0FEA3E0FF12356C900007E0243CF090C4
:1029A9000006E03400F0E0FEA3E0FFA3E0FCA3E0B2
:1029B900FD7BFF7A3D79F912389F900007E02428C2
:1029C900F0900006E03400F090009EE0FEA3E0FFE6
:1029D900E4FCFD9000471225D590004B7405F0905A
:1029E9000008E0FCA3E0FD900006E0FEA3E0FF0282
:0229F900356C3B
:1031870074FFFFFE123C00122809900004E4F0A32C
:103197007403F0E4900002F0A3F0900002E0FAA3B9
:1031A700E0FB7C007D28FFAE021223FDC006C007AE
:1031B700A3E0FEA3E0FF1223FDC006C007AF03AEE6
:1031C700021223FDEF2427FBE43EFA900004E0FE01
:1031D700A3E0FF1223FDEF2427FFE43E900069F0F0
:1031E700A3EFF0D005D004D007D006123D8CE490B1
:1031F7000000F0A3F0123BA2EF60079000AC74014F
:10320700F022900001E025E0FD900000E033FC741F
:10321700042DF58274003CF583E493FF74032DF5C8
:103227008274003CF583E493FD123EF1900001E0C7
:1032370004F07006900000E004F0C3900001E094F1
:1032470040900000E06480948640AA900003E00468
:10325700F07006900002E004F0C3900003E09414BD
:10326700900002E06480948050030231A190000531
:10327700E004F07006900004E004F0C3900005E05D
:10328700940B900004E064809480500302319AE428
:043297009000ACF007
:01329B002210
:103DFE00123EE2122D8474FFFFFE123C00E490008E
:103E0E0097F0A3F074FF900092F0A3F01231871296
:103E1E003BA2EF60031231879000ACE060F11231EB
:033E2E008780EC9E
:023EF6002000AA
:103CFE0042008A031F42008603A0420090002E421B
:103D0E000095000F4100943042008E01DF42008882
:103D1E00020D420099001042008C000841009B10D9
:0B3ECC008FA0AF058F80C2B6D2B622D7
:053EF100D2B5023ECC39
:093EAA00A3E0FF123EB3A3E0FF08
:0B3EB300AD07AC06D2B5ECFF023ECC20
:0B3ED700AD07AC06C2B5ECFF023ECC0C
:0E3EBE00AB05AA04123ED7AE02AF03023EB31C
:103D8C00900063EEF0A3EFF0A3ECF0A3EDF07F2A2C
:103D9C007E00123ED7900063123EABEAFF123EB398
:103DAC00AF037E00123EB37F2B123ED7123EAA9079
:0A3DBC000069123EAB7F2C023ED7D7
:102D8400D29020905BE4FDFCFFFE123EBE7BFF7AF6
:102D94003E79F6E4FDFCFFFE12389F9000471225B1
:102DA400E100000000E490004BF0FDFCFFFE123552
:102DB4006CE4900006F0FBFAFDFCFFFE123A52E4CC
:102DC400FDFCFFFE123CAEE4900006F0A3F0FBFA1B
:102DD400FDFCFFFE1237F5E4FBFDFCFFFE1226129C
:102DE400D2927F057E00123E31C2927F057E001290
:102DF4003E31D292D290D2B7D2B67F057E00123E37
:102E040031C2907FE27E00123ED77F23123EB37F11
:102E140002123EB37F04123EB37FE0123ED77F011D
:102E2400123EB37F01123E317FE07E00123ED77F17
:102E340003123EB37F05123E317F017E00123ED75E
:102E44007F05123E317FE67E00123ED77F03123E9D
:102E5400B37FFF123EB37FFF123EB37FB0123ED763
:102E6400E4FF123EB3E4FF123EB390008A123EAB7D
:102E740090008E123EABE4FF123EB37FB4123ED7F5
:102E8400900086123EAB900090123EAB900094E00E
:102E9400FF123EB3123EAAE4FF123EB37FB6123EC7
:102EA400D7900088123EAB900099E0FF123EB31217
:102EB4003EAA90008C123EAB7FBA123ED77F051219
:102EC4003EB37FB8123ED77F07123EB37F01123E56
:102ED400B37F36123ED7E4FF123EB37FF0123ED7E3
:102EE4007F03123EB37F05123E317F297E00123EDE
:0B2EF400D77FD0123ED77F0D023EB307
:023C0000AC0610
:103C0200EC90004AF0A9079000697401F0A374DFF8
:103C1200F07B1F7A03E4FDFCFFFE123D8CE4900072
:103C22004BF0A3F0E4FBFA90004AE0FFAD01123E34
:103C3200F10BBB00010ABA01EEBBE0EB90004CE0D5
:103C420004F0700690004BE004F0C390004CE09446
:093C52002090004BE0940340CBEC
:013C5B002246
:1037260090000AEEF0A3EFF090000EEBF090000C84
:05373600ECF0A3EDF032
:10373B0090001174FFF0A3740CF0A37483F090004D
:10374B000AE0FAA3E0FFAE02C006C007241FFBE4A9
:10375B003AFAA3E0FEA3E0241FFFE43E900069F0D9
:10376B00A3EFF0D007D006123D8C90000EE075F061
:10377B0080A4FF900012E5F08FF0122464E4900017
:10378B0010F0E490000FF090000FE0FFC39408508E
:10379B0042900011E0FBA3E0FAA3E0F91223E4FD51
:1037AB007C0074017E00A807088005C333CE33CE9E
:1037BB00D8F9FFEE5CFEEF5D4E6005900092800342
:1037CB00900097E0FEA3E0FF123EB390000FE004E1
:1037DB00F080B4900012E475F00112246490001094
:0937EB00E004F0E0C39480409971
:0137F40022B2
:103C5C00900004E0FEA3E0FF900001E02FFF900035
:103C6C0000E03E900006FEE0FCA3E0FD900003E0C7
:083C7C002DFD900002E03CFC6C
:103C8400AB07AA068D828C83C006C007AE83AF82C1
:103C9400900069EEF0A3EFF0D007D006123D8C90AF
:0A3CA4000092E0FEA3E0FF023EB331
:103CAE00AB07AA068D828C83EB24FFFFEA34FFFE5E
:103CBE00C006C007E58224FFFDE58334FFFCEB243C
:103CCE0001FBE43AFAAE83AF82EF2401FFE43E90AB
:103CDE000010F0A3EFF0900092E0FFA3E09000122E
:0C3CEE00CFF0A3EFF0D007D0060239CCD5
:1039CC0090000AEEF0A3EFF0A3ECF0A3EDF0A3EA65
:0439DC00F0A3EBF079
:1039E000C007A3E0FFA3E0900069CFF0A3EFF0D001
:1039F00007123D8C90000CE0FFA3E0900014CFF084
:103A0000A3EFF0900010E0FEA3E0FFD3900015E0DC
:103A10009F900014E09E503990000AE0FEA3E0FB66
:103A2000AA06C390000FE09B90000EE09A4012900F
:103A30000012E0FEA3E0FF123EB30BBB00010A80C0
:103A4000E1900015E004F070BA900014E004F080FA
:013A5000B2C3
:013A51002252
:0E29FB00900047EEF0A3EFF0A3ECF0A3EDF098
:102A0900E4900051F0A3F0A3F0A3F0900047E0FE9A
:102A1900A3E0FFC3EB9FFFEA9E900055F0A3EFF000
:102A2900900049E0FAA3E0FBC390004EE09BFE90C2
:102A3900004DE09A900057F0A3CEF0900047E0FFD8
:102A4900A3E090005FCFF0A3EFF0A3EAF0A3EBF0CF
:102A5900900055E0FEA3E0FFD39400EE64809480DB
:102A6900400A90005BE4F0A304F08021EF4E700867
:102A790090005BF0A3F0801574FF90005BF0A3F069
:102A8900C3E49FFFE49E900055F0A3EFF090005738
:102A9900E0FEA3E0FFD39400EE64809480400A90A6
:102AA900005DE4F0A304F08021EF4E700890005D12
:102AB900F0A3F0801574FF90005DF0A3F0C3E49FCC
:102AC900FFE49E900057F0A3EFF0900057E0FEA3BB
:102AD900E0FF900055E0FCA3E0FDD39FEE6480F891
:102AE900EC6480989000594007ECF0A3EDF0800564
:102AF900EEF0A3EFF0E490004FF0A3F090005AE05D
:102B09002401FF900059E03400FED3900050E09F6B
:102B190090004FE09E4003022BE590005FE0FEA38A
:102B2900E0FFA3E0FCA3E0FD123C84900055E0FE29
:102B3900A3E0FF900052E02FF0900051E03EF090AA
:102B49000057E0FEA3E0FF900054E02FF0900053FF
:102B5900E03EF0900059E0FEA3E0FF900051E0FC58
:102B6900A3E0FDD39FEE6480F8EC6480984020EDEB
:102B79009FFFEC9E900051F0A3EFF090005BE0FE08
:102B8900A3E0FF900060E02FF090005FE03EF0903E
:102B99000059E0FEA3E0FF900053E0FCA3E0FDD361
:102BA9009FEE6480F8EC6480984020ED9FFFEC9ED6
:102BB900900053F0A3EFF090005DE0FEA3E0FF90DA
:102BC9000062E02FF0900061E03EF0900050E004D8
:0C2BD900F0700690004FE004F0022B05A5
:012BE50022CD
:1037F500900004EAF0A3EBF0900000EEF0A3EFF0E8
:10380500A3ECF0A3EDF0C007A3E0FAA3E0FB900062
:1038150002E0FFA3E090004DCFF0A3EFF0D0071238
:1038250029FB900000E0FAA3E0FBFFAE02C007A36E
:10383500E0FCA3E0FD900006E0FFA3E090004DCF83
:10384500F0A3EFF0D0071229FB900006E0FCA3E0FF
:10385500FD900004E0FAA3E0FBA3E0FFA3E09000E5
:103865004DCFF0A3EFF0900000E0FEA3E0FF12299A
:10387500FB900004E0FAA3E0FBFFAE02C007900056
:1038850002E0FCA3E0FD900006E0FFA3E090004D00
:0A389500CFF0A3EFF0D0070229FBEB
:0E261200900000EEF0A3EFF0A3ECF0A3EDF0CB
:10262000E4A3F0A3F0EBFF7E00A3EEF0A3EFF02510
:10263000E0FFEE33FEC374039F900009F0E49E9028
:102640000008F0900006E0FEA3E0FFD3900005E054
:102650009FEE6480F8900004E064809840030228B4
:1026600008C3900001E09FFF900000E09EFE9000F4
:1026700004E0FCA3E0FDC3900003E09DFD90000298
:10268000E09CFC123C84900006E0FEA3E0FF90007A
:1026900001E02FFF900000E03EFE900004E0FCA36C
:1026A000E0FDC3900003E09DFD900002E09CFC1261
:1026B0003C84900004E0FEA3E0FFC3900001E09F93
:1026C000FF900000E09E123C6F900006E0FEA3E049
:1026D000FFC3900001E09FFF900000E09EFE90008D
:1026E00004E0FCA3E0FDC3900003E09DFD90000228
:1026F000E09CFC123C84900004E0FEA3E0FFC39049
:102700000001E09FFF900000E09EFE900006E0FCCC
:10271000A3E0FDC3900003E09DFD900002E09CFC5F
:10272000123C84900006E0FEA3E0FF900001E02F41
:10273000FF900000E03E900004123C72900004E024
:10274000FEA3E0FF900001E02FFF900000E03EFEBE
:10275000900006E0FCA3E0FDC3900003E09DFD9027
:102760000002E09CFC123C84123C5C900006E0FEFF
:10277000A3E0FFC3900001E09FFF900000E09EFEF9
:10278000900004123C73900005E004F07006900085
:1027900004E004F0C3900008E0648094805024902A
:1027A0000004E0FEA3E07802C333CE33CED8F92490
:1027B00006FFE43EFE900009E02FF0900008E03EA6
:1027C000F0803F900006E0FEA3E0FFC3900005E02C
:1027D0009FFF900004E09EFEEF7802C333CE33CE1D
:1027E000D8F9240AFFE43EFE900009E02FF09000A3
:1027F00008E03EF0900007E024FFF0900006E0348F
:08280000FFF0123C5C022643CC
:0128080022AD
:062BE600FBE4900054F036
:102BEC0090004FEEF0A3EFF0A3ECF0A3EDF0A3EB0D
:012BFC00F0E8
:102BFD0090004FE0FEA3E0FF900057EEF0A3EFF042
:102C0D00900092E0FDA3E0900059CDF0A3EDF0D33C
:102C1D00EF9410EE94034003022D83900051E0FCDD
:102C2D00A3E0FD94D0EC94014003022D839000535A
:102C3D00E024E0F090004FE0FAA3E0FFAE02C00602
:102C4D00C0072407FBE43AFAA3E0FEA3E0240FFF3C
:102C5D00E43E900069F0A3EFF0D007D006123D8C52
:102C6D00900054E06003022D0BF9900053E075F0D5
:102C7D0010A4FFE97C002FFFEC35F0FE74832FF5D7
:102C8D0082740D3EF583E493900055F0E4A3F0902B
:102C9D000055E030E0059000598003900097E0FF6B
:102CAD00A3E0900092CFF0A3EFF0900092E0FEA38E
:102CBD00E0FF123EB3900055E0C313F0900050E0DA
:102CCD0004F0700690004FE004F0900056E004F020
:102CDD00E0C3940840B9900057E0FFA3E090004F87
:102CED00CFF0A3EFF0900052E004F0700690005189
:102CFD00E004F009E964106003022C778069E4F9BF
:102D0D00900053E075F010A4FFE97C002FFFEC3527
:102D1D00F0FE74832FF582740D3EF583E4939000DD
:102D2D0055F0E4A3F0900056E0FFC39408503390A3
:102D3D000055E030E01F900050E02FFF90004FE075
:102D4D003400FEE9FD900052E02DFD900051E0347D
:102D5D0000FC123C84900055E0C313F0A3E004F096
:102D6D0080C309E9B41099900059E0FFA3E09000E9
:062D7D0092CFF0A3EFF07D
:012D8300222D
:083D430090004FEFF0A3EDF03A
:103D4B00A31225E100000001900050E0FF14F0EFFA
:103D5B006020A3E0F8A3E0F9A3E0FAA3E0FB900056
:103D6B004FE0FFE4FCFDFE1224999000511225D583
:103D7B0080D6900051E0FCA3E0FDA3E0FEA3E0FFA2
:013D8B002215
:0E356C00900043EEF0A3EFF0A3ECF0A3EDF01F
:10357A00E490004EF0900047A3A3E0FEA3E0FFE42E
:10358A00FCFD9000471225D5E490004CF090004BCA
:10359A00E0FFA3E0FEC39F400302364CC3EF9E1434
:1035AA00FD7F0A123D43A804A905AA06AB079000AD
:1035BA0047E0FCA3E0FDA3E0FEA3E0FF122524E41C
:1035CA007B0AFAF9F812252490004DEBF0A3E0707B
:1035DA003B90004BE014FFA3E0FEC39F502EA3E0F4
:1035EA007024EE75F008A4FF900044E02FFF9000CD
:1035FA0043E035F0FE900045E0FCA3E0FDE49000D6
:10360A0054F07B20803090004E7401F090004CE022
:10361A0075F008A4FF900044E02FFF900043E035C6
:10362A00F0FE900045E0FCA3E0FD90004DE0243060
:10363A00FBE4900054F0122BEC90004CE004F002F2
:02364A003597B2
:01364C00225B
:103A5200900000EEF0A3EFF0A3ECF0A3EDF0A3EAE8
:043A6200F0A3EBF0F2
:103A6600E4900007F0900006E0F9A3E0FFC3995048
:103A76005CC3E99F14FD7F0A123D43A804A905AA69
:103A860006AB07900004E0FEA3E0FFE4FCFD122570
:103A960024E47B0AFAF9F8122524AF03900008EF14
:103AA600F0900007E075F008A4FF900001E02FFFFA
:103AB600900000E035F0FE900002E0FCA3E0FDEB94
:0D3AC6002430122BE6900007E004F08098F9
:013AD30022D0
:10389F00900043EEF0A3EFF0A3ECF0A3EDF0A3EB59
:1038AF00F0A3EAF0A3E9F0900047E0FBA3E0FAA34E
:1038BF00E0F91223E46079D3900044E09410900073
:1038CF0043E094034012E4F0A3F0900046E024108C
:1038DF00F0900045E03400F0D3900046E094D09093
:1038EF000045E094014011E4900043F0A3F0A3F0F1
:1038FF00A3F0FF7EF8123C00900043E0FEA3E0FF30
:10390F00A3E0FCA3E0FDA3E0FBA3E0FAA3E0F91220
:10391F0023E4122BE6900044E02408F0900043E0EB
:10392F003400F0900048E475F0011224640238B6B8
:01393F002265
:103E3100E4FDFCC3ED9FEE6480F8EC6480985015BE
:103E4100E4FBFA0BBB00010ABA03F8BBE8F50DBDB0
:053E510000010C80DE01
:013E56002249
:10000300FFFFFFFFFFFFFFFFFFFFFFFFFFFFFFFFFD
:10001300FFFFFFFFFFFFFFFFFFFFFFFFBEF77DEFC8
:10002300BAD6B6B5F39CB294B39CB29434A5F7BDDB
:10003300FBDE7DEFFFFFFFFFFFFFFFFFFFFFFFFF84
:10004300FFFFFFFFFFFFFFFFFFFFFFFFFFFFFFFFBD
:10005300FFFFFFFFFFFFFFFFFFFFFFFFFFFFFFFFAD
:10006300FFFFFFFFFFFFFFFFBEF7FBDEF39CCB5A53
:10007300C7390421821042104210410883184529D0
:10008300C7390C6375AD3CE7BEF7FFFFFFFFFFFF0A
:10009300FFFFFFFFFFFFFFFFFFFFFFFFFFFFFFFF6D
:1000A300FFFFFFFFFFFFFFFFFFFFFFFFFFFFFFFF5D
:1000B300FFFFFFFFFFFF3CE7B2940842C318821023
:1000C300042145298631863186318631452904212B
:1000D30082104108C3180842F39C3CE7FFFFFFFF6F
:1000E300FFFFFFFFFFFFFFFFFFFFFFFFFFFFFFFF1D
:1000F300FFFFFFFFFFFFFFFFFFFFFFFFFFFFFFFF0D
:10010300FFFFFFFFFBDE0C63C318C3184529C73984
:10011300084208420842084208420842C739C73920
:1001230086318631042141088210CB5ABAD6FFFFAB
:10013300FFFFFFFFFFFFFFFFFFFFFFFFFFFFFFFFCC
:10014300FFFFFFFFFFFFFFFFFFFFFFFFFFFFFFFFBC
:10015300FFFFFBDECB5A82104529C739084208420C
:10016300094A494A494A494A494A494A0842C73910
:10017300C739C7398631452983180000C84138C6B5
:10018300FFFFFFFFFFFFFFFFFFFFFFFFFFFFFFFF7C
:10019300FFFFFFFFFFFFFFFFFFFFFFFFFFFFFFFF6C
:1001A3007DEF8E7382104529C7390842094A8A5266
:1001B3003084CF7B8A52494A4A52494ACB5ACF7B31
:1001C3000C630842C73986314529C3180000494AE0
:1001D300BAD6FFFFFFFFFFFFFFFFFFFFFFFFFFFF9A
:1001E300FFFFFFFFFFFFFFFFFFFFFFFFFFFFFFFF1C
:1001F300F39CC3180421C7390842494A494A7294F7
:100203007DEF7DEFB2944A52494A8A5275ADBEF7EB
:10021300BAD64D6BC739C73986314529C31841084A
:10022300CF7B7CE7FFFFFFFFFFFFFFFFFFFFFFFF2A
:10023300FFFFFFFFFFFFFFFFFFFFFFFFFFFFBAD639
:1002430008428210C7390842494A494A8E73FBDE85
:10025300FFFFBEF7BAD68E73084230843CE77DEFCA
:10026300FFFFB6B5494AC7398631452904214108FC
:100273004529B6B5FFFFFFFFFFFFFFFFFFFFFFFFAE
:10028300FFFFFFFFFFFFFFFFFFFFFFFFBEF7718CC5
:10029300410845290842494A494A4A52B294BEF79D
:1002A300BEF7B294CF7BCF7B494AB6B5F39C0C63C0
:1002B30038C6BAD60C638739C73986314529C3187E
:1002C300410830847DEFFFFFFFFFFFFFFFFFFFFFCC
:1002D300FFFFFFFFFFFFFFFFFFFFFFFF3CE7CB5ADF
:1002E3004108C7390842494A4A528A52F39CFFFFE0
:1002F3007DEFC739C3180C63CB5AB6B5B294CB5A4A
:1003030075ADFAD64D6B8739C73986314529042136
:1003130041088A5279CEFFFFFFFFFFFFFFFFFFFF78
:10032300FFFFFFFFFFFFFFFFFFFFFFFF38C6863121
:100333000421C841494A494A4A52494AB18CBEF745
:10034300BEF7B294CF7BCF7B494A74A57DEF7CE7A0
:10035300BEF779CE0C63C739C739863145290421E5
:100363008210452975ADBEF7FFFFFFFFFFFFFFFFBB
:10037300FFFFFFFFFFFFFFFFFFFFFFFF34A582101B
:1003830086310842494A494A8A52494A4D6BBAD68C
:10039300FFFFFFFF79CE0D63C739CF7B7DEFFFFFF3
:1003A300FFFF75AD08428631C73986314529452996
:1003B300C318C318B2947DEFFFFFFFFFFFFFFFFFDA
:1003C300FFFFFFFFFFFFFFFFFFFFBEF7B28C4108F8
:1003D300C7390842494A494A8A528A524A4AD07B13
:1003E3007AC67BBE906BC9398831C939B384BBC621
:1003F300F8B5CC5A8631C739C739863145294529DD
:10040300C420410830843CE7FFFFFFFFFFFFFFFFED
:10041300FFFFFFFFFFFFFFFFFFFF3CE78A4AC31019
:10042300C7390842494A494A4A4A4A42093A084AA4
:10043300096B497BC67A05834683C57AC672097BF5
:10044300485A8731882188298631863145294529AB
:10045300042141084A4ABAD6FFFFFFFFFFFFFFFF0F
:10046300FFFFFFFFFFFFFFFFFFFFF7C582500541BF
:10047300C7290842494A4A42494A097B889BC6B36D
:1004830021D4A0DCE1E461ED61ED21EDA0E420DC09
:1004930080CB43ABC482065A472146294529042908
:1004A300041982108218F39C7DEFFFFFFFFFFFFF0B
:1004B300FFFFFFFFFFFFFFFF7DEF4D9300A082B81B
:1004C300C7310932494A867A43C36BEDF4F6EBFD33
:1004D30020FD20FD60FDA0FDA0FD60FD60FD20FD71
:1004E300E0FCA0FC60F4C1DB839AC54945290419EB
:1004F300C42082380050CB6ABAD6FFFFFFFFFFFF4C
:10050300FFFFFFFFFFFFFFFFFBEE04A100C000F0B2
:10051300C3A0C8414942059B20FCA4FC69FDE8FD3A
:1005230063FD20FD60FD60FD60FD20FD20FDE0FC1E
:10053300E0FCA0FC60FC20FC41D3C5494519C4384C
:10054300826841880070495A79CEFFFFFFFFFFFFA1
:10055300FFFFFFFFFFFFFFFFFBF682C000D086C156
:1005630046F141C8457989528862866AC67AC4BB16
:10057300E1FC60FD60FDA0FDA0FD60FD60FDE0FC11
:1005830060E403938472446AC5414529C35841A872
:10059300409800B000600C6B79CEFFFFFFFFFFFFB8
:1005A300FFFFFFFFFFFF7DEFCE83828800F8C4D8F3
:1005B3000CF38AFA82E882B04569C7510842083AC7
:1005C300865A839BA2BC22CD21CDA1C422B4C47A76
:1005D300063A862945290531C450419000C000A838
:1005E30000A000A800304A4ABAD6FFFFFFFFFFFF72
:1005F300FFFFFFFF7DEF8E73C318053982A800F854
:10060300C3F84DFB4DFBC7F9C3F082D8C3B00481D7
:1006130045614651864986494641454145414541E3
:1006230005490461829041B000D000C800A800A829
:1006330000B8415882108210B294BEF7FFFFFFFF4B
:10064300FFFFBEF7CF7B82100421862986410499E0
:1006530040E841F886F9CBFA49FA82F800F800F04D
:1006630000E841D841D041C041C041C041C041C868
:1006730000D000E000E000D800D000B800A8418816
:100683008248821082100000452979CEFFFFFFFFC8
:10069300BEF7F39C8210C31845298631C731307CDD
:1006A300F3DC86E100F000F841F841F800F800F8C7
:1006B30000F800F800F800F800F800F800F800F877
:1006C30000E800E000E000D800C841A08A9A0C636B
:1006D300041182108210410800004D6B7DEFFFFF73
:1006E300FBDE08424210452986318631494A38BE2D
:1006F300FFFF38D686A900C800E000F000F800F834
:1007030000F800F800F800F800F800F800F000F036
:1007130000E800E000D0C3988A8AB2A4BAC6F7B54D
:10072300084241088210410800004529F7BDFFFF38
:10073300718C410804214529863186310C633CE7DD
:10074300FFFF79D646B900E042C882A882B041D8FB
:1007530082E882F041E841E841E841F041E841D8CC
:1007630004C108924D8B34A5FBC6FBD6BACE3CE739
:100773003084C3184108410800004108CF7B7DEF56
:10078300494A000004214529463186313084FFFF60
:10079300FFF7F7DD09DA83F801F042C08298499A3E
:1007A300F3B4F3CC71BC8EBB8EBB30BC71BCF3BC59
:1007B300B6BDFBCEBEE77DE73BDFBAD679CEFBDE27
:1007C30075AD86314108410800000000494AFBDE4F
:1007D300042141080421452945298739B294FFFFA3
:1007E300BEF734DD0CEB09FA00F001D800D88BD248
:1007F3007DE7FFFFFFFFFFFFFFFFFFFFFFFFFFFFA0
:10080300FFFFBEFF7DEFFBDEFBDEBAD679CEBAD6A5
:1008130078C6C7390000410800000000C73979CE07
:1008230000008210C318042105298631B39CFFFF01
:10083300FFF775DDC7E9C7F901F801F000E849E200
:10084300FBEEFFFFFFFFFFFFFFFFFFFFFFFFFFFFCA
:10085300FFFFBEF77DEFFBDEFBDEBAD679CEBAD65D
:10086300B9CE08420000000000000000C73938C6B6
:100873000000821082100421042145293084FFFFE7
:10088300FFFF38DEC4D000F001F800F800F008D212
:10089300FBE6FFFFFFFFFFFFFFFFFFFFFFFFFFFF82
:1008A300FFFFBEF77DEFFBDEBAD679CE79CEBAD69F
:1008B30079CEC7394108000000000000863138C6F0
:1008C30000000000C318CB5A8631C318CB5A7DEF02
:1008D300FFFF7DEFCFBBC3B041D041D082B84DB352
:1008E3007DE7FFFFFFFFFFFFFFFFFFFFFFFFFFFFAF
:1008F300BEF7BEF73DEFFBDEBAD679CE79CEFAD698
:10090300F7BD04218631042100000000863138C67A
:100913008631C318CB5A75ADCF7B41088631F7BDFD
:10092300FFFFFFFFBEEF74B5309C309C72A4BBD6B3
:10093300FFFFFFFFFFFFFFFFFFFFFFFFFFFFFFFFC4
:10094300BEF77DEF3CE7FBDEBAD679CE79CE3CE746
:10095300718C81080C63CF7B821000008A5238C6E9
:1009630075AD718CB6B53CE7FBDEC7390000CF73BC
:10097300FFFFFFFFFFFFFFFFFFFFFFFFFFFFFFFF84
:10098300FFFFFFFFFFFFFFFFFFFFFFFFFFFFBEF7BD
:100993007DEF7DEF3BDFFAD679CE79CEFBDEB9CEA4
:1009A300C739C420718CBAD6718CCB5AB294BAD6DB
:1009B300FFFF7DEF7DEFFFFFFFFFB6B5462905196A
:1009C30075A5FFFFFFFFFFFFFFFFFFFFFFFFFFFF18
:1009D300FFFFFFFFFFFFFFFFFFFFFFFFFFFFBEF76D
:1009E3007DEF3CE7FBDEBAD679CEBAD6FCDE4E63AA
:1009F30042080C63F7BDBEF7FFFFFBDEFBDEBEF76D
:100A0300FFFFFFFFFFFFFFFFFFFFFFFFF49C04213A
:100A13000521B6A5FFFFFFFFFFFFFFFFFFFFFFFF5E
:100A2300FFFFFFFFFFFFFFFFFFFFBEF7BEF77DEFF7
:100A33003CE7FBDEBAD679CEFBDEBBD6D173831897
:100A43008639349DBDEFFFFFFFFFFFFFFFFFFFFF71
:100A5300FFFFFFFFFFFFFFFFBEFF35D6EBCC43B326
:100A630040510519F58CBEEFFFFFFFFFFFFFFFFFAE
:100A7300FFFFFFFFFFFFBEF7BEF77DEF7DEF3CE714
:100A8300FBDEBADEBAD63CDF3ABE4F63824940A3EF
:100A930023B4CC833ABEFFFFFFFFFFFFFFFFFFFF3F
:100AA300FFFFFFFFFFFFBFF7B5BD829220F4A0FC5D
:100AB30060E4408284418F6B77AD3DE7FFFFFFFF2A
:100AC300FEFFBEF7BEF7BEF77DEF7DEF3CE7FBDE33
:100AD300FBDE3DE7BBCE369D0B6B416A60C420FE57
:100AE30060F5008BC76A38C6BEF7FFFFFFFFFFFF45
:100AF300FFFFFFFFFFFF7DEF4B7B80B2A0FCA0FC5D
:100B0300E0FCE0FCC0CBC18A45624D6BB394F7BDFA
:100B13003DDFFFF7FFFFBEF77DEF7DEF7DE73DDFB5
:100B2300BAC675A58D7B847A40B3E0ECE0FDE0FDA9
:100B330060F520E5A0D40A6BFBDEFFFFFFFFFFFF9C
:100B4300FFFFFFFFFFFF7DEFCC9340EB60FCA0FCBA
:100B5300E0FC20FD60FD20F5A0D4C0BB429B458B8B
:100B63006B9CAE9C718CB394339D34A5F2A4F0B40A
:100B7300CA9B049B40BB20E420FDA0FDA0FDE0FD3B
:100B8300E0FDE0FD20C4885A38BEFFFFFFFFFFFFF2
:100B9300FFFFFFFFFFFFFFFF78D646AB40DB20F4EC
:100BA30060FCA0FCE0FC60FDA0FD60FD20F5A0DC86
:100BB300C0B3C05186290D638F7B0D5BC741018292
:100BC30000C3C0E360FCA0FCE0FCE0FC60F560F562
:100BD30020E5809B8662308479CEFFFFFFFFFFFF15
:100BE300FFFFFFFFFFFFFFFFFFFF38C62D9C0593AD
:100BF30043A382B3C2BBC2BB22B482A34293C37AD0
:100C030085620B637184B6B579CE79C6B5AD709440
:100C13004A8B06830493049B439B439B4393048324
:100C230008738D73B39479CE7DEFFFFFFFFFFFFF52
:100C3300FFFFFFFFFFFFFFFFFFFFFFFF3CDF38BEAC
:100C430075B533A533A5F39CF39CF39CF394F39C04
:100C530035A5F8BDFBDEBEF7FFFFFFFFFFFF7EEF0D
:100C6300BBD6F8BDB6AD75AD34A5339D349D35A562
:100C7300B7AD79C63CE7BEF7FFFFFFFFFFFFFFFFFE
:100C830000000000000000000000800000FEFF01E3
:100C930000FEFF010006C0000006C0000006C00001
:100CA30000FEFF000006C0000006C0000006C000F2
:100CB30000FEFF000006C0000006C00000020000A6
:100CC30030300C1CF07FFC3F30300C1C30300C1CDF
:100CD30030300C1C30300C1CF03FFC1F30300C1C2F
:100CE30030300C1C30300C1C30300C1CF03FFC1F1F
:100CF300F03FFC1F30300C1C3010040C00000000CF
:100D03000000000000000000C0000808C0F1FF1F41
:100D1300C0F0FF1FC0484C1CC4DCCC1DCCDC8D1DB7
:100D2300DC8E8D1DD8060E1FF8C3EF1DF8F1EC1CE9
:100D3300D0601D1CC01C770CFE9FE7003483E30CBE
:100D430030C3FF1F30C3610030E3610030E361064D
:100D530030F3FF0F30DB610030FB610438DB610EE1
:100D630018CFFF0F18C7610098C761000CC3613823
:100D730004C2FF3F06C0010002C0010000000000E2
:100D83000000000000000000000000000000000060
:100D930000000008080808080808000018180000E8
:100DA30000486C2412000000000000000000000056
:100DB3000000002424247F1212127F12121200005A
:100DC3000000081C2A2A0A0C1828282A2A1C0808AA
:100DD30000000022251515152A58545454220000EA
:100DE3000000000C1212120A76252911916E0000E0
:100DF30000060604030000000000000000000000DD
:100E030000402010100808080808081010204000AF
:100E13000002040808101010101010080804020043
:100E23000000000008086B1C1C6B08080000000091
:100E330000000000080808087F08080808000000F0
:100E4300000000000000000000000000060604038C
:100E53000000000000000000FE0000000000000091
:100E63000000000000000000000000000606000073
:100E730000008040402020101008080404020200F3
:100E83000000001824424242424242422418000019
:100E9300000000080E08080808080808083E0000BB
:100EA3000000003C4242422020100804427E000021
:100EB3000000003C4242201820404042221C000017
:100EC300000000203028242422227E2020780000E5
:100ED3000000007E0202021A26404042221C00004B
:100EE300000000382402021A26424242241800005D
:100EF3000000007E222210100808080808080000DD
:100F03000000003C4242422418244242423C00007A
:100F1300000000182442424264584040241C000050
:100F2300000000000000181800000000181800005E
:100F33000000000000000008000000000008080492
:100F430000000040201008040204081020400000A4
:100F53000000000000007F0000007F000000000090
:100F630000000002040810204020100804020000C2
:100F73000000003C424246402010100018180000B8
:100F83000000001C225A555555552D42221C0000C5
:100F93000000000808181414243C224242E7000011
:100FA3000000001F2222221E22424242221F000072
:100FB3000000007C4242010101010142221C0000A9
:100FC3000000001F2242424242424242221F0000CE
:100FD3000000003F4212121E12120242423F000062
:100FE3000000003F4212121E12120202020700000A
:100FF3000000003C2222010101712122221C000079
:10100300000000E7424242427E42424242E7000081
:101013000000003E0808080808080808083E000009
:101023000000007C10101010101010101010110F81
:101033000000007722120A0E0A1212222277000001
:10104300000000070202020202020202427F0000C5
:1010530000000077363636362A2A2A2A2A6B000001
:10106300000000E346464A4A525252626247000079
:101073000000001C2241414141414141221C00002A
:101083000000003F424242423E02020202070000C9
:101093000000001C2241414141414D53321C60007C
:1010A3000000003F4242423E1212222242C7000089
:1010B3000000007C4242020418204042423E0000ED
:1010C3000000007F4908080808080808081C0000F9
:1010D300000000E74242424242424242423C000098
:1010E300000000E7424222242414141808080000D8
:1010F3000000006B49494949555536222222000018
:10110300000000E7422424181818242442E70000B2
:10111300000000772222141408080808081C0000A5
:101123000000007E2120101008040442423F00000A
:10113300007808080808080808080808080878005C
:101143000000020204040808081010202020404078
:10115300001E1010101010101010101010101E0090
:101163000038440000000000000000000000000000
:10117300000000000000000000000000000000FF6D
:10118300000608000000000000000000000000004E
:10119300000000000000003C4278444242FC000092
:1011A300000000030202021A26424242261A0000ED
:1011B300000000000000003844020202443800002E
:1011C30000000060404040784442424264D800003E
:1011D300000000000000003C427E0202423C00008E
:1011E300000000F08808087E08080808083E000090
:1011F300000000000000007C22221C023C42423C12
:10120300000000030202023A4642424242E7000063
:101213000000000C0C00000E08080808083E00003F
:101223000000003030000038202020202020221E23
:101233000000000302020272120A16122277000053
:101243000000000E0808080808080808083E000007
:10125300000000000000007F9292929292B700007B
:10126300000000000000003B4642424242E700000B
:10127300000000000000003C42424242423C0000A9
:10128300000000000000001B26424242221E02070B
:10129300000000000000007844424242447840E0ED
:1012A30000000000000000774C040404041F000049
:1012B300000000000000007C42023C40423E00006F
:1012C300000000000008083E080808080830000075
:1012D30000000000000000634242424262DC000062
:1012E30000000000000000E7422424140808000066
:1012F30000000000000000EB494955552222000080
:10130300000000000000007624181818246E000066
:1013130000000000000000E7422424141808080716
:10132300000000000000007E22100808447E000038
:1013330000C0202020202010202020202020C000BA
:10134300101010101010101010101010101010109A
:101353000006080808080810080808080808060016
:101363000C32C2000000000000000000000000007A
:103AD4005658313A005679313A00434858313A0041
:103AE400434859313A005658323A005679323A002E
:103AF400434858323A00434859323A0056583A003B
:103B040056793A004348583A004348593A004164C8
:103B14006A757374204F4B212020546F756368209D
:103B2400416E79776865726520546F20436F6E74B7
:0B3B3400696E756500583A00593A00B0
:103D2E004200A812C94200AA1CD642009C0066425C
:043D3E00009E0128BA
:063EEB00A2B4E433FF2243
:093EE200D294D297D2B0D29722FB
:103E7900E4FEC297EF25E0FF92B0C297000000D29E
:093E8900970000000EEEB408EBF6
:013E9200220D
:103E5700E4FDFFFEEF25E0FFEE33FED29700000002
:103E6700C29700000030B104EF4401FF0DEDB40C20
:013E7700E367
:013E78002227
:103E9300C294123E79D29700000000C2970000003E
:063EA30000123E57D2940C
:013EA90022F6
:022EFF00A90721
:102F0100E4900082F0A3F0FBFAAF01123E93AC060D
:102F1100AD07EB25E0FFEA33FE74642FF582740000
:102F21003EF583ECF0A3EDF00BBB00010AEB640F5F
:102F31004A70D6E4FAFBEB2401FEE43A900062F019
:102F4100A3CEF0900062E0FEA3E0FFC3940FEE94E5
:102F5100004003022FFBEF25E0FFEE33FE74642FE8
:102F6100F58274003EF583E0FCA3E0FDEB25E0FF74
:102F7100EA33FE74642FF58274003EF583E0FEA30C
:102F8100E0FFD39DEE9C405E900084EEF0A3EFF055
:102F9100900063E025E0FF900062E033FE74642F4F
:102FA100F58274003EF583E0FCA3E0FDEB25E0FF34
:102FB100EA33FE74642FF58274003EF583ECF0A3CE
:102FC100EDF0900084E0FCA3E0FD900063E025E0DB
:102FD100FF900062E033FE74642FF58274003EF5C9
:102FE10083ECF0A3EDF0900063E004F06003022FA6
:102FF10044900062E004F0022F440BBB00010AEB95
:10300100640E4A6003022F37E4900082F0A3F0FAC5
:103011007B05EB25E0FFEA33FE74642FF582740033
:103021003EF583E0FEA3E0FF900083E02FF09000E7
:1030310082E03EF00BBB00010AEB640A4A70D390B8
:103041000082E0FEA3E0FF7C007D0512240FA3EEC9
:04305100F0A3EFF009
:013055002258
:0B3B3F0090005AEBF0A3EAF0A3E9F0BD
:103B4A007FD0122EFF900060EEF0A3EFF07F90126C
:103B5A002EFFC3900061E09464900060E0940040FE
:103B6A0008EF9464EE940050037F0022900060E016
:103B7A00F9A3E0FD90005AE0FBA3E0FAA3E0C98DA7
:103B8A00F012247A90005DE0FBA3E0FAA3E0F9EEDC
:073B9A008FF012247A7F0175
:013BA1002201
:0B30560090004CEBF0A3EAF0A3E9F0BF
:1030610090005D7401F0A37400F0A37454F07B012F
:103071007A007952123B3FEF7002FF2290005D749B
:1030810001F0A37400F0A37458F07B017A00795623
:10309100123B3FEF7002FF22900052E0FEA3E0FFDF
:1030A100900056E0FCA3E0FDD39FEC9E500EED2472
:1030B10014FDE43CFCC3EF9DEE9C402A900056E0D9
:1030C100FEA3E0FF900052E0FCA3E0FDD39FEC9E45
:1030D1004003023184ED2414FDE43CFCC3EF9DEE7A
:1030E1009C4003023184900054E0FEA3E0FF900075
:1030F10058E0FCA3E0FDD39FEC9E500EED2414FD9F
:10310100E43CFCC3EF9DEE9C4024900058E0FEA3FC
:10311100E0FF900054E0FCA3E0FDD39FEC9E5063E0
:10312100ED2414FDE43CFCC3EF9DEE9C5055900052
:1031310056E0FEA3E0FF900053E02FFF900052E025
:103141003EC313F9EF13FF90004CE0FBA3E0FAA399
:10315100E0C98FF012247A900058E0FEA3E0FF90BE
:103161000055E02FFF900054E03EC313F9EF13FF29
:1031710090004FE0FBA3E0FAA3E0C98FF012247A9C
:053181007F01227F0028
:013186002226
:10348700E4900043F0900043E0600302356690004B
:103497004F7401F0A37400F0A37446F07B017A0027
:1034A7007944123056EF60E67F0A7E00123E319073
:1034B700004F7401F0A37400F0A3744AF07B017A03
:1034C700007948123056EF60E6900044E0FEA3E032
:1034D700FF900048E0FCA3E0FDD39FEC9E500EED6B
:1034E7002403FDE43CFCC3EF9DEE9C40279000487D
:1034F700E0FEA3E0FF900044E0FCA3E0FDD39FECD7
:103507009E5082ED2403FDE43CFCC3EF9DEE9C40FE
:103517000302348C900048E0FEA3E0FF900045E0F2
:103527002FFF900044E03EC313FEEF13FF9000A46B
:10353700EEF0A3EFF090004AE0FEA3E0FF90004713
:10354700E02FFF900046E03EC313FEEF13FF90000D
:10355700A6EEF0A3EFF09000437401F002348C90D4
:043567000043E0FF3E
:01356B00223D
:10339F00900043EEF0A3EFF0A3ECF0A3EDF090005C
:1033AF0043E0FAA3E0FB24F4FFEA34FFFEC007EB8F
:1033BF00240DFBE43AFAA3E0FFA3E090004DCFF019
:1033CF00A3EFF0D0071229FB900043E0FAA3E0FB34
:1033DF00FFAE02C006C007900046E024F4FD900047
:1033EF0045E034FFFCE0FEA3E0240DFFE43E900037
:1033FF004DF0A3EFF0D007D0061229FB900044E068
:10340F002401FF900043E03400FE900046E02401C9
:10341F00FD900045E03400FC123C84900044E02411
:10342F00FFFF900043E034FFFE900046E02401FDD3
:10343F00900045E03400FC123C84900044E02401ED
:10344F00FF900043E03400FE900046E024FFFD9023
:10345F000045E034FFFC123C84900044E024FFFF61
:10346F00900043E034FFFE900046E024FFFD900003
:08347F0045E034FFFC023C842F
:10329C00E490000AF07B0190004F04F0A37400F05E
:1032AC00A374A6F07A0079A4123056EF700302339F
:1032BC009990000A7401F090009CE0FEA3E0FFD30B
:1032CC009000A5E09F9000A4E09E400BAB07AA06DF
:1032DC00E0FEA3E0FF80139000A4E0FEA3E0FBAAB5
:1032EC000690009CE0FEA3E0FFC3EF9BFFEE9AFE6E
:1032FC00E49400FDE49400FCE47BE87A03F9F81212
:10330C002499C006C0079000A8E0FEA3E0FBAA0623
:10331C00E4F9F8D007D0061225249000A0EEF0A313
:10332C00EFF090009EE0FEA3E0FFD39000A7E09F9B
:10333C009000A6E09E400BAB07AA06E0FEA3E0FFC0
:10334C0080139000A6E0FEA3E0FBAA0690009EE08E
:10335C00FEA3E0FFC3EF9BFFEE9AFEE49400FDE4B6
:10336C009400FCE47BE87A03F9F8122499C006C0B7
:10337C00079000AAE0FEA3E0FBAA06E4F9F8D00748
:10338C00D0061225249000A2EEF0A3EFF090000AD4
:02339C00E0FF50
:01339E00220C
:10137300E4900042F0F0900092F0A3741FF074FF29
:10138300900097F0A3F0FFFE123C0090009274F8D7
:10139300F0A3E4021A9620B4FD123487EF60429062
:1013A30000A4E0FEA3E0FFE4FCFD900042E0FB7537
:1013B300F008A42422F582E43400F5831225D590A5
:1013C30000A6E0FEA3E0FFE4FCFDEB75F008A42417
:1013D30026F582E43400F5831225D5900042E0041B
:1013E300F0900042E024FE601A14602814603A244E
:1013F3000370A374FFFFFE123C0030B4FD7D507CEC
:1014030000801F74FFFFFE123C0030B4FD7D8F7C13
:1014130001021AA274FFFFFE123C0030B4FD7D8F5F
:101423007C017FCF7E02021AA674FFFFFE123C00EE
:1014330030B4FD900022E0FCA3E0FDA3E0FEA3E0B6
:10144300FF90002AE0F8A3E0F9A3E0FAA3E0FBD3BE
:101453001225C44034900022E0F8A3E0F9A3E0FA97
:10146300A3E0FB90002AE0FCA3E0FDA3E0FEA3E0E1
:101473009BFFEE9AFEED99FDEC98FCEF2401FFE44F
:101483003EFEE43DFDE43C803690002AE0F8A3E014
:10149300F9A3E0FAA3E0FB900022E0FCA3E0FDA3A4
:1014A300E0FEA3E0C39BFFEE9AFEED99FDEC98FCF2
:1014B300EF24FFFFEE34FFFEED34FFFDEC34FFFCC1
:1014C300E47BE87A03F9F8122499E47B807A02F941
:1014D300F8122524E41223259000061225D5900046
:1014E30022E0FCA3E0FDA3E0FEA3E0FF90002AE0DE
:1014F300F8A3E0F9A3E0FAA3E0FBD31225C4E4FFC9
:10150300FE7DA07C42900006E0F8A3E0F9A3E0FA98
:10151300A3E0FB4034122112E4FBFA797A784412F7
:10152300221BC004C005C006C007900022E0FCA334
:10153300E0FDA3E0FEA3E0FFE4122325D003D002E5
:10154300D001D00012201D8032122112E4FBFA795F
:101553007A784412221BC004C005C006C00790005D
:1015630022E0FCA3E0FDA3E0FEA3E0FFE4122325B9
:10157300D003D002D001D0001220211223639000A7
:1015830016EEF0A3EFF0900026E0FCA3E0FDA3E04D
:10159300FEA3E0FF900036E0F8A3E0F9A3E0FAA38E
:1015A300E0FBD31225C4401D900026E0F8A3E0F928
:1015B300A3E0FAA3E0FB900036E0FCA3E0FDA3E088
:1015C300FEA3E0801C900036E0F8A3E0F9A3E0FA64
:1015D300A3E0FB900026E0FCA3E0FDA3E0FEA3E074
:1015E300C39BFFEE9AFEED99FDEC98FCEF24FFFF01
:1015F300EE34FFFEED34FFFDEC34FFFCE47BE87AD0
:1016030003F9F8122499E47B407A01F9F8122524AE
:10161300E412232590000E1225D5900026E0FCA3AA
:10162300E0FDA3E0FEA3E0FF900036E0F8A3E0F9BD
:10163300A3E0FAA3E0FBD31225C4E4FFFE7DA07C64
:101643004290000EE0F8A3E0F9A3E0FAA3E0FB4028
:1016530034122112E4FBFA797A784412221BC00473
:10166300C005C006C007900026E0FCA3E0FDA3E090
:10167300FEA3E0FFE4122325D003D002D001D00063
:1016830012201D8032122112E4FBFA797A78441277
:10169300221BC004C005C006C007900026E0FCA3BF
:1016A300E0FDA3E0FEA3E0FFE4122325D003D00274
:1016B300D001D00012202112236390001AEEF0A370
:1016C300EFF0900032E0FCA3E0FDA3E0FEA3E0FF17
:1016D30090003AE0F8A3E0F9A3E0FAA3E0FBD31209
:1016E30025C44034900032E0F8A3E0F9A3E0FAA364
:1016F300E0FB90003AE0FCA3E0FDA3E0FEA3E09B47
:10170300FFEE9AFEED99FDEC98FCEF2401FFE43E19
:10171300FEE43DFDE43C803690003AE0F8A3E0F9B6
:10172300A3E0FAA3E0FB900032E0FCA3E0FDA3E01A
:10173300FEA3E0C39BFFEE9AFEED99FDEC98FCEF50
:1017430024FFFFEE34FFFEED34FFFDEC34FFFCE439
:101753007BE87A03F9F8122499E47B807A02F9F89A
:10176300122524E412232590000A1225D590003275
:10177300E0FCA3E0FDA3E0FEA3E0FF90003AE0F865
:10178300A3E0F9A3E0FAA3E0FBD31225C4E4FFFE30
:101793007DA07C4290000AE0F8A3E0F9A3E0FAA35D
:1017A300E0FB4034122112E4FBFA797A78441222E6
:1017B3001BC004C005C006C007900032E0FCA3E0D4
:1017C300FDA3E0FEA3E0FFE4122325D003D002D063
:1017D30001D00012201D8032122112E4FBFA797A23
:1017E300784412221BC004C005C006C00790003213
:1017F300E0FCA3E0FDA3E0FEA3E0FFE4122325D079
:1018030003D002D001D000122021122363900018CC
:10181300EEF0A3EFF090002EE0FCA3E0FDA3E0FECA
:10182300A3E0FF90003EE0F8A3E0F9A3E0FAA3E011
:10183300FBD31225C4401D90002EE0F8A3E0F9A3CA
:10184300E0FAA3E0FB90003EE0FCA3E0FDA3E0FE92
:10185300A3E0801C90003EE0F8A3E0F9A3E0FAA324
:10186300E0FB90002EE0FCA3E0FDA3E0FEA3E0C3B9
:101873009BFFEE9AFEED99FDEC98FCEF24FFFFEE43
:1018830034FFFEED34FFFDEC34FFFCE47BE87A0328
:10189300F9F8122499E47B407A01F9F8122524E43B
:1018A3001223259000121225D590002EE0FCA3E010
:1018B300FDA3E0FEA3E0FF90003EE0F8A3E0F9A360
:1018C300E0FAA3E0FBD31225C4E4FFFE7DA07C4233
:1018D300900012E0F8A3E0F9A3E0FAA3E0FB4034A0
:1018E300122112E4FBFA797A784412221BC004C055
:1018F30005C006C00790002EE0FCA3E0FDA3E0FEB8
:10190300A3E0FFE4122325D003D002D001D00012BC
:10191300201D8032122112E4FBFA797A78441222D4
:101923001BC004C005C006C00790002EE0FCA3E066
:10193300FDA3E0FEA3E0FFE4122325D003D002D0F1
:1019430001D00012202112236390001CEEF0A3EFBC
:10195300F090000AE0FCA3E0FDA3E0FEA3E0FF900B
:101963000006E0F8A3E0F9A3E0FAA3E0FB1222B833
:1019730060324030E4FFFE7D7A7C4490000AE0F858
:10198300A3E0F9A3E0FAA3E0FB122021900006E014
:10199300F8A3E0F9A3E0FAA3E0FB1222B860054044
:1019A30003021A9290000AE0FCA3E0FDA3E0FEA369
:1019B300E0FF900006E0F8A3E0F9A3E0FAA3E0FB60
:1019C3001222B8502EE4FFFE7D7A7CC490000AE018
:1019D300F8A3E0F9A3E0FAA3E0FB122021900006AC
:1019E300E0F8A3E0F9A3E0FAA3E0FB1222B8500366
:1019F300021A92900012E0FCA3E0FDA3E0FEA3E034
:101A0300FF90000EE0F8A3E0F9A3E0FAA3E0FB12D5
:101A130022B8602F402DE4FFFE7D7A7C44900012B3
:101A2300E0F8A3E0F9A3E0FAA3E0FB122021900081
:101A33000EE0F8A3E0F9A3E0FAA3E0FB1222B860FA
:101A430002504C900012E0FCA3E0FDA3E0FEA3E0F3
:101A5300FF90000EE0F8A3E0F9A3E0FAA3E0FB1285
:101A630022B85045E4FFFE7D7A7CC4900012E0F872
:101A7300A3E0F9A3E0FAA3E0FB12202190000EE01B
:101A8300F8A3E0F9A3E0FAA3E0FB1222B8501AE4AA
:101A9300900042F074FFFFFE123C007D507C007FFB
:101AA300507E0012339F02139990000AE0FCA3E0DA
:101AB300FDA3E0FEA3E0FF900006E0F8A3E0F9A396
:101AC300E0FAA3E0FB122021E4FBFAF978401222AA
:101AD3001B1223639000A8EEF0A3EFF0900012E036
:101AE300FCA3E0FDA3E0FEA3E0FF90000EE0F8A35B
:101AF300E0F9A3E0FAA3E0FB122021E4FBFAF97872
:101B03004012221B1223639000AAEEF0A3EFF09081
:101B13000018E0FEA3E0FF900017E02FFF900016EF
:101B2300E03EC313FEEF13FF90009CEEF0A3EFF033
:101B330090001CE0FEA3E0FF90001BE02FFF90004D
:101B43001AE03EC313FEEF13FF90009EEEF0A3EFE7
:101B5300F074FFFFFE123C00E4900092F0A3F090BB
:101B63000097F0A3741FF0E490001EF0A3F0A3F01D
:101B7300A37432F07BFF7A3A79D4FD7C00E4FFFE54
:101B830012389F90001FE02428F090001EE03400DC
:101B9300F0900006E0FCA3E0FDA3E0FEA3E0FF124B
:101BA30023639000471225D590004B7404F09000F6
:101BB30020E0FCA3E0FD90001EE0FEA3E0FF123551
:101BC3006CE490001EF0A3F0900021E02414F09048
:101BD3000020E03400F0E0FCA3E0FD7BFF7A3A79DB
:101BE300D9E4FFFE12389F90001FE02428F09000F4
:101BF3001EE03400F090000EE0FCA3E0FDA3E0FE45
:101C0300A3E0FF1223639000471225D590004B7485
:101C130004F0900020E0FCA3E0FD90001EE0FEA392
:101C2300E0FF12356CE490001EF0A3F0900021E079
:101C33002414F0900020E03400F0E0FCA3E0FD7BEE
:101C4300FF7A3A79DEE4FFFE12389F90001FE0240A
:101C530028F090001EE03400F0900016E0FEA3E0B0
:101C6300FFE4FCFD9000471225D590004B7404F06F
:101C7300900020E0FCA3E0FD90001EE0FEA3E0FF47
:101C830012356CE490001EF0A3F0900021E02414C0
:101C9300F0900020E03400F0E0FCA3E0FD7BFF7A4D
:101CA3003A79E4E4FFFE12389F90001FE02428F005
:101CB30090001EE03400F090001AE0FEA3E0FFE481
:101CC300FCFD9000471225D590004B7404F0900062
:101CD30020E0FCA3E0FD90001EE0FEA3E0FF123530
:101CE3006C90001EE4F0A37464F0A3E4F0A37432D8
:101CF300F07BFF7A3A79EAFD7C007F647E0012383C
:101D03009F90001FE02428F090001EE03400F09024
:101D1300000AE0FCA3E0FDA3E0FEA3E0FF122363BF
:101D23009000471225D590004B7404F0900020E0FA
:101D3300FCA3E0FD90001EE0FEA3E0FF12356C90D3
:101D4300001EE4F0A37464F0900021E02414F090EA
:101D53000020E03400F0E0FCA3E0FD7BFF7A3A7959
:101D6300EF7F647E0012389F90001FE02428F090DC
:101D7300001EE03400F0900012E0FCA3E0FDA3E0BD
:101D8300FEA3E0FF1223639000471225D590004B7A
:101D93007404F0900020E0FCA3E0FD90001EE0FE40
:101DA300A3E0FF12356C90001EE4F0A37464F0907E
:101DB3000021E02414F0900020E03400F0E0FCA3C4
:101DC300E0FD7BFF7A3A79F47F647E0012389F90BE
:101DD300001FE02428F090001EE03400F09000186B
:101DE300E0FEA3E0FFE4FCFD9000471225D5900040
:101DF3004B7404F0900020E0FCA3E0FD90001EE093
:101E0300FEA3E0FF12356C90001EE4F0A37464F0AF
:101E1300900021E02414F0900020E03400F0E0FC76
:101E2300A3E0FD7BFF7A3A79FA7F647E0012389F44
:101E330090001FE02428F090001EE03400F0900092
:101E43001CE0FEA3E0FFE4FCFD9000471225D590C3
:101E5300004B7404F0900020E0FCA3E0FD90001E12
:101E6300E0FEA3E0FF12356C90001EE4F0A3743291
:101E7300F0A3E4F0A37496F07BFF7A3B7900FD7C3A
:101E8300007F327E0012389F90001FE02428F090DC
:101E9300001EE03400F09000A8E0FEA3E0FFE4FCA5
:101EA300FD9000471225D590004B7404F09000205C
:101EB300E0FCA3E0FD90001EE0FEA3E0FF12356C02
:101EC30090001EE4F0A37432F0900021E02414F09B
:101ED300900020E03400F0E0FCA3E0FD7BFF7A3BC0
:101EE30079047F327E0012389F90001FE02428F08F
:101EF30090001EE03400F09000AAE0FEA3E0FFE4AF
:101F0300FCFD9000471225D590004B7404F090001F
:101F130020E0FCA3E0FD90001EE0FEA3E0FF1235ED
:101F23006C90001EE4F0A37432F0900021E02414BE
:101F3300F0900020E03400F0E0FCA3E0FD7BFF7AAA
:101F43003B79087F327E0012389F90001FE02428DF
:101F5300F090001EE03400F090009CE0FEA3E0FF50
:101F6300E4FCFD9000471225D590004B7404F090DB
:101F73000020E0FCA3E0FD90001EE0FEA3E0FF12C2
:101F8300356C90001EE4F0A37432F0900021E0243D
:101F930014F0900020E03400F0E0FCA3E0FD7BFFB0
:101FA3007A3B790D7F327E0012389F90001FE02428
:101FB30028F090001EE03400F090009EE0FEA3E0C5
:101FC300FFE4FCFD9000471225D590004B7404F00C
:101FD300900020E0FCA3E0FD90001EE0FEA3E0FFE4
:101FE30012356C90001EE4F0A3741EF0900021E003
:101FF300241EF0900020E03400F0E0FCA3E0FD7B21
:10200300FF7A3B79127F1E7E0012389F1234877449
:06201300FFFFFE123C007D
:0120190022A4
:10364D009000061225E10000000030B4030236E7B9
:10365D009000061225E10000000012329CEF60EA96
:10366D007BFF7A3B79397DFA7C007F0A7E00123828
:10367D009F9000A4E0FEA3E0FFE4FCFD9000471244
:10368D0025D590004B7404F07DFA7C007F1E7E00E2
:10369D0012356C7BFF7A3B793C7DFA7C007FB47EE2
:1036AD000012389F9000A6E0FEA3E0FFE4FCFD9021
:1036BD0000471225D590004B7404F07DFA7C007FF5
:1036CD00C87E0012356C9000A0E0FEA3E0FFA3E0E1
:1036DD00FCA3E0FD123CAE023657900006E0FCA3C1
:1036ED00E0FDA3E0FEA3E0FFE4FBFA7980783F1252
:1036FD0020219000061225D57F007EE87D7D7C4738
:10370D00900006E0F8A3E0F9A3E0FAA3E0FB122293
:09371D00B8600250030236572285
:10201A000223CFE86480F8E933E83360110460F002
:10202A00ED33EC337009E8FCE9FDEAFEEBFF22042C
:10203A0060DED3EB9FEA9EE99DE8C2E78CF0C2F727
:10204A0095F0400CE8CCF8E9CDF9EACEFAEBCFFBF3
:10205A0012239A85D0F05804700320D5B3E804708F
:10206A00075002B2D50223D992D5EC0460F7E4CC2A
:10207A00C0E0C398F8603B94186008400DD0E0FBBC
:10208A000223B1E4FBFAC9FC8028E830E406E4C97B
:10209A00FBE4CAFCE830E305E4C9CACBFCE8540710
:1020AA006010F8C3E913F9EA13FAEB13FBEC13FC1B
:1020BA00D8F130F52FC3E49CFCEF9BFFEE9AFEEDBE
:1020CA0099FDD0E0FBEF4E4D4C701222DB03022348
:1020DA00D6EC2CFCEF33FFEE33FEED33FDED30E7AB
:1020EA00EB0223B1EF2BFFEE3AFEED39FDD0E0FB18
:1020FA0050130BBB00030223D9ED13FDEE13FEEFC1
:08210A0013FFEC13FC0223B1EA
:10211200EC4D6011E8497017ED33EC3304600DE4C7
:10212200FCFFFEFD22E933E8330470F80223CF12EC
:10213200239A58046009E4CC2481500628500902ED
:1021420023D92840030223D6C0E0EB4A7044B98069
:1021520006D0E0FB0223C5EF4E701CBD8008EBFFEA
:10216200EAFEE9FD80EBE98DF0A4FEE5F00221FB39
:10217200E9CDF9EAFEEBFFEF89F0A4FCE5F0CE89A8
:10218200F0A42EFFE435F0CD89F0A42DFEE435F065
:102192008067EF4E7005BD80D780C3EF8BF0A4AC93
:1021A200F0EE8BF0A42CFCE435F0F8EF8AF0A42CCE
:1021B200E5F038FCE433CB8DF0A42CFCE5F03BF8E1
:1021C200EE8AF0A42CFCE5F038F8E433CF89F0A4D1
:1021D2002CFCE5F038CF3400CE89F0A42FFFE5F0D7
:1021E2003EFEE433C98DF0A42EFEE5F039CD8AF02F
:1021F200A42FFFE5F03EFEE43DFD33D0E0FB5007A7
:102202000BBB000F0223D9EC2CFCEF33FFEE33FEA5
:06221200ED33FD0223B1D3
:102218000223D9EC5D046005E8590470030223CF5A
:1022280012239A580460F6EC4860F2EC7004FDFE44
:10223800FF22C860DB2481C85009C3986002500699
:102248000223D69850CAF582E9294B4A7005AB8219
:102258000223C575F0007C1A7880C3EF9BEE9AEDD7
:1022680099400DC3EF9BFFEE9AFEED99FDE842F011
:10227800DC23ACF0D0E0FFD0E0FED0E0FDAB822064
:10228800E7101BEB60BAEC2CFCEF33FFEE33FEEDEE
:1022980033FD0223B1E803F830E705C0F075F0001C
:1022A800EF2FFFEE33FEED33FD40B830E7C280AAD2
:1022B80074F8CC6480CCC86480C8F582046043C3D9
:1022C800EB9FF5F0EA9E42F0E99D42F0E89C45F06C
:1022D80060305018E5825FFFE582F42B5582FB5091
:1022E800210ABA001D09B90019088016E5825BFBAE
:1022F800E582F42F5582FF50090EBE00050DBD0082
:10230800010CC3EB9FF5F0EA9E42F0E99D42F0E82C
:0D2318009C45F06007CC4820E701B3EC22A3
:1023250075F020800E75F010800575F0087D007E33
:10233500007F003392D530D5031225B6EC3340101B
:10234500EF33FFEE33FEED33FDEC33FCD5F0ED223C
:0E235500E5F0247EA2D513CC92E7CDCEFF2278
:10236300EDD2E7CD33EC3392D524814006E4FFFE72
:10237300FDFC22FCE4CFCECDCC24E0501174FF80D1
:10238300EDC3CC13CCCD13CDCE13CECF13CF04706E
:07239300F030D5DE0225B693
:10239A00E9D2E7C933E833F892D5EDD2E7CD33EC89
:0723AA0033FC5002B2D52202
:1023B100EC30E7100FBF000C0EBE00080DBD00048D
:1023C1000BEB6014A2D5EB13FCED92E7FD2274FF39
:1023D100FCFDFEFF22E480F8A2D574FF13FC7D8092
:0323E100E480EFA6
:10394C00023DFEE493A3F8E493A34003F68001F256
:10395C0008DFF48029E493A3F85407240CC8C3337C
:10396C00C4540F4420C8834004F456800146F6DF4B
:10397C00E4800B0102040810204080903CFAE47EA5
:10398C00019360BCA3FF543F30E509541FFEE49340
:10399C00A360010ECF54C025E060A840B8E493A307
:1039AC00FAE493A3F8E493A3C8C582C8CAC583CA32
:1039BC00F0A3C8C582C8CAC583CADFE9DEE780BEEA
:013D42000080
:1023E400BB010689828A83E0225002E722BBFE02F7
:0923F400E32289828A83E493222A
:1023FD00EF8DF0A4A8F0CF8CF0A428CE8DF0A42EF4
:02240D00FE22AD
:10240F00BC000BBE0029EF8DF084FFADF022E4CCB1
:10241F00F875F008EF2FFFEE33FEEC33FCEE9DEC7A
:10242F00984005FCEE9DFE0FD5F0E9E4CEFD22EDC0
:10243F00F8F5F0EE8420D21CFEADF075F008EF2F0A
:10244F00FFED33FD4007985006D5F0F222C398FDFB
:05245F000FD5F0EA2298
:10246400C5F0F8A3E028F0C5F0F8E5821582700203
:062474001583E038F022A0
:10247A00BB010A89828A83F0E5F0A3F0225006F7AD
:0F248A0009A7F01922BBFE06F3E5F009F31922AA
:10249900E88FF0A4CC8BF0A42CFCE98EF0A42CFCE2
:1024A9008AF0EDA42CFCEA8EF0A4CDA8F08BF0A460
:1024B9002DCC3825F0FDE98FF0A42CCD35F0FCEBBF
:1024C9008EF0A4FEA9F0EB8FF0A4CFC5F02ECD3984
:0F24D900FEE43CFCEAA42DCE35F0FDE43CFC22F1
:1024E80075F008758200EF2FFFEE33FECD33CDCCAB
:1024F80033CCC58233C5829BED9AEC99E58298402E
:102508000CF582EE9BFEED9AFDEC99FC0FD5F0D60A
:10251800E4CEFBE4CDFAE4CCF9A88222B800C1B934
:102528000059BA002DEC8BF084CFCECDFCE5F0CB72
:10253800F97818EF2FFFEE33FEED33FDEC33FCEBAB
:1025480033FB10D703994004EB99FB0FD8E5E4F966
:10255800FA227818EF2FFFEE33FEED33FDEC33FC53
:10256800C933C910D7059BE99A4007EC9BFCE99A47
:10257800F90FD8E0E4C9FAE4CCFB2275F010EF2F8C
:10258800FFEE33FEED33FDCC33CCC833C810D7078C
:102598009BEC9AE899400AED9BFDEC9AFCE899F8C7
:0E25A8000FD5F0DAE4CDFBE4CCFAE4C8F9225A
:0E25B600C3E49FFFE49EFEE49DFDE49CFC2236
:1025C400EB9FF5F0EA9E42F0E99D42F0E89C45F06D
:0125D40022E4
:0C25D500ECF0A3EDF0A3EEF0A3EFF02279
:1025E100A8828583F0D083D0821225F81225F812B3
:1025F10025F81225F8E473E493A3C583C5F0C583D8
:10260100C8C582C8F0A3C583C5F0C583C8C582C843
:0126110022A6
:00000001FF
