:030000000210CD1E
:0C10CD00787FE4F6D8FD7581070211144D
:1013DE001209D574FFFFFE1212617F007EF8121201
:1013EE00617FB87E0B1214457FE07E071212617F7B
:1013FE00B87E0B1214457F1F7E001212617FB87EDD
:06140E000B12144580CA18
:0214A800200022
:1014140042003001DF42002C0213420036002B420E
:10142400003B000841003A0A420034010F42002EFA
:10143400012042003F000C42003200044100410AF6
:0B148D008FA0AF058F80C2B6D2B62240
:0514A300D2B502148D1A
:09146B00A3E0FF121474A3E0FFDA
:0B147400AD07AC06D2B5ECFF02148DF2
:0B149800AD07AC06C2B5ECFF02148DDE
:0E147F00AB05AA04121498AE02AF0302147457
:1013A400900024EEF0A3EFF0A3ECF0A3EDF07F2A7D
:1013B4007E0012149890002412146CEAFF12147424
:1013C400AF037E001214747F2B12149812146B90C6
:0A13D400002A12146C7F2C021498FA
:1009D500D29020905BE4FDFCFFFE12147F7BFF7A32
:1009E5001479A8E4FDFCFFFE12102C900004120EF1
:1009F5007000000000E4900008F0FDFCFFFE120E00
:100A0500A1E4900006F0FBFAFDFCFFFE1211DFE405
:100A1500FDFCFFFE12130FE4900006F0A3F0FBFAB5
:100A2500FDFCFFFE120F82E4FBFDFCFFFE1205F349
:100A3500D2927F057E00121445C2927F057E001278
:100A45001445D292D290D2B7D2B67F057E00121449
:100A550045C2907FE27E001214987F2D1214747F98
:100A6500021214747F041214747FE01214987F012B
:100A75001214747F011214457FE07E001214987FD2
:100A8500031214747F051214457F017E0012149819
:100A95007F051214457FE67E00121498E4FF1214B8
:100AA500747FFF1214747FBE1214747FB0121498F1
:100AB5007F20121474E4FF12147490003012146C29
:100AC50090003412146CE4FF1214747F051214455F
:100AD5007FB47E0012149890002C12146C9000368E
:100AE50012146C90003AE0FF12147412146BE4FFB8
:100AF5001214747FB612149890002E12146C900084
:100B05003FE0FF12147412146B90003212146C7FC4
:100B150036121498E4FF1214747FF01214987F03B0
:100B25001214747F051214457F297E001214987FD4
:100B3500BE1214987F061214747FF01214747F018C
:100B45001214747FF0121474E4FF121474E4FF128B
:100B550014747FD01214987F0D1214747FB8121478
:100B650098E4FF1214747F011214747FBA1214985A
:050B7500E4FF0214740E
:02126100AC06D9
:10126300EC900007F0A90790002A7401F0A3740F13
:10127300F07BDF7A01E4FDFCFFFE1213A4E490008F
:1012830008F0A3F0E4FBFA900007E0FFAD011214AD
:10129300A30BBB00010ABA01EEBB10EB900009E0FF
:1012A30004F07006900008E004F0C3900009E09495
:0912B300E0900008E0940140CB3A
:0112BC00220F
:1012BD00900004E0FEA3E0FF900001E02FFF9000FE
:1012CD0000E03E900006FEE0FCA3E0FD900003E090
:0812DD002DFD900002E03CFC35
:1012E500AB07AA068D828C83C006C007AE83AF828A
:1012F50090002AEEF0A3EFF0D007D0061213A490C9
:0A1305000038E0FEA3E0FF021474BC
:10130F00AB07AA068D828C83EB24FFFFEA34FFFE26
:10131F00C006C007E58224FFFDE58334FFFCEB2404
:10132F0001FBE43AFAAE83AF82EF2401FFE43E9073
:10133F000006F0A3EFF0900038E0FFA3E090000864
:0C134F00CFF0A3EFF0D007D00602115938
:10115900900000EEF0A3EFF0A3ECF0A3EDF0A3EA0A
:04116900F0A3EBF014
:10116D00C007A3E0FFA3E090002ACFF0A3EFF0D0DB
:10117D00071213A4900002E0FFA3E090000ACFF045
:10118D00A3EFF0900006E0FEA3E0FFD390000BE08C
:10119D009F90000AE09E5039900000E0FEA3E0FB16
:1011AD00AA06C3900005E09B900004E09A401290BF
:1011BD000008E0FEA3E0FF1214740BBB00010A80CF
:1011CD00E190000BE004F070BA90000AE004F080AA
:0111DD00B25F
:0111DE0022EE
:0E07EA00900008EEF0A3EFF0A3ECF0A3EDF00A
:1007F800E4900012F0A3F0A3F0A3F0900008E0FE4C
:10080800A3E0FFC3EB9FFFEA9E900016F0A3EFF072
:1008180090000AE0FAA3E0FBC390000FE09BFE9073
:10082800000EE09A900018F0A3CEF0900008E0FFC8
:10083800A3E0900020CFF0A3EFF0A3EAF0A3EBF041
:10084800900016E0FEA3E0FFD39400EE648094804D
:10085800400A90001CE4F0A304F08021EF4E7008D9
:1008680090001CF0A3F0801574FF90001CF0A3F01A
:10087800C3E49FFFE49E900016F0A3EFF0900018E9
:10088800E0FEA3E0FFD39400EE64809480400A90D9
:10089800001EE4F0A304F08021EF4E700890001EC3
:1008A800F0A3F0801574FF90001EF0A3F0C3E49F3E
:1008B800FFE49E900018F0A3EFF0900018E0FEA36C
:1008C800E0FF900016E0FCA3E0FDD39FEE6480F803
:1008D800EC64809890001A4007ECF0A3EDF08005D6
:1008E800EEF0A3EFF0E4900010F0A3F090001BE00E
:1008F8002401FF90001AE03400FED3900011E09F1D
:10090800900010E09E40030209D4900020E0FEA36E
:10091800E0FFA3E0FCA3E0FD1212E5900016E0FE64
:10092800A3E0FF900013E02FF0900012E03EF0905B
:100938000018E0FEA3E0FF900015E02FF0900014EF
:10094800E03EF090001AE0FEA3E0FF900012E0FC09
:10095800A3E0FDD39FEE6480F8EC6480984020ED1E
:100968009FFFEC9E900012F0A3EFF090001CE0FEB9
:10097800A3E0FF900021E02FF0900020E03EF090EF
:10098800001AE0FEA3E0FF900014E0FCA3E0FDD312
:100998009FEE6480F8EC6480984020ED9FFFEC9E09
:1009A800900014F0A3EFF090001EE0FEA3E0FF908B
:1009B8000023E02FF0900022E03EF0900011E004C8
:0C09C800F07006900010E004F00208F44B
:0109D4002200
:100F8200900004EAF0A3EBF0900000EEF0A3EFF083
:100F9200A3ECF0A3EDF0C007A3E0FAA3E0FB9000FE
:100FA20002E0FFA3E090000ECFF0A3EFF0D0071213
:100FB20007EA900000E0FAA3E0FBFFAE02C007A33D
:100FC200E0FCA3E0FD900006E0FFA3E090000ECF5E
:100FD200F0A3EFF0D0071207EA900006E0FCA3E0CE
:100FE200FD900004E0FAA3E0FBA3E0FFA3E0900081
:100FF2000ECFF0A3EFF0900000E0FEA3E0FF120797
:10100200EA900004E0FAA3E0FBFFAE02C007900002
:1010120002E0FCA3E0FD900006E0FFA3E090000EDA
:0A102200CFF0A3EFF0D0070207EAB9
:0E05F300900000EEF0A3EFF0A3ECF0A3EDF00B
:10060100E4A3F0A3F0EBFF7E00A3EEF0A3EFF0254F
:10061100E0FFEE33FEC374039F900009F0E49E9067
:100621000008F0900006E0FEA3E0FFD3900005E093
:100631009FEE6480F8900004E06480984003020714
:10064100E9C3900001E09FFF900000E09EFE900052
:1006510004E0FCA3E0FDC3900003E09DFD900002D7
:10066100E09CFC1212E5900006E0FEA3E0FF900082
:1006710001E02FFF900000E03EFE900004E0FCA3AB
:10068100E0FDC3900003E09DFD900002E09CFC12A0
:1006910012E5900004E0FEA3E0FFC3900001E09F9B
:1006A100FF900000E09E1212D0900006E0FEA3E051
:1006B100FFC3900001E09FFF900000E09EFE9000CC
:1006C10004E0FCA3E0FDC3900003E09DFD90000267
:1006D100E09CFC1212E5900004E0FEA3E0FFC39051
:1006E1000001E09FFF900000E09EFE900006E0FC0C
:1006F100A3E0FDC3900003E09DFD900002E09CFC9F
:100701001212E5900006E0FEA3E0FF900001E02F49
:10071100FF900000E03E9000041212D3900004E02C
:10072100FEA3E0FF900001E02FFF900000E03EFEFD
:10073100900006E0FCA3E0FDC3900003E09DFD9066
:100741000002E09CFC1212E51212BD900006E0FED0
:10075100A3E0FFC3900001E09FFF900000E09EFE38
:100761009000041212D4900005E004F0700690008D
:1007710004E004F0C3900008E06480948050249069
:100781000004E0FEA3E07802C333CE33CED8F924CF
:1007910006FFE43EFE900009E02FF0900008E03EE5
:1007A100F0803F900006E0FEA3E0FFC3900005E06B
:1007B1009FFF900004E09EFEEF7802C333CE33CE5C
:1007C100D8F9240AFFE43EFE900009E02FF09000E2
:1007D10008E03EF0900007E024FFF0900006E034CE
:0807E100FFF01212BD02062414
:0107E90022ED
:060B7A00FBE4900011F005
:100B800090000CEEF0A3EFF0A3ECF0A3EDF0A3EBDC
:010B9000F074
:100B910090000CE0FEA3E0FF900014EEF0A3EFF054
:100BA100900038E0FDA3E0900016CDF0A3EDF0D366
:100BB100EF94D0EE94014003020D1790000EE0FC7B
:100BC100A3E0FD9400EC94014003020D1790001086
:100BD100E024E0F090000CE0FAA3E0FFAE02C006D2
:100BE100C0072407FBE43AFAA3E0FEA3E0240FFFC9
:100BF100E43E90002AF0A3EFF0D007D0061213A430
:100C0100900011E06003020C9FF9900010E075F074
:100C110010A4FFE97C002FFFEC35F0FE74032FF5E3
:100C21008274003EF583E493900012F0E4A3F09007
:100C31000012E030E005900016800390003DE0FFD7
:100C4100A3E0900038CFF0A3EFF0900038E0FEA3CE
:100C5100E0FF121474900012E0C313F090000DE055
:100C610004F0700690000CE004F0900013E004F032
:100C7100E0C3940840B9900014E0FFA3E090000C99
:100C8100CFF0A3EFF090000FE004F0700690000E9B
:100C9100E004F009E964106003020C0B8069E4F9D7
:100CA100900010E075F010A4FFE97C002FFFEC35F7
:100CB100F0FE74032FF58274003EF583E4939000F7
:100CC10012F0E4A3F0900013E0FFC39408503390B6
:100CD1000012E030E01F90000DE02FFF90000CE0CB
:100CE1003400FEE9FD90000FE02DFD90000EE03490
:100CF10000FC1212E5900012E0C313F0A3E004F02F
:100D010080C309E9B41099900016E0FFA3E09000B8
:060D110038CFF0A3EFF063
:010D170022B9
:08135B0090000CEFF0A3EDF08F
:10136300A3120E700000000190000DE0FF14F0EFD7
:101373006020A3E0F8A3E0F9A3E0FAA3E0FB900068
:101383000CE0FFE4FCFDFE120D4790000E120E640C
:1013930080D690000EE0FCA3E0FDA3E0FEA3E0FFF7
:0113A3002227
:0E0EA100900000EEF0A3EFF0A3ECF0A3EDF054
:100EAF00E490000BF0900004A3A3E0FEA3E0FFE4A6
:100EBF00FCFD900004120E64E4900009F09000080D
:100ECF00E0FFA3E0FEC39F4003020F81C3EF9E1418
:100EDF00FD7F0A12135BA804A905AA06AB079000B1
:100EEF0004E0FCA3E0FDA3E0FEA3E0FF120DD2E4BB
:100EFF007B0AFAF9F8120DD290000AEBF0A3E0701A
:100F0F003B900008E014FFA3E0FEC39F502EA3E028
:100F1F007024EE75F008A4FF900001E02FFF900001
:100F2F0000E035F0FE900002E0FCA3E0FDE490004D
:100F3F0011F07B20803090000B7401F0900009E0DD
:100F4F0075F008A4FF900001E02FFF900000E0353E
:100F5F00F0FE900002E0FCA3E0FD90000AE02430D8
:100F6F00FBE4900011F0120B80900009E004F002F6
:020F7F000ECC96
:010F8100224D
:1011DF00900000EEF0A3EFF0A3ECF0A3EDF0A3EA84
:0411EF00F0A3EBF08E
:1011F300E4900007F0900006E0F9A3E0FFC39950E4
:101203005CC3E99F14FD7F0A12135BA804A905AA16
:1012130006AB07900004E0FEA3E0FFE4FCFD120D23
:10122300D2E47B0AFAF9F8120DD2AF03900008EF6B
:10123300F0900007E075F008A4FF900001E02FFF95
:10124300900000E035F0FE900002E0FCA3E0FDEB2F
:0D1253002430120B7A900007E004F0809820
:01126000226B
:10102C00900000EEF0A3EFF0A3ECF0A3EDF0A3EB37
:10103C00F0A3EAF0A3E9F0900004E0FBA3E0FAA32C
:10104C00E0F9120D186079D3900001E094D0900073
:10105C0000E094014012E4F0A3F0900003E02410AF
:10106C00F0900002E03400F0D3900003E094009084
:10107C000002E094014011E4900000F0A3F0A3F012
:10108C00A3F0FF7EF8121261900000E0FEA3E0FFD7
:10109C00A3E0FCA3E0FDA3E0FBA3E0FAA3E0F912BC
:1010AC000D18120B7A900001E02408F0900000E07B
:1010BC003400F0900005E475F001120D310210437C
:0110CC002201
:10144500E4FDFCC3ED9FEE6480F8EC6480985015D4
:10145500E4FBFA0BBB00010ABA03F8BBE8F50DBDC6
:0514650000010C80DE17
:01146A00225F
:1000030000000000000000000000000000000000ED
:100013000000000808080808080800001818000075
:1000230000486C24120000000000000000000000E3
:100033000000002424247F1212127F1212120000E7
:100043000000081C2A2A0A0C1828282A2A1C080837
:1000530000000022251515152A5854545422000077
:100063000000000C1212120A76252911916E00006D
:10007300000606040300000000000000000000006A
:10008300004020101008080808080810102040003D
:1000930000020408081010101010100808040200D1
:1000A3000000000008086B1C1C6B0808000000001F
:1000B30000000000080808087F080808080000007E
:1000C300000000000000000000000000060604031A
:1000D3000000000000000000FE000000000000001F
:1000E3000000000000000000000000000606000001
:1000F3000000804040202010100808040402020081
:1001030000000018244242424242424224180000A6
:10011300000000080E08080808080808083E000048
:100123000000003C4242422020100804427E0000AE
:100133000000003C4242201820404042221C0000A4
:10014300000000203028242422227E202078000072
:100153000000007E0202021A26404042221C0000D8
:10016300000000382402021A2642424224180000EA
:100173000000007E2222101008080808080800006A
:100183000000003C4242422418244242423C000008
:10019300000000182442424264584040241C0000DE
:1001A30000000000000018180000000018180000EC
:1001B3000000000000000008000000000008080420
:1001C3000000004020100804020408102040000032
:1001D3000000000000007F0000007F00000000001E
:1001E3000000000204081020402010080402000050
:1001F3000000003C42424640201010001818000046
:100203000000001C225A555555552D42221C000052
:100213000000000808181414243C224242E700009E
:100223000000001F2222221E22424242221F0000FF
:100233000000007C4242010101010142221C000036
:100243000000001F2242424242424242221F00005B
:100253000000003F4212121E12120242423F0000EF
:100263000000003F4212121E121202020207000097
:100273000000003C2222010101712122221C000006
:10028300000000E7424242427E42424242E700000F
:100293000000003E0808080808080808083E000097
:1002A3000000007C10101010101010101010110F0F
:1002B3000000007722120A0E0A121222227700008F
:1002C300000000070202020202020202427F000053
:1002D30000000077363636362A2A2A2A2A6B00008F
:1002E300000000E346464A4A525252626247000007
:1002F3000000001C2241414141414141221C0000B8
:100303000000003F424242423E0202020207000056
:100313000000001C2241414141414D53321C600009
:100323000000003F4242423E1212222242C7000016
:100333000000007C4242020418204042423E00007A
:100343000000007F4908080808080808081C000086
:10035300000000E74242424242424242423C000025
:10036300000000E742422224241414180808000065
:100373000000006B494949495555362222220000A5
:10038300000000E7422424181818242442E7000040
:10039300000000772222141408080808081C000033
:1003A3000000007E2120101008040442423F000098
:1003B30000780808080808080808080808087800EA
:1003C3000000020204040808081010202020404006
:1003D300001E1010101010101010101010101E001E
:1003E300003844000000000000000000000000008E
:1003F300000000000000000000000000000000FFFB
:1004030000060800000000000000000000000000DB
:10041300000000000000003C4278444242FC00001F
:10042300000000030202021A26424242261A00007A
:1004330000000000000000384402020244380000BB
:1004430000000060404040784442424264D80000CB
:10045300000000000000003C427E0202423C00001B
:10046300000000F08808087E08080808083E00001D
:10047300000000000000007C22221C023C42423C9F
:10048300000000030202023A4642424242E70000F1
:100493000000000C0C00000E08080808083E0000CD
:1004A3000000003030000038202020202020221EB1
:1004B3000000000302020272120A161222770000E1
:1004C3000000000E0808080808080808083E000095
:1004D300000000000000007F9292929292B7000009
:1004E300000000000000003B4642424242E7000099
:1004F300000000000000003C42424242423C000037
:10050300000000000000001B26424242221E020798
:10051300000000000000007844424242447840E07A
:1005230000000000000000774C040404041F0000D6
:10053300000000000000007C42023C40423E0000FC
:10054300000000000008083E080808080830000002
:1005530000000000000000634242424262DC0000EF
:1005630000000000000000E74224241408080000F3
:1005730000000000000000EB49495555222200000D
:10058300000000000000007624181818246E0000F4
:1005930000000000000000E74224241418080807A4
:1005A300000000000000007E22100808447E0000C6
:1005B30000C0202020202010202020202020C00048
:1005C3001010101010101010101010101010101028
:1005D30000060808080808100808080808080600A4
:1005E3000C32C20000000000000000000000000008
:1010D9000213DEE493A3F8E493A34003F68001F23C
:1010E90008DFF48029E493A3F85407240CC8C33318
:1010F900C4540F4420C8834004F456800146F6DFE7
:10110900E4800B0102040810204080901414E47E4E
:10111900019360BCA3FF543F30E509541FFEE493DB
:10112900A360010ECF54C025E060A840B8E493A3A2
:10113900FAE493A3F8E493A3C8C582C8CAC583CACD
:10114900F0A3C8C582C8CAC583CADFE9DEE780BE85
:0114440000A7
:100D1800BB010689828A83E0225002E722BBFE02D9
:090D2800E32289828A83E493220C
:100D3100C5F0F8A3E028F0C5F0F8E582158270024D
:060D41001583E038F022EA
:100D4700E88FF0A4CC8BF0A42CFCE98EF0A42CFC4B
:100D57008AF0EDA42CFCEA8EF0A4CDA8F08BF0A4C9
:100D67002DCC3825F0FDE98FF0A42CCD35F0FCEB28
:100D77008EF0A4FEA9F0EB8FF0A4CFC5F02ECD39ED
:0F0D8700FEE43CFCEAA42DCE35F0FDE43CFC225A
:100D960075F008758200EF2FFFEE33FECD33CDCC14
:100DA60033CCC58233C5829BED9AEC99E582984097
:100DB6000CF582EE9BFEED9AFDEC99FC0FD5F0D674
:100DC600E4CEFBE4CDFAE4CCF9A88222B800C1B99E
:100DD6000059BA002DEC8BF084CFCECDFCE5F0CBDC
:100DE600F97818EF2FFFEE33FEED33FDEC33FCEB15
:100DF60033FB10D703994004EB99FB0FD8E5E4F9D0
:100E0600FA227818EF2FFFEE33FEED33FDEC33FCBC
:100E1600C933C910D7059BE99A4007EC9BFCE99AB0
:100E2600F90FD8E0E4C9FAE4CCFB2275F010EF2FF5
:100E3600FFEE33FEED33FDCC33CCC833C810D707F5
:100E46009BEC9AE899400AED9BFDEC9AFCE899F830
:0E0E56000FD5F0DAE4CDFBE4CCFAE4C8F922C3
:0C0E6400ECF0A3EDF0A3EEF0A3EFF02201
:100E7000A8828583F0D083D082120E87120E87124B
:100E80000E87120E87E473E493A3C583C5F0C58370
:100E9000C8C582C8F0A3C583C5F0C583C8C582C8CC
:010EA000222F
:00000001FF
